:020000040800F2
:1000000068070020A1010008D9250008192100086F
:10001000FD2300088D080008ED2C000800000000FA
:100020000000000000000000000000006D26000835
:10003000130A000800000000DB2500086F260008F6
:10004000BB010008BB010008BB010008BB010008A0
:10005000BB010008BB010008BB010008BB01000890
:10006000BB010008BB010008BB010008BB01000880
:10007000BB010008BB010008BB010008BB01000870
:100080002D090008BB010008BB010008BB010008E6
:10009000BB010008BB010008BB010008BB01000850
:1000A000BB010008BB010008BB010008BB01000840
:1000B000BB010008BB010008BB010008BB01000830
:1000C000BB010008BB010008BB010008BB01000820
:1000D000BB010008C92C0008D52C0008E12C000841
:1000E000BB010008BB010008BB010008BB01000800
:1000F000BB010008BB010008BB010008BB010008F0
:10010000BB010008BB010008BB010008BB010008DF
:10011000BB010008F927000815270008BB010008EB
:10012000BB010008BB01000839090008BB01000839
:10013000BB010008BB010008BB010008BB010008AF
:10014000BB010008BB010008BB010008BB0100089F
:10015000BB010008BB01000845090008BB010008FD
:10016000BB010008BB010008BB010008BB0100087F
:10017000BB010008BB010008BB0100080000000033
:10018000BB010008890A0008DFF810D000F06CFB02
:1001900000480047753B0008AFF300806807002067
:1001A0000648804706480047FEE7FEE7FEE7FEE711
:1001B000FEE7FEE7FEE7FEE7FEE7FEE705270008AD
:1001C000890100082DE9F05F0546002092469B4614
:1001D00088460646814640241BE02846414647465D
:1001E000224600F022FA53465A46C01A914110D3D3
:1001F00011461846224600F009FA2D1A67EB01084D
:100200004F4622460120002100F000FA17EB0009BA
:100210004E41201EA4F10104DFDC484631462A4647
:100220004346BDE8F09FD2B201E000F8012B491E21
:10023000FBD270470022F6E710B513460A46044683
:100240001946FFF7F0FF204610BD2DE9FE4F80460E
:1002500081EA0300C00F0C46009021F0004123F01A
:100260000045B8EB0200A94105D240462146904620
:100270001C460B46024623F00040104347D0270D92
:10028000C7F30A00C3F30A510290401A01904028B4
:100290006BDAC3F3130040F4801B0098924620B140
:1002A0000023D2EB030A63EB0B0B01985946C0F114
:1002B0004002504600F0AAF906460D4650465946FF
:1002C000019A00F0C2F910EB08006141002487EAAE
:1002D000115284EAE7731A4340D0009A62B3019A3C
:1002E000012A4FEA075215DC001B61EB02014FF0B7
:1002F000004202EA0752CDE90042001C41F580119C
:1003000032462B4600F0F9F903B0BDE8F08F4046C5
:100310002146F9E7001B61EB0201001C41F5801347
:1003200000185B412018A2F5001747EB030140EAD3
:10033000D570B6196D4111E06D084FEA360645EAF1
:10034000C0754FEA0752001B61EB0201001C41F52A
:10035000801149084FEA30000019514132462B46BE
:1003600003B0BDE8F04F00F0B9B900980122400099
:100370000023D0EB020263EBE073009821464FEAC2
:10038000E074B8EB000061EB0401E9E783F000439F
:100390005BE781F0004158E72DE9FE4F81EA030455
:1003A00004F0004421F0004100944FF0000B23F0D2
:1003B000004350EA01045ED052EA03045BD0C3F369
:1003C0000A54C1F30A552C44A4F2F3340194A0FB5F
:1003D0000254C1F3130141F48011C3F3130343F436
:1003E000801301FB024400FB034E840A970A44EA8F
:1003F000815447EA8357A4FB076802958D0A05FBE1
:1004000007854FEA932C04FB0C542705029D4FEA05
:10041000065847EA1637B5EB08056EEB070C870E52
:10042000920E47EA811742EA8312A7FB0201B6EB5C
:100430000B0164EB00042B0D43EA0C335E1844EB14
:100440001C50DA465146E7FB0201C5F313044FEA9C
:100450000B3343EA14534FEA0432019C43EA060388
:10046000A4F10C040294009CCDE900B400F045F91D
:1004700003B0BDE8F08F00200146F9E72DE9F04D0B
:1004800081EA030404F0004B21F0004514464FF0CC
:10049000000A23F0004150EA050220D054EA01028C
:1004A0001DD0C5F30A570246C5F31303C1F3130069
:1004B000C1F30A5640F4801543F48013A7EB0608F5
:1004C000101BD64608F2FD3873EB050002D308F185
:1004D000010801E092185B41B8F1000F03DA002037
:1004E0000146BDE8F08D00204FF480110646844699
:1004F0000EE0171B73EB050705D3121B63EB050317
:1005000006434CEA010C49084FEA300092185B415F
:1005100050EA0107EDD152EA030012D082EA04004A
:1005200083EA0501084305D0101BAB4106D2012226
:10053000002306E000224FF0004302E06FF00102CA
:1005400053101AEB06004CEB085110EB0A0041EB7C
:100550000B01BDE8F04D00F0C1B80EB5C10F80EA47
:10056000E0700844CA07002140F233438DE80E00D2
:100570000A460B4600F0C1F803B000BD00F000428F
:1005800030F000400AD0C10D01F56071C0F31600D3
:1005900042EA0151C208400711437047002001465A
:1005A0007047000030B5041E71F1000404DB4FF009
:1005B0000044404264EB0101141E73F1000405DBAA
:1005C0001C464FF00043524263EB0403994208BFBC
:1005D000904230BD01F0004330B421F0004150EAB8
:1005E000010206D00A0DA2F56072C1F31301002AC0
:1005F00002DC30BC00207047440F44EAC104C10053
:10060000E01830BC00EBC25000F031B8202A04DB07
:10061000203A00FA02F1002070479140C2F1200315
:1006200020FA03F3194390407047202A04DB203A54
:1006300021FA02F00021704721FA02F3D040C2F102
:1006400020029140084319467047202A06DBCB1749
:10065000203A41FA02F043EAE07306E041FA02F37D
:10066000D040C2F12002914008431946704700294A
:10067000A8BF7047401C490008BF20F00100704728
:1006800010B4B0FA80FC00FA0CF050EA010404BF88
:1006900010BC704749B1CCF1200421FA04F411FADE
:1006A0000CF118BF012121430843A3EB0C01CB1D22
:1006B0004FEA00614FEA102042BF002010BC704793
:1006C00000EBC35010440029A4BF10BC7047401C6D
:1006D000490008BF20F0010010BC704710B5141E7F
:1006E00073F1000408DA401C41F1000192185B41EB
:1006F0001A4301D120F0010010BD2DE9F04D9246C2
:100700009B4611B1B1FA81F202E0B0FA80F22032D8
:100710009046FFF77BFF04460F4640EA0A0041EA95
:100720000B0153465A46084313D0114653EA0100C1
:1007300019D0C8F140025046FFF777FF05460E4634
:10074000504659464246FFF761FF084305D0012055
:1007500004E020463946BDE8F08D0020054346EA16
:10076000E0762C4337430A986305E40AA0EB0800BF
:100770000022FD0A44EA47540A3002D5002001460F
:10078000E9E7010510196941DDE9084500196941EA
:10079000BDE8F04DA2E770B521F0004303430CD053
:1007A000C1F30A550024D5EB040564EB0403D61706
:1007B000AD1AB34102DB0020014670BD201841EBA9
:1007C000025170BD2DE9F04D00231A461B1A8A41D3
:1007D00003DB00200146BDE8F08DC1F30A52C1F3EE
:1007E000130141F480154FF0000BD10702D100181E
:1007F0006D41521E0027044640F2FF11384601EBBE
:10080000620A3E468046024600204FF48011FFF700
:100810000CFFC2197141BB1846EB0100B4EB030C8D
:1008200075EB000C04D3E41A65EB000517460E4681
:10083000241908F101006D4180463428E3DDF919DF
:1008400046EB0600091BA84103D24FF0FF321346C6
:1008500001E0002213461BEB070046EB0A51BDE8FE
:10086000F04DFFF73BBF0000064C074D06E0E06887
:1008700040F0010394E8070098471034AC42F6D3E7
:10088000FFF786FCF03C0008103D0008FEE7000082
:1008900070B51D061304DC170902CA172B4344EA7E
:1008A000E5742DED048B19432243014302D54FF02B
:1008B000FF3400E00124C80DC1F3160100EE101A48
:1008C0009FED171A40EA4220F8EE400AC0B27F3886
:1008D00080EE810AF7EE000A30EE208AFFF73DFE37
:1008E00041EC110B9FED0F0B02F02AFAB0EE409A8B
:1008F00000EE104AF0EE609AB8EEC00A20EE080A48
:1009000010EE100AFFF73AFE53EC192BFFF744FDE7
:10091000FFF760FEBDEC048B00EE100A70BD000016
:10092000FEFFFF4A0000000000000040014800F008
:1009300007B90000D4020020014800F001B900000E
:1009400014020020014800F0FBB8000074020020EF
:1009500001681823CAB2103AB2FBF3F2054B6FF3E9
:100960000901032A9B5CC36500D9091D81650846FE
:10097000704700003A3C000810B5014600208B6922
:100980008A6A4FF0C07453B1B3F5005F15D072B1ED
:10099000012A0CD0022A0AD0032A09D104E01AB194
:1009A000012A06D0022A03D1C96AC90100D5012053
:1009B00010BDC96AA142FAD010BD002AF7D0012AA1
:1009C000F2D0022AF3D0032AF3D010BD30B5046868
:1009D000256825F480252560046863608368402BC2
:1009E000036803D099600068C26030BD9A600068F7
:1009F000C16030BD0378FC2B09D1024412F8012CF0
:100A0000FD2A04D14078884201D10120704700209E
:100A1000704770474FF4077170B5B0FBF1F2B0FB4F
:100A2000F1F501FB1204094E03E0304600F010F826
:100A30006D1E002DF9D1002C06D04FF47A70604362
:100A4000BDE8704000F004B870BD0000603D0800D3
:100A50000B49097848434FF0E021401E48610022CD
:100A60008A61086940F0010008610869C30701D084
:100A7000C003FAD5086920F0010008618A61704757
:100A80004C00002072B6FEE770472DE9F0410446A5
:100A9000876D00F0BFFA064694F83500002502285D
:100AA00006D08020606584F834500120BDE8F081D4
:100AB0002068016821F0160101602068416921F079
:100AC00080014161206C08B9A06C20B120680168E8
:100AD00021F0080101602068016821F00101016036
:100AE0000CE000F097FA801B052807D920206065EC
:100AF000032084F8350084F83450D7E72068006874
:100B0000C007EED194F85C103F208840B860012007
:100B100084F8350084F834500020C7E790F8351089
:100B2000022903D08021416501207047052180F80A
:100B300035100068016821F0010101600020704754
:100B40002DE9F84304464FF00009CDF800906348C2
:100B50004FF41651A56D0068B0FBF1F72E6894F8BC
:100B60005C10082000FA01F131420FD021680A68B8
:100B700052070BD50A6822F004020A6094F85C1050
:100B80008840A860606D40F00100606594F85C10DA
:100B90004FF0010808FA01F0304208D02168496995
:100BA000090604D5A860606D40F00200606594F805
:100BB0005C1004208840304208D021680968890709
:100BC00004D5A860606D40F00400606594F85C1086
:100BD00010208840304218D021680968090714D5D0
:100BE000A86020680168490304D50068000308D59F
:100BF000A16C07E00168C90503D4016821F0080170
:100C00000160216C09B12046884794F85C102020CF
:100C10008840304231D021680968C9062DD5A860C6
:100C200094F8350005282068016806D0490347D5A7
:100C3000006800031DD4616C1CE021F01601016006
:100C40002068416921F080014161206C08B9A06CE5
:100C500020B12068016821F00801016094F85C105F
:100C60003F208840A86084F8358084F83490216D56
:100C70001FE0E16B09B120468847606D00282BD04A
:100C8000606DC00714D0052084F835002068016825
:100C900021F0010101600098401C0090B84203D887
:100CA00020680068C007F6D184F8358084F8349055
:100CB000E16C002910D001B02046BDE8F0430847A0
:100CC0000168C905D5D4016821F01001016084F8DC
:100CD000358084F83490CCE7BDE8F8830C00002020
:100CE0002DE9F041044600F095F906465CB102207A
:100CF00084F83500002584F834502068016821F01C
:100D0000010101600DE00120BDE8F08100F082F9F1
:100D1000801B052805D920206065032084F8350054
:100D2000F2E720680068C007F0D122681168204807
:100D30000140D4E901031843D4E90336334318438F
:100D400063691843A3691843E3691843236A184386
:100D50000843616A042903D1D4E90B1319430843FA
:100D6000106020684069666A20F0070130460E4333
:100D7000012704280CD1A06A0643E06A40B120464E
:100D8000FFF7FAFD20B14020606584F83570BAE7BE
:100D9000206846612046FFF7DBFD94F85C203F2188
:100DA00091408160656584F835700020ACE70000F3
:100DB0003F8010F02DE9F0410446866D90F8340034
:100DC000002501280DD0012084F8340094F83570F6
:100DD0000020012F07D084F8340002252846BDE802
:100DE000F0810220FBE7022784F835706065204619
:100DF000FFF7ECFD94F85C103F208840B06020685D
:100E0000016841F016010160206C20B12068016882
:100E100041F0080101602068016841F001010160B2
:100E2000DCE700002DE9F84FDFF8BCA10022012526
:100E300003264FF00F090AF1040BAAF1040E00BFBC
:100E40000B6805FA02F42340A34270D10F7907F032
:100E50000307012F01D0022F16D187684FEA4208FD
:100E600006FA08FC27EA0C07D1F80CC00CFA08FCBB
:100E70004CEA070CC0F808C04768A7430C79C4F3D4
:100E8000001494403C4344600C79E443A4070AD026
:100E9000C4684FEA420C06FA0CF7BC438F6807FAA5
:100EA0000CF72743C7600C7904F00304022C12D11D
:100EB000D40800EB840CDCF820405707FF0E09FA39
:100EC00007F824EA0804D1F8108008FA07F848EA7D
:100ED0000408CCF8208004684FEA420C06FA0CF7AC
:100EE000BC430F7907F0030707FA0CF727430760A5
:100EF0004C6814F4403F70D03C4C276847F480475E
:100F00002760246822F0030704F480440094384CDE
:100F100007EB040CDCF8084897074FEA177809FA42
:100F200008F7BC43334FB84202D1002724E054E015
:100F3000314FB84201D101271EE0304FB84201D1F4
:100F4000022719E02E4FB84201D1032714E02D4F9C
:100F5000B84201D104270FE02B4FB84201D1052739
:100F60000AE02A4FB84201D1062705E0284FB842CF
:100F700001D1072700E0082707FA08F72743CCF834
:100F80000878DAF800405746D1F804C09C435FEA7D
:100F9000CC2C00D51C433C60DBF800405F46D1F808
:100FA00004C09C435FEA8C2C00D51C433C60DEF8F7
:100FB00000407746D1F804C09C435FEA8C3C00D5E2
:100FC0001C433C60084F083F3C68D1F804C09C4378
:100FD0005FEACC3C00D51C433C60521C102AFFF455
:100FE0002FAFBDE8F88F0000083C014044380240B4
:100FF00000300140000002400004024000080240AE
:10100000000C024000100240001402400018024090
:10101000001C02400148806870470000000000206A
:101020000248816802781144816070470000002006
:101030000B4810B5016841F400710160016841F48A
:1010400080610160016841F480710160032000F05B
:1010500077F80F2000F006F800F024F8002010BD0B
:10106000003C024070B50D4D04464FF47A7128786B
:10107000B1FBF0F00A490968B1FBF0F000F012FB97
:1010800048B9102C07D200222146501E00F038F833
:1010900000206C6070BD012070BD000000000020C9
:1010A0000C0000200E4808B5016841F48041016041
:1010B000006800F4804000900948001F016841F07A
:1010C000805101600068002200F0805000901146BD
:1010D000512000F015F8BDE80840512000F002B89A
:1010E00044380240002809DB00F01F020121914032
:1010F0004009800000F1E020C0F8001170470000B6
:10110000F0B40E4B1B680C46C3F30223C3F1070572
:10111000042D00D90425191D072901D2002300E060
:10112000DB1E012606FA05F1491E214099409E402A
:10113000761E16403143F0BC01F0F1BD0CED00E02D
:10114000064900F0070208684FF6FF03184040EA1E
:101150000220034A10430860704700000CED00E0D5
:101160000000FA052DE9F0470E46050065D0DFF8CE
:101170001481D8F80000F7B200F00700B04207D29F
:1011800088F80070D8F8000000F00700B04254D191
:1011900028683D4C810712D5400703D5206840F4EC
:1011A000E05020602878000703D5206840F46040B4
:1011B00020602068A96820F0F000084320602878AB
:1011C000C0072DD0304968680839012812D002289C
:1011D00013D0032811D00968890700292DDA216866
:1011E00021F0030101432160FFF714FF814641F222
:1011F000883A0EE009688903EFE709688901ECE79E
:10120000FFF708FFA0EB0901514502D90320BDE813
:10121000F0872068696800F00C00B0EB810FEFD117
:10122000D8F80010404601F00701B14207D9077015
:10123000006800F00700B04201D00120E7E72878FD
:10124000400705D52068E96820F4E0500843206095
:101250002878000706D52068296920F4604040EA14
:10126000C100206000F038F82168084AC1F303117A
:10127000515CC8400649086006480068FFF7F2FE66
:101280000020C4E7003C024008380240423C00080D
:101290000C0000200400002004480549006809688B
:1012A000044AC1F38221515CC84070470C00002001
:1012B00008380240523C00080448054900680968A3
:1012C000044AC1F34231515CC84070470C00002011
:1012D00008380240523C0008154810B5006810F06C
:1012E0000C02144813D04110042A0FD0082A0ED142
:1012F0000F4C241F2268236802F03F025B0207D5CF
:101300002068C0F38810A0FB010106E0084610BD6C
:101310002168C1F38811A1FB00010023FEF752FFF1
:101320002168C1F30141491C4900B0FBF1F010BD37
:10133000083802400024F4002DE9F84F04006ED074
:101340002078DFF84C93C007A9F104054AD009F1D1
:1013500004000168C1F38101012908D00068C0F3CD
:10136000810002280AD1D9F80000400206D5286879
:10137000800337D560680028E1D033E06068B0F5BD
:10138000803F10D0B0F5A02F286810D020F4803016
:101390002860286820F4802028606068A8B1FFF7E2
:1013A00039FE06460DE0286840F48030F4E740F44A
:1013B00080202860F7E700BFFFF72CFE801B642821
:1013C00073D828688003F7D50CE0FFF723FE0646A4
:1013D00005E000BFFFF71EFE801B6428F0D82868D8
:1013E0008003F7D42078DFF8AC8280074FF0000A42
:1013F0003ED5A748001D016811F00C0F08D0006809
:10140000C0F3810002280BD1D9F80000400207D4B4
:101410002868800716D5E068012800D112E033E182
:10142000E068B8B10120C8F80000FFF7F3FD0646F8
:1014300005E000BFFFF7EEFD801B0228C0D828683A
:101440008007F7D52868216920F0F80040EAC1003C
:1014500028600DE0C8F800A0FFF7DCFD064604E0B8
:10146000FFF7D8FD801B02281FD828688007F7D413
:101470002078000722D5864F87486169703771B19F
:1014800001210160FFF7C6FD064604E0FFF7C2FD3B
:10149000801B022809D838688007F7D50EE0C0F80D
:1014A00000A0FFF7B7FD064605E082E0FFF7B2FDBA
:1014B000801B02287DD838688007F7D42078400741
:1014C00068D5DFF8CCB100270BF13C0BDBF800004E
:1014D000C0000BD4DBF8001041F08051CBF80010B5
:1014E000DBF80000012700F0805000906B4E306860
:1014F000C00510D4306840F480703060FFF78AFD7A
:10150000009005E0FFF786FD0099401A022850D8A8
:101510003068C005F6D55E4EA0686C3601280FD045
:101520000528306810D020F001003060306820F0CD
:1015300004003060A068B8B1FFF76CFD00900FE0C8
:10154000306840F00100F4E740F004003060F7E755
:10155000FFF760FD0099411A41F28830814266D858
:1015600030688007F4D50EE0FFF754FD009007E0E7
:10157000FFF750FD0099411A41F28830814256D858
:1015800030688007F4D42FB1DBF8001021F08051CF
:10159000CBF80010A069C8B33D49091D0968C1F323
:1015A000810102294AD00228504607D0C8F86000BD
:1015B00000E03CE0FFF72EFD04463BE04746C8F85C
:1015C0006000FFF727FD064605E000BFFFF722FD9C
:1015D000801B02282BD828688001F7D4D4E90701A2
:1015E0000843A16A2E4A490802EB0141626A41EAB6
:1015F0008211084394F82C1040EA0161C9F80010E8
:1016000001203866FFF706FD044606E03EE000BF15
:10161000FFF700FD001B022809D828688001F7D5D4
:1016200034E000BFFFF7F6FC001B022802D90320BC
:10163000BDE8F88F28688001F4D427E00128F7D0AE
:10164000D9F80000E26900F4800191421CD1226ABD
:1016500000F03F01914217D147F6C071626A014024
:10166000B1EB821F10D1A26A4FF0FF3300F440317A
:1016700003EB5202B1EB024F06D194F82C1000F0AC
:101680007060B0EB016F01D00120D1E70020CFE7FF
:101690000438024000004742800E4742007000407C
:1016A0000000FFFF10B5401EB0F1807F01D3012084
:1016B00010BD4FF0E02460610F21601701F02FFB97
:1016C0000020A06107202061002010BD70477047F6
:1016D00070B590F83C20012A32D0012480F83C40BB
:1016E000022280F83D2003685A689D6822F0700647
:1016F0000A6832435A60134B02689A4214D0B2F11E
:10170000804F11D0104B9A420ED0104B9A420BD002
:101710000F4B9A4208D00F4B9A4205D00E4B9A427B
:1017200002D00E4B9A4204D1496825F08003194338
:10173000916080F83D40002180F83C10084670BD63
:10174000022070BD0000014000040040000800407D
:10175000000C00400004014000400140001800401F
:1017600010B5040003D094F83D0010B107E001204B
:1017700010BD002084F83C00204600F01FF8022035
:1017800084F83D00211D206800F0CAFF012084F884
:10179000460084F83E0084F83F0084F8400084F856
:1017A000410084F8420084F8430084F8440084F83F
:1017B000450084F83D00002010BD000008B5006819
:1017C0000B49884212D10B48016841F010010160B9
:1017D0000068002200F01000009011463620FFF74C
:1017E0008FFCBDE808403620FFF77CBC08BD000038
:1017F000001000404038024090F83D10012901D00F
:1018000001207047022180F83D100168CA6842F04B
:101810000102CA6000681149884214D0B0F1804FBB
:1018200011D00F4988420ED00E4988420BD00E4984
:10183000884208D00D49884205D00D49884202D01F
:101840000C49884204D1816801F00701062903D0C0
:10185000016841F001010160002070470000014073
:101860000004004000080040000C0040000401405B
:10187000004001400018004070472DE9F041044647
:101880000068C66805694FF00007A90713D5B107BE
:1018900011D5F91E01610120207720688069800739
:1018A000204602D0FFF7E8FF04E000F07EF8204673
:1018B00000F07CF82777680716D5700714D52168E3
:1018C0006FF004000861022020772068806910F41E
:1018D000407F204602D0FFF7CFFF04E000F065F81C
:1018E000204600F063F82777280715D5300713D571
:1018F00021686FF008000861042020772068C06923
:101900008007204602D0FFF7B7FF04E000F04DF853
:10191000204600F04BF82777E80616D5F00614D5D8
:1019200021686FF010000861082020772068C069E6
:1019300010F4407F204602D0FFF79EFF04E000F045
:1019400034F8204600F032F82777E80708D0F0078F
:1019500006D021686FF001000861204600F028F8E9
:10196000280608D5300606D521686FF0800008618A
:101970002046FFF7ABFE680608D5700606D521683D
:101980006FF040000861204600F054F8A8060AD520
:10199000B00608D521686FF0200008612046BDE838
:1019A000F041FFF794BEBDE8F0817047704700003A
:1019B0001C4910B5884234D11B4C002021780129E4
:1019C00001D051B10AE06188491C89B26180A288C6
:1019D000914203D36080207000E06080617801292B
:1019E00001D051B10AE02189491C89B22181E288E4
:1019F000914203D32081607000E020816189491CFD
:101A000089B2618164290CD360819FED080B53EC8E
:101A1000102B94ED040B51EC100BFEF7B7FCC4E94E
:101A2000040110BDAC0000205000002079E92631EF
:101A300008AC7C3F704738B5044690F84200202837
:101A400001D0022038BD61B15AB1012020630020CD
:101A50006063204601F072F80028F3D1216B012960
:101A600001D0012038BD21680A68496800912168C9
:101A70000C3151E8002F42F0100241E80023002B06
:101A8000F5D138BD10B500680F4A904214D1142921
:101A900012D10E490E4A00200B5C1354401CC0B2F8
:101AA0001428F9D3142263210948FEF7A3FF18B1C3
:101AB0000849074800F090FBBDE81040192203498F
:101AC0000548FFF7B8BF0000004400407E0000203A
:101AD000970000203403002084010020704700009C
:101AE000F8B5016804460868CA684B6910F00F0F22
:101AF0004FF0000559D003F0010602F49077374308
:101B000065D0C10705D0D10503D5616C41F0010155
:101B10006164410705D5D90703D0616C41F002012A
:101B20006164810705D5D90703D0616C41F00401D8
:101B30006164010707D502F02001314303D0616CD5
:101B400041F008016164616C00293AD0800604D537
:101B5000900602D5204600F009FF20684069616CBC
:101B6000C0F38010090700D460B3204600F0C9FE1E
:101B700020684069400621D52068143050E8001FD5
:101B800021F0400140E80012002AF5D1E06BA8B135
:101B90006E490165E06BFEF7C1FF002811D0E06BD4
:101BA000016D01B0BDE8F040084783060FD59306EC
:101BB0000DD52046BDE8F84000F0D8BE2046FFF71E
:101BC0008DFFF8BD2046FFF789FF6564F8BD266BE1
:101BD0002023012E7DD1C6067BD5D60679D508688F
:101BE0004868009048694FF00206400641D5E16B15
:101BF000086840680004000CE8D0A28D8242E5D954
:101C0000E085C869B0F5807F2DD020680C3050E8A1
:101C1000001F21F4807140E80012002AF5D12068ED
:101C2000143050E8001F21F0010140E80012002AA2
:101C3000F5D12068143050E8001F21F0400140E841
:101C40000012002AF5D184F84230256320680C3058
:101C500050E8001F21F0100140E80012002AF5D1E1
:101C6000E06BFEF712FF6663A08DE18D401A81B232
:101C70002AE0A08DE18D401A81B2E08D0028A5D028
:101C80000029A3D022680C3252E8000F20F4907093
:101C900042E80007002FF5D12068143050E8002FEB
:101CA00022F0010240E80027002FF5D184F84230ED
:101CB000256320680C3050E8002F22F0100240E825
:101CC0000023002BF5D166632046FFF7DBFEF8BD4D
:101CD000FFE705062BD5150629D594F841002128E4
:101CE000F5D1A068B0F5805F01D12069B0B1206A5C
:101CF000411C2162216800784860E08C401E00048D
:101D0000000CE084E3D12068C16821F08001C1604B
:101D10002068C16841F04001C160D8E7206A0088AE
:101D2000C0F308004860206A801C2062E5E7400696
:101D3000CDD55006CBD5CA68204622F04002CA60F5
:101D400084F8413000F0E7F9C1E7000005280008F9
:101D500070B5040004D094F84100002510B106E0ED
:101D6000012070BD84F84050204600F023F8242064
:101D700084F841002068C16821F40051C160204608
:101D800000F056FE2068016921F49041016120684D
:101D9000416921F02A0141612068C16841F4005184
:101DA000C1606564202084F8410084F842006563C6
:101DB000002070BD2DE9F04786B006461421684624
:101DC000FEF738FA814880493368804A1038022586
:101DD00000244FF003088B4233D1116841F4801185
:101DE0001160116801F480110591016841F004014E
:101DF0000160016801F004010591016841F00801EA
:101E000001600068CDE9024800F0080005909014D8
:101E1000CDE900050826694604966D48FFF702F8EB
:101E20000420CDE90005CDE90248694604966948D9
:101E3000FEF7F8FF002211463520FFF761F9352043
:101E40005CE0DFF894C10721DFF890A14FF0006754
:101E50004FF48069634556D15C4A121D136843F004
:101E600010031360126802F010020592026842F03B
:101E7000010202600068029400F001000590CDE9C3
:101E800003814FF4C060CDE9000569465046FEF776
:101E9000C9FF544D5248B8462860C5E90174C5E9E8
:101EA00003494F466C614FF48039AC61C5E907497D
:101EB00028466C62FEF714FF08B1FEF7E3FDF563F8
:101EC000AE63484D464860357830E5E8020840206A
:101ED00091C5444845F814496030AC61C5E90749EB
:101EE0006C62FEF7FDFE08B1FEF7CCFDB563002283
:101EF00011462520AE63FFF703F92520FFF7F2F81E
:101F000006B0BDE8F087DFF8E0C0634537D113685D
:101F100043F400331360126802F400320592026841
:101F200042F0010202600068029400F00100059096
:101F3000CDE903810C20CDE9000569465046FEF746
:101F400071FF284D2948C0352860C5E90174C5E9ED
:101F500003496C614FF44030AC61C5E90740284645
:101F60006C62FEF7BDFE08B1FEF78CFDF563002242
:101F700011462620AE63FFF7C3F82620BEE71C4EAD
:101F8000B342BDD1136843F480231360126802F496
:101F900080220592026842F0020202600068029408
:101FA00000F002000590CDE903814FF44060CDE9D7
:101FB000000569460F48FEF735FF0022114627202D
:101FC000FFF79EF8272099E7005000404038024074
:101FD00000080240000C02400010014000000240D6
:101FE0004064024014020020004400408860024027
:101FF000004800400004024090F84230202B01D0FD
:102000000220704721B11AB10023036300F0DEBD46
:102010000120704710B5044600681049884207D176
:10202000204600F027FE01000D4800D0012101707C
:102030000C492068884203D10B48007800F028FA48
:102040000A492068884202D1204600F077F8BDE8AE
:102050001040012204490648FFF7CEBF001001409E
:1020600010000020004800403000002000500040D8
:10207000CC01002070472DE9F843044690F8410058
:10208000984616460D46202802D00220BDE8F88367
:1020900085B17EB100206064212084F84100FEF704
:1020A000B9FFA6848146E684A0682027B0F5805F4A
:1020B00002D003E00120E9E7206910B12E46002597
:1020C0000EE000260CE08021204600F09AFDA8B921
:1020D000C6B116F8010B21684860E08C401EE08410
:1020E000E08C4B464FF00002CDF800800028EAD18A
:1020F0004FF04001204600F084FD40B184F841706B
:102100000320C3E735F8020BC0F30800E3E784F8C7
:1021100041700020BAE77047FEE7000010B50122C9
:1021200004490548FFF768FFBDE810406420FEF74A
:1021300071BC00001C000020F400002070B5104CA1
:10214000104D0122207861782954401C2070611CB8
:102150000D48FFF751FF207809280FD1287838B9AA
:10216000287AEF2804D168780A2801D100F00EF807
:1021700004490020086048600872207070BD0000AB
:102180001B0000206C000020F4000020104910B556
:10219000002041F8090F486008720D4909310870A4
:1021A0000B204870022004220A54401C0728FBDD43
:1021B000EF20087206494FF47A7309220931054865
:1021C000FFF759FFBDE810401420FEF723BC0000C4
:1021D0006C000020F400002070B50D460446837AA0
:1021E000427A017AC079FEF753FB00F0F7F985EDEA
:1021F000000AA37B627B217BE07AFEF749FB00F0BB
:10220000EDF985ED010AA37C627C217CE07BFEF781
:102210003FFB00F0E3F985ED020A70BD154808B5F3
:10222000016841F400110160016801F4001100919E
:10223000016841F4800101600068002200F4800020
:10224000009011461020FEF75BFF1020FEF74AFFBA
:10225000002211463A20FEF753FF3A20FEF742FFD4
:10226000002211464620FEF74BFFBDE808404620FD
:10227000FEF738BF30380240154808B5016841F014
:1022800080010160016801F080010091016841F066
:1022900001010160016801F001010091016841F054
:1022A00002010160016801F002010091016841F042
:1022B00004010160016801F004010091016841F02E
:1022C00008010160006800F00800009008BD0000EF
:1022D000303802401CB500240F4800940D49019489
:1022E000016042F2CF01C0E901146321C160802185
:1022F0008161FFF735FA08B1FEF7C4FB0094694627
:1023000005480194FFF7E4F9002801D0FEF7BAFB75
:102310001CBD000000100040AC0000200C4810B5AF
:102320000A4901604FF4E1314160002181600C22D3
:10233000C160C0E904128161C161FFF709FD002895
:1023400003D0BDE81040FEF79DBB10BD005000401B
:10235000F40000200C4810B50A4901604FF4E13147
:102360004160002181600C22C160C0E904128161DA
:10237000C161FFF7EDFC002803D0BDE81040FEF777
:1023800081BB10BD001001403C0100200C4810B57D
:102390000A4901604FF461214160002181600C22F3
:1023A000C160C0E904128161C161FFF7D1FC00285E
:1023B00003D0BDE81040FEF765BB10BD00440040EF
:1023C000840100200C4810B50A4901604FF4E13146
:1023D0004160002181600C22C160C0E9041281616A
:1023E000C161FFF7B5FC002803D0BDE81040FEF73F
:1023F00049BB10BD00480040CC010020FEE70000B2
:102400000B4910B50870F3204870AB20887001208C
:10241000C870002008716B2048714FF47A7306224F
:102420000448FFF728FEBDE810400A20FEF7F2BA84
:1024300054030020CC01002010B50120FFF7E0FF7D
:102440000220FFF7DDFF0320FFF7DAFF0420FFF78C
:10245000D7FFBDE810400520FFF7D2BF0A4810B5EE
:102460000068C16841F02001C160012207490648A7
:10247000FFF7C2FD002000F081F86420FEF7CAFAE1
:10248000BDE81040FFF7D8BFCC010020300000208D
:10249000F0B5384A012411461779CB78591CCEB2D1
:1024A0003549C7B10225012F1ED0022F12D1D07895
:1024B00001EB400030F8023C00206B2B1DD0107166
:1024C000D07015705FF0000221F81200521CD2B2D9
:1024D0000A2AF9D3F0BD012801D00528FAD11471D8
:1024E00021F81300D670F0BD21F81300D6700A2E23
:1024F00001D26B28F7D11571D9E7D07010710B8814
:10250000012B02D0052B10D01AE04B88FD2B17D1E0
:102510008B889F2B14D114705FF0000221F81200F9
:10252000521CD2B2042AF9D3F0BD4B88FD2B02D045
:10253000272B18D004E08B889F2B01D1937843B1CF
:102540005FF0000221F81200521CD2B20A2AF9D31D
:10255000F0BD94705FF0000221F81200521CD2B25C
:10256000042AF9D3F0BDC888097940EA01205081D6
:10257000F0BD000028000020400300202DE9F041BC
:10258000134C05466B262070FE2060709820A070CA
:102590000020E0704FF47A7726713B4605222146F1
:1025A0000C48FFF768FD0A20FEF734FA25700A2070
:1025B00060706D20A070E6703B46042221460548FD
:1025C000FFF759FDBDE8F0410A20FEF723BA0000ED
:1025D00054030020CC010020FEE77047DFED1C0A09
:1025E0009FED1C1A10B560EE200A1B4C1B4980EEB3
:1025F000810A9FED1B1A84ED000AD4ED010A70EEEA
:10260000600A10EE900A884202DD30EE410A06E0D0
:1026100010EE900A1349884203D930EE010A84ED86
:10262000000A10EE100A6060FDF7A8FF41EC100BE5
:102630000D4890ED001B51EC100B53EC112BFDF7E6
:1026400004FEFDF7C7FF00EE100A84ED000A10BD7E
:1026500000003443D60F49402000002000003443DE
:102660000000B443000034C3600000207047FEF750
:10267000D7BC000030B593B030216846FDF7DAFDD5
:1026800014210CA8FDF7D6FD1C480025016841F077
:1026900080510160006800F0805011901848016876
:1026A00041F4804101600068022400F480401190F0
:1026B00001200090000401908001CDE9064008AAA5
:1026C0000420A82182E813000B906846FEF734FE30
:1026D00008B172B6FEE70CA90F2081E831004FF473
:1026E000A0500F90109005210CA8FEF73BFD00288C
:1026F00001D072B6FEE713B030BD00004038024092
:10270000007000400248016841F4700101607047A8
:1027100088ED00E00148FFF7B0B80000AC000020F1
:10272000F0B50268294C2A4D2A4E2B4F2B4B4FF007
:10273000804CA04209D0604507D0A84205D0B042E5
:1027400003D0B84201D0984204D122F0700E4A68FA
:1027500042EA0E02A0421BD0604519D0A84217D011
:10276000B04215D0B84213D0984211D01C4DA842A7
:102770000ED01C4DA8420BD01B4DA84208D01B4DBB
:10278000A84205D01A4DA84202D01A4DA84203D142
:1027900022F44075CA682A434D6922F080022A4318
:1027A00002608A68C2620A688262A04201D09842CE
:1027B00001D109690163012141610169C90703D0A0
:1027C000016921F001010161F0BD0000000001403C
:1027D0000004004000080040000C004000040140DC
:1027E0000040014000440140004801400018004002
:1027F000001C0040002000400148FFF771B90000B4
:10280000F400002010B5806B0021C185C184FFF762
:1028100065F910BD70B5846B2068406994F841106B
:10282000C0F3C0100025212904D118B1E584204649
:1028300000F08EF82068406994F84210C0F38010D0
:10284000222904D118B1E585204600F05AF8606CC1
:1028500040F0100060642046FFF740F970BD10B5ED
:102860000146806B096809684FF00002C9052ED443
:10287000C28501680C3151E8003F23F4807341E8C0
:102880000034002CF5D10168143151E8003F23F0E9
:10289000010341E80034002CF5D10168143151E8FE
:1028A000003F23F0400341E80034002CF5D1202103
:1028B00080F84210016B012909D101680C3151E8FF
:1028C000003F23F0100341E80034002CF5D14263AF
:1028D000016B012902D0FFF79DFB10BD818DFFF731
:1028E000D1F810BD10B5806B01214163016B012946
:1028F00002D0FFF7BFFB10BD818D4908FFF7C2F87A
:1029000010BD01680C3151E8002F22F4907241E8AB
:102910000023002BF5D10168143151E8002F22F07B
:10292000010241E80023002BF5D1016B012909D1F7
:1029300001680C3151E8002F22F0100241E8002319
:10294000002BF5D1202180F842100021016370474F
:1029500001680C3151E8002F22F0C00241E8002349
:10296000002BF5D1202180F84110704708B590F870
:102970004210222901D0022008BD82684FF4805302
:102980009A4201D1016921B1816A9A421BD04AB1B0
:102990000AE00268816A5268C2F308020A80816A0A
:1029A000891C08E0026972B10268526802F07F0275
:1029B0000A70816A491C8162C18D491E0904090C93
:1029C000C18503D01BE002685268F1E70168CA685C
:1029D00022F02002CA600168CA6822F48072CA60CC
:1029E00001684A6922F001024A61202180F8421000
:1029F00000214163026B012A03D0FFF70BFB00208B
:102A000008BD016301680C3151E8002F22F010026B
:102A100041E80023002BF5D101680A68D20602D5EF
:102A20000A6849680091818DFFF72CF8E7E70000FC
:102A300070B5044600680169E26821F44051114311
:102A400001612169A068E269084361691143084393
:102A50002168CA6849F20C639A430243CA6020683D
:102A60004169A26921F440711143416131492068F3
:102A7000884202D03049884202D1FEF71DFC01E0B5
:102A8000FEF70AFCE2690023192164253226B2F51B
:102A9000004F626828D0A0FB0101930F9200FDF760
:102AA00091FB0146B0FBF5F06FF01802504301EBCB
:102AB000800006EB0010B0FBF5F000F0F002B1FB77
:102AC000F5F002EB0012B1FBF5F06FF0180358437C
:102AD00001EB800006EB0010B0FBF5F000F00F00FA
:102AE00021681044886070BDA0FB010192185B4111
:102AF000FDF768FB0146B0FBF5F00201B1FBF5F014
:102B00006FF01803584301EB800006EBC000B0FBE8
:102B1000F5F000F0F80002EB4002B1FBF5F058438D
:102B200001EB800006EBC000B0FBF5F000F0070001
:102B3000D6E70000001001400014014038B5816262
:102B400004468285002013466064222284F84220D5
:102B5000E56B1B4AEA63E56B1A4A2A64E56B1A4A7D
:102B6000EA64E26B10650A462168E06B091DFEF716
:102B700021F92068016840680090206948B1206808
:102B80000C3050E8001F41F4807140E80012002A28
:102B9000F5D12068143050E8001F41F0010140E8F1
:102BA0000012002AF5D12068143050E8001F41F0CF
:102BB000400140E80012002AF5D1002038BD000095
:102BC0005F280008E5280008152800088162828532
:102BD000C28500214164222180F84210016921B19F
:102BE0000168CA6842F48072CA6001684A6942F0AA
:102BF00001024A610068C16841F02001C160002003
:102C000070472DE9F843984617460D460446089E3E
:102C100024E0701C22D0FEF7FDF9A0EB0800B042C2
:102C20001AD8CEB12068C168490717D5802D15D0B4
:102C3000402D13D00168C94309070FD4016800254E
:102C4000406800902046FFF75CFE0820606484F82E
:102C500040500120BDE8F8830320FBE720680068AE
:102C600035EA000004D00020B842D2D00020F1E7BD
:102C70000120F9E770B5124D0122AC1C2878697863
:102C80002154401C2870611E0E48FFF7B5F92878C2
:102C9000072811D12078552808D12079FF2805D19F
:102CA0006079FF2802D1A079FF2807D00020C5F85D
:102CB0000200E88028722870002070BD012070BDDD
:102CC00012000020F40000200148FEF709BF0000B8
:102CD0003C0100200148FEF703BF000084010020F2
:102CE0000148FEF7FDBE0000CC010020FEE703B462
:102CF00001984100009850EAC12018BF04204A0DF5
:102D000018BF40F0010040F2FF72B2EB515F08BF04
:102D100040F00200012808BF052002B070470907F3
:102D2000090E002804DB00F1E02080F80014704751
:102D300000F00F0000F1E02080F8141D7047000043
:102D40002DE9F04D2DED040B2DED0E8B96B0DDE948
:102D50002550279CDDF890A025F0004624F000487F
:102D6000BAF1000F14BF0121002101EB4502FC491B
:102D700053184A1093422AD3002814BF012300237A
:102D800003EB44030B44F7498B4220D358EA00017C
:102D90009FEDF59B76D0DFF8D8B35D4503D1BAF14E
:102DA000000F05D188E0BAF1000F08BF002100D064
:102DB000012101EB450111F5001F08D8002814BFBF
:102DC0000121002101EB440111F5001F0BD99DEDFC
:102DD000261B9DED240B16B0BDEC0E8B04B0BDE898
:102DE000F04D00F069BE0027002DBCBFE1498845C9
:102DF00021DAE1498845A8BF02271CDAC3451ADC5D
:102E0000DE4901EB2851142908DDC1F1340220FA12
:102E100002F101FA02F282420DD108E058B9C1F183
:102E2000140228FA02F101FA02F2424503D101F03C
:102E30000101C1F1020756EA0A0124D1002C22DA6D
:102E4000002D18BF022F01D0012F0AD0022000F060
:102E50007FFE16B0BDEC0E8B04B0BDE8F04D00F067
:102E600013BE022000F074FE00F00EFE51EC100BB9
:102E700081F0004141EC100B16B0BDEC0E8B04B09C
:102E8000BDE8F08D18E09FEDBEAB9FEDBF8B002835
:102E900071D1B848804522D105F1804010F58010ED
:102EA00008BFBAF1000F07D0B3450ADC002CA8BF59
:102EB0009DED260BE0DA0DE0B0EE490AF0EE690A6E
:102EC000DAE7002C06DA9DED260B51EC100B81F0B1
:102ED00000416FE0AE48784490ED000BCCE7D84558
:102EE0004DD1002C48DA2EB186423AD1BAF1000F0A
:102EF00042D126E0BAF1000F13D0022000F028FEE4
:102F000000F0F6FD8DED020B9DED240B8DED000B19
:102F100010EE900A039961F31E0003909DED020BE1
:102F2000AAE78DED02AB9DED240B1AEE901A10EE80
:102F3000900A8DED000B61F31E0003909DED020BD6
:102F40009AE78DED028B9DED240B18EE901A10EE92
:102F5000900A8DED000B61F31E0003909DED020BB6
:102F60008AE709DA9DED240B51EC190B53EC102B79
:102F7000FDF784FA1EE020E09DED240B7CE78642FD
:102F80001BDAB4F1804F0DD0A4F10050B0F1FF5026
:102F900013D1002D11DB9DED240B51EC100B00F033
:102FA00015FE07E09DED240B53EC102B51EC100B9C
:102FB00000F0C2BC41EC100B5EE79DED240B51EC20
:102FC000100B00F0CBFDBAF1000FCDE90E0142D19C
:102FD0009FED710B46B3A6F1E040B0F17F600CD0DD
:102FE0005E4538D1002D00DAA7B3022F0CBF0120B7
:102FF0004FF0FF30FDF7B1FADCE7002D01DD002CCA
:103000000DDA002D01DD002C1FDB002D16DA002C5F
:1030100014DB012F08BF9FED620B3FF42DAFB0EE24
:103020004A0AF0EE6A0A27E7022F18BF002D0CD0DB
:10303000012F0AD1002DFFF61FAF06E0002DB8BF0B
:10304000002C08DA012F3FF417AFB0EE480AF0EE7B
:10305000680A11E71BE0012000EBE57050EA070168
:1030600015D0791EB0EE498AF0EE698A084308BF90
:103070009FED4D8B4E480025804570DD4D494E48F3
:10308000884514DDB0420DDB002C19DB2FE0012058
:1030900000F05EFD16B0BDEC0E8B04B0BDE8F04D47
:1030A00000F016BDB34502DC002C09DC1FE08642AF
:1030B00002DA002C1BDA03E05E452BDD002C16DD66
:1030C000022000F045FD00F013FD8DED020B53ECE6
:1030D0001A2B51EC180BFDF75FF9CDE900010399AC
:1030E000019861F31E0003909DED020BC4E60220DF
:1030F00000F02EFD00F00CFD10EE901A18EE900A74
:103100008DED020B8DED008B61F31E0003909DEDA4
:10311000020BB1E69DED0E0B53EC192B51EC100B8D
:10312000FDF734F99FED260BCDE9080153EC102B88
:103130009DED080B51EC100BFDF72EF99FED221BB6
:1031400053EC112BFDF725F99DED081B53EC112BCA
:10315000FDF722F99FED1E1B53EC112B3CE08CE098
:10316000FFFF1F00FFFF0F00000000000000F03F06
:103170000000F03F0000F07F0000404301FCFFFF33
:10318000000000000000F07F0000000000000000D0
:103190000E0E000000000000000000000000008093
:1031A000000000000000F0FF000000000000F0BF81
:1031B0000000E0410000F043FFFFEF3F000000008F
:1031C000000000000000D03F555555555555D53FDE
:1031D000000000000000E03FFDF7DBF89DED080B6C
:1031E00041EC1A0B53EC102B51EC100BFDF7D4F8FB
:1031F00053EC1A2BFDF7D0F841EC1A0B9FEDFE0BA8
:1032000053EC102B9DED080B51EC100BFDF7C4F89F
:1032100041EC1B0B9FEDFA0B51EC1A0B53EC102BEE
:10322000FDF7BAF841EC1A0B9FEDF70B53EC102B9E
:103230009DED080B51EC100BFDF7AEF853EC1A2B7B
:10324000FDF7A4F841EC1A0B51EC1B0B53EC1A2BB5
:10325000FCF7FBFF0690CDE906519DED060B53EC04
:103260001B2B51EC100BFDF791F853EC1A2BFDF7CB
:1032700090F841EC100B00F0A1B90020B6F5801FCA
:103280000EDA9FEDE30B53EC102B9DED0E0B51EC82
:10329000100BFDF781F8CDE90E016FF034000E46FA
:1032A00000EB2650A0F2FF37C6F31300DA4940F0D6
:1032B0007F6646F040568842D8BF002408DDD749D3
:1032C0008142C8BF012403DC0024A6F580167F1CC0
:1032D000D348784400EBC4000F9690ED00CB9DEDF1
:1032E0000E0B53EC1C2B51EC100BFDF74FF89DED22
:1032F0000E0B41EC1B0B53EC1C2B51EC100BFCF791
:10330000A4FF41EC100B51EC190B53EC102BFDF703
:10331000B5F841EC1D0B51EC1B0B53EC1D2BFDF7CD
:103320003BF841EC1A0BBF488DED10AB784410957B
:1033300090ED000B4FF0005040EA660000EB844037
:103340008DED080B00F5002009909DED080B53EC66
:103350001C2B51EC100BFDF719F89DED0E1B53ECD7
:10336000112BFDF716F841EC100B53EC102B9DEDD3
:10337000100B51EC100BFDF70FF89DED080B41EC15
:103380001C0B53EC102B9DED100B51EC100BFDF7AB
:1033900003F853EC1B2BFCF7FCFF53EC1C2BFCF746
:1033A000F5FF53EC1D2BFCF7F7FF41EC1C0B53EC26
:1033B0001A2B51EC1A0BFCF7EFFF41EC1B0B9A4850
:1033C0000621B0EE4B0AF0EE6B0A784400F0E0FA0A
:1033D000B0EE401AF0EE601AB0EE41DAF0EE61DACB
:1033E00053EC1B2B51EC1B0BFCF7D6FF53EC1D2BA6
:1033F000FCF7D2FF9DED100B41EC1B0B53EC1A2B8D
:1034000051EC100BFCF721FF53EC1C2BFCF7C4FF15
:1034100053EC1B2BFCF719FF9DED100B41EC1B0B24
:1034200053EC102B51EC100BFCF7B6FF41EC1D0BCD
:103430009FED7FEB53EC1E2BFCF707FF53EC1B2B90
:10344000FCF703FF0890CDE908519DED080B53EC04
:103450001E2B51EC100BFCF799FF53EC1D2BFCF7C6
:1034600095FF53EC1B2BFCF794FF9DED080B41ECF3
:103470001D0B53EC102B9DED100B51EC100BFCF7BA
:103480008BFF41EC1B0B53EC1A2B51EC1D0BFCF783
:1034900083FF9DED080B41EC1A0B53EC102B51EC04
:1034A0001C0BFCF779FF53EC1A2BFCF7CEFE41EC1A
:1034B0001A0B51EC1B0B53EC1A2BFCF7C6FE0C90AD
:1034C000CDE90C519DED0C0B53EC1B2B51EC100B6B
:1034D000FCF75CFF53EC1A2BFCF75BFF41EC1B0B7A
:1034E0009FED550B53EC102B9DED0C0B51EC100B7D
:1034F000FCF752FF41EC1A0B9FED510B51EC1B0BEB
:1035000053EC102BFCF748FF41EC1B0B9FED4E0BCF
:1035100053EC102B9DED0C0B51EC100BFCF73CFF0A
:1035200053EC1B2BFCF791FE41EC100B4848784400
:1035300000EBC40090ED001B51EC100B53EC112B71
:10354000FCF783FE41EC1B0B3846FDF706F8CDE98E
:10355000080153EC1B2B51EC1A0BFCF776FE41ECE7
:10356000100B3C48784400EBC40090ED00CB51ECCC
:10357000100B53EC1C2BFCF768FE9DED081B53EC65
:10358000112BFCF762FE0690CDE906519DED080B6C
:1035900053EC102B9DED060B51EC100BFCF7F6FED7
:1035A00053EC1C2BFCF7F2FE53EC1A2BFCF7EEFE4F
:1035B00053EC1B2BFCF7EDFE41EC100B9DED261B95
:1035C00053EC102B8DED001B00959DED260B51EC5F
:1035D000100BFCF7E1FE9DED000B41EC1A0B53ECD8
:1035E000102B9DED260B51EC100BFCF7CFFE9DED43
:1035F000061B53EC112B2FE0000000604715F73F2E
:10360000FE822B654715F73F44DF5DF80BAE543E55
:1036100000000000000040438E9803007AB60B00C3
:103620008A090000B8090000C2080000000000007C
:103630000000000000000840000000E009C7EE3F65
:10364000FD033ADC09C7EE3FF5015B14E02F3EBEF7
:103650004E07000008070000FCF79EFE53EC1A2BF3
:10366000FCF7F3FD9DED060B41EC1A0B53EC102B10
:103670009DED000B51EC100BFCF78EFECDE90C011B
:103680009DED0C0B51EC1A0B53EC102BFCF7DDFDF0
:10369000CDE902010C46AA498C422FDB611A08438E
:1036A00018D19DED0C0B53EC102B9DED020B51EC42
:1036B000100BFCF76BFE41EC1B0B9FEDA30B51ECC9
:1036C0001A0B53EC102BFCF7C0FD53EC1B2BFCF733
:1036D00069FF2DD2022000F03BFA00F009FA10EE4B
:1036E000901A18EE900A8DED020B8DED008B61F3B0
:1036F0001E0003909DED020BFFF7BEBB944A24F021
:103700000041914214D39349214408437FF4EFAC24
:103710009DED0C0B53EC102B9DED020B51EC100B9F
:10372000FCF734FE53EC1A2BFCF73CFF7FF6DFACC2
:1037300024F000408849894A002601EB205182424A
:103740002BDA481C4FF4801121FA00F02044844AFF
:10375000C0F30A517A44A1F2FF3192ED000B814A85
:103760008DED080BCA4020EA0202C0F3130040F4BA
:103770008010C1F1140120FA01F60992002CB8BFA3
:1037800076429DED080B53EC102B9DED0C0B51EC8C
:10379000100BFCF7FBFDCDE90C019DED0C0B51EC82
:1037A0001A0B53EC102BFCF750FD9FED6F0B08909C
:1037B000CDE9085153EC102B9DED080B51EC100B8B
:1037C000FCF7EAFD41EC1B0B9FED690B53EC102B52
:1037D0009DED080B51EC100BFCF7DEFD9DED0C0B85
:1037E00041EC1C0B53EC102B9DED080B51EC100B16
:1037F000FCF7CCFD53EC1A2BFCF7CBFD9FED5E1BC9
:1038000053EC112BFCF7C8FD53EC1C2BFCF71DFDF2
:1038100041EC1A0B51EC1B0B53EC1A2BFCF715FD6A
:10382000CDE902019DED020B53EC1B2B51EC100B6B
:10383000FCF7ACFD53EC1A2BFCF7ABFD9DED020B36
:1038400041EC1A0B53EC102B51EC100BFCF7A4FDC0
:10385000CDE908014A489DED080B0521784400F0A8
:1038600097F89DED081B51EC100B53EC112BFCF756
:1038700093FD9DED021B53EC112BFCF78AFDCDE966
:1038800006019DED020B53EC1A2B51EC100BFCF7CB
:1038900083FD53EC1A2BFCF7D8FC9FED3B0B41EC5E
:1038A0001A0B53EC102B9DED060B51EC100BFCF793
:1038B0006DFD9DED060B41EC1B0B53EC102B9DEDAC
:1038C000020B51EC100BFCF767FD53EC1B2BFCF7C4
:1038D000D5FD53EC1A2BFCF759FD9DED021B53EC63
:1038E000112BFCF753FD53EC192BFCF752FDCDE9DE
:1038F000020101EB065001150029C8BF039015DC39
:103900009DED020B324651EC100BFCF744FFFFF724
:10391000EEF9042808BF00F0FBF832469DED020BDB
:1039200051EC100BFCF737FFCDE902019DED020BC6
:1039300051EC180B53EC102BFCF72EFDFFF73ABBA4
:103940000000904000000000FE822B654715973C68
:1039500000CC904000346F3F01FCFFFF0000E03FCF
:1039600090050000FFFF0F0000000000432EE63F1F
:10397000396CA80C615C20BEEF39FAFE422EE63F9E
:103980006004000000000000000000000000004093
:1039900070B504462DED028B4D1E00EBC500B0EE58
:1039A000408AF0EE608A90ED000B35F0060017D0EB
:1039B00053EC182B51EC100BFCF7EEFC41EC100B08
:1039C0006D1E04EBC50090ED001B51EC100B53EC89
:1039D000112BFCF73AFC41EC100B35F00600E7D157
:1039E000022D36D0042D1CD0062D1CBFBDEC028B41
:1039F00070BD53EC182B51EC100BFCF7CDFC94ED83
:103A00000A1B53EC112BFCF720FC53EC182BFCF792
:103A1000C3FC94ED081B53EC112BFCF716FC41EC96
:103A2000100B53EC182B51EC100BFCF7B5FC94ED7C
:103A3000061B53EC112BFCF708FC53EC182BFCF77E
:103A4000ABFC94ED040B53EC102BFCF7FEFB41ECAC
:103A5000100B53EC182B51EC100BFCF79DFC94ED64
:103A6000021B53EC112BFCF7F0FB53EC182BFCF76B
:103A700093FC94ED001B53EC112BFCF7E6FBBDEC23
:103A8000028B41EC100B70BD9FED070B10B553EC92
:103A9000102B9FED070B51EC100BFCF7EFFC41ECEA
:103AA000100B10BD0000000000000000000000002E
:103AB000000000000000F03F10B553EC112B51EC5A
:103AC000100BFCF7C2FB41EC100B10BD0000000016
:103AD0009FED050B10B553EC102B51EC100BFCF7C0
:103AE000CDFC41EC100B10BD0000000000000000F8
:103AF0009FED050B10B553EC102B51EC100BFCF7A0
:103B00004BFC41EC100B10BD0000000000000070E9
:103B10009FED050B10B553EC102B51EC100BFCF77F
:103B20003BFC41EC100B10BD000000000000001039
:103B300002E008C8121F08C1002AFAD17047704776
:103B4000002001E001C1121F002AFBD170470000D4
:103B500001490860704700006800002082B0CDE98C
:103B6000000121F0004001909DED000B02B051ECEE
:103B7000100B7047FDF75CFAFEF77CFDFEF77CFB4F
:103B8000FEF74CFBFEF7E6FBFEF700FCFEF7A2FBA0
:103B9000FEF718FCFEF7C2FB192209490948FDF798
:103BA0004AFFFEF75BFCFEF747FCFEF7B7FA43F26D
:103BB000C820FCF72FFF0448FDF71EFEFEE70000BB
:103BC0007E00002084010020AC00002000B52DED17
:103BD000048B83B041EC190BFCF7F4FD41EC180B9E
:103BE00018EE100A18EE901A8DED008B002818BF01
:103BF0000120084320F00040C0F17F6000F1E04068
:103C0000C00F14D019EE101A19EE900A8DED009B1A
:103C1000002918BF0121084320F00040C0F17F6057
:103C200000F1E040C00F04BF0120FFF791FF51EC0D
:103C3000180B03B0BDEC048B00BD00061016000687
:103C40001016000000000000000001020304060737
:103C50000809000000000102030400000000000049
:103C6000000000000000F03F000000000000F83FEE
:103C700000000000000000000000004003B8E23F28
:103C8000000000000000000006D0CF43EBFD4C3EDA
:103C9000033333333333E33FFFAB6FDBB66DDB3FCF
:103CA0004D268F515555D53F01411DA96074D13F17
:103CB00065DBC9934A86CD3FEF4E454A287ECA3F11
:103CC0003E5555555555C53F93BDBE166CC166BF93
:103CD0002CDE25AF6A56113FF16BD2C541BDBBBE8C
:103CE000D0A4BE726937663E0000000000000000EC
:103CF000103D0008000000206C000000303B000870
:103D00007C3D00086C000020FC060000403B0008E1
:103D10000100000010000000000000000024F4007A
:103D20000000000000000000000000000000000093
:103D30000000000000000000010001000000000081
:103D40000000000000000000000000003333333F9B
:103D50000000000000000000000000000000000063
:103D60000000000000000000000000000000000053
:0C3D700000000000000000000000000047
:040000050800018965
:00000001FF
