:020000040800F2
:1000000060070020A10100083523000889200008AE
:100010003D220008E7080008F92900080000000058
:100020000000000000000000000000005523000850
:10003000530A00080000000037230008DD230008F1
:10004000BB010008BB010008BB010008BB010008A0
:10005000BB010008BB010008BB010008BB01000890
:10006000BB010008BB010008BB010008BB01000880
:10007000BB010008BB010008BB010008BB01000870
:1000800085090008BB010008BB010008BB0100088E
:10009000BB010008BB010008BB010008BB01000850
:1000A000BB010008BB010008BB010008BB01000840
:1000B000BB010008BB010008BB010008BB01000830
:1000C000BB010008BB010008BB010008BB01000820
:1000D000BB010008D5290008E1290008ED29000826
:1000E000BB010008BB010008BB010008BB01000800
:1000F000BB010008BB010008BB010008BB010008F0
:10010000BB010008BB010008BB010008BB010008DF
:10011000BB010008BB01000881240008BB010008E6
:10012000BB010008BB010008BB010008BB010008BF
:10013000BB010008BB010008BB010008BB010008AF
:10014000BB010008BB010008BB010008BB0100089F
:10015000BB010008BB010008BB010008BB0100088F
:10016000BB010008BB010008BB010008BB0100087F
:10017000BB010008BB010008BB0100080000000033
:10018000BB010008410B0008DFF810D000F036FB7F
:1001900000480047C9410008AFF300806007002015
:1001A0000648804706480047FEE7FEE7FEE7FEE711
:1001B000FEE7FEE7FEE7FEE7FEE7FEE77124000844
:1001C000890100082DE9F05F0546002092469B4614
:1001D00088460646814640241BE02846414647465D
:1001E000224600F009F953465A46C01A914110D3ED
:1001F00011461846224600F0F0F82D1A67EB010868
:100200004F4622460120002100F0E7F817EB0009D5
:100210004E41201EA4F10104DFDC484631462A4647
:100220004346BDE8F09FD2B201E000F8012B491E21
:10023000FBD270470022F6E710B513460A46044683
:100240001946FFF7F0FF204610BD2DE9FE4F81EA69
:10025000030404F0004421F0004100944FF0000B2F
:1002600023F0004350EA01045ED052EA03045BD05D
:10027000C3F30A54C1F30A552C44A4F2F334019495
:10028000A0FB0254C1F3130141F48011C3F3130323
:1002900043F4801301FB024400FB034E840A970AD7
:1002A00044EA815447EA8357A4FB076802958D0A04
:1002B00005FB07854FEA932C04FB0C542705029D90
:1002C0004FEA065847EA1637B5EB08056EEB070C00
:1002D000870E920E47EA811742EA8312A7FB0201BA
:1002E000B6EB0B0164EB00042B0D43EA0C335E18F4
:1002F00044EB1C50DA465146E7FB0201C5F31304F8
:100300004FEA0B3343EA14534FEA0432019C43EAA9
:100310000603A4F10C040294009CCDE900B400F0A3
:10032000C1F803B0BDE8F08F00200146F9E70EB533
:10033000C10F80EAE0700844CA07002140F233434D
:100340008DE80E000A460B4600F0ACF803B000BD85
:1003500000F0004230F000400AD0C10D01F560719C
:10036000C0F3160042EA0151C2084007114370472A
:1003700000200146704701F0004330B421F00041F5
:1003800050EA010206D00A0DA2F56072C1F3130112
:10039000002A02DC30BC00207047440F44EAC1044C
:1003A000C100E01830BC00EBC25000F035B830B5E9
:1003B0000B46014600202022012409E021FA02F523
:1003C0009D4205D303FA02F5491B04FA02F52844BD
:1003D000151EA2F10102F1DC30BD202A04DB203A17
:1003E00000FA02F1002070479140C2F1200320FA88
:1003F00003F3194390407047202A04DB203A21FA86
:1004000002F00021704721FA02F3D040C2F120022D
:1004100091400843194670470029A8BF7047401C07
:10042000490008BF20F00100704710B4B0FA80FC0A
:1004300000FA0CF050EA010404BF10BC704749B147
:10044000CCF1200421FA04F411FA0CF118BF0121B7
:1004500021430843A3EB0C01CB1D4FEA00614FEA97
:10046000102042BF002010BC704700EBC350104466
:100470000029A4BF10BC7047401C490008BF20F0F1
:10048000010010BC704710B5141E73F1000408DAA7
:10049000401C41F1000192185B411A4301D120F048
:1004A000010010BD2DE9F04D92469B4611B1B1FA05
:1004B00081F202E0B0FA80F220329046FFF78DFF21
:1004C00004460F4640EA0A0041EA0B0153465A46E9
:1004D000084313D0114653EA010019D0C8F1400275
:1004E0005046FFF789FF05460E465046594642469C
:1004F000FFF773FF084305D0012004E0204639468A
:10050000BDE8F08D0020054346EAE0762C433743F2
:100510000A986305E40AA0EB08000022FD0A44EAF9
:1005200047540A3002D500200146E9E701051019B9
:100530006941DDE9084500196941BDE8F04DA2E7D0
:100540002DE9FE4F804681EA0300C00F0C46009063
:1005500021F0004123F00045B8EB0200A94105D28B
:100560004046214690461C460B46024623F000407A
:10057000104347D0270DC7F30A00C3F30A51029076
:10058000401A019040286BDAC3F3130040F4801B3B
:100590000098924620B10023D2EB030A63EB0B0BC9
:1005A00001985946C0F140025046FFF716FF064633
:1005B0000D4650465946019A00F032F910EB0800FA
:1005C0006141002487EA115284EAE7731A4340D05C
:1005D000009A62B3019A012A4FEA075215DC001B08
:1005E00061EB02014FF0004202EA0752CDE90042FE
:1005F000001C41F5801132462B46FFF753FF03B034
:10060000BDE8F08F40462146F9E7001B61EB02018F
:10061000001C41F5801300185B412018A2F500175B
:1006200047EB030140EAD570B6196D4111E06D0842
:100630004FEA360645EAC0754FEA0752001B61EBE8
:100640000201001C41F5801149084FEA30000019F1
:10065000514132462B4603B0BDE8F04FFFF713BFC0
:100660000098012240000023D0EB020263EBE0730C
:10067000009821464FEAE074B8EB000061EB0401FA
:10068000E9E783F000435BE781F0004158E72DE99B
:10069000F04D81EA030404F0004B21F000451446BC
:1006A0004FF0000A23F0004150EA050220D054EA3E
:1006B00001021DD0C5F30A570246C5F31303C1F367
:1006C0001300C1F30A5640F4801543F48013A7EBDE
:1006D0000608101BD64608F2FD3873EB050002D35E
:1006E00008F1010801E092185B41B8F1000F03DA4C
:1006F00000200146BDE8F08D00204FF48011064631
:1007000084460EE0171B73EB050705D3121B63EB42
:10071000050306434CEA010C49084FEA30009218E1
:100720005B4150EA0107EDD152EA030012D082EAA0
:10073000040083EA0501084305D0101BAB4106D233
:100740000122002306E000224FF0004302E06FF098
:10075000010253101AEB06004CEB085110EB0A0093
:1007600041EB0B01BDE8F04DFFF78DBE70B521F0F8
:10077000004303430CD0C1F30A550024D5EB040514
:1007800064EB0403D617AD1AB34102DB0020014627
:1007900070BD201841EB025170BDC1F30A52C1F384
:1007A000130140F2FF3341F480119A4202DA002033
:1007B0000146704740F233439A42A2F2334202DCD0
:1007C0005242FFF719BEFFF708BE000030B5041E05
:1007D00071F1000404DB4FF00044404264EB01017E
:1007E000141E73F1000405DB1C464FF00043524217
:1007F00063EB0403994208BF904230BD064C074D9D
:1008000006E0E06840F0010394E8070098471034E0
:10081000AC42F6D3FFF7BCFC80430008A0430008BD
:10082000202A06DBCB17203A41FA02F043EAE073B4
:1008300006E041FA02F3D040C2F1200291400843A1
:10084000194670472DE9F04D00231A461B1A8A41BC
:1008500003DB00200146BDE8F08DC1F30A52C1F36D
:10086000130141F480154FF0000BD10702D100189D
:100870006D41521E0027044640F2FF11384601EB3D
:10088000620A3E468046024600204FF48011FFF780
:10089000B3FDC2197141BB1846EB0100B4EB030C68
:1008A00075EB000C04D3E41A65EB000517460E4601
:1008B000241908F101006D4180463428E3DDF9195F
:1008C00046EB0600091BA84103D24FF0FF32134646
:1008D00001E0002213461BEB070046EB0A51BDE87E
:1008E000F04DFFF7D0BDFEE770B51D061304DC1711
:1008F0000902CA172B4344EAE5742DED048B194312
:100900002243014302D54FF0FF3400E00124C80D1B
:10091000C1F3160100EE101A9FED171A40EA4220AB
:10092000F8EE400AC0B27F3880EE810AF7EE000A86
:1009300030EE208AFFF7FBFC41EC110B9FED0F0B13
:1009400002F096F8B0EE409A00EE104AF0EE609A8F
:10095000B8EEC00A20EE080A10EE100AFFF7F8FC05
:1009600053EC192BFFF771FCFFF705FDBDEC048B71
:1009700000EE100A70BD0000FEFFFF4A00000000FC
:1009800000000040014800F037B900006C01002071
:1009900001681823CAB2103AB2FBF3F2054B6FF3A9
:1009A0000901032A9B5CC36500D9091D81650846BE
:1009B00070470000D042000810B5014600208B6946
:1009C0008A6A4FF0C07453B1B3F5005F15D072B1AD
:1009D000012A0CD0022A0AD0032A09D104E01AB154
:1009E000012A06D0022A03D1C96AC90100D5012013
:1009F00010BDC96AA142FAD010BD002AF7D0012A61
:100A0000F2D0022AF3D0032AF3D010BD30B5046827
:100A1000256825F480252560046863608368402B81
:100A2000036803D099600068C26030BD9A600068B6
:100A3000C16030BD0378FC2B09D1024412F8012CAF
:100A4000FD2A04D14078884201D10120704700205E
:100A5000704770472DE9FF410027DDE90A460097FE
:100A60008DF80000FD208DF801008DF8021001972F
:100A7000100A8DF803008DF804208DF80530200E43
:100A80008DF80600200C0C9D8DF807000297200AB7
:100A90008DF8080003978DF809406B208DF80A60E7
:100AA0008DF80C008DF80B500D21684603F006FC04
:100AB000BDE8FF811FB5002100918DF800000A20DC
:100AC0008DF801006D208DF802006B2001910291DC
:100AD00003918DF803000421684603F0EFFB1FBD6E
:100AE0001FB5002200928DF80000FE208DF8010055
:100AF00098208DF8020001926B208DF803108DF87C
:100B00000400029203920521684603F0D7FB1FBD43
:100B10001FB5002100918DF80000FF208DF8010025
:100B200066208DF802006B200191029103918DF8EF
:100B300003000421684603F0C1FB1FBD72B6FEE747
:100B400070472DE9F0410446876D00F0D1FA064662
:100B500094F835000025022806D08020606584F8CE
:100B600034500120BDE8F0812068016821F01601B1
:100B700001602068416921F080014161206C08B961
:100B8000A06C20B12068016821F008010160206894
:100B9000016821F0010101600CE000F0A9FA801B5E
:100BA000052807D920206065032084F8350084F8E3
:100BB0003450D7E720680068C007EED194F85C1085
:100BC0003F208840B860012084F8350084F8345014
:100BD0000020C7E790F83510022903D08021416535
:100BE00001207047052180F835100068016821F068
:100BF00001010160002070472DE9F84304464FF0E1
:100C00000009CDF8009063484FF41651A56D0068B7
:100C1000B0FBF1F72E6894F85C10082000FA01F19F
:100C200031420FD021680A6852070BD50A6822F0BA
:100C300004020A6094F85C108840A860606D40F07F
:100C40000100606594F85C104FF0010808FA01F0AB
:100C5000304208D021684969090604D5A860606D52
:100C600040F00200606594F85C1004208840304237
:100C700008D021680968890704D5A860606D40F034
:100C80000400606594F85C1010208840304218D051
:100C900021680968090714D5A8602068016849031C
:100CA00004D50068000308D5A16C07E00168C905F8
:100CB00003D4016821F008010160216C09B12046CC
:100CC000884794F85C1020208840304231D0216859
:100CD0000968C9062DD5A86094F835000528206854
:100CE000016806D0490347D5006800031DD4616C34
:100CF0001CE021F0160101602068416921F08001AB
:100D00004161206C08B9A06C20B12068016821F015
:100D10000801016094F85C103F208840A86084F8C6
:100D2000358084F83490216D1FE0E16B09B12046D5
:100D30008847606D00282BD0606DC00714D0052057
:100D400084F835002068016821F0010101600098F5
:100D5000401C0090B84203D820680068C007F6D154
:100D600084F8358084F83490E16C002910D001B00B
:100D70002046BDE8F04308470168C905D5D401689D
:100D800021F01001016084F8358084F83490CCE7BC
:100D9000BDE8F8830C0000202DE9F041044600F086
:100DA000A7F906465CB1022084F83500002584F8D6
:100DB00034502068016821F0010101600DE001203C
:100DC000BDE8F08100F094F9801B052805D92020AA
:100DD0006065032084F83500F2E720680068C007EA
:100DE000F0D12268116820480140D4E9010318437A
:100DF000D4E903363343184363691843A36918439E
:100E0000E3691843236A18430843616A042903D13C
:100E1000D4E90B1319430843106020684069666ADF
:100E200020F0070130460E43012704280CD1A06AA8
:100E30000643E06A40B12046FFF7BEFD20B14020E6
:100E4000606584F83570BAE7206846612046FFF790
:100E50009FFD94F85C203F2191408160656584F896
:100E600035700020ACE700003F8010F02DE9F04124
:100E70000446866D90F83400002501280DD001202D
:100E800084F8340094F835700020012F07D084F8DE
:100E9000340002252846BDE8F0810220FBE7022746
:100EA00084F8357060652046FFF7B0FD94F85C105B
:100EB0003F208840B0602068016841F01601016061
:100EC000206C20B12068016841F0080101602068B1
:100ED000016841F001010160DCE7000070B50446E3
:100EE00000F006F90546601C02D00448007804446E
:100EF00000F0FEF8401BA042FAD370BD00000020B5
:100F00002DE9F84FDFF8BCA10022012503264FF0A0
:100F10000F090AF1040BAAF1040E00BF0B6805FAD1
:100F200002F42340A34270D10F7907F00307012F89
:100F300001D0022F16D187684FEA420806FA08FC52
:100F400027EA0C07D1F80CC00CFA08FC4CEA070C95
:100F5000C0F808C04768A7430C79C4F30014944054
:100F60003C4344600C79E443A4070AD0C4684FEAC8
:100F7000420C06FA0CF7BC438F6807FA0CF72743BC
:100F8000C7600C7904F00304022C12D1D40800EBE2
:100F9000840CDCF820405707FF0E09FA07F824EA12
:100FA0000804D1F8108008FA07F848EA0408CCF8D9
:100FB000208004684FEA420C06FA0CF7BC430F7914
:100FC00007F0030707FA0CF7274307604C6814F48F
:100FD000403F70D03C4C276847F480472760246826
:100FE00022F0030704F480440094384C07EB040C0F
:100FF000DCF8084897074FEA177809FA08F7BC4366
:10100000334FB84202D1002724E054E0314FB842B8
:1010100001D101271EE0304FB84201D1022719E06B
:101020002E4FB84201D1032714E02D4FB84201D111
:1010300004270FE02B4FB84201D105270AE02A4FC1
:10104000B84201D1062705E0284FB84201D1072751
:1010500000E0082707FA08F72743CCF80878DAF801
:1010600000405746D1F804C09C435FEACC2C00D521
:101070001C433C60DBF800405F46D1F804C09C4351
:101080005FEA8C2C00D51C433C60DEF800407746BC
:10109000D1F804C09C435FEA8C3C00D51C433C6003
:1010A000084F083F3C68D1F804C09C435FEACC3C41
:1010B00000D51C433C60521C102AFFF42FAFBDE842
:1010C000F88F0000083C01404438024000300140E5
:1010D000000002400004024000080240000C0240F0
:1010E000001002400014024000180240001C0240A0
:1010F00001488068704700000000002002488168B5
:101100000278114481607047000000200B4810B540
:10111000016841F400710160016841F4806101607F
:10112000016841F480710160032000F077F80F201E
:1011300000F006F800F024F8002010BD003C02404A
:1011400070B50D4D04464FF47A712878B1FBF0F07C
:101150000A490968B1FBF0F000F012FB48B9102C05
:1011600007D200222146501E00F038F800206C60A3
:1011700070BD012070BD0000000000200C000020A8
:101180000E4808B5016841F480410160006800F430
:10119000804000900948001F016841F080510160C3
:1011A0000068002200F0805000901146512000F0AD
:1011B00015F8BDE80840512000F002B8443802405C
:1011C000002809DB00F01F02012191404009800046
:1011D00000F1E020C0F8001170470000F0B40E4BA1
:1011E0001B680C46C3F30223C3F10705042D00D985
:1011F0000425191D072901D2002300E0DB1E01266A
:1012000006FA05F1491E214099409E40761E16407F
:101210003143F0BC01F01ABC0CED00E0064900F0CF
:10122000070208684FF6FF03184040EA0220034A0D
:1012300010430860704700000CED00E00000FA0564
:101240002DE9F0470E46050065D0DFF81481D8F887
:101250000000F7B200F00700B04207D288F8007033
:10126000D8F8000000F00700B04254D128683D4C87
:10127000810712D5400703D5206840F4E050206074
:101280002878000703D5206840F46040206020687B
:10129000A96820F0F000084320602878C0072DD00E
:1012A000304968680839012812D0022813D0032871
:1012B00011D00968890700292DDA216821F003017E
:1012C00001432160FFF714FF814641F2883A0EE0A6
:1012D00009688903EFE709688901ECE7FFF708FF70
:1012E000A0EB0901514502D90320BDE8F087206831
:1012F000696800F00C00B0EB810FEFD1D8F8001056
:10130000404601F00701B14207D90770006800F0BC
:101310000700B04201D00120E7E72878400705D553
:101320002068E96820F4E05008432060287800072E
:1013300006D52068296920F4604040EAC100206099
:1013400000F038F82168084AC1F30311515CC84025
:101350000649086006480068FFF7F2FE0020C4E76F
:10136000003C024008380240D84200080C0000202F
:10137000040000200448054900680968044AC1F3D4
:101380008221515CC84070470C00002008380240A0
:10139000E84200080448054900680968044AC1F3A6
:1013A0004231515CC84070470C00002008380240B0
:1013B000E8420008154810B5006810F00C02144807
:1013C00013D04110042A0FD0082A0ED10F4C241F2D
:1013D0002268236802F03F025B0207D52068C0F351
:1013E0008810A0FB010106E0084610BD2168C1F38A
:1013F0008811A1FB00010023FEF7E4FE2168C1F380
:101400000141491C4900B0FBF1F010BD0838024011
:101410000024F4002DE9F84F04006ED02078DFF8A6
:101420004C93C007A9F104054AD009F104000168F2
:10143000C1F38101012908D00068C0F381000228AE
:101440000AD1D9F80000400206D52868800337D5B4
:1014500060680028E1D033E06068B0F5803F10D0CC
:10146000B0F5A02F286810D020F4803028602868BC
:1014700020F4802028606068A8B1FFF739FE064696
:101480000DE0286840F48030F4E740F480202860C4
:10149000F7E700BFFFF72CFE801B642873D828688D
:1014A0008003F7D50CE0FFF723FE064605E000BFFA
:1014B000FFF71EFE801B6428F0D828688003F7D44D
:1014C0002078DFF8AC8280074FF0000A3ED5A748AD
:1014D000001D016811F00C0F08D00068C0F38100F6
:1014E00002280BD1D9F80000400207D428688007F1
:1014F00016D5E068012800D112E033E1E068B8B108
:101500000120C8F80000FFF7F3FD064605E000BF24
:10151000FFF7EEFD801B0228C0D828688007F7D5AA
:101520002868216920F0F80040EAC10028600DE039
:10153000C8F800A0FFF7DCFD064604E0FFF7D8FD81
:10154000801B02281FD828688007F7D4207800075E
:1015500022D5864F87486169703771B101210160DA
:10156000FFF7C6FD064604E0FFF7C2FD801B022818
:1015700009D838688007F7D50EE0C0F800A0FFF75B
:10158000B7FD064605E082E0FFF7B2FD801B0228AA
:101590007DD838688007F7D42078400768D5DFF811
:1015A000CCB100270BF13C0BDBF80000C0000BD4E2
:1015B000DBF8001041F08051CBF80010DBF80000A0
:1015C000012700F0805000906B4E3068C00510D4A9
:1015D000306840F480703060FFF78AFD009005E0CD
:1015E000FFF786FD0099401A022850D83068C005E0
:1015F000F6D55E4EA0686C3601280FD005283068FD
:1016000010D020F001003060306820F0040030601D
:10161000A068B8B1FFF76CFD00900FE0306840F0B3
:101620000100F4E740F004003060F7E7FFF760FDE9
:101630000099411A41F28830814266D830688007AB
:10164000F4D50EE0FFF754FD009007E0FFF750FDE2
:101650000099411A41F28830814256D8306880079B
:10166000F4D42FB1DBF8001021F08051CBF800103A
:10167000A069C8B33D49091D0968C1F38101022968
:101680004AD00228504607D0C8F8600000E03CE08D
:10169000FFF72EFD04463BE04746C8F86000FFF721
:1016A00027FD064605E000BFFFF722FD801B02284C
:1016B0002BD828688001F7D4D4E907010843A16A30
:1016C0002E4A490802EB0141626A41EA821108434D
:1016D00094F82C1040EA0161C9F800100120386626
:1016E000FFF706FD044606E03EE000BFFFF700FD01
:1016F000001B022809D828688001F7D534E000BF14
:10170000FFF7F6FC001B022802D90320BDE8F88F82
:1017100028688001F4D427E00128F7D0D9F8000028
:10172000E26900F4800191421CD1226A00F03F017D
:10173000914217D147F6C071626A0140B1EB821F36
:1017400010D1A26A4FF0FF3300F4403103EB520294
:10175000B1EB024F06D194F82C1000F07060B0EBA2
:10176000016F01D00120D1E70020CFE7043802400B
:1017700000004742800E4742007000400000FFFF1B
:1017800010B5401EB0F1807F01D3012010BD4FF095
:10179000E02460610F21601701F058F90020A0617A
:1017A00007202061002010BD7047704770B590F889
:1017B0003C20012A32D0012480F83C40022280F8EB
:1017C0003D2003685A689D6822F070060A6832431B
:1017D0005A60134B02689A4214D0B2F1804F11D074
:1017E000104B9A420ED0104B9A420BD00F4B9A429C
:1017F00008D00F4B9A4205D00E4B9A4202D00E4BA6
:101800009A4204D1496825F080031943916080F819
:101810003D40002180F83C10084670BD022070BD9C
:10182000000001400004004000080040000C00409F
:1018300000040140004001400018004010B50400C1
:1018400003D094F83D0010B107E0012010BD002046
:1018500084F83C00204600F01FF8022084F83D0088
:10186000211D206800F012FE012084F8460084F853
:101870003E0084F83F0084F8400084F8410084F87A
:10188000420084F8430084F8440084F8450084F85A
:101890003D00002010BD000008B500680B498842DB
:1018A00012D10B48016841F010010160006800226C
:1018B00000F01000009011463620FFF78FFCBDE8C5
:1018C00008403620FFF77CBC08BD00000010004037
:1018D0004038024090F83D10012901D001207047A6
:1018E000022180F83D100168CA6842F00102CA6016
:1018F00000681149884214D0B0F1804F11D00F49CF
:1019000088420ED00E4988420BD00E49884208D03A
:101910000D49884205D00D49884202D00C498842C1
:1019200004D1816801F00701062903D0016841F064
:1019300001010160002070470000014000040040E8
:1019400000080040000C004000040140004001403D
:101950000018004070472DE9F04104460068C66851
:1019600005694FF00007A90713D5B10711D5F91E76
:10197000016101202077206880698007204602D01D
:10198000FFF7E8FF04E000F07EF8204600F07CF866
:101990002777680716D5700714D521686FF0040003
:1019A0000861022020772068806910F4407F20467B
:1019B00002D0FFF7CFFF04E000F065F8204600F00A
:1019C00063F82777280715D5300713D521686FF0FE
:1019D00008000861042020772068C069800720463D
:1019E00002D0FFF7B7FF04E000F04DF8204600F00A
:1019F0004BF82777E80616D5F00614D521686FF066
:101A000010000861082020772068C06910F4407F2A
:101A1000204602D0FFF79EFF04E000F034F8204695
:101A200000F032F82777E80708D0F00706D02168E1
:101A30006FF001000861204600F027F8280608D55D
:101A4000300606D521686FF0800008612046FFF758
:101A5000ABFE680608D5700606D521686FF0400019
:101A60000861204600F012F8A8060AD5B00608D58D
:101A700021686FF0200008612046BDE8F041FFF7C3
:101A800094BEBDE8F081704770477047704738B525
:101A9000044690F84200202801D0022038BD61B1F0
:101AA0005AB10120206300206063204600F0F6FE5A
:101AB0000028F3D1216B012901D0012038BD216814
:101AC0000A684968009121680C3151E8002F42F002
:101AD000100241E80023002BF5D138BD10B5006895
:101AE0000F4A904214D1142912D10E490E4A0020F7
:101AF0000B5C1354401CC0B21428F9D31422632188
:101B00000948FEF797FF18B10849074800F0BDFAE9
:101B1000BDE81040192203490548FFF7B8BF00008F
:101B2000004400401C00002035000020CC010020B3
:101B3000DC00002070470000F8B501680446086822
:101B4000CA684B6910F00F0F4FF0000559D003F031
:101B5000010602F49077374365D0C10705D0D1055F
:101B600003D5616C41F001016164410705D5D907D6
:101B700003D0616C41F002016164810705D5D9078A
:101B800003D0616C41F004016164010707D502F0E4
:101B90002001314303D0616C41F008016164616C44
:101BA00000293AD0800604D5900602D5204600F0E0
:101BB0008DFD20684069616CC0F38010090700D476
:101BC00060B3204600F04DFD20684069400621D5F5
:101BD0002068143050E8001F21F0400140E8001256
:101BE000002AF5D1E06BA8B16E490165E06BFEF704
:101BF000F1FF002811D0E06B016D01B0BDE8F040AD
:101C0000084783060FD593060DD52046BDE8F8405A
:101C100000F05CBD2046FFF78DFFF8BD2046FFF7C2
:101C200089FF6564F8BD266B2023012E7DD1C60691
:101C30007BD5D60679D508684868009048694FF08A
:101C40000206400641D5E16B086840680004000CBC
:101C5000E8D0A28D8242E5D9E085C869B0F5807FE1
:101C60002DD020680C3050E8001F21F4807140E82E
:101C70000012002AF5D12068143050E8001F21F02E
:101C8000010140E80012002AF5D12068143050E824
:101C9000001F21F0400140E80012002AF5D184F82D
:101CA0004230256320680C3050E8001F21F01001FD
:101CB00040E80012002AF5D1E06BFEF742FF6663B0
:101CC000A08DE18D401A81B22AE0A08DE18D401AED
:101CD00081B2E08D0028A5D00029A3D022680C3263
:101CE00052E8000F20F4907042E80007002FF5D171
:101CF0002068143050E8002F22F0010240E800274D
:101D0000002FF5D184F84230256320680C3050E86C
:101D1000002F22F0100240E80023002BF5D166636B
:101D20002046FFF7DBFEF8BDFFE705062BD51506BD
:101D300029D594F841002128F5D1A068B0F5805F3D
:101D400001D12069B0B1206A411C2162216800786C
:101D50004860E08C401E0004000CE084E3D1206861
:101D6000C16821F08001C1602068C16841F0400174
:101D7000C160D8E7206A0088C0F308004860206A84
:101D8000801C2062E5E74006CDD55006CBD5CA6859
:101D9000204622F04002CA6084F8413000F073F916
:101DA000C1E700006525000870B5040004D094F870
:101DB0004100002510B106E0012070BD84F84050BC
:101DC000204600F023F8242084F841002068C168F0
:101DD00021F40051C160204600F0DAFC206801695E
:101DE00021F4904101612068416921F02A0141619B
:101DF0002068C16841F40051C1606564202084F806
:101E0000410084F842006563002070BDF0B587B0E2
:101E1000064614216846FEF70DFA4A48D6F800C077
:101E200000254949022203230727484C844521D134
:101E300045481430066846F010060660006800F059
:101E400010000590086840F00100086008686946C5
:101E500000F00100059058028DE82500CDE9033718
:101E60002046FFF74DF8002211462520FFF7B6F96E
:101E700025203FE03448DFF8D8E01030F4453DD16C
:101E8000D0F800C04CF4003CC0F800C0006800F47A
:101E900000300590086840F0010008600868694655
:101EA00000F0010005900C208DE82500CDE90337F6
:101EB0002046FFF725F8284C264820604FF00060A8
:101EC000C4E901054014C4E9035065614FF4403092
:101ED000A561C4E9075020466562FEF75DFF08B1C1
:101EE000FEF72CFEF463002211462620A663FFF7BE
:101EF00075F92620FFF764F907B0F0BD174CA4452B
:101F0000FAD1046844F480240460006800F480205E
:101F10000590086840F0020008600868694600F013
:101F2000020005904FF440608DE82500CDE90337AD
:101F30000B48FEF7E5FF002211462720FFF74EF978
:101F40002720D7E70010014030380240000002404F
:101F500000440040886002406C01002000480040BE
:101F60000004024090F84230202B01D0022070473C
:101F700021B11AB10023036300F0D8BC01207047DF
:101F800070B500681349884222D14068C0B202F09F
:101F9000E3F802F0F5F8104D687068780F4E0828E5
:101FA0000ED3002405E000BF02F0C2F83055641CD7
:101FB000E4B268788442F7D301202870002068706A
:101FC00068783118BDE8704001220548FFF7CABFA4
:101FD00070BD00000048004011000020DA0200201F
:101FE0002401002070472DE9F843044690F8410091
:101FF000984616460D46202802D00220BDE8F883F8
:1020000085B17EB100206064212084F84100FFF793
:102010006FF8A6848146E684A0682027B0F5805F2B
:1020200002D003E00120E9E7206910B12E46002527
:102030000EE000260CE08021204600F092FCA8B9BA
:10204000C6B116F8010B21684860E08C401EE084A0
:10205000E08C4B464FF00002CDF800800028EAD11A
:102060004FF04001204600F07CFC40B184F8417004
:102070000320C3E735F8020BC0F30800E3E784F858
:1020800041700020BAE77047FEE770B50D46044680
:10209000837A427A017AC079FEF726FC00F04CF987
:1020A00085ED000AA37B627B217BE07AFEF71CFCB6
:1020B00000F042F985ED010AA37C627C217CE07B83
:1020C000FEF712FC00F038F985ED020A70BD000041
:1020D000094808B5016841F4001101600068002258
:1020E00000F40010009011461020FFF777F8BDE8CB
:1020F00008401020FFF764B8303802400D4808B59A
:10210000016841F080010160016801F080010091E7
:10211000016841F001010160016801F001010091D5
:10212000016841F002010160006800F002000090C7
:1021300008BD0000303802401CB500240F48009450
:102140000D490194016042F2CF01C0E901146321FD
:10215000C16080218161FFF771FB08B1FEF7EEFCE1
:102160000094694605480194FFF720FB002801D040
:10217000FEF7E4FC1CBD0000001000404C000020F5
:102180000F4810B50D4901604FF4E1314160002165
:1021900081600C22C160C0E904128161C161FFF756
:1021A00003FE08B1FEF7CAFC074906480978BDE8F6
:1021B0001040014401220248FFF7D4BE0010014044
:1021C00094000020DA020020120000200C4810B514
:1021D0000A4901604FF461214160002181600C22B5
:1021E000C160C0E904128161C161FFF7DDFD002813
:1021F00003D0BDE81040FEF7A1BC10BD0044004074
:10220000DC0000200C4810B50A4901604FF4E131B0
:102210004160002181600C22C160C0E9041281612B
:10222000C161FFF7C1FD002803D0BDE81040FEF7F3
:1022300085BC10BD0048004024010020FEE710B519
:102240004FF47A70FEF74AFE0120FEF733FC1420AB
:10225000FEF744FE0220FEF72DFC1420FEF73EFEA2
:102260000320FEF727FC1420FEF738FE0420FEF7BB
:1022700021FCBDE810401420FEF730BEFEB514204E
:10228000FEF72CFE0126002447F23055CDE900541C
:10229000A523E622314630460296FEF7DBFB1420EA
:1022A000FEF71CFECDE900549623C922012102202D
:1022B0000296FEF7CFFB1420FEF710FECDE9005486
:1022C0009623C922002103200296FEF7C3FB1420A7
:1022D000FEF704FECDE90054A523E62200210420E8
:1022E0000296FEF7B7FB1420FEF7F8FDBDE8FE40AE
:1022F0000020FEF70DBC10B501210846FEF7F0FBEB
:102300000520FEF7EBFD01210220FEF7E9FB052089
:10231000FEF7E4FD01210320FEF7E2FB0520FEF7B6
:10232000DDFD01210420FEF7DBFBBDE810400520A8
:10233000FEF7D4BDFEE77047DFED040A9FED041AF7
:1023400060EE200A80EE810A7047000000003443EE
:10235000D60F4940704700000149012008707047BE
:102360001000002010B50F48007838B1012807D0C0
:10237000032815D1BDE81040FFF7BDBF0AA00BE050
:102380000D488068FDF7E4FF41EC100B0BA053EC07
:10239000102B00F033FB0DA0BDE8104000F02EBB69
:1023A00010BD0000100000206361736520494445A2
:1023B0004C200D0A00000000CC010020596177205C
:1023C000416E676C653A2025660A0000636173659B
:1023D000204C494E454152200D0A0000FEF78EBEAA
:1023E00030B593B030216846FDF724FF14210CA8C6
:1023F000FDF720FF1C480025016841F08051016075
:10240000006800F0805011901848016841F4804144
:1024100001600068022400F48040119001200090C7
:10242000000401908001CDE9064008AA0420A821FB
:1024300082E813000B906846FEF7ECFF08B172B615
:10244000FEE70CA90F2081E831004FF4A0500F9057
:10245000109005210CA8FEF7F3FE002801D072B6FB
:10246000FEE713B030BD000040380240007000406D
:102470000248016841F470010160704788ED00E096
:102480000148FFF768BA00004C000020F0B5026870
:10249000294C2A4D2A4E2B4F2B4B4FF0804CA042FB
:1024A00009D0604507D0A84205D0B04203D0B84259
:1024B00001D0984204D122F0700E4A6842EA0E021E
:1024C000A0421BD0604519D0A84217D0B04215D009
:1024D000B84213D0984211D01C4DA8420ED01C4DCA
:1024E000A8420BD01B4DA84208D01B4DA84205D0D6
:1024F0001A4DA84202D01A4DA84203D122F44075C9
:10250000CA682A434D6922F080022A4302608A6821
:10251000C2620A688262A04201D0984201D1096970
:102520000163012141610169C90703D0016921F0FB
:1025300001010161F0BD0000000001400004004005
:1025400000080040000C0040000401400040014031
:10255000004401400048014000180040001C0040B9
:102560000020004010B5806B0021C185C184FFF7B9
:10257000E1FA10BD70B5846B2068406994F8411091
:10258000C0F3C0100025212904D118B1E5842046EC
:1025900000F08EF82068406994F84210C0F3801073
:1025A000222904D118B1E585204600F05AF8606C64
:1025B00040F0100060642046FFF7BCFA70BD10B513
:1025C0000146806B096809684FF00002C9052ED4E6
:1025D000C28501680C3151E8003F23F4807341E863
:1025E0000034002CF5D10168143151E8003F23F08C
:1025F000010341E80034002CF5D10168143151E8A1
:10260000003F23F0400341E80034002CF5D12021A5
:1026100080F84210016B012909D101680C3151E8A1
:10262000003F23F0100341E80034002CF5D1426351
:10263000016B012902D0FFF7A3FC10BD818DFFF7CC
:102640004DFA10BD10B5806B01214163016B01296A
:1026500002D0FFF7C7FC10BD818D4908FFF73EFA95
:1026600010BD01680C3151E8002F22F4907241E84E
:102670000023002BF5D10168143151E8002F22F01E
:10268000010241E80023002BF5D1016B012909D19A
:1026900001680C3151E8002F22F0100241E80023BC
:1026A000002BF5D1202180F84210002101637047F2
:1026B00001680C3151E8002F22F0C00241E80023EC
:1026C000002BF5D1202180F84110704708B590F813
:1026D0004210222901D0022008BD82684FF48053A5
:1026E0009A4201D1016921B1816A9A421BD04AB153
:1026F0000AE00268816A5268C2F308020A80816AAD
:10270000891C08E0026972B10268526802F07F0217
:102710000A70816A491C8162C18D491E0904090C35
:10272000C18503D01BE002685268F1E70168CA68FE
:1027300022F02002CA600168CA6822F48072CA606E
:1027400001684A6922F001024A61202180F84210A2
:1027500000214163026B012A03D0FFF711FC002026
:1027600008BD016301680C3151E8002F22F010020E
:1027700041E80023002BF5D101680A68D20602D592
:102780000A6849680091818DFFF7A8F9E7E7000022
:1027900070B5044600680169E26821F440511143B4
:1027A00001612169A068E269084361691143084336
:1027B0002168CA6849F20C639A430243CA602068E0
:1027C0004169A26921F44071114341613149206896
:1027D000884202D03049884202D1FEF7DBFD01E099
:1027E000FEF7C8FDE2690023192164253226B2F5FF
:1027F000004F626828D0A0FB0101930F9200FDF703
:10280000E1FC0146B0FBF5F06FF01802504301EB1C
:10281000800006EB0010B0FBF5F000F0F002B1FB19
:10282000F5F002EB0012B1FBF5F06FF0180358431E
:1028300001EB800006EB0010B0FBF5F000F00F009C
:1028400021681044886070BDA0FB010192185B41B3
:10285000FDF7B8FC0146B0FBF5F00201B1FBF5F065
:102860006FF01803584301EB800006EBC000B0FB8B
:10287000F5F000F0F80002EB4002B1FBF5F0584330
:1028800001EB800006EBC000B0FBF5F000F00700A4
:10289000D6E70000001001400014014038B5816205
:1028A00004468285002013466064222284F8422078
:1028B000E56B1B4AEA63E56B1A4A2A64E56B1A4A20
:1028C000EA64E26B10650A462168E06B091DFEF7B9
:1028D000CDFA2068016840680090206948B12068FE
:1028E0000C3050E8001F41F4807140E80012002ACB
:1028F000F5D12068143050E8001F41F0010140E894
:102900000012002AF5D12068143050E8001F41F071
:10291000400140E80012002AF5D1002038BD000037
:10292000BF250008452600087525000881628285BC
:10293000C28500214164222180F84210016921B141
:102940000168CA6842F48072CA6001684A6942F04C
:1029500001024A610068C16841F02001C1600020A5
:1029600070472DE9F843984617460D460446089EE1
:1029700024E0701C22D0FEF7BBFBA0EB0800B042A5
:102980001AD8CEB12068C168490717D5802D15D057
:10299000402D13D00168C94309070FD401680025F1
:1029A000406800902046FFF75CFE0820606484F8D1
:1029B00040500120BDE8F8830320FBE72068006851
:1029C00035EA000004D00020B842D2D00020F1E760
:1029D0000120F9E70148FFF7AFB80000940000209C
:1029E0000148FFF7A9B80000DC0000200148FFF70C
:1029F000A3B8000024010020FEE700000FB4054B3F
:102A000010B503A9044A029801F002F810BC5DF861
:102A100014FB0000B14100081400002003B4019829
:102A20004100009850EAC12018BF04204A0D18BF89
:102A300040F0010040F2FF72B2EB515F08BF40F07E
:102A40000200012808BF052002B070470907090EDF
:102A5000002804DB00F1E02080F80014704700F04B
:102A60000F0000F1E02080F8141D70470000000006
:102A70002DE9F04D2DED040B2DED0E8B96B0DDE91B
:102A80002550279CDDF890A025F0004624F0004852
:102A9000BAF1000F14BF0121002101EB4502FC49EE
:102AA00053184A1093422AD3002814BF012300234D
:102AB00003EB44030B44F7498B4220D358EA00014F
:102AC0009FEDF59B76D0DFF8D8B35D4503D1BAF121
:102AD000000F05D188E0BAF1000F08BF002100D037
:102AE000012101EB450111F5001F08D8002814BF92
:102AF0000121002101EB440111F5001F0BD99DEDCF
:102B0000261B9DED240B16B0BDEC0E8B04B0BDE86A
:102B1000F04D00F069BE0027002DBCBFE14988459B
:102B200021DAE1498845A8BF02271CDAC3451ADC2F
:102B3000DE4901EB2851142908DDC1F1340220FAE5
:102B400002F101FA02F282420DD108E058B9C1F156
:102B5000140228FA02F101FA02F2424503D101F00F
:102B60000101C1F1020756EA0A0124D1002C22DA40
:102B7000002D18BF022F01D0012F0AD0022000F033
:102B80007FFE16B0BDEC0E8B04B0BDE8F04D00F03A
:102B900013BE022000F074FE00F00EFE51EC100B8C
:102BA00081F0004141EC100B16B0BDEC0E8B04B06F
:102BB000BDE8F08D18E09FEDBEAB9FEDBF8B002808
:102BC00071D1B848804522D105F1804010F58010C0
:102BD00008BFBAF1000F07D0B3450ADC002CA8BF2C
:102BE0009DED260BE0DA0DE0B0EE490AF0EE690A41
:102BF000DAE7002C06DA9DED260B51EC100B81F084
:102C000000416FE0AE48784490ED000BCCE7D8452A
:102C10004DD1002C48DA2EB186423AD1BAF1000FDC
:102C200042D126E0BAF1000F13D0022000F028FEB6
:102C300000F0F6FD8DED020B9DED240B8DED000BEC
:102C400010EE900A039961F31E0003909DED020BB4
:102C5000AAE78DED02AB9DED240B1AEE901A10EE53
:102C6000900A8DED000B61F31E0003909DED020BA9
:102C70009AE78DED028B9DED240B18EE901A10EE65
:102C8000900A8DED000B61F31E0003909DED020B89
:102C90008AE709DA9DED240B51EC190B53EC102B4C
:102CA000FDF7F5FC1EE020E09DED240B7CE786425D
:102CB0001BDAB4F1804F0DD0A4F10050B0F1FF50F9
:102CC00013D1002D11DB9DED240B51EC100B01F005
:102CD000BDFA07E09DED240B53EC102B51EC100BCB
:102CE00000F0C2BC41EC100B5EE79DED240B51ECF3
:102CF000100B01F010FABAF1000FCDE90E0142D12C
:102D00009FED710B46B3A6F1E040B0F17F600CD0AF
:102D10005E4538D1002D00DAA7B3022F0CBF012089
:102D20004FF0FF30FDF703FBDCE7002D01DD002C49
:102D30000DDA002D01DD002C1FDB002D16DA002C32
:102D400014DB012F08BF9FED620B3FF42DAFB0EEF7
:102D50004A0AF0EE6A0A27E7022F18BF002D0CD0AE
:102D6000012F0AD1002DFFF61FAF06E0002DB8BFDE
:102D7000002C08DA012F3FF417AFB0EE480AF0EE4E
:102D8000680A11E71BE0012000EBE57050EA07013B
:102D900015D0791EB0EE498AF0EE698A084308BF63
:102DA0009FED4D8B4E480025804570DD4D494E48C6
:102DB000884514DDB0420DDB002C19DB2FE001202B
:102DC00000F05EFD16B0BDEC0E8B04B0BDE8F04D1A
:102DD00000F016BDB34502DC002C09DC1FE0864282
:102DE00002DA002C1BDA03E05E452BDD002C16DD39
:102DF000022000F045FD00F013FD8DED020B53ECB9
:102E00001A2B51EC180BFDF720FACDE900010399BC
:102E1000019861F31E0003909DED020BC4E60220B1
:102E200000F02EFD00F00CFD10EE901A18EE900A46
:102E30008DED020B8DED008B61F31E0003909DED77
:102E4000020BB1E69DED0E0B53EC192B51EC100B60
:102E5000FDF717FC9FED260BCDE9080153EC102B75
:102E60009DED080B51EC100BFDF7EFF99FED221BC8
:102E700053EC112BFDF708FC9DED081B53EC112BB7
:102E8000FDF7E3F99FED1E1B53EC112B3CE08CE0AA
:102E9000FFFF1F00FFFF0F00000000000000F03FD9
:102EA0000000F03F0000F07F0000404301FCFFFF06
:102EB000000000000000F07F0000000000000000A3
:102EC0006E170000000000000000000000000080FD
:102ED000000000000000F0FF000000000000F0BF54
:102EE0000000E0410000F043FFFFEF3F0000000062
:102EF000000000000000D03F555555555555D53FB1
:102F0000000000000000E03FFDF7BEFB9DED080B58
:102F100041EC1A0B53EC102B51EC100BFDF795F90B
:102F200053EC1A2BFDF791F941EC1A0B9FEDFE0BB8
:102F300053EC102B9DED080B51EC100BFDF785F9B0
:102F400041EC1B0B9FEDFA0B51EC1A0B53EC102BC1
:102F5000FDF77BF941EC1A0B9FEDF70B53EC102BAF
:102F60009DED080B51EC100BFDF76FF953EC1A2B8C
:102F7000FDF787FB41EC1A0B51EC1B0B53EC1A2BA2
:102F8000FDF7DEFA0690CDE906519DED060B53ECF8
:102F90001B2B51EC100BFDF774FB53EC1A2BFDF7B8
:102FA00073FB41EC100B00F0A1B90020B6F5801FB7
:102FB0000EDA9FEDE30B53EC102B9DED0E0B51EC55
:102FC000100BFDF742F9CDE90E016FF034000E460B
:102FD00000EB2650A0F2FF37C6F31300DA4940F0A9
:102FE0007F6646F040568842D8BF002408DDD749A6
:102FF0008142C8BF012403DC0024A6F580167F1C93
:10300000D348784400EBC4000F9690ED00CB9DEDC3
:103010000E0B53EC1C2B51EC100BFDF732FB9DED0E
:103020000E0B41EC1B0B53EC1C2B51EC100BFDF762
:1030300087FA41EC100B51EC190B53EC102BFDF7F8
:1030400026FB41EC1D0B51EC1B0B53EC1D2BFDF72C
:10305000FCF841EC1A0BBF488DED10AB784410958D
:1030600090ED000B4FF0005040EA660000EB84400A
:103070008DED080B00F5002009909DED080B53EC39
:103080001C2B51EC100BFDF7FCFA9DED0E1B53ECC5
:10309000112BFDF7F9FA41EC100B53EC102B9DEDC1
:1030A000100B51EC100BFDF7D0F89DED080B41EC27
:1030B0001C0B53EC102B9DED100B51EC100BFDF77E
:1030C000C4F853EC1B2BFDF7DFFA53EC1C2BFDF778
:1030D000D8FA53EC1D2BFDF7B8F841EC1C0B53EC60
:1030E0001A2B51EC1A0BFDF7B0F841EC1B0B9A4868
:1030F0000621B0EE4B0AF0EE6B0A784400F0E0FADD
:10310000B0EE401AF0EE601AB0EE41DAF0EE61DA9D
:1031100053EC1B2B51EC1B0BFDF797F853EC1D2BBD
:10312000FDF793F89DED100B41EC1B0B53EC1A2BA4
:1031300051EC100BFDF704FA53EC1C2BFDF785F84E
:1031400053EC1B2BFDF7FCF99DED100B41EC1B0B19
:1031500053EC102B51EC100BFDF777F841EC1D0BE5
:103160009FED7FEB53EC1E2BFDF7EAF953EC1B2B85
:10317000FDF7E6F90890CDE908519DED080B53ECF9
:103180001E2B51EC100BFDF77CFA53EC1D2BFDF7B9
:1031900078FA53EC1B2BFDF777FA9DED080B41EC09
:1031A0001D0B53EC102B9DED100B51EC100BFDF78C
:1031B0004CF841EC1B0B53EC1A2B51EC1D0BFDF79B
:1031C00044F89DED080B41EC1A0B53EC102B51EC1D
:1031D0001C0BFDF73AF853EC1A2BFDF7B1F941EC53
:1031E0001A0B51EC1B0B53EC1A2BFDF7A9F90C90A1
:1031F000CDE90C519DED0C0B53EC1B2B51EC100B3E
:10320000FDF73FFA53EC1A2BFDF73EFA41EC1B0B8E
:103210009FED550B53EC102B9DED0C0B51EC100B4F
:10322000FDF713F841EC1A0B9FED510B51EC1B0B02
:1032300053EC102BFDF709F841EC1B0B9FED4E0BE7
:1032400053EC102B9DED0C0B51EC100BFCF7FDFF1C
:1032500053EC1B2BFDF774F941EC100B48487844F4
:1032600000EBC40090ED001B51EC100B53EC112B44
:10327000FDF766F941EC1B0B3846FDF758F8CDE930
:10328000080153EC1B2B51EC1A0BFDF759F941ECDB
:10329000100B3C48784400EBC40090ED00CB51EC9F
:1032A000100B53EC1C2BFDF74BF99DED081B53EC59
:1032B000112BFDF745F90690CDE906519DED080B60
:1032C00053EC102B9DED060B51EC100BFDF7D9F9CB
:1032D00053EC1C2BFDF7D5F953EC1A2BFDF7D1F964
:1032E00053EC1B2BFDF7D0F941EC100B9DED261B89
:1032F00053EC102B8DED001B00959DED260B51EC32
:10330000100BFCF7A2FF9DED000B41EC1A0B53ECE8
:10331000102B9DED260B51EC100BFDF7B2F99DED36
:10332000061B53EC112B2FE0000000604715F73F00
:10333000FE822B654715F73F44DF5DF80BAE543E28
:1033400000000000000040438E9803007AB60B0096
:10335000EA12000018130000221200000000000012
:103360000000000000000840000000E009C7EE3F38
:10337000FD033ADC09C7EE3FF5015B14E02F3EBECA
:10338000AE10000068100000FCF75FFF53EC1A2B32
:10339000FDF7D6F89DED060B41EC1A0B53EC102B04
:1033A0009DED000B51EC100BFCF74FFFCDE90C012C
:1033B0009DED0C0B51EC1A0B53EC102BFDF7C0F8E4
:1033C000CDE902010C46AA498C422FDB611A084361
:1033D00018D19DED0C0B53EC102B9DED020B51EC15
:1033E000100BFDF74EF941EC1B0B9FEDA30B51ECBD
:1033F0001A0B53EC102BFDF7A3F853EC1B2BFDF726
:10340000E5F92DD2022000F03BFA00F009FA10EEA7
:10341000901A18EE900A8DED020B8DED008B61F382
:103420001E0003909DED020BFFF7BEBB944A24F0F3
:103430000041914214D39349214408437FF4EFACF7
:103440009DED0C0B53EC102B9DED020B51EC100B72
:10345000FDF717F953EC1A2BFDF7B8F97FF6DFAC3F
:1034600024F000408849894A002601EB205182421D
:103470002BDA481C4FF4801121FA00F02044844AD2
:10348000C0F30A517A44A1F2FF3192ED000B814A58
:103490008DED080BCA4020EA0202C0F3130040F48D
:1034A0008010C1F1140120FA01F60992002CB8BF76
:1034B00076429DED080B53EC102B9DED0C0B51EC5F
:1034C000100BFDF7DEF8CDE90C019DED0C0B51EC76
:1034D0001A0B53EC102BFDF733F89FED6F0B089090
:1034E000CDE9085153EC102B9DED080B51EC100B5E
:1034F000FCF7ABFE41EC1B0B9FED690B53EC102B63
:103500009DED080B51EC100BFCF79FFE9DED0C0B95
:1035100041EC1C0B53EC102B9DED080B51EC100BE8
:10352000FDF7AFF853EC1A2BFDF7AEF89FED5E1BDD
:1035300053EC112BFCF789FE53EC1C2BFDF700F824
:1035400041EC1A0B51EC1B0B53EC1A2BFCF7F8FF58
:10355000CDE902019DED020B53EC1B2B51EC100B3E
:10356000FDF78FF853EC1A2BFDF78EF89DED020B4B
:1035700041EC1A0B53EC102B51EC100BFCF765FED1
:10358000CDE908014A489DED080B0521784400F07B
:1035900097F89DED081B51EC100B53EC112BFCF729
:1035A00054FE9DED021B53EC112BFDF76DF8CDE998
:1035B00006019DED020B53EC1A2B51EC100BFCF79E
:1035C00044FE53EC1A2BFCF7BBFF9FED3B0B41EC89
:1035D0001A0B53EC102B9DED060B51EC100BFDF765
:1035E00050F89DED060B41EC1B0B53EC102B9DEDA1
:1035F000020B51EC100BFCF728FE53EC1B2BFDF7D4
:1036000046F853EC1A2BFDF73CF89DED021B53ECEA
:10361000112BFDF736F853EC192BFDF735F8CDE9F2
:10362000020101EB065001150029C8BF039015DC0B
:103630009DED020B324651EC100BFDF797F8FFF7AA
:10364000EDF9042808BF00F0FBF832469DED020BAF
:1036500051EC100BFDF78AF8CDE902019DED020B4C
:1036600051EC180B53EC102BFCF7EFFDFFF73ABBB6
:103670000000904000000000FE822B654715973C3B
:1036800000CC904000346F3F01FCFFFF0000E03FA2
:10369000F00E0000FFFF0F0000000000432EE63F89
:1036A000396CA80C615C20BEEF39FAFE422EE63F71
:1036B000C00D0000000000000000000000000040FD
:1036C00070B504462DED028B4D1E00EBC500B0EE2B
:1036D000408AF0EE608A90ED000B35F0060017D0BE
:1036E00053EC182B51EC100BFCF7AFFD41EC100B19
:1036F0006D1E04EBC50090ED001B51EC100B53EC5C
:10370000112BFCF71DFF41EC100B35F00600E7D143
:10371000022D36D0042D1CD0062D1CBFBDEC028B13
:1037200070BD53EC182B51EC100BFCF78EFD94ED93
:103730000A1B53EC112BFCF703FF53EC182BFCF77F
:1037400084FD94ED081B53EC112BFCF7F9FE41ECC2
:10375000100B53EC182B51EC100BFCF776FD94ED8D
:10376000061B53EC112BFCF7EBFE53EC182BFCF76C
:103770006CFD94ED040B53EC102BFCF7E1FE41ECD7
:10378000100B53EC182B51EC100BFCF75EFD94ED75
:10379000021B53EC112BFCF7D3FE53EC182BFCF758
:1037A00054FD94ED001B53EC112BFCF7C9FEBDEC4E
:1037B000028B41EC100B70BD9FED070B10B553EC65
:1037C000102B9FED070B51EC100BFCF760FF41EC49
:1037D000100B10BD00000000000000000000000001
:1037E000000000000000F03F10B553EC112B51EC2D
:1037F000100BFCF7A5FE41EC100B10BD0000000003
:103800009FED050B10B553EC102B51EC100BFCF792
:103810003EFF41EC100B10BD000000000000000056
:103820009FED050B10B553EC102B51EC100BFCF772
:103830000CFD41EC100B10BD0000000000000070FA
:103840009FED050B10B553EC102B51EC100BFCF752
:10385000FCFC41EC100B10BD00000000000000104B
:1038600002E008C8121F08C1002AFAD17047704749
:10387000002001E001C1121F002AFBD170470000A7
:103880000149086070470000180000202DE9FF5F23
:1038900082B00021DDE90430020DDDF840B00343C1
:1038A00018D044F61050A2F2FF324243151411987A
:1038B00001281FD0A5EB0B00401C5FEA000A4FF067
:1038C00000064E4FDFF83891B046504615D5CAF184
:1038D000000413E0119801244AA3012801D16FEAE2
:1038E0000B010298119AC0E90031C0E9024206B00A
:1038F000BDE8F09FCBF10000DFE704460021404A1D
:10390000491842EB0450CDE9001012E0E00707D05F
:1039100032463B4640464946FCF797FC804689467E
:1039200032463B4610461946FCF78FFC06460F46CA
:103930006410002CEAD1DDE90401DDE90023BAF1CD
:10394000000F06DAFCF781FC42464B46FCF77DFC93
:1039500005E0FCF79CFE42464B46FCF798FE044609
:103960000E460022284BFCF731FF03D84FF0FF3002
:10397000014607E00022254B20463146FCF7E0FDDA
:10398000FCF70BFF102409E0002C0ADB0A220023BD
:10399000FCF718FC039B30321A55641E50EA0102F2
:1039A000F2D1641C039AC4F111031444119A012A40
:1039B00003D0012208430DD10AE0084304D00020BF
:1039C0004FF0110B119072E7A3EB0B056D1E0DE08C
:1039D0005B4504DD4FF0000205F1010504E003DA68
:1039E0004FF00002A5F10105002AECD002981199D0
:1039F000C0E90231C0E9004579E700000000144049
:103A00000000F03F300000000000F0430000E03F05
:103A10002DE9FF4F95B09A46884606460025EEE10F
:103A2000252877D100242746F94A0121039400E094
:103A3000044316F8013F203B01FA03F01042F7D18E
:103A400030782A2811D06FF02F033078A0F130029F
:103A5000092A16D8039A44F0020402EB820203EB0F
:103A600042021044761C0390EFE758F8042B0392AF
:103A7000002A03DA504244F40054039044F0020454
:103A8000761C30782E2816D116F8010F44F0040465
:103A90002A280DD06FF02F023078A0F13003092BC7
:103AA00009D807EB870302EB4303C718761CF3E73B
:103AB00058F8047B761C30786C280FD006DC4C2834
:103AC00017D068280DD06A2814D104E0742810D0CB
:103AD0007A280FD10DE044F400140AE044F4801475
:103AE00001E044F440147278824202D104F580145B
:103AF000761C761C307866280BD013DC582877D0DB
:103B000009DC002875D04528F6D04628F4D047288F
:103B10001AD193E118E0632835D0642879D065285C
:103B200012D18BE1702873D008DC6728F1D06928A6
:103B30006FD06E280DD06F2806D1ACE073282CD042
:103B4000752874D0782853D05246179990476D1C29
:103B500054E1C4F30250022809D003280DD0D8F84C
:103B6000001004280DD00D6008F1040846E1D8F8D3
:103B70000010EA17C1E90052F6E7D8F800100D80EE
:103B8000F2E70D70F0E718F8041B8DF80010002024
:103B90008DF80100EB46012003E058F804BB4FF01C
:103BA000FF3061074FF0000102D40DE009F101017F
:103BB0008946B9420FDA8145F8DB1BF80910002964
:103BC000F4D108E009F1010189468142FADB1BF8D2
:103BD00009100029F6D103985346A0EB09072146A6
:103BE0003846179A00F080FA284400EB090507E0F0
:103BF00044E008E10DE01BF8010B5246179990478D
:103C0000B9F10109F7D2534621463846179AF2E036
:103C100039E00A21C4F302524FF0000B0091022A4E
:103C200006D058F8040BC117032A09D00AE023E094
:103C300008F1070020F00702F2E80201904605E0D3
:103C400000B2C117042A01D140B2C117002906DA17
:103C50000A460021404261EB02012D2202E02205CA
:103C600004D52B228DF80420012203E0E20701D0C5
:103C70002022F7E7914657E00A2100E010214FF09B
:103C8000000B00910BE010214FF0000B44F00404F6
:103C90000827009103E008204FF0000B0090C4F3C8
:103CA0000252022A05D058F8040B0021032A08D03A
:103CB00008E008F1070020F00702F2E80201904650
:103CC00003E080B2042A00D1C0B24FF000092207FD
:103CD0002AD53278702A07D0DDF800C08CF0100C9D
:103CE0005CEA0B0C05D00EE040228DF80420012286
:103CF00008E050EA010306D030238DF804308DF837
:103D0000052002229146009B83F0080353EA0B032F
:103D10000AD150EA010201D1620705D530228DF89F
:103D200004204FF001097F1E3278582A04D039A2AE
:103D30000C920CAA02920BE03BA2F9E75B46009AB8
:103D4000FCF740FA0C9B9B5C029A521E0292137085
:103D500050EA0102F2D1029804A9081A00F1200BDE
:103D6000600702D524F4803400E001275F4502DDBE
:103D7000A7EB0B0000E0002000EB0B010090039884
:103D80004944401A0390E00306D453462146179A4B
:103D9000039800F0A9F90544002706E001A852465F
:103DA000C05D179990476D1C7F1C4F45F6DBE00303
:103DB0000CD553462146179A039800F095F905440F
:103DC00004E030205246179990476D1C0099481E18
:103DD00000900029F5DC08E002980299524600782C
:103DE000491C0291179990476D1CBBF10001ABF182
:103DF000010BF1DC5BE100F065F90544761C3078DD
:103E000000287FF40DAE19B02846BDE8F08F000001
:103E100009280100303132333435363738396162A0
:103E20006364656600000000303132333435363764
:103E3000383941424344454600000000600700D441
:103E4000062708F1070020F00700F0E8022380466B
:103E500003F0004C5FEA0C0001D097A009E02005B8
:103E600001D596A005E0E00701D095A001E0AFF2F2
:103E70004C001390307823F0004365280CD006DC0A
:103E8000452809D046281DD047287FD13BE0662829
:103E900018D067287AD136E00021112F01DB1120DC
:103EA00000E0781CCDE9000104A90CA8FFF7EEFCA6
:103EB000DDE90D010C9A4FF0000B07F1010910929A
:103EC00000914EE04FF000400097CDE9011004A9A9
:103ED0000CA8FFF7DBFCDDE90D020C9B0F994FF0FE
:103EE000000B91461093009211B9791C00EB010967
:103EF000B7EB090003D4C0F1FF3B07F10109A9EBBF
:103F00000700019042E0012F00DA01270021112F64
:103F100001DD112000E03846CDE9000104A90CA81C
:103F2000FFF7B4FCDDE90D010C9A00914FF0000B96
:103F3000B946109221070FD4009A4A4503DA9146F8
:103F400001E0A9F10109B9F1010F05DD109AA9F10C
:103F50000101515C3029F4D0B84202DA10F1040FAB
:103F600003DA0121CDE9011010E0002803DC8344CD
:103F7000A9EB000102E0411C494500DD8946A0EBA8
:103F80000B00401C01904FF000400290200705D428
:103F90000198484502DB4FF0FF30019000208DF87A
:103FA0004B0002980DF14B07B0F1004F25D00220D5
:103FB0000C902B200D90029800280CDA40420290C1
:103FC0002D200D9007E00A210298FCF7F0F930311E
:103FD000029007F8011D0C99481E0C900029F2DC94
:103FE00002980028EFD1791E0D980870307800F003
:103FF000200040F0450007F8020D11A8C01BC01DAD
:1040000002901398007800B1012000EB090101989B
:1040100001EBE071029801440398401A401E03909E
:10402000E00306D453462146179A039800F05CF843
:1040300005441398007818B15246179990476D1CA3
:10404000E00323D553462146179A039800F04CF815
:1040500005441BE0BBF1000F07DB0098584504DD69
:104060001098179910F80B0001E01799302052466C
:10407000904701980BF1010B401E05F101050190DD
:1040800004D12E205246179990476D1CB9F10001BA
:10409000A9F10109DEDC05E017F8010B524617997A
:1040A00090476D1C0299481E02900029F4DC53468B
:1040B0002146179A03989EE62D0000002B00000071
:1040C000200000002DE9F041044600251E46174659
:1040D000880404D405E039462020B0476D1C641ED6
:1040E000F9D52846BDE8F0812DE9F04104460025C8
:1040F0001E469046C80301D5302700E020278804DB
:1041000004D505E041463846B0476D1C641EF9D51C
:104110002846BDE8F08182B0CDE9000121F00040E1
:1041200001909DED000B02B051EC100B70470000A8
:10413000084991F8010131F8100091F80121521C51
:1041400081F8012191F80121802A02D3002281F80F
:1041500001217047D8010020084991F8002121F879
:10416000120091F80001401C81F8000191F8000153
:10417000802802D3002081F800017047D801002078
:104180000A4890F8011190F80021914205D890F862
:10419000001190F80101081A06E090F8011190F85A
:1041A0000001C1F18001084480B27047D8010020AD
:1041B00013B54FF6FF73012269460248FDF713FF5E
:1041C00000981CBD94000020FCF7A0FFFEF708F942
:1041D000FDF794FFFDF77CFFFDF7D2FFFDF7F6FF3B
:1041E000FDF7AAFFFEF70EF8192211491148FDF755
:1041F0004EFCFEF724F8FEF741F8FEF7ADF80E4846
:10420000FDF768FB4FF4FA744FF6FF752046FCF794
:1042100065FE2B46102209A10B48FDF7E4FE20465F
:10422000FCF75CFEFEF79EF82046FCF757FEEDE734
:104230001C000020DC0000204C00002068656C6C35
:104240006F2031210D0A00009400002000B52DEDF3
:10425000048B83B041EC190BFCF7F4FA41EC180B1A
:1042600018EE100A18EE901A8DED008B002818BF7A
:104270000120084320F00040C0F17F6000F1E040E1
:10428000C00F14D019EE101A19EE900A8DED009B94
:10429000002918BF0121084320F00040C0F17F60D1
:1042A00000F1E040C00F04BF0120FFF7E9FA51EC34
:1042B000180B03B0BDEC048B00BD00000A4601469C
:1042C0004FF0FF330148FDF78EBE000024010020AF
:1042D0000006101600061016000000000000000086
:1042E000010203040607080900000000010203049C
:1042F000000000000000F03F000000000000F83F58
:1043000000000000000000000000004003B8E23F91
:10431000000000000000000006D0CF43EBFD4C3E43
:10432000033333333333E33FFFAB6FDBB66DDB3F38
:104330004D268F515555D53F01411DA96074D13F80
:1043400065DBC9934A86CD3FEF4E454A287ECA3F7A
:104350003E5555555555C53F93BDBE166CC166BFFC
:104360002CDE25AF6A56113FF16BD2C541BDBBBEF5
:10437000D0A4BE726937663E000000000000000055
:10438000A0430008000000201C0000006038000866
:10439000BC4300081C0000204407000070380008DF
:1043A0000100000010000000000000000024F400E4
:0C43B00000000000000000000000000001
:040000050800018965
:00000001FF
