:020000040800F2
:10000000680B0020A1010008ED2900085D2300080D
:10001000052700084D070008C13100080000000056
:10002000000000000000000000000000B52A0008E9
:10003000CD0B000800000000EF290008C52A0008C9
:10004000BB010008BB010008BB010008BB010008A0
:10005000BB010008BB010008BB010008BB01000890
:10006000BB010008BB010008BB010008BB01000880
:10007000BB010008BB010008BB010008BB01000870
:10008000110B00081D0B0008BB010008BB01000894
:10009000BB010008BB010008BB010008BB01000850
:1000A000BB010008BB010008BB010008BB01000840
:1000B000BB010008BB010008BB010008BB01000830
:1000C000BB010008BB010008BB010008BB01000820
:1000D000BB0100087931000885310008B5310008FE
:1000E000BB010008BB010008BB010008BB01000800
:1000F000BB010008BB010008BB010008BB010008F0
:10010000BB010008BB010008BB010008BB010008DF
:10011000BB0100084D2C0008692B0008BB0100083A
:10012000BB010008BB010008BB010008BB010008BF
:10013000BB010008BB010008BB010008BB010008AF
:10014000BB010008BB010008BB010008BB0100089F
:10015000BB010008BB010008BB010008BB0100088F
:10016000BB010008BB010008BB010008BB0100087F
:10017000BB010008BB010008BB0100080000000033
:10018000BB010008450C0008DFF810D000F0CCFAE5
:1001900000480047153B0008AFF30080680B0020C3
:1001A0000648804706480047FEE7FEE7FEE7FEE711
:1001B000FEE7FEE7FEE7FEE7FEE7FEE7592B000855
:1001C000890100082DE9F05F0546002092469B4614
:1001D00088460646814640241BE02846414647465D
:1001E000224600F0F2F953465A46C01A914110D304
:1001F00011461846224600F0D9F92D1A67EB01087E
:100200004F4622460120002100F0D0F917EB0009EB
:100210004E41201EA4F10104DFDC484631462A4647
:100220004346BDE8F09FD2B201E000F8012B491E21
:10023000FBD270470022F6E710B513460A46044683
:100240001946FFF7F0FF204610BD2DE9FE4F80460E
:1002500081EA0300C00F0C46009021F0004123F01A
:100260000045B8EB0200A94105D240462146904620
:100270001C460B46024623F00040104347D0270D92
:10028000C7F30A00C3F30A510290401A01904028B4
:100290006BDAC3F3130040F4801B0098924620B140
:1002A0000023D2EB030A63EB0B0B01985946C0F114
:1002B0004002504600F07AF906460D46504659462F
:1002C000019A00F092F910EB08006141002487EADE
:1002D000115284EAE7731A4340D0009A62B3019A3C
:1002E000012A4FEA075215DC001B61EB02014FF0B7
:1002F000004202EA0752CDE90042001C41F580119C
:1003000032462B4600F092F903B0BDE8F08F40462C
:100310002146F9E7001B61EB0201001C41F5801347
:1003200000185B412018A2F5001747EB030140EAD3
:10033000D570B6196D4111E06D084FEA360645EAF1
:10034000C0754FEA0752001B61EB0201001C41F52A
:10035000801149084FEA30000019514132462B46BE
:1003600003B0BDE8F04F00F052B900980122400000
:100370000023D0EB020263EBE073009821464FEAC2
:10038000E074B8EB000061EB0401E9E783F000439F
:100390005BE781F0004158E72DE9FE4F81EA030455
:1003A00004F0004421F0004100944FF0000B23F0D2
:1003B000004350EA01045ED052EA03045BD0C3F369
:1003C0000A54C1F30A552C44A4F2F3340194A0FB5F
:1003D0000254C1F3130141F48011C3F3130343F436
:1003E000801301FB024400FB034E840A970A44EA8F
:1003F000815447EA8357A4FB076802958D0A05FBE1
:1004000007854FEA932C04FB0C542705029D4FEA05
:10041000065847EA1637B5EB08056EEB070C870E52
:10042000920E47EA811742EA8312A7FB0201B6EB5C
:100430000B0164EB00042B0D43EA0C335E1844EB14
:100440001C50DA465146E7FB0201C5F313044FEA9C
:100450000B3343EA14534FEA0432019C43EA060388
:10046000A4F10C040294009CCDE900B400F0DEF885
:1004700003B0BDE8F08F00200146F9E72DE9F04D0B
:1004800081EA030404F0004B21F0004514464FF0CC
:10049000000A23F0004150EA050220D054EA01028C
:1004A0001DD0C5F30A570246C5F31303C1F3130069
:1004B000C1F30A5640F4801543F48013A7EB0608F5
:1004C000101BD64608F2FD3873EB050002D308F185
:1004D000010801E092185B41B8F1000F03DA002037
:1004E0000146BDE8F08D00204FF480110646844699
:1004F0000EE0171B73EB050705D3121B63EB050317
:1005000006434CEA010C49084FEA300092185B415F
:1005100050EA0107EDD152EA030012D082EA04004A
:1005200083EA0501084305D0101BAB4106D2012226
:10053000002306E000224FF0004302E06FF00102CA
:1005400053101AEB06004CEB085110EB0A0041EB7C
:100550000B01BDE8F04D00F05AB800F0004230F059
:1005600000400AD0C10D01F56071C0F3160042EAE7
:100570000151C208400711437047002001467047EF
:1005800030B50B46014600202022012409E021FA63
:1005900002F59D4205D303FA02F5491B04FA02F560
:1005A0002844151EA2F10102F1DC30BD202A04DB33
:1005B000203A00FA02F1002070479140C2F1200376
:1005C00020FA03F3194390407047202A04DB203AB5
:1005D00021FA02F00021704721FA02F3D040C2F163
:1005E00020029140084319467047202A06DBCB17AA
:1005F000203A41FA02F043EAE07306E041FA02F3DE
:10060000D040C2F12002914008431946704710B50E
:10061000141E73F1000408DA401C41F10001921825
:100620005B411A4301D120F0010010BD2DE9F04DCE
:1006300092469B4611B1B1FA81F202E0B0FA80F223
:1006400020329046FFF7B2FF04460F4640EA0A0008
:1006500041EA0B0153465A46084313D0114653EA68
:10066000010019D0C8F140025046FFF7AEFF054621
:100670000E46504659464246FFF798FF084305D0BC
:10068000012004E020463946BDE8F08D00200543F6
:1006900046EAE0762C4337430A986305E40AA0EB68
:1006A00008000022FD0A44EA47540A3002D500201F
:1006B0000146E9E7010510196941DDE9084500191E
:1006C0006941BDE8F04DA2E7C1F30A52C1F313013D
:1006D00040F2FF3341F480119A4202DA00200146D1
:1006E000704740F233439A42A2F2334202DC524254
:1006F000FFF76BBFFFF75ABF30B5041E71F100045E
:1007000004DB4FF00044404264EB0101141E73F11E
:10071000000405DB1C464FF00043524263EB040328
:10072000994208BF904230BD064C074D06E0E06894
:1007300040F0010394E8070098471034AC42F6D328
:10074000FFF726FDB83B0008D83B0008FEE72DE97F
:10075000F05F05461C4691460E4602FB05F811FB6C
:1007600005F7C1EB061000EB400B5A2D31D80A46B5
:10077000E3B24946012002F0C7F82D259BFBF5F0B6
:1007800097FBF5F1401A02B2C9EB091000EB400AE1
:100790009AFBF5F198FBF5F0081A02F023F90146EF
:1007A000E3B2022002F0B0F89BFBF5F097FBF5F105
:1007B000401A02B29AFBF5F198FBF5F0081A02F024
:1007C00011F90146E3B2032002F09EF8E3B232468B
:1007D00092E07142A5F15B0009B28A46592832D8ED
:1007E0002D25C6EB061000EBC00B9BFBF5F097FB2D
:1007F000F5F1401A02B2C9EB091000EBC00696FBF6
:10080000F5F198FBF5F0081A02F0ECF80146E3B2B6
:10081000012002F079F8E3B252464946022002F084
:1008200073F8E3B252464946032002F06DF89BFB91
:10083000F5F097FBF5F1401A02B296FBF5F198FB43
:10084000F5F0081A2AE015F159002CD34FF02D0AC3
:100850009BFBFAF197FBFAF008442D3502B209FB35
:1008600005F898FBFAF002F0BDF80146E3B201206A
:1008700002F04AF8E3B232464946022002F044F858
:10088000E3B232464946032002F03EF89BFBFAF100
:1008900097FBFAF0084402B298FBFAF002F0A2F8D3
:1008A0000146E3B229E005F1B4005A2828D80A46E7
:1008B000E3B24946012002F027F887356E432D2721
:1008C00096FBF7F002B209FB05F898FBF7F002F08F
:1008D00089F80146E3B2022002F016F896FBF7F021
:1008E00002B298FBF7F002F07DF80146E3B2032074
:1008F00002F00AF8E3B252464946042002F004F836
:10090000BDE8F05F01F0ECBF2DE9F04116460D4661
:10091000044601F045FD7048002790ED000A6F483D
:10092000B5EEC00AF1EE10FA01D080ED080A817927
:1009300011B101290FD0C9E000EE104A01218171E7
:10094000B8EEC00A80ED070A9FED650A80ED0A0A3D
:1009500080ED0C0ABAE090ED081A90ED070A614AA2
:1009600031EE400A10EE101A80ED090ADFED5E0A42
:10097000914202DB30EE600A06E010EE101A5B4A8C
:10098000914203D330EE200A80ED090AD0ED0A0A25
:10099000044670EE801AC0ED0A1AD0ED0C0A70EE13
:1009A000600AC0ED0B0A80ED0C0A90ED0D2A22EED4
:1009B000000A90ED0E2A02EE210AD0ED0F1A01EE88
:1009C000A00A80ED100A11EE100AFFF7C6FD41ECF7
:1009D000100B47A053EC102B02F01AFC206CFFF711
:1009E000BCFD41EC100B46A053EC102B02F010FCA8
:1009F00000EE905A94ED100AF8EE600AB4EEE00AA8
:100A0000F1EE10FA04DD00EE105AB8EE400A0DE0E7
:100A1000684200EE900AF8EEE00AB4EEE00AF1EE69
:100A200010FA05D200EE100AB8EEC00A84ED100AE2
:100A3000B1EE400AF2B2BDEEC00A10EE100A01B2E9
:100A4000012001F0A3FF94ED100AF2B2BDEEC00A3E
:100A500010EE100A01B2022001F098FF94ED100A86
:100A6000F2B2BDEEC00A10EE100A01B2032001F08E
:100A70008DFF94ED100AF2B2B1EE400ABDEEC00A4D
:100A800010EE100A01B2042001F080FF01F028FFEF
:100A9000D4ED070AB0EE001A94ED080A70EEC11A00
:100AA0000020F4EEC01AF1EE10FA12D870EE810AAE
:100AB000F4EEC00AF1EE10FA0BDBE179491CC9B281
:100AC000E171032902D3E0710127A0713846BDE826
:100AD000F081E071FAE700002400002028000020E7
:100AE00000000000000034430000B443000034C3A1
:100AF00074322E7478743D22256622FFFFFF0000B9
:100B000074332E7478743D22256622FFFFFF0000A7
:100B1000014800F0F3B800004C020020014800F04A
:100B2000EDB80000AC02002001681823CAB2103AE8
:100B3000B2FBF3F2054B6FF30901032A9B5CC3651B
:100B400000D9091D8165084670470000983B0008E0
:100B500010B5014600208B698A6A4FF0C07453B10A
:100B6000B3F5005F15D072B1012A0CD0022A0AD069
:100B7000032A09D104E01AB1012A06D0022A03D1BE
:100B8000C96AC90100D5012010BDC96AA142FAD0C5
:100B900010BD002AF7D0012AF2D0022AF3D0032A8E
:100BA000F3D010BD30B50468256825F48025256094
:100BB000046863608368402B036803D09960006811
:100BC000C26030BD9A600068C16030BD70470000EF
:100BD0004FF4077170B5B0FBF1F2B0FBF1F501FB1A
:100BE0001204094E03E0304600F010F86D1E002D8F
:100BF000F9D1002C06D04FF47A706043BDE8704004
:100C000000F004B870BD0000603D08000B49097891
:100C100048434FF0E021401E486100228A61086984
:100C200040F0010008610869C30701D0C003FAD58C
:100C3000086920F0010008618A6170477400002093
:100C400072B6FEE770472DE9F0410446876D00F06B
:100C5000BFFA064694F835000025022806D0802009
:100C6000606584F834500120BDE8F0812068016897
:100C700021F0160101602068416921F08001416185
:100C8000206C08B9A06C20B12068016821F008012F
:100C900001602068016821F0010101600CE000F0B2
:100CA00097FA801B052807D920206065032084F867
:100CB000350084F83450D7E720680068C007EED1CB
:100CC00094F85C103F208840B860012084F835001B
:100CD00084F834500020C7E790F83510022903D07B
:100CE0008021416501207047052180F8351000689A
:100CF000016821F001010160002070472DE9F843EF
:100D000004464FF00009CDF8009063484FF41651A7
:100D1000A56D0068B0FBF1F72E6894F85C10082010
:100D200000FA01F131420FD021680A6852070BD551
:100D30000A6822F004020A6094F85C108840A860F7
:100D4000606D40F00100606594F85C104FF00108A0
:100D500008FA01F0304208D021684969090604D533
:100D6000A860606D40F00200606594F85C1004209B
:100D70008840304208D021680968890704D5A860F6
:100D8000606D40F00400606594F85C1010208840AD
:100D9000304218D021680968090714D5A860206876
:100DA0000168490304D50068000308D5A16C07E079
:100DB0000168C90503D4016821F008010160216CB4
:100DC00009B12046884794F85C10202088403042C2
:100DD00031D021680968C9062DD5A86094F835007E
:100DE00005282068016806D0490347D5006800033C
:100DF0001DD4616C1CE021F016010160206841697E
:100E000021F080014161206C08B9A06C20B12068FC
:100E1000016821F00801016094F85C103F208840CF
:100E2000A86084F8358084F83490216D1FE0E16B70
:100E300009B120468847606D00282BD0606DC0073F
:100E400014D0052084F835002068016821F00101E4
:100E500001600098401C0090B84203D820680068E8
:100E6000C007F6D184F8358084F83490E16C00290D
:100E700010D001B02046BDE8F04308470168C9051D
:100E8000D5D4016821F01001016084F8358084F820
:100E90003490CCE7BDE8F8830C0000202DE9F04148
:100EA000044600F095F906465CB1022084F835004E
:100EB000002584F834502068016821F001010160A8
:100EC0000DE00120BDE8F08100F082F9801B0528CB
:100ED00005D920206065032084F83500F2E72068FA
:100EE0000068C007F0D12268116820480140D4E9A9
:100EF00001031843D4E903363343184363691843A5
:100F0000A3691843E3691843236A18430843616AD5
:100F1000042903D1D4E90B13194308431060206856
:100F20004069666A20F0070130460E430127042815
:100F30000CD1A06A0643E06A40B12046FFF708FEE4
:100F400020B14020606584F83570BAE720684661BA
:100F50002046FFF7E9FD94F85C203F219140816035
:100F6000656584F835700020ACE700003F8010F024
:100F70002DE9F0410446866D90F8340000250128E3
:100F80000DD0012084F8340094F835700020012F32
:100F900007D084F8340002252846BDE8F0810220FD
:100FA000FBE7022784F8357060652046FFF7FAFDFD
:100FB00094F85C103F208840B0602068016841F0E0
:100FC00016010160206C20B12068016841F0080121
:100FD00001602068016841F001010160DCE7000068
:100FE0002DE9F84FDFF8BCA10022012503264FF0C0
:100FF0000F090AF1040BAAF1040E00BF0B6805FAF1
:1010000002F42340A34270D10F7907F00307012FA8
:1010100001D0022F16D187684FEA420806FA08FC71
:1010200027EA0C07D1F80CC00CFA08FC4CEA070CB4
:10103000C0F808C04768A7430C79C4F30014944073
:101040003C4344600C79E443A4070AD0C4684FEAE7
:10105000420C06FA0CF7BC438F6807FA0CF72743DB
:10106000C7600C7904F00304022C12D1D40800EB01
:10107000840CDCF820405707FF0E09FA07F824EA31
:101080000804D1F8108008FA07F848EA0408CCF8F8
:10109000208004684FEA420C06FA0CF7BC430F7933
:1010A00007F0030707FA0CF7274307604C6814F4AE
:1010B000403F70D03C4C276847F480472760246845
:1010C00022F0030704F480440094384C07EB040C2E
:1010D000DCF8084897074FEA177809FA08F7BC4385
:1010E000334FB84202D1002724E054E0314FB842D8
:1010F00001D101271EE0304FB84201D1022719E08B
:101100002E4FB84201D1032714E02D4FB84201D130
:1011100004270FE02B4FB84201D105270AE02A4FE0
:10112000B84201D1062705E0284FB84201D1072770
:1011300000E0082707FA08F72743CCF80878DAF820
:1011400000405746D1F804C09C435FEACC2C00D540
:101150001C433C60DBF800405F46D1F804C09C4370
:101160005FEA8C2C00D51C433C60DEF800407746DB
:10117000D1F804C09C435FEA8C3C00D51C433C6022
:10118000084F083F3C68D1F804C09C435FEACC3C60
:1011900000D51C433C60521C102AFFF42FAFBDE861
:1011A000F88F0000083C0140443802400030014004
:1011B000000002400004024000080240000C02400F
:1011C000001002400014024000180240001C0240BF
:1011D00001488068704700000000002002488168D4
:1011E0000278114481607047000000200B4810B560
:1011F000016841F400710160016841F4806101609F
:10120000016841F480710160032000F077F80F203D
:1012100000F006F800F024F8002010BD003C024069
:1012200070B50D4D04464FF47A712878B1FBF0F09B
:101230000A490968B1FBF0F000F012FB48B9102C24
:1012400007D200222146501E00F038F800206C60C2
:1012500070BD012070BD0000000000200C000020C7
:101260000E4808B5016841F480410160006800F44F
:10127000804000900948001F016841F080510160E2
:101280000068002200F0805000901146512000F0CC
:1012900015F8BDE80840512000F002B8443802407B
:1012A000002809DB00F01F02012191404009800065
:1012B00000F1E020C0F8001170470000F0B40E4BC0
:1012C0001B680C46C3F30223C3F10705042D00D9A4
:1012D0000425191D072901D2002300E0DB1E012689
:1012E00006FA05F1491E214099409E40761E16409F
:1012F0003143F0BC01F09CBF0CED00E0064900F06A
:10130000070208684FF6FF03184040EA0220034A2C
:1013100010430860704700000CED00E00000FA0583
:101320002DE9F0470E46050065D0DFF81481D8F8A6
:101330000000F7B200F00700B04207D288F8007052
:10134000D8F8000000F00700B04254D128683D4CA6
:10135000810712D5400703D5206840F4E050206093
:101360002878000703D5206840F46040206020689A
:10137000A96820F0F000084320602878C0072DD02D
:10138000304968680839012812D0022813D0032890
:1013900011D00968890700292DDA216821F003019D
:1013A00001432160FFF714FF814641F2883A0EE0C5
:1013B00009688903EFE709688901ECE7FFF708FF8F
:1013C000A0EB0901514502D90320BDE8F087206850
:1013D000696800F00C00B0EB810FEFD1D8F8001075
:1013E000404601F00701B14207D90770006800F0DC
:1013F0000700B04201D00120E7E72878400705D573
:101400002068E96820F4E05008432060287800074D
:1014100006D52068296920F4604040EAC1002060B8
:1014200000F038F82168084AC1F30311515CC84044
:101430000649086006480068FFF7F2FE0020C4E78E
:10144000003C024008380240A03B00080C0000208D
:10145000040000200448054900680968044AC1F3F3
:101460008221515CC84070470C00002008380240BF
:10147000B03B00080448054900680968044AC1F304
:101480004231515CC84070470C00002008380240CF
:10149000B03B0008154810B5006810F00C02144865
:1014A00013D04110042A0FD0082A0ED10F4C241F4C
:1014B0002268236802F03F025B0207D52068C0F370
:1014C0008810A0FB010106E0084610BD2168C1F3A9
:1014D0008811A1FB00010023FEF774FE2168C1F30F
:1014E0000141491C4900B0FBF1F010BD0838024031
:1014F0000024F4002DE9F84F04006ED02078DFF8C6
:101500004C93C007A9F104054AD009F10400016811
:10151000C1F38101012908D00068C0F381000228CD
:101520000AD1D9F80000400206D52868800337D5D3
:1015300060680028E1D033E06068B0F5803F10D0EB
:10154000B0F5A02F286810D020F4803028602868DB
:1015500020F4802028606068A8B1FFF739FE0646B5
:101560000DE0286840F48030F4E740F480202860E3
:10157000F7E700BFFFF72CFE801B642873D82868AC
:101580008003F7D50CE0FFF723FE064605E000BF19
:10159000FFF71EFE801B6428F0D828688003F7D46C
:1015A0002078DFF8AC8280074FF0000A3ED5A748CC
:1015B000001D016811F00C0F08D00068C0F3810015
:1015C00002280BD1D9F80000400207D42868800710
:1015D00016D5E068012800D112E033E1E068B8B127
:1015E0000120C8F80000FFF7F3FD064605E000BF44
:1015F000FFF7EEFD801B0228C0D828688007F7D5CA
:101600002868216920F0F80040EAC10028600DE058
:10161000C8F800A0FFF7DCFD064604E0FFF7D8FDA0
:10162000801B02281FD828688007F7D4207800077D
:1016300022D5864F87486169703771B101210160F9
:10164000FFF7C6FD064604E0FFF7C2FD801B022837
:1016500009D838688007F7D50EE0C0F800A0FFF77A
:10166000B7FD064605E082E0FFF7B2FD801B0228C9
:101670007DD838688007F7D42078400768D5DFF830
:10168000CCB100270BF13C0BDBF80000C0000BD401
:10169000DBF8001041F08051CBF80010DBF80000BF
:1016A000012700F0805000906B4E3068C00510D4C8
:1016B000306840F480703060FFF78AFD009005E0EC
:1016C000FFF786FD0099401A022850D83068C005FF
:1016D000F6D55E4EA0686C3601280FD0052830681C
:1016E00010D020F001003060306820F0040030603D
:1016F000A068B8B1FFF76CFD00900FE0306840F0D3
:101700000100F4E740F004003060F7E7FFF760FD08
:101710000099411A41F28830814266D830688007CA
:10172000F4D50EE0FFF754FD009007E0FFF750FD01
:101730000099411A41F28830814256D830688007BA
:10174000F4D42FB1DBF8001021F08051CBF8001059
:10175000A069C8B33D49091D0968C1F38101022987
:101760004AD00228504607D0C8F8600000E03CE0AC
:10177000FFF72EFD04463BE04746C8F86000FFF740
:1017800027FD064605E000BFFFF722FD801B02286B
:101790002BD828688001F7D4D4E907010843A16A4F
:1017A0002E4A490802EB0141626A41EA821108436C
:1017B00094F82C1040EA0161C9F800100120386645
:1017C000FFF706FD044606E03EE000BFFFF700FD20
:1017D000001B022809D828688001F7D534E000BF33
:1017E000FFF7F6FC001B022802D90320BDE8F88FA2
:1017F00028688001F4D427E00128F7D0D9F8000048
:10180000E26900F4800191421CD1226A00F03F019C
:10181000914217D147F6C071626A0140B1EB821F55
:1018200010D1A26A4FF0FF3300F4403103EB5202B3
:10183000B1EB024F06D194F82C1000F07060B0EBC1
:10184000016F01D00120D1E70020CFE7043802402A
:1018500000004742800E4742007000400000FFFF3A
:1018600010B5401EB0F1807F01D3012010BD4FF0B4
:10187000E02460610F21601701F0DAFC0020A06114
:1018800007202061002010BD7047704770B590F8A8
:101890003C20012A32D0012480F83C40022280F80A
:1018A0003D2003685A689D6822F070060A6832433A
:1018B0005A60134B02689A4214D0B2F1804F11D093
:1018C000104B9A420ED0104B9A420BD00F4B9A42BB
:1018D00008D00F4B9A4205D00E4B9A4202D00E4BC5
:1018E0009A4204D1496825F080031943916080F839
:1018F0003D40002180F83C10084670BD022070BDBC
:10190000000001400004004000080040000C0040BE
:1019100000040140004001400018004010B50400E0
:1019200003D094F83D0010B107E0012010BD002065
:1019300084F83C00204600F01FF8022084F83D00A7
:10194000211D206801F016F9012084F8460084F872
:101950003E0084F83F0084F8400084F8410084F899
:10196000420084F8430084F8440084F8450084F879
:101970003D00002010BD000008B500680B498842FA
:1019800012D10B48016841F010010160006800228B
:1019900000F01000009011463620FFF78FFCBDE8E4
:1019A00008403620FFF77CBC08BD00000010004056
:1019B0004038024090F83D10012901D001207047C5
:1019C000022180F83D100168CA6842F00102CA6035
:1019D00000681149884214D0B0F1804F11D00F49EE
:1019E00088420ED00E4988420BD00E49884208D05A
:1019F0000D49884205D00D49884202D00C498842E1
:101A000004D1816801F00701062903D0016841F083
:101A10000101016000207047000001400004004007
:101A200000080040000C004000040140004001405C
:101A30000018004070472DE9F04104460068C66870
:101A400005694FF00007A90713D5B10711D5F91E95
:101A5000016101202077206880698007204602D03C
:101A6000FFF7E8FF04E000F07EF8204600F07CF885
:101A70002777680716D5700714D521686FF0040022
:101A80000861022020772068806910F4407F20469A
:101A900002D0FFF7CFFF04E000F065F8204600F029
:101AA00063F82777280715D5300713D521686FF01D
:101AB00008000861042020772068C069800720465C
:101AC00002D0FFF7B7FF04E000F04DF8204600F029
:101AD0004BF82777E80616D5F00614D521686FF085
:101AE00010000861082020772068C06910F4407F4A
:101AF000204602D0FFF79EFF04E000F034F82046B5
:101B000000F032F82777E80708D0F00706D0216800
:101B10006FF001000861204600F028F8280608D57B
:101B2000300606D521686FF0800008612046FFF777
:101B3000ABFE680608D5700606D521686FF0400038
:101B40000861204600F040F8A8060AD5B00608D57E
:101B500021686FF0200008612046BDE8F041FFF7E2
:101B600094BEBDE8F0817047704700001449884278
:101B700024D1144800210278012A01D052B10AE090
:101B80004288521C92B2428083889A4203D3418099
:101B9000017000E041804278012A01D052B10AE090
:101BA0000289521C92B20281C3889A4203D30181F6
:101BB000417000E001814189491C4181704700006A
:101BC0009C000020760000207047704710B5044646
:101BD0000068406994F84110C0F3C010212911D168
:101BE00080B12068143050E8001F21F0800140E8E7
:101BF0000012002AF5D1A06B08B1FFF724F82046A7
:101C000001F0F6F82068406994F84210C0F38010A3
:101C1000222911D180B12068143050E8001F21F032
:101C2000400140E80012002AF5D1E06B08B1FFF74F
:101C30000AF8204601F0B5F8002010BD70470000FA
:101C4000F8B5016804460868CA684B6910F00F0FC0
:101C50004FF0000559D003F0010602F490773743A6
:101C600065D0C10705D0D10503D5616C41F00101F4
:101C70006164410705D5D90703D0616C41F00201C9
:101C80006164810705D5D90703D0616C41F0040177
:101C90006164010707D502F02001314303D0616C74
:101CA00041F008016164616C00293AD0800604D5D6
:101CB000900602D5204601F0A9F820684069616CC1
:101CC000C0F38010090700D460B3204601F069F822
:101CD00020684069400621D52068143050E8001F74
:101CE00021F0400140E80012002AF5D1E06BA8B1D4
:101CF0006E490165E06BFEF7EFFF002811D0E06B45
:101D0000016D01B0BDE8F040084783060FD593068A
:101D10000DD52046BDE8F84001F078B82046FFF721
:101D20008DFFF8BD2046FFF789FF6564F8BD266B7F
:101D30002023012E7DD1C6067BD5D60679D508682D
:101D40004868009048694FF00206400641D5E16BB3
:101D5000086840680004000CE8D0A28D8242E5D9F2
:101D6000E085C869B0F5807F2DD020680C3050E840
:101D7000001F21F4807140E80012002AF5D120688C
:101D8000143050E8001F21F0010140E80012002A41
:101D9000F5D12068143050E8001F21F0400140E8E0
:101DA0000012002AF5D184F84230256320680C30F7
:101DB00050E8001F21F0100140E80012002AF5D180
:101DC000E06BFEF740FF6663A08DE18D401A81B2A3
:101DD0002AE0A08DE18D401A81B2E08D0028A5D0C7
:101DE0000029A3D022680C3252E8000F20F4907032
:101DF00042E80007002FF5D12068143050E8002F8A
:101E000022F0010240E80027002FF5D184F842308B
:101E1000256320680C3050E8002F22F0100240E8C3
:101E20000023002BF5D166632046FFF7CEFEF8BDF8
:101E3000FFE705062BD5150629D594F84100212882
:101E4000F5D1A068B0F5805F01D12069B0B1206AFA
:101E5000411C2162216800784860E08C401E00042B
:101E6000000CE084E3D12068C16821F08001C160EA
:101E70002068C16841F04001C160D8E7206A00884D
:101E8000C0F308004860206A801C2062E5E7400635
:101E9000CDD55006CBD5CA68204622F04002CA6094
:101EA00084F8413000F058FAC1E70000592C0008CE
:101EB00070B5040004D094F84100002510B106E08C
:101EC000012070BD84F84050204600F023F8242003
:101ED00084F841002068C16821F40051C1602046A7
:101EE00000F0F6FF2068016921F49041016120684B
:101EF000416921F02A0141612068C16841F4005123
:101F0000C1606564202084F8410084F84200656364
:101F1000002070BD2DE9F04186B0064614216846C8
:101F2000FEF788F98548844BD6F800C083491038FD
:101F300003250227824A00244FF008089C451BD144
:101F40000B6843F400230B60096801F4002105913C
:101F5000016841F0010101600068CDE9005700F01F
:101F60000100CDE9048069461046CDE90245FFF73E
:101F700037F806B0BDE8F081724B9C4532D10A6853
:101F800042F480120A60096801F480110591016829
:101F900041F004010160016801F00401059101684C
:101FA00041F008010160006802AA00F008000590F5
:101FB0009814CDE9000782E8300169466248FFF7CE
:101FC0000FF80420CDE9000702AA694682E8300133
:101FD0005E48FFF705F8002211463520FFF76EF93D
:101FE000352027E0DFF868810723C44525D1534910
:101FF000091D0E6846F010060E60096801F0100118
:102000000591016841F0010101600068029400F04F
:10201000010005904FF4C060CDE90007CDE90353FE
:1020200069461046FEF7DCFF002211462520FFF727
:1020300045F92520FFF734F99BE7DFF81881C445FF
:1020400054D1D1F800C04CF4003CC1F800C009687C
:1020500001F400310591016841F00101016000685F
:10206000029400F0010005900C20CDE90007CDE9B5
:10207000035369461046FEF7B3FF384D36484FF01C
:1020800000672860C5E901744FF48068C5E903481A
:102090006C614FF44030AC61C5E9074028466C6282
:1020A000FEF7FCFE08B1FEF7CBFDF563AE632B4DEA
:1020B000294860351830E5E802074020A5E81101FD
:1020C000264845F814496030AC61EC612C626C62C2
:1020D000FEF7E4FE08B1FEF7B3FDB563002211463A
:1020E0002620AE63FFF7EAF82620A3E71C4A9445B2
:1020F000A2D10A6842F480220A60096801F48021B2
:102100000591016841F0020101600068029400F04D
:10211000020005904FF44060CDE90007CDE903537C
:1021200069461048FEF75CFF002211462720FFF7A2
:10213000C5F827207EE70000004C004040380240F0
:10214000000002400050004000080240000C024025
:102150000010014000440040886002404C02002012
:10216000004800400004024090F84230202B01D08B
:102170000220704721B11AB10023036300F02EBF83
:102180000120704790F84230202B01D00220704788
:1021900021B11AB10023036300F068BF012070472A
:1021A00070B5044600681349884207D1204600F004
:1021B000C1FF0100104800D0012101700F492068C3
:1021C000884203D10E48007800F0E6FA0D4D2068F1
:1021D000A84202D1204600F019F82068A84202D196
:1021E000204600F045F9BDE8704001220449064848
:1021F000FFF7C8BF00100140100000200048004059
:1022000032000020005000400402002010B5094CAC
:1022100000682168096888420BD107480178A068E6
:1022200000F033FC2068BDE8104001220249FFF7AE
:10223000A9BF10BD580700208200002070472DE97B
:10224000F843044690F84100984616460D4620286B
:1022500002D00220BDE8F88385B17EB10020606421
:10226000212084F84100FEF7B3FFA6848146E6846E
:10227000A0682027B0F5805F02D003E00120E9E7E5
:10228000206910B12E4600250EE000260CE08021CA
:10229000204600F006FFA8B9C6B116F8010B216868
:1022A0004860E08C401EE084E08C4B464FF000021A
:1022B000CDF800800028EAD14FF04001204600F020
:1022C000F0FE40B184F841700320C3E735F8020BFB
:1022D000C0F30800E3E784F841700020BAE700008B
:1022E00070B5044690F84100202801D0022070BD4E
:1022F00049B342B32162A284E284002060642123B6
:1023000084F84130A56B114BEB63A56B104B2B642C
:10231000A56B104BEB64A36B1865256813462A1D4B
:10232000A06BFEF725FE21686FF040000860206872
:10233000143050E8001F41F0800140E80012002AEC
:10234000F5D1002070BD012070BD0000572D0008A0
:10235000992D0008692C000870477047FEE70000BF
:102360001CB50BA1D1E90001CDE900010A480068C4
:10237000C16841F01001C1601E2208490648FFF7FC
:10238000F3FEFF2269460448FFF7AAFF1CBD0000C8
:10239000FFAA760000000000BC0100200C03002012
:1023A00070B5204D287801283BD11F4C607CA17C62
:1023B000227D0844E17C11440844A830617DC0B20C
:1023C000884221D119A000F023FFB4F81100DFEDFD
:1023D0001A0A00EE100A1B49B8EE400A20EE200A45
:1023E000DFED160A20EE200ADFED150A85ED010A61
:1023F00030EEC00A10EE100A85ED020A884203DBB7
:102400009FED110A85ED020A002028701E21064862
:10241000FDF710FFBDE870401E2203490B48FFF78F
:10242000A3BE70BD1C0000200C0300204552524F7B
:1024300052210D0A00000000000000380000344363
:102440000000B4430000B44300000000BC010020C1
:1024500010B5012204490548FFF794FEBDE810407D
:102460006420FEF7B5BB0000180000202C010020FE
:1024700070B5104C104D0122207861782954401C11
:102480002070611C0D48FFF77DFE207809280FD1D0
:10249000287838B9287AEF2804D168780A2801D139
:1024A00000F00EF8044900200860486008722070AF
:1024B00070BD000017000020880000202C010020C3
:1024C000104910B5002041F8090F486008720D4905
:1024D000093108700B204870022004220A54401C65
:1024E0000728FBDDEF20087206494FF47A730922B2
:1024F00009310548FFF7A3FEBDE810401420FEF7A0
:1025000067BB0000880000202C0100200D4808B5A2
:10251000016841F4001101600068002200F400101D
:10252000009011461020FEF7C9FE1020FEF7B8FEFD
:10253000002211461120FEF7C1FEBDE8084011201F
:10254000FEF7AEBE30380240154808B5016841F0CC
:1025500080010160016801F080010091016841F093
:1025600001010160016801F001010091016841F081
:1025700002010160016801F002010091016841F06F
:1025800004010160016801F004010091016841F05B
:1025900008010160006800F00800009008BD00001C
:1025A000303802401CB500240F4800940D490194B6
:1025B000016042F2CF01C0E901146321C1608021B2
:1025C0008161FFF7ABF908B1FEF73AFB0094694669
:1025D00005480194FFF75AF9002801D0FEF730FBB7
:1025E0001CBD0000001000409C0000200C4810B5ED
:1025F0000A4901604FF4E1314160002181600C2201
:10260000C160C0E904128161C161FFF751FC00287B
:1026100003D0BDE81040FEF713BB10BD004C0040D6
:10262000E40000200C4810B50A4901604FF4E13184
:102630004160002181600C22C160C0E90412816107
:10264000C161FFF735FC002803D0BDE81040FEF75C
:10265000F7BA10BD005000402C0100200C4810B506
:102660000A4901604FF461214160002181600C2220
:10267000C160C0E904128161C161FFF719FC002843
:1026800003D0BDE81040FEF7DBBA10BD00100140DA
:10269000740100200C4810B50A4901604FF4E13183
:1026A0004160002181600C22C160C0E90412816197
:1026B000C161FFF7FDFB002803D0BDE81040FEF725
:1026C000BFBA10BD00440040BC0100200C4810B54A
:1026D0000A4901604FF4E1314160002181600C2220
:1026E000C160C0E904128161C161FFF7E1FB00280C
:1026F00003D0BDE81040FEF7A3BA10BD004800406B
:1027000004020020FEE700000B4910B50870F3201A
:102710004870AB2088700120C870002008716B20C1
:1027200048714FF47A7306220448FFF788FDBDE82C
:1027300010400A20FEF74CBA3E030020040200209D
:1027400010B50120FFF7E0FF0220FFF7DDFF0320B7
:10275000FFF7DAFF0420FFF7D7FFBDE810400520A0
:10276000FFF7D2BF0A4810B50068C16841F02001E8
:10277000C160012207490648FFF704FD002000F070
:1027800081F86420FEF724FABDE81040FFF7D8BFB7
:102790000402002032000020F0B5384A012411461E
:1027A0001779CB78591CCEB23549C7B10225012F14
:1027B0001ED0022F12D1D07801EB400030F8023C3D
:1027C00000206B2B1DD01071D07015705FF00002CF
:1027D00021F81200521CD2B20A2AF9D3F0BD012806
:1027E00001D00528FAD1147121F81300D670F0BD7C
:1027F00021F81300D6700A2E01D26B28F7D115717B
:10280000D9E7D07010710B88012B02D0052B10D0A6
:102810001AE04B88FD2B17D18B889F2B14D1147095
:102820005FF0000221F81200521CD2B2042AF9D340
:10283000F0BD4B88FD2B02D0272B18D004E08B88ED
:102840009F2B01D1937843B15FF0000221F8120071
:10285000521CD2B20A2AF9D3F0BD94705FF0000284
:1028600021F81200521CD2B2042AF9D3F0BDC88854
:10287000097940EA01209081F0BD00002800002085
:102880002A0300202DE9F041134C05466B262070E9
:10289000FE2060709820A0700020E0704FF47A77DE
:1028A00026713B46052221460C48FFF7C8FC0A204A
:1028B000FEF78EF925700A2060706D20A070E6701A
:1028C0003B46042221460548FFF7B9FCBDE8F0412C
:1028D0000A20FEF77DB900003E030020040200201C
:1028E000074800214FF47A730170FF21417066217F
:1028F00081706B21C170014604220248FFF79FBC22
:102900003E0300200402002070B50446104600F08B
:1029100069F885B21A48FD26012C0470467005D06E
:10292000042C03D0002A03DB012202E0002AFBDB97
:10293000002282702A0AC270057143710A0E8271E8
:102940000A0CC2710A0A02724172002585720121C5
:10295000C1726B2101734FF47A730D220849094843
:10296000FFF76DFC012C05D1074C0A202570FEF7FE
:102970002FF92570BDE870400120FEF747B900002F
:102980003E030020040200202800002070B503460A
:10299000084600F027F884B21048F6250370457009
:1029A0000125012B17D0042B15D005EBE1718170A7
:1029B000210AC1700471427185716B21C1714FF49C
:1029C0007A73082205490648FFF739FCBDE87040D4
:1029D0000120FEF71BB9C90FE9E700003E03002004
:1029E00004020020002800DA40427047FEE77047EA
:1029F00000B503895B1E00F003F8181A80B200BD11
:102A00008288C1888A4203D90089511A401A00E09D
:102A1000881A80B27047026000228280C280491CFE
:102A20000181114603E003685A54491C89B20389A5
:102A30008B42F8D8704710B50446FFF7D9FF2189BB
:102A4000491E89B2884201D1012010BD002010BD6D
:102A500000B5FFF7CDFF08B1002000BD012000BD8B
:102A600010B50446FFF7E7FF08B1002010BDA088AD
:102A70002189401CB0FBF1F201FB120081B2A18060
:102A800022680023505C535410BD30B50D460446F7
:102A9000FFF7DEFF10B12046FFF7E2FFE088218953
:102AA000401CB0FBF1F201FB120080B2E080216813
:102AB0000D5430BD7047000001490020C8707047B8
:102AC00010000020FEF78ABB30B593B03021684675
:102AD000FDF7B0FB14210CA8FDF7ACFB1C4800254A
:102AE000016841F080510160006800F08050119051
:102AF0001848016841F4804101600068022400F434
:102B00008040119001200090000401908001CDE9E7
:102B1000064008AA0420A82182E813000B9068460A
:102B2000FEF7E8FC08B172B6FEE70CA90F2081E8B9
:102B300031004FF4A0500F90109005210CA8FEF723
:102B4000EFFB002801D072B6FEE713B030BD0000E5
:102B500040380240007000400248016841F47001B2
:102B60000160704788ED00E00148FEF764BF000097
:102B70009C000020F0B50268294C2A4D2A4E2B4FAC
:102B80002B4B4FF0804CA04209D0604507D0A842A3
:102B900005D0B04203D0B84201D0984204D122F00F
:102BA000700E4A6842EA0E02A0421BD0604519D05E
:102BB000A84217D0B04215D0B84213D0984211D0D5
:102BC0001C4DA8420ED01C4DA8420BD01B4DA84254
:102BD00008D01B4DA84205D01A4DA84202D01A4D6C
:102BE000A84203D122F44075CA682A434D6922F0F5
:102BF00080022A4302608A68C2620A688262A04236
:102C000001D0984201D10969016301214161016943
:102C1000C90703D0016921F001010161F0BD000085
:102C2000000001400004004000080040000C00408B
:102C300000040140004001400044014000480140C0
:102C400000180040001C0040002000400148FEF732
:102C5000F7BF00002C01002010B5806B0021C1855A
:102C6000C184FEF7EBFF10BD70B5846B206840692E
:102C700094F84110C0F3C0100025212904D118B1E7
:102C8000E584204600F0B4F82068406994F84210CA
:102C9000C0F38010222904D118B1E585204600F048
:102CA00080F8606C40F0100060642046FEF7C6FFBC
:102CB00070BD10B50146806B096809684FF00002CD
:102CC000C9052ED4C28501680C3151E8003F23F4B8
:102CD000807341E80034002CF5D10168143151E8CB
:102CE000003F23F0010341E80034002CF5D10168D6
:102CF000143151E8003F23F0400341E80034002C38
:102D0000F5D1202180F84210016B012909D1016819
:102D10000C3151E8003F23F0100341E80034002C4F
:102D2000F5D14263016B012902D0FFF739FA10BDDA
:102D3000818DFEF74AFF10BD10B5806B0121416304
:102D4000016B012902D0FFF779FA10BD818D490886
:102D5000FEF73BFF10BD10B50146806B096809689E
:102D6000C90516D40021C1840168143151E8002F2F
:102D700022F0800241E80023002BF5D101680C31DC
:102D800051E8002F42F0400241E80023002BF5D12A
:102D900010BDFFF7E1FA10BD10B5806BFFF7DDFA4B
:102DA00010BD01680C3151E8002F22F4907241E807
:102DB0000023002BF5D10168143151E8002F22F0D7
:102DC000010241E80023002BF5D1016B012909D153
:102DD00001680C3151E8002F22F0100241E8002375
:102DE000002BF5D1202180F84210002101637047AB
:102DF00001680C3151E8002F22F0C00241E80023A5
:102E0000002BF5D1202180F84110704708B590F8CB
:102E10004210222901D0022008BD82684FF480535D
:102E20009A4201D1016921B1816A9A421BD04AB10B
:102E30000AE00268816A5268C2F308020A80816A65
:102E4000891C08E0026972B10268526802F07F02D0
:102E50000A70816A491C8162C18D491E0904090CEE
:102E6000C18503D01BE002685268F1E70168CA68B7
:102E700022F02002CA600168CA6822F48072CA6027
:102E800001684A6922F001024A61202180F842105B
:102E900000214163026B012A03D0FFF781F9002072
:102EA00008BD016301680C3151E8002F22F01002C7
:102EB00041E80023002BF5D101680A68D20602D54B
:102EC0000A6849680091818DFEF77FFEE7E7000000
:102ED00070B5044600680169E26821F4405111436D
:102EE00001612169A068E2690843616911430843EF
:102EF0002168CA6849F20C639A430243CA60206899
:102F00004169A26921F4407111434161314920684E
:102F1000884202D03049884202D1FEF7ABFA01E084
:102F2000FEF798FAE2690023192164253226B2F5EA
:102F3000004F626828D0A0FB0101930F9200FDF7BB
:102F400041F90146B0FBF5F06FF01802504301EB78
:102F5000800006EB0010B0FBF5F000F0F002B1FBD2
:102F6000F5F002EB0012B1FBF5F06FF018035843D7
:102F700001EB800006EB0010B0FBF5F000F00F0055
:102F800021681044886070BDA0FB010192185B416C
:102F9000FDF718F90146B0FBF5F00201B1FBF5F0C1
:102FA0006FF01803584301EB800006EBC000B0FB44
:102FB000F5F000F0F80002EB4002B1FBF5F05843E9
:102FC00001EB800006EBC000B0FBF5F000F007005D
:102FD000D6E70000001001400014014038B58162BE
:102FE00004468285002013466064222284F8422031
:102FF000E56B1B4AEA63E56B1A4A2A64E56B1A4AD9
:10300000EA64E26B10650A462168E06B091DFDF772
:10301000AFFF2068016840680090206948B12068CF
:103020000C3050E8001F41F4807140E80012002A83
:10303000F5D12068143050E8001F41F0010140E84C
:103040000012002AF5D12068143050E8001F41F02A
:10305000400140E80012002AF5D1002038BD0000F0
:10306000B32C0008392D0008692C00088162828584
:10307000C28500214164222180F84210016921B1FA
:103080000168CA6842F48072CA6001684A6942F005
:1030900001024A610068C16841F02001C16000205E
:1030A00070472DE9F843984617460D460446089E9A
:1030B00024E0701C22D0FEF78BF8A0EB0800B04291
:1030C0001AD8CEB12068C168490717D5802D15D010
:1030D000402D13D00168C94309070FD401680025AA
:1030E000406800902046FFF75CFE0820606484F88A
:1030F00040500120BDE8F8830320FBE7206800680A
:1031000035EA000004D00020B842D2D00020F1E718
:103110000120F9E710B5012204490548FFF732F80C
:10312000BDE810406420FDF753BD000016000020EC
:103130007401002070B50E4C0025607868B92646F1
:10314000A0783070012060700246A11C0948FFF78A
:1031500019F86078012803D000E06570002070BD88
:103160003078552801D02570F7E76570012070BDD3
:1031700014000020740100200148FEF761BD00002A
:1031800074010020094808B500680168C90608D51F
:103190000168406800900548FEF718FD04490120C9
:1031A0000870BDE808400148FEF74ABDBC01002098
:1031B0001C0000200148FEF743BD0000040200206F
:1031C000FEE7000070B50E4A04464FF4FA75294632
:1031D00002F57B70FFF71FFC0A4A294602F2032022
:1031E000FFF719FC084901F10C0081600C39C0E9B6
:1031F00000412046BDE8704001220449FEF7C2BFED
:1032000054030020490500204C07002082000020C4
:103210000FB4054B10B503A9044A029800F0EAF870
:1032200010BC5DF814FB0000FD3A0008840000208B
:103230000907090E002804DB00F1E02080F80014E3
:10324000704700F00F0000F1E02080F8141D704777
:1032500002E008C8121F08C1002AFAD1704770475F
:10326000002001E001C1121F002AFBD170470000BD
:103270002DE9FF5F82B00021DDE90430020DDDF8A9
:1032800040B0034318D044F61050A2F2FF3242433C
:103290001514119801281FD0A5EB0B00401C5FEA04
:1032A000000A4FF000064E4FDFF83891B046504606
:1032B00015D5CAF1000413E0119801244AA301288E
:1032C00001D16FEA0B010298119AC0E90031C0E9FF
:1032D000024206B0BDE8F09FCBF10000DFE70446F4
:1032E0000021404A491842EB0450CDE9001012E099
:1032F000E00707D032463B4640464946FDF74CF8CA
:103300008046894632463B4610461946FDF744F84A
:1033100006460F466410002CEAD1DDE90401DDE920
:103320000023BAF1000F06DAFDF736F842464B46A5
:10333000FDF732F805E0FDF7A1F842464B46FDF7F0
:103340009DF804460E460022284BFDF7D5F903D818
:103350004FF0FF30014607E00022254B2046314662
:10336000FCF773FFFDF7B0F9102409E0002C0ADB2D
:103370000A220023FCF726FF039B30321A55641EF5
:1033800050EA0102F2D1641C039AC4F111031444FF
:10339000119A012A03D0012208430DD10AE0084303
:1033A00004D000204FF0110B119072E7A3EB0B0536
:1033B0006D1E0DE05B4504DD4FF0000205F10105D7
:1033C00004E003DA4FF00002A5F10105002AECD079
:1033D00002981199C0E90231C0E9004579E700007F
:1033E000000014400000F03F300000000000F043F7
:1033F0000000E03F2DE9FF4F95B09A46884606460B
:103400000025EEE1252877D100242746F94A01213D
:10341000039400E0044316F8013F203B01FA03F057
:103420001042F7D130782A2811D06FF02F0330786E
:10343000A0F13002092A16D8039A44F0020402EBE4
:10344000820203EB42021044761C0390EFE758F827
:10345000042B0392002A03DA504244F400540390F0
:1034600044F00204761C30782E2816D116F8010F8D
:1034700044F004042A280DD06FF02F023078A0F118
:103480003003092B09D807EB870302EB4303C71866
:10349000761CF3E758F8047B761C30786C280FD044
:1034A00006DC4C2817D068280DD06A2814D104E017
:1034B000742810D07A280FD10DE044F400140AE0EB
:1034C00044F4801401E044F440147278824202D142
:1034D00004F58014761C761C307866280BD013DC3B
:1034E000582877D009DC002875D04528F6D0462822
:1034F000F4D047281AD193E118E0632835D0642826
:1035000079D0652812D18BE1702873D008DC672848
:10351000F1D069286FD06E280DD06F2806D1ACE0AD
:1035200073282CD0752874D0782853D05246179918
:1035300090476D1C54E1C4F30250022809D00328BF
:103540000DD0D8F8001004280DD00D6008F1040843
:1035500046E1D8F80010EA17C1E90052F6E7D8F8BA
:1035600000100D80F2E70D70F0E718F8041B8DF8DD
:10357000001000208DF80100EB46012003E058F810
:1035800004BB4FF0FF3061074FF0000102D40DE0A3
:1035900009F101018946B9420FDA8145F8DB1BF8D0
:1035A00009100029F4D108E009F10101894681429E
:1035B000FADB1BF809100029F6D103985346A0EB5B
:1035C000090721463846179A00F080FA284400EB94
:1035D000090507E044E008E10DE01BF8010B524645
:1035E00017999047B9F10109F7D253462146384659
:1035F000179AF2E039E00A21C4F302524FF0000BAF
:103600000091022A06D058F8040BC117032A09D0EA
:103610000AE023E008F1070020F00702F2E80201C7
:10362000904605E000B2C117042A01D140B2C1178B
:10363000002906DA0A460021404261EB02012D22F0
:1036400002E0220504D52B228DF80420012203E09C
:10365000E20701D02022F7E7914657E00A2100E077
:1036600010214FF0000B00910BE010214FF0000BE8
:1036700044F004040827009103E008204FF0000BF9
:103680000090C4F30252022A05D058F8040B00211E
:10369000032A08D008E008F1070020F00702F2E84A
:1036A0000201904603E080B2042A00D1C0B24FF07C
:1036B000000922072AD53278702A07D0DDF800C029
:1036C0008CF0100C5CEA0B0C05D00EE040228DF85B
:1036D0000420012208E050EA010306D030238DF8CF
:1036E00004308DF8052002229146009B83F00803E8
:1036F00053EA0B030AD150EA010201D1620705D552
:1037000030228DF804204FF001097F1E3278582AAC
:1037100004D039A20C920CAA02920BE03BA2F9E76A
:103720005B46009AFCF74EFD0C9B9B5C029A521E76
:103730000292137050EA0102F2D1029804A9081A09
:1037400000F1200B600702D524F4803400E001274B
:103750005F4502DDA7EB0B0000E0002000EB0B0152
:10376000009003984944401A0390E00306D453465E
:103770002146179A039800F0A9F90544002706E0AE
:1037800001A85246C05D179990476D1C7F1C4F459C
:10379000F6DBE0030CD553462146179A039800F058
:1037A00095F9054404E030205246179990476D1C66
:1037B0000099481E00900029F5DC08E00298029963
:1037C00052460078491C0291179990476D1CBBF135
:1037D0000001ABF1010BF1DC5BE100F065F90544A0
:1037E000761C307800287FF40DAE19B02846BDE86D
:1037F000F08F00000928010030313233343536377C
:10380000383961626364656600000000303132332C
:1038100034353637383941424344454600000000CC
:10382000600700D4062708F1070020F00700F0E841
:103830000223804603F0004C5FEA0C0001D097A001
:1038400009E0200501D596A005E0E00701D095A08C
:1038500001E0AFF24C001390307823F0004365286C
:103860000CD006DC452809D046281DD047287FD13A
:103870003BE0662818D067287AD136E00021112F66
:1038800001DB112000E0781CCDE9000104A90CA89F
:10389000FFF7EEFCDDE90D010C9A4FF0000B07F18C
:1038A0000109109200914EE04FF000400097CDE9E1
:1038B000011004A90CA8FFF7DBFCDDE90D020C9B4D
:1038C0000F994FF0000B91461093009211B9791C9B
:1038D00000EB0109B7EB090003D4C0F1FF3B07F18E
:1038E0000109A9EB0700019042E0012F00DA01274E
:1038F0000021112F01DD112000E03846CDE9000143
:1039000004A90CA8FFF7B4FCDDE90D010C9A0091A5
:103910004FF0000BB946109221070FD4009A4A4588
:1039200003DA914601E0A9F10109B9F1010F05DDC2
:10393000109AA9F10101515C3029F4D0B84202DAA1
:1039400010F1040F03DA0121CDE9011010E0002885
:1039500003DC8344A9EB000102E0411C494500DD82
:103960008946A0EB0B00401C01904FF000400290F4
:10397000200705D40198484502DB4FF0FF30019045
:1039800000208DF84B0002980DF14B07B0F1004F6D
:1039900025D002200C902B200D90029800280CDAE4
:1039A000404202902D200D9007E00A210298FCF77A
:1039B000E7FD3031029007F8011D0C99481E0C906C
:1039C0000029F2DC02980028EFD1791E0D980870CA
:1039D000307800F0200040F0450007F8020D11A8F3
:1039E000C01BC01D02901398007800B1012000EBAD
:1039F0000901019801EBE071029801440398401A13
:103A0000401E0390E00306D453462146179A0398BC
:103A100000F05CF805441398007818B152461799E5
:103A200090476D1CE00323D553462146179A03980F
:103A300000F04CF805441BE0BBF1000F07DB0098D9
:103A4000584504DD1098179910F80B0001E01799FC
:103A500030205246904701980BF1010B401E05F1B2
:103A60000105019004D12E205246179990476D1CF4
:103A7000B9F10001A9F10109DEDC05E017F8010B3D
:103A80005246179990476D1C0299481E02900029D2
:103A9000F4DC53462146179A03989EE62D00000059
:103AA0002B000000200000002DE9F0410446002515
:103AB0001E461746880404D405E039462020B04746
:103AC0006D1C641EF9D52846BDE8F0812DE9F04152
:103AD000044600251E469046C80301D5302700E065
:103AE0002027880404D505E041463846B0476D1CC0
:103AF000641EF9D52846BDE8F081000013B54FF6E5
:103B0000FF73012269460248FEF799FB00981CBD2D
:103B100074010020FDF76AFBFEF7D6FFFEF714FDE7
:103B2000FEF7F4FCFEF79AFDFEF7B4FDFEF73AFD52
:103B3000FEF7CCFDFEF776FDFEF758FDFEF710FC14
:103B4000FEF710FE1148FFF73DFBFEF7F9FDFEF70B
:103B50007FFCFFF7DFFAFEF7AFFF0D48FDF72AFF06
:103B60000C4C0125207838B99622C8215A20FCF740
:103B7000CBFE08B1257002E020780128F2D10023A5
:103B80001A4619461846FCF7E2FDEBE7E400002070
:103B90009C000020190000200006101600061016D8
:103BA00000000000000000000102030406070809ED
:103BB0000000000001020304D83B000800000020C0
:103BC0008800000050320008603C00088800002097
:103BD000E00A000060320008010000001000000050
:103BE000000000000024F4000000000000000000BD
:103BF00000000000000000000000000000000000C5
:103C000001000100000000000000000000000000B2
:103C100000000000000000009A99614200000000CE
:103C20000000000000000000000000000000000094
:103C3000000000009A99193F00000000CDCCCC3D57
:103C40000000000000000000000000000000000074
:103C50000000000000000000000000000000000064
:040000050800018965
:00000001FF
