:020000040800F2
:10000000000900202902000857160008B115000851
:10001000551600081F040008191A00080000000007
:100020000000000000000000000000005B16000857
:10003000B504000800000000591600085D1600080D
:10004000430200084302000843020008430200087C
:10005000430200084302000843020008430200086C
:10006000430200084302000843020008430200085C
:10007000430200084302000843020008430200084C
:10008000430200084302000843020008430200083C
:10009000430200084302000843020008430200082C
:1000A000430200084302000843020008430200081C
:1000B000430200084302000843020008430200080C
:1000C00043020008430200084302000843020008FC
:1000D000430200084302000843020008A119000877
:1000E00043020008430200084302000843020008DC
:1000F00043020008430200084302000843020008CC
:1001000043020008430200084302000843020008BB
:1001100043020008430200084302000843020008AB
:1001200043020008430200082104000843020008BB
:10013000430200084302000843020008430200088B
:10014000430200084302000843020008430200087B
:1001500043020008430200082D040008430200087F
:10016000430200084302000843020008430200085B
:100170004302000843020008430200080000000098
:10018000430200084302000800F002F800F03CF8C7
:100190000AA090E8000C82448344AAF10107DA45E2
:1001A00001D100F031F8AFF2090EBAE80F0013F0F8
:1001B000010F18BFFB1A43F001031847F0190000A4
:1001C000101A0000103A24BF78C878C1FAD8520734
:1001D00024BF30C830C144BF04680C6070470000C1
:1001E0000023002400250026103A28BF78C1FBD840
:1001F000520728BF30C148BF0B6070471FB501F0E0
:10020000BFFC1FBD10B510BD00F0CFF81146FFF7C1
:10021000F5FF01F053FC00F0EDF803B4FFF7F2FF37
:1002200003BC00F0F5F80000094880470948004782
:10023000FEE7FEE7FEE7FEE7FEE7FEE7FEE7FEE796
:10024000FEE7FEE704480549054A064B70470000F3
:10025000F1160008890100080003002000090020B1
:10026000000500200005002053EA020C00F0698020
:100270002DE9F04B4FF00006002B1FBFB3FA83F5BA
:1002800003FA05F424FA05F65E4012BF1643B2FAEB
:1002900082F502FA05F4C5F120051EBF22FA05FC1D
:1002A00044EA0C04203556EA044C4FEA144418BFC3
:1002B000641C4FF000084FF00009904271EB030CF2
:1002C00039D3002919BFB1FA81F701FA07F6B0FA5C
:1002D00080F700FA07F6C7F120071EBF20FA07FCD7
:1002E00046EA0C062037B6FBF4FCA7EB0507103FE7
:1002F00007F01F0BCBF120060CFA0BFB2CFA06F6CD
:1003000044BFB3460026202FA4BF5E464FF0000B2B
:100310005BEA060C08BF4FF0010B19EB0B09ABFBB6
:10032000027C48EB0608C01B06FB02CC0BFB03CC8F
:1003300071EB0C01C1E70B46024641464846BDE859
:10034000F08B13B54FF000004FF00001AFF30080C9
:10035000BDE81C4070474FF0000200B513469446BC
:100360009646203922BFA0E80C50A0E80C50B1F10D
:100370002001BFF4F7AF090728BFA0E80C5048BF21
:100380000CC05DF804EB890028BF40F8042B08BFBF
:10039000704748BF20F8022B11F0804F18BF00F8BB
:1003A000012B7047704770477047754600F02CF876
:1003B000AE4605006946534620F00700854618B052
:1003C00020B5FFF73FFFBDE820404FF000064FF09B
:1003D00000074FF000084FF0000B21F00701AC467A
:1003E000ACE8C009ACE8C009ACE8C009ACE8C00999
:1003F0008D46704710B50446AFF300802046BDE837
:100400001040FFF70ABF000000487047A00200201C
:1004100001491820ABBEFEE7260002007047FEE748
:10042000014800F003B900005C000020014800F022
:10043000FDB80000BC00002001681823CAB2103AC1
:10044000B2FBF3F2054B6FF30901032A9B5CC36512
:1004500000D9091D81650846704700008A1B000805
:1004600010B5014600208B698A6A4FF0C07453B101
:10047000B3F5005F15D072B1012A0CD0022A0AD060
:10048000032A09D104E01AB1012A06D0022A03D1B5
:10049000C96AC90100D5012010BDC96AA142FAD0BC
:1004A00010BD002AF7D0012AF2D0022AF3D0032A85
:1004B000F3D010BD70472DE9FF410027DDE90A4662
:1004C00000978DF80000FD208DF801008DF80210D6
:1004D0000197100A8DF803008DF804208DF805307F
:1004E000200E8DF80600200C0C9D8DF80700029759
:1004F000200A8DF8080003978DF809406B208DF8CD
:100500000A608DF80C008DF80B500D21684601F043
:100510002DFBBDE8FF811FB5002200928DF8000081
:10052000FE208DF8010098208DF8020001926B20CA
:100530008DF803108DF8040002920392052168469D
:1005400001F014FB1FBD1FB5002100918DF80000C4
:10055000FF208DF8010066208DF802006B200191CC
:10056000029103918DF803000421684601F0FEFA20
:100570001FBD72B6FEE72DE9F0410446876D00F01D
:1005800099FA064694F835000025022806D0802006
:10059000606584F834500120BDE8F081206801686E
:1005A00021F0160101602068416921F0800141615C
:1005B000206C08B9A06C20B12068016821F0080106
:1005C00001602068016821F0010101600CE000F089
:1005D00071FA801B052807D920206065032084F864
:1005E000350084F83450D7E720680068C007EED1A2
:1005F00094F85C103F208840B860012084F83500F2
:1006000084F834500020C7E790F83510022903D051
:100610008021416501207047052180F83510006870
:10062000016821F001010160002070472DE9F843C5
:1006300004464FF00009CDF8009063484FF416517E
:10064000A56D0068B0FBF1F72E6894F85C100820E7
:1006500000FA01F131420FD021680A6852070BD528
:100660000A6822F004020A6094F85C108840A860CE
:10067000606D40F00100606594F85C104FF0010877
:1006800008FA01F0304208D021684969090604D50A
:10069000A860606D40F00200606594F85C10042072
:1006A0008840304208D021680968890704D5A860CD
:1006B000606D40F00400606594F85C101020884084
:1006C000304218D021680968090714D5A86020684D
:1006D0000168490304D50068000308D5A16C07E050
:1006E0000168C90503D4016821F008010160216C8B
:1006F00009B12046884794F85C1020208840304299
:1007000031D021680968C9062DD5A86094F8350054
:1007100005282068016806D0490347D50068000312
:100720001DD4616C1CE021F0160101602068416954
:1007300021F080014161206C08B9A06C20B12068D3
:10074000016821F00801016094F85C103F208840A6
:10075000A86084F8358084F83490216D1FE0E16B47
:1007600009B120468847606D00282BD0606DC00716
:1007700014D0052084F835002068016821F00101BB
:1007800001600098401C0090B84203D820680068BF
:10079000C007F6D184F8358084F83490E16C0029E4
:1007A00010D001B02046BDE8F04308470168C905F4
:1007B000D5D4016821F01001016084F8358084F8F7
:1007C0003490CCE7BDE8F883100000202DE9F0411B
:1007D000044600F06FF906465CB1022084F835004B
:1007E000002584F834502068016821F0010101607F
:1007F0000DE00120BDE8F08100F05CF9801B0528C8
:1008000005D920206065032084F83500F2E72068D0
:100810000068C007F0D12268116820480140D4E97F
:1008200001031843D4E9033633431843636918437B
:10083000A3691843E3691843236A18430843616AAC
:10084000042903D1D4E90B1319430843106020682D
:100850004069666A20F0070130460E4301270428EC
:100860000CD1A06A0643E06A40B12046FFF7F8FDCC
:1008700020B14020606584F83570BAE72068466191
:100880002046FFF7D9FD94F85C203F21914081601C
:10089000656584F835700020ACE700003F8010F0FB
:1008A00070B5044600F006F90546601C02D0044805
:1008B0000078044400F0FEF8401BA042FAD370BD5B
:1008C000040000202DE9F84FDFF8BCA1002201252B
:1008D00003264FF00F090AF1040BAAF1040E00BF22
:1008E0000B6805FA02F42340A34270D10F7907F098
:1008F0000307012F01D0022F16D187684FEA420863
:1009000006FA08FC27EA0C07D1F80CC00CFA08FC20
:100910004CEA070CC0F808C04768A7430C79C4F339
:10092000001494403C4344600C79E443A4070AD08B
:10093000C4684FEA420C06FA0CF7BC438F6807FA0A
:100940000CF72743C7600C7904F00304022C12D182
:10095000D40800EB840CDCF820405707FF0E09FA9E
:1009600007F824EA0804D1F8108008FA07F848EAE2
:100970000408CCF8208004684FEA420C06FA0CF711
:10098000BC430F7907F0030707FA0CF7274307600A
:100990004C6814F4403F70D03C4C276847F48047C3
:1009A0002760246822F0030704F480440094384C44
:1009B00007EB040CDCF8084897074FEA177809FAA8
:1009C00008F7BC43334FB84202D1002724E054E07B
:1009D000314FB84201D101271EE0304FB84201D15A
:1009E000022719E02E4FB84201D1032714E02D4F02
:1009F000B84201D104270FE02B4FB84201D105279F
:100A00000AE02A4FB84201D1062705E0284FB84234
:100A100001D1072700E0082707FA08F72743CCF899
:100A20000878DAF800405746D1F804C09C435FEAE2
:100A3000CC2C00D51C433C60DBF800405F46D1F86D
:100A400004C09C435FEA8C2C00D51C433C60DEF85C
:100A500000407746D1F804C09C435FEA8C3C00D547
:100A60001C433C60084F083F3C68D1F804C09C43DD
:100A70005FEACC3C00D51C433C60521C102AFFF4BA
:100A80002FAFBDE8F88F0000083C01404438024019
:100A90000030014000000240000402400008024013
:100AA000000C0240001002400014024000180240F6
:100AB000001C0240014880687047000004000020CC
:100AC0000248816802781144816070470400002068
:100AD0000B4810B5016841F400710160016841F4F0
:100AE00080610160016841F480710160032000F0C1
:100AF0006FF80F2000F006F800F024F8002010BD79
:100B0000003C024070B50D4D04464FF47A712878D0
:100B1000B1FBF0F00A490968B1FBF0F000F00AFB04
:100B200048B9102C07D200222146501E00F030F8A0
:100B300000206C6070BD012070BD0000040000202A
:100B4000100000200A4808B5016841F480410160A6
:100B5000006800F4804000900548001F016841F0E3
:100B600080510160006800F08050009008BD0000D6
:100B700044380240002809DB00F01F0201219140A7
:100B80004009800000F1E020C0F80011704700002B
:100B9000F0B40E4B1B680C46C3F30223C3F10705E8
:100BA000042D00D90425191D072901D2002300E0D6
:100BB000DB1E012606FA05F1491E214099409E40A0
:100BC000761E16403143F0BC00F027BF0CED00E06C
:100BD000064900F0070208684FF6FF03184040EA94
:100BE0000220034A10430860704700000CED00E04B
:100BF0000000FA052DE9F0470E46050065D0DFF844
:100C00001481D8F80000F7B200F00700B04207D214
:100C100088F80070D8F8000000F00700B04254D106
:100C200028683D4C810712D5400703D5206840F461
:100C3000E05020602878000703D5206840F4604029
:100C400020602068A96820F0F00008432060287820
:100C5000C0072DD0304968680839012812D0022811
:100C600013D0032811D00968890700292DDA2168DB
:100C700021F0030101432160FFF71CFF814641F28F
:100C8000883A0EE009688903EFE709688901ECE713
:100C9000FFF710FFA0EB0901514502D90320BDE881
:100CA000F0872068696800F00C00B0EB810FEFD18D
:100CB000D8F80010404601F00701B14207D907708B
:100CC000006800F00700B04201D00120E7E7287873
:100CD000400705D52068E96820F4E050084320600B
:100CE0002878000706D52068296920F4604040EA8A
:100CF000C100206000F038F82168084AC1F30311F0
:100D0000515CC8400649086006480068FFF7FAFED3
:100D10000020C4E7003C024008380240921B000853
:100D200010000020080000200448054900680968F8
:100D3000044AC1F38221515CC84070471000002072
:100D400008380240A21B00080448054900680968E9
:100D5000044AC1F34231515CC84070471000002082
:100D600008380240A21B0008154810B5006810F0B2
:100D70000C02144813D04110042A0FD0082A0ED1B7
:100D80000F4C241F2268236802F03F025B0207D544
:100D90002068C0F38810A0FB010106E0084610BDE2
:100DA0002168C1F38811A1FB00010023FFF75CFA61
:100DB0002168C1F30141491C4900B0FBF1F010BDAD
:100DC000083802400024F4002DE9F84F04006ED0EA
:100DD0002078DFF84C93C007A9F104054AD009F147
:100DE00004000168C1F38101012908D00068C0F343
:100DF000810002280AD1D9F80000400206D52868EF
:100E0000800337D560680028E1D033E06068B0F532
:100E1000803F10D0B0F5A02F286810D020F480308B
:100E20002860286820F4802028606068A8B1FFF757
:100E300041FE06460DE0286840F48030F4E740F4B7
:100E400080202860F7E700BFFFF734FE801B64288E
:100E500073D828688003F7D50CE0FFF72BFE064611
:100E600005E000BFFFF726FE801B6428F0D8286845
:100E70008003F7D42078DFF8AC8280074FF0000AB7
:100E80003ED5A748001D016811F00C0F08D000687E
:100E9000C0F3810002280BD1D9F80000400207D42A
:100EA0002868800716D5E068012800D112E033E1F8
:100EB000E068B8B10120C8F80000FFF7FBFD064666
:100EC00005E000BFFFF7F6FD801B0228C0D82868A8
:100ED0008007F7D52868216920F0F80040EAC100B2
:100EE00028600DE0C8F800A0FFF7E4FD064604E026
:100EF000FFF7E0FD801B02281FD828688007F7D481
:100F00002078000722D5864F87486169703771B114
:100F100001210160FFF7CEFD064604E0FFF7CAFDA0
:100F2000801B022809D838688007F7D50EE0C0F882
:100F300000A0FFF7BFFD064605E082E0FFF7BAFD1F
:100F4000801B02287DD838688007F7D420784007B6
:100F500068D5DFF8CCB100270BF13C0BDBF80000C3
:100F6000C0000BD4DBF8001041F08051CBF800102A
:100F7000DBF80000012700F0805000906B4E3068D5
:100F8000C00510D4306840F480703060FFF792FDE7
:100F9000009005E0FFF78EFD0099401A022850D816
:100FA0003068C005F6D55E4EA0686C3601280FD0BB
:100FB0000528306810D020F001003060306820F043
:100FC00004003060A068B8B1FFF774FD00900FE036
:100FD000306840F00100F4E740F004003060F7E7CB
:100FE000FFF768FD0099411A41F28830814266D8C6
:100FF00030688007F4D50EE0FFF75CFD009007E055
:10100000FFF758FD0099411A41F28830814256D8C5
:1010100030688007F4D42FB1DBF8001021F0805144
:10102000CBF80010A069C8B33D49091D0968C1F398
:10103000810102294AD00228504607D0C8F8600032
:1010400000E03CE0FFF736FD04463BE04746C8F8C9
:101050006000FFF72FFD064605E000BFFFF72AFD01
:10106000801B02282BD828688001F7D4D4E9070117
:101070000843A16A2E4A490802EB0141626A41EA2B
:101080008211084394F82C1040EA0161C9F800105D
:1010900001203866FFF70EFD044606E03EE000BF83
:1010A000FFF708FD001B022809D828688001F7D542
:1010B00034E000BFFFF7FEFC001B022802D903202A
:1010C000BDE8F88F28688001F4D427E00128F7D024
:1010D000D9F80000E26900F4800191421CD1226A33
:1010E00000F03F01914217D147F6C071626A01409A
:1010F000B1EB821F10D1A26A4FF0FF3300F44031F0
:1011000003EB5202B1EB024F06D194F82C1000F021
:101110007060B0EB016F01D00120D1E70020CFE774
:101120000438024000004742800E474200700040F1
:101130000000FFFF10B5401EB0F1807F01D30120F9
:1011400010BD4FF0E02460610F21601700F065FCD6
:101150000020A06107202061002010BD704770476B
:10116000F8B5016804460868CA684B6910F00F0FAB
:101170004FF0000559D003F0010602F49077374391
:1011800065D0C10705D0D10503D5616C41F00101DF
:101190006164410705D5D90703D0616C41F00201B4
:1011A0006164810705D5D90703D0616C41F0040162
:1011B0006164010707D502F02001314303D0616C5F
:1011C00041F008016164616C00293AD0800604D5C1
:1011D000900602D5204600F0C2FA20684069616C92
:1011E000C0F38010090700D460B3204600F090FAE5
:1011F00020684069400621D52068143050E8001F5F
:1012000021F0400140E80012002AF5D1E06BA8B1BE
:101210006E490165E06BFFF7F7F9002811D0E06B2C
:10122000016D01B0BDE8F040084783060FD5930675
:101230000DD52046BDE8F84000F091BA2046FFF7F2
:101240008EFFF8BD2046FFF78AFF6564F8BD266B68
:101250002023012E7DD1C6067BD5D60679D5086818
:101260004868009048694FF00206400641D5E16B9E
:10127000086840680004000CE8D0A28D8242E5D9DD
:10128000E085C869B0F5807F2DD020680C3050E82B
:10129000001F21F4807140E80012002AF5D1206877
:1012A000143050E8001F21F0010140E80012002A2C
:1012B000F5D12068143050E8001F21F0400140E8CB
:1012C0000012002AF5D184F84230256320680C30E2
:1012D00050E8001F21F0100140E80012002AF5D16B
:1012E000E06BFFF748F96663A08DE18D401A81B28B
:1012F0002AE0A08DE18D401A81B2E08D0028A5D0B2
:101300000029A3D022680C3252E8000F20F490701C
:1013100042E80007002FF5D12068143050E8002F74
:1013200022F0010240E80027002FF5D184F8423076
:10133000256320680C3050E8002F22F0100240E8AE
:101340000023002BF5D166632046FFF707FFF8BDA9
:10135000FFE705062BD5150629D594F8410021286D
:10136000F5D1A068B0F5805F01D12069B0B1206AE5
:10137000411C2162216800784860E08C401E000416
:10138000000CE084E3D12068C16821F08001C160D5
:101390002068C16841F04001C160D8E7206A008838
:1013A000C0F308004860206A801C2062E5E7400620
:1013B000CDD55006CBD5CA68204622F04002CA607F
:1013C00084F8413000F0F3F8C1E70000011700088D
:1013D00070B5040004D094F84100002510B106E077
:1013E000012070BD84F84050204600F023F82420EE
:1013F00084F841002068C16821F40051C160204692
:1014000000F00EFA2068016921F490410161206822
:10141000416921F02A0141612068C16841F400510D
:10142000C1606564202084F8410084F8420065634F
:10143000002070BD2DE9F04186B0064614216846B3
:10144000FEF789FF2C493068884251D12B4800248F
:10145000016841F010010160006800F01000059083
:1014600026481438016841F00101016000686946AE
:1014700000F0010005904FF4C06000900220CDE91B
:10148000010403200390072004901D48FFF71AFA77
:101490001D4D1C484FF000672860C5E901744FF4EA
:1014A0008068C5E903486C61AC61EC612C62284638
:1014B0006C62FFF78BF908B1FFF75BF8F563AE6379
:1014C000114D104860357830E5E802074020A5E866
:1014D00011010D4845F814496030AC61EC612C6293
:1014E0006C62FFF773F908B1FFF743F8B563AE63B9
:1014F00006B0BDE8F0810000001001404438024011
:1015000000000240406402405C00002070472DE96A
:10151000F843044690F84100984616460D462028A8
:1015200002D00220BDE8F88385B17EB1002060645E
:10153000212084F84100FFF7BDFAA6848146E684A5
:10154000A0682027B0F5805F02D003E00120E9E722
:10155000206910B12E4600250EE000260CE0802107
:10156000204600F0E3F9A8B9C6B116F8010B2168CE
:101570004860E08C401EE084E08C4B464FF0000257
:10158000CDF800800028EAD14FF04001204600F05D
:10159000CDF940B184F841700320C3E735F8020B60
:1015A000C0F30800E3E784F841700020BAE7704711
:1015B000FEE700000D4808B5016841F480010160B4
:1015C0000068002200F48000009011463A20FFF7E6
:1015D000DFFA3A20FFF7CEFA002211464620FFF745
:1015E000D7FABDE808404620FFF7C4BA30380240B9
:1015F000094808B5016841F080010160016801F007
:1016000080010091016841F001010160006800F073
:101610000100009008BD0000303802400C4810B5B1
:101620000A4901604FF4E1314160002181600C22E0
:10163000C160C0E904128161C161FFF7C9FE0028E1
:1016400003D0BDE81040FEF794BF10BD001001406C
:1016500014000020FEE7FEE770477047FFF730BA3E
:1016600030B593B030216846FEF775FE14210CA802
:10167000FEF771FE1C480025016841F080510160B1
:10168000006800F0805011901848016841F48041D2
:1016900001600068022400F4804011900120009055
:1016A000000401908001CDE9064008AA0420A82189
:1016B00082E813000B906846FFF786FB08B172B60C
:1016C000FEE70CA90F2081E831004FF4A0500F90E5
:1016D000109005210CA8FFF78DFA002801D072B6F2
:1016E000FEE713B030BD00004038024000700040FB
:1016F0000248016841F470010160704788ED00E024
:1017000010B5806B0021C185C184FFF728FD10BD95
:1017100001680C3151E8002F22F4907241E8002357
:10172000002BF5D10168143151E8002F22F001029D
:1017300041E80023002BF5D1016B012909D1016893
:101740000C3151E8002F22F0100241E80023002B59
:10175000F5D1202180F8421000210163704708B5BF
:1017600090F84210222901D0022008BD82684FF46F
:1017700080539A4201D1016921B1816A9A421BD0FA
:101780004AB10AE00268816A5268C2F308020A801C
:10179000816A891C08E0026972B10268526802F02D
:1017A0007F020A70816A491C8162C18D491E090449
:1017B000090CC18503D01BE002685268F1E701689B
:1017C000CA6822F02002CA600168CA6822F48072E6
:1017D000CA6001684A6922F001024A61202180F84A
:1017E000421000214163026B012A03D0FFF78EFEF5
:1017F000002008BD016301680C3151E8002F22F080
:10180000100241E80023002BF5D101680A68D206D6
:1018100002D50A6849680091818DFFF79FFCE7E7D0
:1018200070B5044600680169E26821F44051114333
:1018300001612169A068E2690843616911430843B5
:101840002168CA6849F20C639A430243CA6020685F
:101850004169A26921F44071114341613149206815
:10186000884202D03049884202D1FFF76DFA01E088
:10187000FFF75AFAE2690023192164253226B2F5EE
:10188000004F626828D0A0FB0101930F9200FEF781
:10189000EBFC0146B0FBF5F06FF01802504301EB92
:1018A000800006EB0010B0FBF5F000F0F002B1FB99
:1018B000F5F002EB0012B1FBF5F06FF0180358439E
:1018C00001EB800006EB0010B0FBF5F000F00F001C
:1018D00021681044886070BDA0FB010192185B4133
:1018E000FEF7C2FC0146B0FBF5F00201B1FBF5F0DA
:1018F0006FF01803584301EB800006EBC000B0FB0B
:10190000F5F000F0F80002EB4002B1FBF5F05843AF
:1019100001EB800006EBC000B0FBF5F000F0070023
:10192000D6E7000000100140001401402DE9F84303
:10193000984617460D460446089E24E0701C22D0A7
:10194000FFF7B8F8A0EB0800B0421AD8CEB1206873
:10195000C168490717D5802D15D0402D13D00168D7
:10196000C94309070FD4016800254068009020464C
:10197000FFF7CEFE0820606484F840500120BDE8E7
:10198000F8830320FBE72068006835EA000004D0F4
:101990000020B842D2D00020F1E70120F9E7000092
:1019A0007CB50025ADF800501848FFF7D9FB174C5F
:1019B00020680168890608D54068C0B200F052F876
:1019C00021686FF0200008607CBD0168C906FBD566
:1019D00001684068019000F059F80D4C6070ADF856
:1019E00000500C4D0AE000BF00F028F8BDF80010D0
:1019F0006854BDF80000401CADF80000BDF80000C0
:101A000061788842F0D3012020707CBD1400002052
:101A1000000000201C010020FEE70907090E002835
:101A200004DB00F1E02080F80014704700F00F00A4
:101A300000F1E02080F8141D70470000084991F87B
:101A4000010131F8100091F80121521C81F80121A7
:101A500091F80121802A02D3002281F801217047E8
:101A60009C010020084991F8002121F8120091F80A
:101A70000001401C81F8000191F80001802802D388
:101A8000002081F8000170479C0100200A4890F86E
:101A9000011190F80021914205D890F8001190F8BA
:101AA0000101081A06E090F8011190F80001C1F157
:101AB0008001084480B270479C0100200EB5FFF7FA
:101AC00007F8FFF7CDFDFFF793FDFFF773FDFFF775
:101AD000A5FD0124002544F620660096CDE90154B9
:101AE0004FF47A772B463A4621462046FEF7E3FC30
:101AF0001420FEF7D5FE0096CDE9015400233A46A6
:101B000001210220FEF7D7FC1420FEF7C9FE009643
:101B1000CDE9015400233A4601210320FEF7CBFC16
:101B20001420FEF7BDFE0096CDE9015400233A468D
:101B300001210420FEF7BFFC1420FEF7B1FE0020B7
:101B4000FEF701FD40F6B830FEF7AAFE01210020A5
:101B5000FEF7E1FC1420FEF7A3FE0020FEF7F3FCE5
:101B60007C102046FEF79CFEFBE700000A4601467B
:101B70004FF0FF330148FFF7CABC000014000020FB
:101B80004FF04070E1EE100A704700061016000694
:101B90001016000000000000000001020304060708
:101BA000080900000000010203040000CC1B00082B
:101BB0000000002014000000C4010008E01B000821
:101BC00014000020EC080000E00100080000000004
:101BD0000100000010000000000000000024F400DC
:040000050800018965
:00000001FF
