:020000040800F2
:10000000800B0020A1010008C53E0008A9350008AA
:10001000213B0008C5120008994D000800000000AF
:100020000000000000000000000000001B4000086D
:10003000311A000800000000C73E00089D46000875
:10004000BB010008BB010008BB010008BB010008A0
:10005000BB010008BB010008BB010008BB01000890
:10006000BB010008BB010008BB010008BB01000880
:10007000BB010008BB010008BB010008BB01000870
:100080007519000881190008BB010008BB010008B0
:10009000BB010008BB010008BB010008BB01000850
:1000A000BB010008BB010008BB010008BB01000840
:1000B000BB010008BB010008BB010008BB01000830
:1000C000BB010008BB010008BB010008BB01000820
:1000D000BB010008514D00085D4D00088D4D000822
:1000E000BB010008BB010008BB010008BB01000800
:1000F000BB010008BB010008BB010008BB010008F0
:10010000BB010008BB010008BB010008BB010008DF
:10011000BB0100082548000841470008BB01000852
:10012000BB010008BB010008BB010008BB010008BF
:10013000BB010008BB010008BB010008BB010008AF
:10014000BB010008BB010008BB010008BB0100089F
:10015000BB010008BB010008BB010008BB0100088F
:10016000BB010008BB010008BB010008BB0100087F
:10017000BB010008BB010008BB0100080000000033
:10018000BB010008A91A0008DFF810D000F082FBBC
:1001900000480047DD570008AFF30080800B0020C7
:1001A0000648804706480047FEE7FEE7FEE7FEE711
:1001B000FEE7FEE7FEE7FEE7FEE7FEE73147000861
:1001C000890100082DE9F05F0546002092469B4614
:1001D00088460646814640241BE02846414647465D
:1001E000224600F01FFA53465A46C01A914110D3D6
:1001F00011461846224600F006FA2D1A67EB010850
:100200004F4622460120002100F0FDF917EB0009BE
:100210004E41201EA4F10104DFDC484631462A4647
:100220004346BDE8F09FD2B201E000F8012B491E21
:10023000FBD270470022F6E710B513460A46044683
:100240001946FFF7F0FF204610BD2DE9FE4F80460E
:1002500081EA0300C00F0C46009021F0004123F01A
:100260000045B8EB0200A94105D240462146904620
:100270001C460B46024623F00040104347D0270D92
:10028000C7F30A00C3F30A510290401A01904028B4
:100290006BDAC3F3130040F4801B0098924620B140
:1002A0000023D2EB030A63EB0B0B01985946C0F114
:1002B0004002504600F0A7F906460D465046594602
:1002C000019A00F0BFF910EB08006141002487EAB1
:1002D000115284EAE7731A4340D0009A62B3019A3C
:1002E000012A4FEA075215DC001B61EB02014FF0B7
:1002F000004202EA0752CDE90042001C41F580119C
:1003000032462B4600F0F6F903B0BDE8F08F4046C8
:100310002146F9E7001B61EB0201001C41F5801347
:1003200000185B412018A2F5001747EB030140EAD3
:10033000D570B6196D4111E06D084FEA360645EAF1
:10034000C0754FEA0752001B61EB0201001C41F52A
:10035000801149084FEA30000019514132462B46BE
:1003600003B0BDE8F04F00F0B6B90098012240009C
:100370000023D0EB020263EBE073009821464FEAC2
:10038000E074B8EB000061EB0401E9E783F000439F
:100390005BE781F0004158E72DE9FE4F81EA030455
:1003A00004F0004421F0004100944FF0000B23F0D2
:1003B000004350EA01045ED052EA03045BD0C3F369
:1003C0000A54C1F30A552C44A4F2F3340194A0FB5F
:1003D0000254C1F3130141F48011C3F3130343F436
:1003E000801301FB024400FB034E840A970A44EA8F
:1003F000815447EA8357A4FB076802958D0A05FBE1
:1004000007854FEA932C04FB0C542705029D4FEA05
:10041000065847EA1637B5EB08056EEB070C870E52
:10042000920E47EA811742EA8312A7FB0201B6EB5C
:100430000B0164EB00042B0D43EA0C335E1844EB14
:100440001C50DA465146E7FB0201C5F313044FEA9C
:100450000B3343EA14534FEA0432019C43EA060388
:10046000A4F10C040294009CCDE900B400F042F920
:1004700003B0BDE8F08F00200146F9E72DE9F04D0B
:1004800081EA030404F0004B21F0004514464FF0CC
:10049000000A23F0004150EA050220D054EA01028C
:1004A0001DD0C5F30A570246C5F31303C1F3130069
:1004B000C1F30A5640F4801543F48013A7EB0608F5
:1004C000101BD64608F2FD3873EB050002D308F185
:1004D000010801E092185B41B8F1000F03DA002037
:1004E0000146BDE8F08D00204FF480110646844699
:1004F0000EE0171B73EB050705D3121B63EB050317
:1005000006434CEA010C49084FEA300092185B415F
:1005100050EA0107EDD152EA030012D082EA04004A
:1005200083EA0501084305D0101BAB4106D2012226
:10053000002306E000224FF0004302E06FF00102CA
:1005400053101AEB06004CEB085110EB0A0041EB7C
:100550000B01BDE8F04D00F0BEB80EB5C10F80EA4A
:10056000E0700844CA07002140F233438DE80E00D2
:100570000A460B4600F0BEF803B000BD00F0004292
:1005800030F000400AD0C10D01F56071C0F31600D3
:1005900042EA0151C208400711437047002001465A
:1005A000704701F0004330B421F0004150EA0102ED
:1005B00006D00A0DA2F56072C1F31301002A02DC15
:1005C00030BC00207047440F44EAC104C100E01869
:1005D00030BC00EBC25000F047B830B50B460146C6
:1005E00000202022012409E021FA02F59D4205D3D2
:1005F00003FA02F5491B04FA02F52844151EA2F17C
:100600000102F1DC30BD202A04DB203A00FA02F1BD
:10061000002070479140C2F1200320FA03F31943F0
:1006200090407047202A04DB203A21FA02F0002192
:10063000704721FA02F3D040C2F1200291400843F2
:1006400019467047202A06DBCB17203A41FA02F000
:1006500043EAE07306E041FA02F3D040C2F120021F
:1006600091400843194670470029A8BF7047401CB5
:10067000490008BF20F00100704710B4B0FA80FCB8
:1006800000FA0CF050EA010404BF10BC704749B1F5
:10069000CCF1200421FA04F411FA0CF118BF012165
:1006A00021430843A3EB0C01CB1D4FEA00614FEA45
:1006B000102042BF002010BC704700EBC350104414
:1006C0000029A4BF10BC7047401C490008BF20F09F
:1006D000010010BC704710B5141E73F1000408DA55
:1006E000401C41F1000192185B411A4301D120F0F6
:1006F000010010BD2DE9F04D92469B4611B1B1FAB3
:1007000081F202E0B0FA80F220329046FFF77BFFE0
:1007100004460F4640EA0A0041EA0B0153465A4696
:10072000084313D0114653EA010019D0C8F1400222
:100730005046FFF777FF05460E465046594642465B
:10074000FFF761FF084305D0012004E02046394649
:10075000BDE8F08D0020054346EAE0762C433743A0
:100760000A986305E40AA0EB08000022FD0A44EAA7
:1007700047540A3002D500200146E9E70105101967
:100780006941DDE9084500196941BDE8F04DA2E77E
:100790002DE9F04D00231A461B1A8A4103DB002085
:1007A0000146BDE8F08DC1F30A52C1F3130141F4D3
:1007B00080154FF0000BD10702D100186D41521E79
:1007C0000027044640F2FF11384601EB620A3E461C
:1007D0008046024600204FF48011FFF723FFC21924
:1007E0007141BB1846EB0100B4EB030C75EB000C38
:1007F00004D3E41A65EB000517460E46241908F1E8
:1008000001006D4180463428E3DDF91946EB06000E
:10081000091BA84103D24FF0FF32134601E000222A
:1008200013461BEB070046EB0A51BDE8F04DFFF7FE
:1008300052BFC1F30A52C1F3130140F2FF3341F436
:1008400080119A4202DA00200146704740F2334399
:100850009A42A2F2334202DC5242FFF7E3BEFFF7B4
:10086000D2BE000030B5041E71F1000404DB4FF06D
:100870000044404264EB0101141E73F1000405DBE7
:100880001C464FF00043524263EB0403994208BFF9
:10089000904230BD064C074D06E0E06840F0010391
:1008A00094E8070098471034AC42F6D3FFF770FC89
:1008B000585800087858000870B5064601F04AF804
:1008C0004FF47A74E621204602F0A4FE6500284623
:1008D00001F0B0F801F02EF8204601F0ABF8E62167
:1008E000204602F087FE012E04D0022E05D0032EF2
:1008F00008D105E002F0EAFF04E002F0F7FF01E0B2
:1009000003F002F8284601F095F8E621204602F0AF
:1009100071FE00F0C7FC40F6B836304601F08AF8A8
:10092000E621204602F088FE284601F083F801F017
:1009300011F8284601F07EF8E621204602F05AFE22
:10094000204601F077F801F069FA304601F072F8BC
:10095000E621204602F04EFE204601F06BF80249E7
:100960000878401C087070BD1100002070B5012887
:1009700004D0022805D0032808D105E002F0A6FF24
:1009800004E002F0B3FF01E002F0BEFF4FF47A741E
:10099000E621204602F01CFEA00001F04BF800F01A
:1009A000C9FF204601F046F8E621204602F022FE6B
:1009B000600001F03FF800F075FC40F6B8352846BD
:1009C00001F038F8E621204602F036FE204601F01C
:1009D00031F800F0BFFF204601F02CF8E621204658
:1009E00002F008FE204601F025F801F017FA28462B
:1009F000BDE8704001F01EB870B5044600F052FC2E
:100A0000012C04D0022C05D0032C08D105E002F003
:100A10005DFF04E002F06AFF01E002F075FF41F2C1
:100A20008834204601F006F84FF47A75E62128460E
:100A300002F002FE284600F0FDFF00F07BFF284692
:100A400000F0F8FFE621284602F0D4FD4FF41670BE
:100A500000F0F0FF01F0E2F940F6B83000F0EAFFF4
:100A6000E621284602F0A2FD204600F0E3FF00F058
:100A700071FF284600F0DEFFE621284602F0BAFDAD
:100A80002846BDE8704000F0D5BF00002DE9F047D2
:100A9000354E3078B0BB354C6427DFF8D4902078E1
:100AA0000125DFF8D0804FF0000A10284BD2DFE894
:100AB00000F0080F2F4D0F354D0F393B424D444D7F
:100AC0005456A9F80070962364223570594221E0EB
:100AD000607818B9052002F0D5FE6570B8F90000FD
:100AE00088B100BFA9F800703570B8F902109623DC
:100AF000C82200F053FC84F801A0A8F800A0A8F8D0
:100B000002A01DE01FE0B8F802100029EAD11AE0A7
:100B1000012004E0002000F041FC11E00220FFF77A
:100B20006BFF0DE00320FAE7A9F8007096233570FB
:100B300064221149EEE7012000E00220FFF716FFD2
:100B40002078401C20700020BDE8F0879623A9F88B
:100B50000070357064221946DCE70320EEE784F864
:100B600000A00120F0E70000800000202600002007
:100B7000860000201A000020D4FEFFFF2DE9F05F60
:100B8000474E307800287BD1464C6427DFF8189117
:100B900021780125DFF8148182464FF4967B1029D5
:100BA0006ED2DFE801F00816235A2C490C2C500CA9
:100BB000555A640C70753EA004F02AF9217840A0C3
:100BC00004F026F9A9F80070962364223570594282
:100BD00011E03BA004F01CF96078C8B93CA004F017
:100BE00017F911E0B8F80210B1B949E034A004F0E7
:100BF0000FF9012024E0002000F0D0FB3DE030A000
:100C000004F006F9607818B9052002F03BFE657023
:100C1000B8F900000028E5D0A9F800703570B8F9DF
:100C200002109623C82200F0B9FB84F801A0A8F8AE
:100C300000A0A8F802A020E021A004F0E9F802201A
:100C4000FFF7DAFE19E01EA004F0E2F80320F7E750
:100C50001BA004F0DDF801200DE019A004F0D8F885
:100C6000A9F800709623357064225946C3E714A092
:100C700004F0CEF80220FFF779FE2078401C2070A7
:100C80000020BDE8F09F0EA004F0C2F80320F2E7B8
:100C90000BA004F0BDF884F800A00120F1E70000EB
:100CA0008000002026000020860000201A0000207E
:100CB00074382E7478743D2273643122FFFFFF0074
:100CC00074392E7478743D22256422FFFFFF0000E2
:100CD00074382E7478743D2273643222FFFFFF0053
:100CE0002DE9F05F4B4D287800287BD1DFF8288173
:100CF00064264A4F98F800100124DFF824A18146A9
:100D00006FF0950B0F296DD2DFE801F00825582A06
:100D10003B422A4E585358616F787D0041A004F041
:100D200077F898F8010030BB42A004F071F81DE09C
:100D30004A88002A56D03E802C70BAF902109623B9
:100D4000C82200F02BFB88F8019098F80010491C8D
:100D500088F8001046E033A004F05AF8012014E0AF
:100D600030A004F055F898F8010020B9052002F0F1
:100D700089FD88F80140BAF9000051460028DAD10F
:100D8000D6E728A004F044F80220FFF735FE24E05F
:100D900024A004F03DF83E80962364222C70590074
:100DA000002000F0FBFA18E01EA004F031F8032048
:100DB000EBE71CA004F02CF801200CE019A004F0D3
:100DC00027F83E8096232C7064225946E8E715A048
:100DD00004F01EF80220FFF7C9FD98F80000401C3F
:100DE00088F800000020BDE8F09F0EA004F010F885
:100DF00096233E802C7064221946D1E709A004F0A6
:100E000007F80320E7E707A004F002F888F800904D
:100E10000120E8E780000020260000208600002056
:100E20001A00002074392E7478743D22256422FF44
:100E3000FFFF000074382E7478743D2273643222F0
:100E4000FFFFFF002DE9F047444E307800286CD1B9
:100E5000434C6427DFF80C8121780125DFF808A1D5
:100E600081460F2961D2DFE801F00811131A3138E9
:100E70004549534E5357636D72006078A8B93BA043
:100E800003F0C6FF0DE04A88A2B94EE0012021E040
:100E90009623A8F8007035706422194626E0607821
:100EA00018B9052002F0EEFC6570BAF90000514651
:100EB0000028E8D0A8F800703570BAF9021096231F
:100EC000C82200F06BFA84F801902BE02BA003F00D
:100ED0009FFF0220FFF790FD24E028A003F098FF79
:100EE000A8F800709623294935706422002000F08C
:100EF00055FA17E021A003F08BFFD0E71FA003F005
:100F000087FF0320E6E71DA003F082FF012007E032
:100F10001AA003F07DFFBBE718A003F079FF0220C1
:100F2000FFF724FD2078401C20700020BDE8F087EA
:100F300012A003F06DFFA8F80070962364223570AC
:100F40005942D3E70DA003F063FF0320E8E70BA0AD
:100F500003F05EFF84F800900120E7E780000020A6
:100F600026000020860000201A00002074382E740D
:100F700078743D2273643222FFFFFF0074392E74AF
:100F800078743D22256422FFFFFF0000D4FEFFFF9E
:100F90002DE9F05F404E3078002864D13F4C642743
:100FA000DFF8FC802178DFF8FCB00125DFF8F8A03D
:100FB0008146102957D2DFE801F0590811131D347A
:100FC000593B3F5944494D5963686078C0B937A0CF
:100FD00003F01EFF10E04A88BAB944E0012024E083
:100FE000A8F800709623357064225946002000F05E
:100FF000D5F935E0607818B9052002F043FC65703A
:10100000BAF9000051460028E5D0A8F80070357004
:10101000BAF902109623C82200F0C0F984F80190B2
:101020001EE026A003F0F4FE0220FFF7E5FC17E027
:1010300022A003F0EDFEDDE720A003F0E9FE03208F
:10104000F3E71EA003F0E4FE012007E01BA003F07D
:10105000DFFEC5E719A003F0DBFE0220FFF786FCE8
:101060002078401C20700020BDE8F09F13A003F002
:10107000CFFE9623A8F80070357064221946B5E7B4
:101080000EA003F0C5FE0320E8E70CA003F0C0FEAD
:1010900084F800900120E7E780000020260000206F
:1010A00086000020D4FEFFFF1A00002074382E7442
:1010B00078743D2273643222FFFFFF0074392E746E
:1010C00078743D22256422FFFFFF00002DE9F047E0
:1010D000364E3078C0BB364C6427DFF8D890207885
:1010E0000125DFF8D4804FF0000A6FF09501102839
:1010F0004CD2DFE800F0080F2F4E0F354E0F393B72
:10110000434E454E54563223A9F8007035701A46A6
:10111000962121E0607818B9052002F0B3FB6570D4
:10112000B8F9000088B100BFA9F80070357032230B
:10113000B8F902101A4600F031F984F801A0A8F8B5
:1011400000A0A8F802A01EE020E0B8F802100029D4
:10115000EAD11BE0012004E0002000F01FF912E0BA
:101160000220FFF749FC0EE00320FAE7A9F800701F
:10117000322335701A464FF49671EDE7012000E0F6
:101180000220FFF7F3FB2078401C20700020BDE810
:10119000F087A9F80070322335701A46DCE7032087
:1011A000EFE784F800A00120F1E7000080000020B4
:1011B00026000020860000201A0000202DE9F047BC
:1011C000344E307880BB344CDFF8D0900125207845
:1011D000334F4FF0000A4FF064086FF095010A2872
:1011E00048D2DFE800F0050C1F4A26414A0C505255
:1011F0003223A9F8008035701A46962115E06078F0
:1012000018B9052002F03EFB6570B7F9000008B977
:10121000798849B1A9F8008035703223B7F90210F6
:101220001A4618E0012020E024E0002000F0B6F883
:101230001DE0607818B9052002F024FB6570B7F94D
:10124000000008B97988A9B1A9F800803570B7F90C
:1012500002109623C82200F0A1F884F801A0A7F894
:1012600000A0A7F802A002E00220FFF7C5FB20784B
:10127000401C20700020BDE8F087A9F800803223D0
:1012800035701A46D1E70320EFE784F800A001206B
:10129000F1E70000800000202600002086000020EA
:1012A0001A00002008B5064800230093C8229FEDCD
:1012B000030A0221006800F02BFD08BD00008042F7
:1012C00078000020FEE700002DE9F0410F4680463F
:1012D00002F0E4F929480025294C90ED000AB5EE0A
:1012E000C00AF1EE10FA01D084ED100AA07A10B114
:1012F000012805D03EE00120A07294ED100A37E0ED
:10130000204AE16B00204FF4A026914203DD1E4AE3
:101310001144B14204D83A464146002000F0A6F9F3
:101320001A4AE16B1144B1F5A01F04D83A46414670
:101330005A2000F09BF9164AE16B1144B1F5202FB9
:1013400004D83A464146B42000F090F9114AE16BC6
:101350001144B14205D83A4641464FF4877000F037
:1013600085F9012806D1012500209FED0B0AA07206
:1013700084ED0F0A2846BDE8F0810000300000200F
:101380003400002000002041000051BC000056BD88
:101390000000D1BC00807BBC000000002DE9F04FB4
:1013A00000EE100A2DED028B81B0B8EEC00A1C468B
:1013B00093469FED3E1A20EE010A04F0F9F900EE83
:1013C000101A0646B8EEC00A20EE010A04F0F0F941
:1013D0000546801B804602F071FD00FB0BF706FB03
:1013E00006F005FB0500FFF7B8F8824641EC100B4C
:1013F000009103F041FD9FED2E8B51EC100B53EC4F
:10140000182BFEF7C9FFFFF7CCF800EE100A04F026
:10141000CFF9B7FBF0F9A81902F050FD009900FBD5
:101420000BF741EC10AB03F027FD53EC182B51ECFC
:10143000100BFEF7B1FFFFF7B4F800EE100A04F04E
:10144000B7F9B7FBF0F7B8F10000E3B203D40146F7
:101450000FFA89F204E0711BC9F10000884602B25C
:101460009146022002F06AFCE3B241464A4604205B
:1014700002F064FC7519E3B203D43AB22946164669
:1014800004E06D42784202B216462946012002F07D
:1014900055FCE3B229463246032002F04FFC01B06E
:1014A000BDEC028BBDE8F04F02F034BC3333814118
:1014B000666666666666F63F70B5154C0025637A0B
:1014C0003BB1012B0ED0022B19D00020032B1AD1D7
:1014D0001CE05A2000F020F84FF47A6000F0AAFADD
:1014E000012010E00B48007801280DD102F0D6F859
:1014F000022060724FF4967000F09CFA04E000F055
:10150000B5F808B103206072284670BD0125FAE7DE
:1015100034000020280000202DE9F047DFF8488142
:101520000446154698F805004FF0000910B101284F
:101530007DD096E04C480FB2EBB290ED060A4842DF
:1015400006B2002C3EDB00EE904A3A460120F8EE4F
:10155000E00A20EE800ABCEEC00A10EE101A02F07B
:10156000EDFB00EE104AD8ED060AEBB2B8EEC00A69
:101570003246022020EE200ABCEEC00A10EE101AFD
:1015800002F0DCFB00EE104AD8ED060AEBB2B8EE32
:10159000C00A3246032020EE200ABCEEC00A10EE3C
:1015A000101A02F0CBFB00EE104AD8ED060AEBB29F
:1015B000B8EEC00A3A4620EE200ABCEEC00A10EE91
:1015C000101A40E0644200EE904A3A460120F8EEDC
:1015D000E00A20EE800ABCEEC00A10EE101A02F0FB
:1015E000ADFB00EE104AD8ED060AEBB2B8EEC00A29
:1015F0003246022020EE200ABCEEC00A10EE101A7D
:1016000002F09CFB00EE104AD8ED060AEBB2B8EEF1
:10161000C00A3A46032020EE200ABCEEC00A10EEB3
:10162000101A02F08BFBEBB200EE104A00E013E060
:10163000B8EEC00AD8ED060A324620EE200ABCEE0B
:10164000C00A10EE101A042002F078FB02F062FBD0
:10165000012188F8051004E0002088F805004FF00B
:1016600001094846BDE8F087340000202DE9F04725
:101670002DED028B16460D46804602F00FF89FEDC9
:10168000990A99484FF00009B0EE408AD0ED000A5F
:10169000F5EEC00AF1EE10FA01D0B0EE608A934C7C
:1016A00093480027A279DFED930A934912B1012AEA
:1016B00026D010E101EE108A0122A271F8EEC11AC3
:1016C000B0EE401AC4ED071A84ED081A227A002AF7
:1016D000EFD038EE610A10EE102A84ED0A0A824239
:1016E00002DB30EE600A05E010EE100A884203D3F8
:1016F00030EE200A84ED0A0A84ED0E1A2772EAE021
:1017000094ED070A38EE400A10EE102A824202DBFE
:1017100030EE600A05E010EE100A884201D330EE88
:10172000200AD4ED080A754970EE800A10EE900A7E
:10173000C4ED080A884203DDDFED710AC4ED080A32
:1017400010EE900A6F49884203D9DFED6F0AC4EDAD
:10175000080AD4ED0A0A6D4A6D4970EE600A10EE6F
:10176000900A904202DDF2EE040A05E010EE900AC3
:10177000884201D9FAEE040AC4ED090A84ED0A0A86
:1017800094ED0B1AD4ED081A21EE000A94ED0C1A10
:1017900001EE210A94ED0D1AD4ED0E1A01EE200A85
:1017A000F1EE040A31EEA01AB4EEC01AF1EE10FA0E
:1017B00002D284ED0E1A0BE071EEE00AF4EEC00ADC
:1017C000F1EE10FA02DDC4ED0E0A01E084ED0E0A1E
:1017D00000EE905A94ED0E0AF8EE600AB4EEE00ABC
:1017E000F1EE10FA04DD00EE105AB8EE400A0DE0FA
:1017F000684200EE900AF8EEE00AB4EEE00AF1EE7C
:1018000010FA05D200EE100AB8EEC00A84ED0E0AF6
:1018100018EE100AFEF7B2FE41EC100B3DA053EC9F
:10182000102B03F0F5FAA06BFEF7A8FE41EC100BAD
:101830003CA053EC102B03F0EBFA94ED0E0AF2B23D
:10184000B1EE400ABDEEC00A10EE100A01B201204E
:1018500002F008FB94ED0E0AF2B2BDEEC00A10EEE3
:10186000100A01B2022002F0FDFA94ED0E0AF2B263
:10187000BDEEC00A10EE100A01B2032002F0F2FA27
:1018800094ED0E0AF2B2B1EE400ABDEEC00A10EEBF
:10189000100A01B2042002F0E5FA02F03BFA94EDDE
:1018A000070AF7EE000A30EE601AB4EEC81AF1EE3D
:1018B00010FA15D830EE200AB4EEC80AF1EE10FA8C
:1018C0000EDBE079401CC0B2E071032803D3E7715E
:1018D0004FF00109A7714846BDEC028BBDE8F087C7
:1018E000E771F8E70000000030000020340000201D
:1018F000000034430000B443000034C30000C84279
:101900000000C8420000C8C20000C8C20000204158
:10191000000020C174322E7478743D22256622FFA7
:10192000FFFF000074332E7478743D22256622FF79
:10193000FFFF000008B5064800230093C8229FED72
:10194000030A0321006800F0E3F908BD000074C237
:101950007800002008B5064800230093C8229FEDB8
:10196000030A0321006800F0D3F908BD000000005D
:1019700078000020014800F0BDBA00006802002095
:10198000014800F0B7BA0000C8020020016818231F
:10199000CAB2103AB2FBF3F2054B6FF30901032A06
:1019A0009B5CC36500D9091D81650846704700002E
:1019B0003858000810B5014600208B698A6A4FF03C
:1019C000C07453B1B3F5005F15D072B1012A0CD0C9
:1019D000022A0AD0032A09D104E01AB1012A06D04A
:1019E000022A03D1C96AC90100D5012010BDC96A04
:1019F000A142FAD010BD002AF7D0012AF2D0022A63
:101A0000F3D0032AF3D010BD30B50468256825F45F
:101A100080252560046863608368402B036803D0D9
:101A200099600068C26030BD9A600068C16030BDD6
:101A3000704700004FF4077170B5B0FBF1F2B0FBD6
:101A4000F1F501FB1204094E03E0304600F010F8F6
:101A50006D1E002DF9D1002C06D04FF47A70604332
:101A6000BDE8704000F004B870BD0000603D0800A3
:101A70000B49097848434FF0E021401E486100229D
:101A80008A61086940F0010008610869C30701D054
:101A9000C003FAD5086920F0010008618A61704727
:101AA0007C00002072B6FEE7704710B590B0044687
:101AB00003AA3221684602F042FA6946204600F045
:101AC0000AF8684602F008FA401E81B2684602F041
:101AD00021FA10B010BD70B50D46044601882846A5
:101AE00002F095FAA178284602F07AFAE1782846C1
:101AF00002F076FAE278211D284602F073FA2846B1
:101B000002F0F5F901462846BDE8704002F068BAD7
:101B100037B58EB0154604460FAB01220A2100F0FE
:101B2000DAF86946204600F053F8040015D19DF814
:101B300004009DF83C10884202D0072011B030BD4F
:101B4000BDF90500FEF709FD9FED051B53EC112BB8
:101B5000FEF794FCFEF725FD28602046EEE7000026
:101B6000000000000000244037B58EB01546044642
:101B70000FAB0122102100F0AEF86946204600F0BC
:101B800027F804001DD19DF804009DF83C10884200
:101B900002D0072011B030BD9DF80710BDF8050038
:101BA00061F31F409DF8081040EA0160FEF7D5FC84
:101BB0009FED051B53EC112BFEF760FCFEF7F1FCCB
:101BC00028602046E6E700000000000000002440F6
:101BD0002DE9F041054600200C4681F83700064605
:101BE0008046642762E0012000F0F6FAA86802F05F
:101BF00073F9A8B394F83700010716D5A86802F066
:101C0000EDF984F8360094F8370040F0100084F8BD
:101C100037002046FFF749FF94F83610884202D07B
:101C20000620BDE8F0810020FBE741070ED5A8683B
:101C300002F0D4F9A119761C0871E078F6B2B0422E
:101C400034D194F8370040F008000EE081070FD53A
:101C5000A86802F0C3F9E0702D2802D90520E0E75A
:101C600024E094F8370040F0040084F837001DE0C9
:101C7000C0070CD0A86802F0B1F9A070112801D9F2
:101C80000420CEE794F8370040F00200EDE7B8F109
:101C9000000F03D0B8F1050F0DD005E0A86802F0E1
:101CA0009DF98046052801D04FF000087F1EBFB285
:101CB00099D20220B5E7A86802F090F948EA002816
:101CC000A8F5E0510539EFD1A4F8008094F8370069
:101CD00040F00100C9E770B58EB0044644F61240EA
:101CE000ADF800008DF802108DF803200021684641
:101CF00003E05D5C4618491C35719142F9DB61686F
:101D0000FFF7E9FE204603F048F80EB070BD000072
:101D10002DE9F04116462DED028B86B00F46804628
:101D20001D46B0EE408A03AA072168460E9C02F0C9
:101D300006F918EE100A1D49884202DD9FED1C8A43
:101D400006E018EE100A1B49884201D99FED1A8A55
:101D50003946684602F044F9B2EE040A28EE000A59
:101D6000BDEEC00A10EE100A01B2684602F049F951
:101D70003146684602F04BF92946684602F047F9B9
:101D80000DF10D03072208214046FFF7A4FF5CB1C7
:101D90000022B0EE480A3946404600F00FF806B07F
:101DA000BDEC028BBDE8F0810020F8E70000344371
:101DB00000003443000034C3000034C32DE9F04177
:101DC00015462DED028B82B0B0EE408A0F4680465C
:101DD00000244FF07E566A463946404615B1FFF75B
:101DE000C3FE01E0FFF794FE9DED000A38EE400AC5
:101DF000F0EEC00A10EE900AB04205DC002002B0FE
:101E0000BDEC028BBDE8F081641CA4B2642C01D34C
:101E10000120F4E7642000F0DFF9DCE708B50648AC
:101E200000230093C8229FED030A02210068FFF7F8
:101E30006FFF08BD0000B8C2780000202DE9F04116
:101E40000446876D00F0D2FA064694F83500002566
:101E5000022806D08020606584F834500120BDE857
:101E6000F0812068016821F0160101602068416955
:101E700021F080014161206C08B9A06C20B120687C
:101E8000016821F0080101602068016821F001016A
:101E900001600CE000F0AAFA801B052807D9202079
:101EA0006065032084F8350084F83450D7E7206853
:101EB0000068C007EED194F85C103F208840B860FD
:101EC000012084F8350084F834500020C7E790F8EA
:101ED0003510022903D0802141650120704705217A
:101EE00080F835100068016821F0010101600020D0
:101EF000704700002DE9F84304464FF00009CDF883
:101F0000009063484FF41651A56D0068B0FBF1F7DF
:101F10002E6894F85C10082000FA01F131420FD0CD
:101F200021680A6852070BD50A6822F004020A6089
:101F300094F85C108840A860606D40F00100606516
:101F400094F85C104FF0010808FA01F0304208D014
:101F500021684969090604D5A860606D40F0020057
:101F6000606594F85C1004208840304208D02168F5
:101F70000968890704D5A860606D40F004006065B9
:101F800094F85C1010208840304218D0216809680D
:101F9000090714D5A86020680168490304D50068C2
:101FA000000308D5A16C07E00168C90503D40168E6
:101FB00021F008010160216C09B12046884794F89E
:101FC0005C1020208840304231D021680968C90661
:101FD0002DD5A86094F8350005282068016806D042
:101FE000490347D5006800031DD4616C1CE021F053
:101FF000160101602068416921F080014161206C77
:1020000008B9A06C20B12068016821F008010160C6
:1020100094F85C103F208840A86084F8358084F8EC
:102020003490216D1FE0E16B09B120468847606D57
:1020300000282BD0606DC00714D0052084F835002F
:102040002068016821F0010101600098401C0090A7
:10205000B84203D820680068C007F6D184F83580FC
:1020600084F83490E16C002910D001B02046BDE81E
:10207000F04308470168C905D5D4016821F0100173
:10208000016084F8358084F83490CCE7BDE8F883AB
:102090000C0000202DE9F041044600F0A7F90646A7
:1020A0005CB1022084F83500002584F834502068A3
:1020B000016821F0010101600DE00120BDE8F0811F
:1020C00000F094F9801B052805D9202060650320C5
:1020D00084F83500F2E720680068C007F0D1226874
:1020E000116820480140D4E901031843D4E90336BC
:1020F0003343184363691843A3691843E3691843DA
:10210000236A18430843616A042903D1D4E90B13F5
:1021100019430843106020684069666A20F007018F
:1021200030460E43012704280CD1A06A0643E06A1A
:1021300040B12046FFF73EFC20B14020606584F8A6
:102140003570BAE7206846612046FFF71FFC94F817
:102150005C203F2191408160656584F835700020E6
:10216000ACE700003F8010F02DE9F0410446866D99
:1021700090F83400002501280DD0012084F83400A7
:1021800094F835700020012F07D084F83400022520
:102190002846BDE8F0810220FBE7022784F835706D
:1021A00060652046FFF730FC94F85C103F208840C3
:1021B000B0602068016841F016010160206C20B118
:1021C0002068016841F0080101602068016841F061
:1021D00001010160DCE7000070B5044600F006F97B
:1021E0000546601C02D004480078044400F0FEF864
:1021F000401BA042FAD370BD000000202DE9F84F2B
:10220000DFF8BCA10022012503264FF00F090AF1D7
:10221000040BAAF1040E00BF0B6805FA02F4234078
:10222000A34270D10F7907F00307012F01D0022FCD
:1022300016D187684FEA420806FA08FC27EA0C071D
:10224000D1F80CC00CFA08FC4CEA070CC0F808C026
:102250004768A7430C79C4F3001494403C4344609E
:102260000C79E443A4070AD0C4684FEA420C06FA8A
:102270000CF7BC438F6807FA0CF72743C7600C794B
:1022800004F00304022C12D1D40800EB840CDCF817
:1022900020405707FF0E09FA07F824EA0804D1F88E
:1022A000108008FA07F848EA0408CCF8208004688F
:1022B0004FEA420C06FA0CF7BC430F7907F003070C
:1022C00007FA0CF7274307604C6814F4403F70D0BE
:1022D0003C4C276847F480472760246822F00307B6
:1022E00004F480440094384C07EB040CDCF80848F4
:1022F00097074FEA177809FA08F7BC43334FB842FB
:1023000002D1002724E054E0314FB84201D1012727
:102310001EE0304FB84201D1022719E02E4FB842DB
:1023200001D1032714E02D4FB84201D104270FE05B
:102330002B4FB84201D105270AE02A4FB84201D1FC
:10234000062705E0284FB84201D1072700E00827FB
:1023500007FA08F72743CCF80878DAF80040574620
:10236000D1F804C09C435FEACC2C00D51C433C60F0
:10237000DBF800405F46D1F804C09C435FEA8C2C38
:1023800000D51C433C60DEF800407746D1F804C01D
:102390009C435FEA8C3C00D51C433C60084F083FDF
:1023A0003C68D1F804C09C435FEACC3C00D51C4398
:1023B0003C60521C102AFFF42FAFBDE8F88F0000DC
:1023C000083C014044380240003001400000024017
:1023D0000004024000080240000C024000100240CD
:1023E0000014024000180240001C024001488068AE
:1023F0007047000000000020024881680278114404
:1024000081607047000000200B4810B5016841F45E
:1024100000710160016841F480610160016841F46C
:1024200080710160032000F077F80F2000F006F8BB
:1024300000F024F8002010BD003C024070B50D4DA6
:1024400004464FF47A712878B1FBF0F00A49096824
:10245000B1FBF0F000F012FB48B9102C07D20022BB
:102460002146501E00F038F800206C6070BD01203D
:1024700070BD0000000000200C0000200E4808B5D0
:10248000016841F480410160006800F480400090E0
:102490000948001F016841F0805101600068002276
:1024A00000F0805000901146512000F015F8BDE872
:1024B0000840512000F002B844380240002809DBEF
:1024C00000F01F02012191404009800000F1E0204E
:1024D000C0F8001170470000F0B40E4B1B680C46AA
:1024E000C3F30223C3F10705042D00D90425191DE8
:1024F000072901D2002300E0DB1E012606FA05F1C0
:10250000491E214099409E40761E16403143F0BC42
:1025100002F0A2BC0CED00E0064900F007020868DA
:102520004FF6FF03184040EA0220034A10430860B8
:10253000704700000CED00E00000FA052DE9F047BF
:102540000E46050065D0DFF81481D8F80000F7B218
:1025500000F00700B04207D288F80070D8F80000F9
:1025600000F00700B04254D128683D4C810712D5D5
:10257000400703D5206840F4E05020602878000729
:1025800003D5206840F4604020602068A96820F0EE
:10259000F000084320602878C0072DD030496868D3
:1025A0000839012812D0022813D0032811D0096855
:1025B000890700292DDA216821F0030101432160F8
:1025C000FFF714FF814641F2883A0EE0096889035B
:1025D000EFE709688901ECE7FFF708FFA0EB0901C5
:1025E000514502D90320BDE8F0872068696800F0F2
:1025F0000C00B0EB810FEFD1D8F80010404601F08D
:102600000701B14207D90770006800F00700B04227
:1026100001D00120E7E72878400705D52068E96860
:1026200020F4E050084320602878000706D5206891
:10263000296920F4604040EAC100206000F038F8C9
:102640002168084AC1F30311515CC840064908607B
:1026500006480068FFF7F2FE0020C4E7003C024095
:1026600008380240405800080C00002004000020F8
:102670000448054900680968044AC1F38221515C95
:10268000C84070470C00002008380240505800082D
:102690000448054900680968044AC1F34231515CA5
:1026A000C84070470C00002008380240505800080D
:1026B000154810B5006810F00C02144813D04110F2
:1026C000042A0FD0082A0ED10F4C241F2268236839
:1026D00002F03F025B0207D52068C0F38810A0FB20
:1026E000010106E0084610BD2168C1F38811A1FB75
:1026F00000010023FDF766FD2168C1F30141491C7B
:102700004900B0FBF1F010BD083802400024F4008D
:102710002DE9F84F04006ED02078DFF84C93C00705
:10272000A9F104054AD009F104000168C1F381014F
:10273000012908D00068C0F3810002280AD1D9F825
:102740000000400206D52868800337D5606800285D
:10275000E1D033E06068B0F5803F10D0B0F5A02F35
:10276000286810D020F480302860286820F4802069
:1027700028606068A8B1FFF739FE06460DE02868BA
:1027800040F48030F4E740F480202860F7E700BF91
:10279000FFF72CFE801B642873D828688003F7D5C8
:1027A0000CE0FFF723FE064605E000BFFFF71EFE24
:1027B000801B6428F0D828688003F7D42078DFF8DD
:1027C000AC8280074FF0000A3ED5A748001D016883
:1027D00011F00C0F08D00068C0F3810002280BD163
:1027E000D9F80000400207D42868800716D5E068B1
:1027F000012800D112E033E1E068B8B10120C8F847
:102800000000FFF7F3FD064605E000BFFFF7EEFD11
:10281000801B0228C0D828688007F7D5286821695E
:1028200020F0F80040EAC10028600DE0C8F800A0E0
:10283000FFF7DCFD064604E0FFF7D8FD801B022809
:102840001FD828688007F7D42078000722D5864F44
:1028500087486169703771B101210160FFF7C6FDDA
:10286000064604E0FFF7C2FD801B022809D838683D
:102870008007F7D50EE0C0F800A0FFF7B7FD0646C9
:1028800005E082E0FFF7B2FD801B02287DD83868A2
:102890008007F7D42078400768D5DFF8CCB100274F
:1028A0000BF13C0BDBF80000C0000BD4DBF8001090
:1028B00041F08051CBF80010DBF80000012700F058
:1028C000805000906B4E3068C00510D4306840F4E2
:1028D00080703060FFF78AFD009005E0FFF786FD0D
:1028E0000099401A022850D83068C005F6D55E4ECF
:1028F000A0686C3601280FD00528306810D020F071
:1029000001003060306820F004003060A068B8B189
:10291000FFF76CFD00900FE0306840F00100F4E735
:1029200040F004003060F7E7FFF760FD0099411ABE
:1029300041F28830814266D830688007F4D50EE0D5
:10294000FFF754FD009007E0FFF750FD0099411A92
:1029500041F28830814256D830688007F4D42FB1D4
:10296000DBF8001021F08051CBF80010A069C8B34B
:102970003D49091D0968C1F3810102294AD0022895
:10298000504607D0C8F8600000E03CE0FFF72EFD9D
:1029900004463BE04746C8F86000FFF727FD0646BF
:1029A00005E000BFFFF722FD801B02282BD8286816
:1029B0008001F7D4D4E907010843A16A2E4A4908E7
:1029C00002EB0141626A41EA8211084394F82C103B
:1029D00040EA0161C9F8001001203866FFF706FDE2
:1029E000044606E03EE000BFFFF700FD001B0228A2
:1029F00009D828688001F7D534E000BFFFF7F6FC5E
:102A0000001B022802D90320BDE8F88F2868800146
:102A1000F4D427E00128F7D0D9F80000E26900F4E7
:102A2000800191421CD1226A00F03F01914217D1EE
:102A300047F6C071626A0140B1EB821F10D1A26AF1
:102A40004FF0FF3300F4403103EB5202B1EB024F81
:102A500006D194F82C1000F07060B0EB016F01D03B
:102A60000120D1E70020CFE70438024000004742B0
:102A7000800E4742007000400000FFFF10B5401E6E
:102A8000B0F1807F01D3012010BD4FF0E0246061E0
:102A90000F21601702F0E0F90020A06107202061FB
:102AA000002010BD7047704770B590F83C20012A97
:102AB00032D0012480F83C40022280F83D20036897
:102AC0005A689D6822F070060A6832435A60134BB8
:102AD00002689A4214D0B2F1804F11D0104B9A4242
:102AE0000ED0104B9A420BD00F4B9A4208D00F4B8E
:102AF0009A4205D00E4B9A4202D00E4B9A4204D114
:102B0000496825F080031943916080F83D40002119
:102B100080F83C10084670BD022070BD00000140E6
:102B20000004004000080040000C00400004014088
:102B3000004001400018004010B5040003D094F894
:102B40003D0010B107E0012010BD002084F83C00DA
:102B5000204600F01FF8022084F83D00211D206867
:102B600001F0F4FD012084F8460084F83E0084F86A
:102B70003F0084F8400084F8410084F8420084F863
:102B8000430084F8440084F8450084F83D000020A8
:102B900010BD000008B500680B49884212D10B48EF
:102BA000016841F0100101600068002200F010008F
:102BB000009011463620FFF78FFCBDE80840362014
:102BC000FFF77CBC08BD0000001000404038024008
:102BD00090F83D10012901D001207047022180F8B2
:102BE0003D100168CA6842F00102CA6000681149DC
:102BF000884214D0B0F1804F11D00F4988420ED0D6
:102C00000E4988420BD00E49884208D00D498842AF
:102C100005D00D49884202D00C49884204D1816810
:102C200001F00701062903D0016841F001010160AC
:102C300000207047000001400004004000080040F0
:102C4000000C00400004014000400140001800401A
:102C500070472DE9F04104460068C66805694FF0E9
:102C60000007A90713D5B10711D5F91E016101208D
:102C70002077206880698007204602D0FFF7E8FFB0
:102C800004E000F07EF8204600F07CF82777680723
:102C900016D5700714D521686FF004000861022072
:102CA00020772068806910F4407F204602D0FFF72B
:102CB000CFFF04E000F065F8204600F063F82777C6
:102CC000280715D5300713D521686FF00800086173
:102CD000042020772068C0698007204602D0FFF7D3
:102CE000B7FF04E000F04DF8204600F04BF82777DE
:102CF000E80616D5F00614D521686FF010000861BB
:102D0000082020772068C06910F4407F204602D058
:102D1000FFF79EFF04E000F034F8204600F032F8A0
:102D20002777E80708D0F00706D021686FF0010088
:102D30000861204600F028F8280608D5300606D598
:102D400021686FF0800008612046FFF7ABFE68063F
:102D500008D5700606D521686FF04000086120464E
:102D600000F058F8A8060AD5B00608D521686FF01B
:102D7000200008612046BDE8F041FFF794BEBDE8A1
:102D8000F0817047704700001E4910B5884237D166
:102D90001D4C00202178012901D051B10AE0A18801
:102DA000491C89B2A180E288914203D3A08020709F
:102DB00000E0A0806178012901D051B10AE0618969
:102DC000491C89B261812289914203D3608160707C
:102DD00000E06081A189491C89B2A181B1F57A7FA7
:102DE0000ED3A0819FED090B0120A07053EC102B96
:102DF00094ED040B51EC100BFDF7C8FAC4E9040183
:102E000010BD0000B80000208000002079E92631C4
:102E100008AC7C3F7047704710B5044600684069B5
:102E200094F84110C0F3C010212911D180B120685D
:102E3000143050E8001F21F0800140E80012002A01
:102E4000F5D1A06B08B1FEF7F9FF204601F0BCFDFB
:102E50002068406994F84210C0F38010222911D1F3
:102E600080B12068143050E8001F21F0400140E894
:102E70000012002AF5D1E06B08B1FEF7DFFF204613
:102E800001F07BFD002010BD70470000F8B501681F
:102E900004460868CA684B6910F00F0F4FF0000530
:102EA00059D003F0010602F49077374365D0C1078B
:102EB00005D0D10503D5616C41F001016164410782
:102EC00005D5D90703D0616C41F002016164810727
:102ED00005D5D90703D0616C41F004016164010795
:102EE00007D502F02001314303D0616C41F00801A5
:102EF0006164616C00293AD0800604D5900602D541
:102F0000204601F06FFD20684069616CC0F38010BD
:102F1000090700D460B3204601F02FFD2068406906
:102F2000400621D52068143050E8001F21F04001F0
:102F300040E80012002AF5D1E06BA8B16E490165A6
:102F4000E06BFEF7C4FF002811D0E06B016D01B00B
:102F5000BDE8F040084783060FD593060DD52046FF
:102F6000BDE8F84001F03EBD2046FFF78DFFF8BDFB
:102F70002046FFF789FF6564F8BD266B2023012EEC
:102F80007DD1C6067BD5D60679D5086848680090FD
:102F900048694FF00206400641D5E16B0868406879
:102FA0000004000CE8D0A28D8242E5D9E085C86912
:102FB000B0F5807F2DD020680C3050E8001F21F440
:102FC000807140E80012002AF5D12068143050E8E2
:102FD000001F21F0010140E80012002AF5D120680D
:102FE000143050E8001F21F0400140E80012002A90
:102FF000F5D184F84230256320680C3050E8001F7A
:1030000021F0100140E80012002AF5D1E06BFEF734
:1030100015FF6663A08DE18D401A81B22AE0A08D74
:10302000E18D401A81B2E08D0028A5D00029A3D0FF
:1030300022680C3252E8000F20F4907042E800073A
:10304000002FF5D12068143050E8002F22F0010243
:1030500040E80027002FF5D184F84230256320682E
:103060000C3050E8002F22F0100240E80023002B23
:10307000F5D166632046FFF7CEFEF8BDFFE70506F3
:103080002BD5150629D594F841002128F5D1A06843
:10309000B0F5805F01D12069B0B1206A411C216286
:1030A000216800784860E08C401E0004000CE08439
:1030B000E3D12068C16821F08001C1602068C16847
:1030C00041F04001C160D8E7206A0088C0F30800E1
:1030D0004860206A801C2062E5E74006CDD5500696
:1030E000CBD5CA68204622F04002CA6084F841303D
:1030F00000F058FAC1E700003148000870B504003C
:1031000004D094F84100002510B106E0012070BD04
:1031100084F84050204600F023F8242084F8410031
:103120002068C16821F40051C160204601F0BCFC58
:103130002068016921F4904101612068416921F012
:103140002A0141612068C16841F40051C160656491
:10315000202084F8410084F842006563002070BD9F
:103160002DE9F04186B0064614216846FDF762F865
:103170008548844BD6F800C08349103803250227C0
:10318000824A00244FF008089C451BD10B6843F489
:1031900000230B60096801F400210591016841F0EA
:1031A000010101600068CDE9005700F00100CDE9A0
:1031B000048069461046CDE90245FFF71FF806B0C6
:1031C000BDE8F081724B9C4532D10A6842F480120E
:1031D0000A60096801F480110591016841F0040159
:1031E0000160016801F004010591016841F00801E6
:1031F0000160006802AA00F0080005909814CDE96B
:10320000000782E8300169466248FEF7F7FF0420B4
:10321000CDE9000702AA694682E830015E48FEF760
:10322000EDFF002211463520FFF756F9352027E043
:10323000DFF868810723C44525D15349091D0E686D
:1032400046F010060E60096801F010010591016852
:1032500041F0010101600068029400F00100059056
:103260004FF4C060CDE90007CDE90353694610462D
:10327000FEF7C4FF002211462520FFF72DF9252077
:10328000FFF71CF99BE7DFF81881C44554D1D1F84A
:1032900000C04CF4003CC1F800C0096801F40031E2
:1032A0000591016841F0010101600068029400F09D
:1032B000010005900C20CDE90007CDE903536946D4
:1032C0001046FEF79BFF384D36484FF000672860E8
:1032D000C5E901744FF48068C5E903486C614FF497
:1032E0004030AC61C5E9074028466C62FEF7D2FE6B
:1032F00008B1FEF7D7FBF563AE632B4D2948603567
:103300001830E5E802074020A5E81101264845F8F5
:1033100014496030AC61EC612C626C62FEF7BAFE5D
:1033200008B1FEF7BFFBB563002211462620AE634D
:10333000FFF7D2F82620A3E71C4A9445A2D10A68D9
:1033400042F480220A60096801F480210591016835
:1033500041F0020101600068029400F00200059053
:103360004FF44060CDE90007CDE9035369461048AA
:10337000FEF744FF002211462720FFF7ADF8272073
:103380007EE70000004C0040403802400000024050
:103390000050004000080240000C024000100140B4
:1033A000004400408860024068020020004800405D
:1033B0000004024090F84230202B01D002207047D8
:1033C00021B11AB10023036301F0F4BB012070475F
:1033D00090F84230202B01D00220704721B11AB161
:1033E0000023036301F02EBC0120704770B5044632
:1033F00000681349884207D1204601F087FC01008C
:10340000104800D0012101700F492068884203D183
:103410000E48007800F0DAFB0D4D2068A84202D17A
:10342000204600F019F82068A84202D1204600F09A
:103430009DF9BDE87040012204490648FFF7C8BF66
:103440000010014010000020004800403F00002014
:10345000005000402002002010B5094C006821688F
:10346000096888420BD107480178A06800F0A1FDE7
:103470002068BDE8104001220249FFF7A9BF10BD36
:10348000740700209800002070472DE9F843044697
:1034900090F84100984616460D46202802D002209A
:1034A000BDE8F88385B17EB100206064212084F8F6
:1034B0004100FEF79BFFA6848146E684A068202792
:1034C000B0F5805F02D003E00120E9E7206910B188
:1034D0002E4600250EE000260CE08021204601F05B
:1034E000CCFBA8B9C6B116F8010B21684860E08C86
:1034F000401EE084E08C4B464FF00002CDF8008087
:103500000028EAD14FF04001204601F0B6FB40B15F
:1035100084F841700320C3E735F8020BC0F30800BC
:10352000E3E784F841700020BAE7000070B5044674
:1035300090F84100202801D0022070BD49B342B369
:103540002162A284E28400206064212384F8413057
:10355000A56B114BEB63A56B104B2B64A56B104B4C
:10356000EB64A36B1865256813462A1DA06BFEF754
:10357000FBFD21686FF0400008602068143050E8BF
:10358000001F41F0800140E80012002AF5D1002020
:1035900070BD012070BD00002F490008714900086E
:1035A0004148000870477047FEE70000074B10B520
:1035B00001225A70CBB202B243F23811052000F05A
:1035C000FFFBBDE8104000F0A5BB00003400002068
:1035D000074B10B502225A70CBB202B243F2D401AB
:1035E000052000F0EDFBBDE8104000F093BB0000AB
:1035F00034000020064B10B500225A70CBB202B244
:103600000021052000F0DCFBBDE8104000F082BB8B
:1036100034000020074B10B504225A70CBB202B21E
:103620004FF47A61052000F0CBFBBDE8104000F0BC
:1036300071BB000034000020074B10B505225A7002
:10364000CBB202B240F6FC01052000F0B9FBBDE8A8
:10365000104000F05FBB0000340000201CB50BA13F
:10366000D1E90001CDE900010A480068C16841F0D4
:103670001001C1601E2208490648FFF79BFEFF2289
:1036800069460448FFF752FF1CBD0000FFAA760000
:1036900000000000D80100202803002070B5204D54
:1036A000287801283BD11F4C607CA17C227D0844F6
:1036B000E17C11440844A830617DC0B2884221D128
:1036C00019A001F0A5FBB4F81100DFED1A0A00EE15
:1036D000100A1B49B8EE400A20EE200ADFED160A58
:1036E00020EE200ADFED150A85ED010A30EEC00A52
:1036F00010EE100A85ED020A884203DB9FED110AE5
:1037000085ED020A002028701E210648FCF792FD74
:10371000BDE870401E2203490B48FFF74BBE70BD49
:1037200028000020280300204552524F52210D0A44
:103730000000000000000038000034430000B443E3
:103740000000B44300000000D801002010B50122A1
:1037500004490548FFF73CFEBDE810406420FEF731
:1037600069B9000019000020480100202DE9F84344
:10377000DFF8D880364C454698F8000098F80110DC
:1037800001222154401C88F80000691C3148FFF7D1
:103790001FFE2878092815D12078002760B9207AE3
:1037A000EF2809D160780A280ED00C2832D00D28D5
:1037B00045D029A001F02CFB25480760476007721F
:1037C00088F80070BDE8F883204E0025B61D60190A
:1037D00026A18278684601F02BFB9DF80000705509
:1037E0006D1C032DF3DB2B20F070002560191FA149
:1037F0004279684601F01CFB71199DF800006D1CB0
:103800000871032DF2DB1149F771891D18A001F031
:10381000FFFAD1E72079E17840EA0110A1780A297E
:1038200000D040420949891C0880E079A27940EA29
:10383000021062790A2A00D040424880BCE7A07892
:103840000228B9D10E480770B6E700001800002022
:10385000A4000020480100207431302E7478743D9B
:10386000226572726F7222FFFFFF00002564000064
:103870007431302E7478743D22257322FFFFFF00CF
:10388000130000200F4A10B5002142F8091F5160B3
:1038900011720C4A093211700B21517002215054DF
:1038A000491C0729FBDDEF20107206494FF47A739B
:1038B000092209310448FFF7E8FDBDE81040142053
:1038C000FEF7B8B8A40000204801002008B506485B
:1038D0000023009364229FED030A01210068FEF794
:1038E00017FA08BD0000EC427800002008B5054832
:1038F000002300936422B0EE080A01210068FEF75D
:1039000007FA08BD7800002008B506480023009398
:1039100064229FED030A01210068FEF7F9F908BD52
:103920000000D4C2780000200D4808B5016841F4B9
:10393000001101600068002200F4001000901146A0
:103940001020FEF7C9FD1020FEF7B8FD0022114639
:103950001120FEF7C1FDBDE808401120FEF7AEBD05
:1039600030380240154808B5016841F08001016017
:10397000016801F080010091016841F001010160DE
:10398000016801F001010091016841F0020101604C
:10399000016801F002010091016841F00401016039
:1039A000016801F004010091016841F00801016023
:1039B000006800F00800009008BD000030380240A8
:1039C0001CB500240F4800940D490194016042F297
:1039D000CF01C0E901146321C16080218161FFF73B
:1039E000ABF808B1FEF75EF800946946054801940B
:1039F000FFF75AF8002801D0FEF754F81CBD00006C
:103A000000100040B80000200C4810B50A490160C1
:103A10004FF4E1314160002181600C22C160C0E9B6
:103A200004128161C161FFF769FB002803D0BDE882
:103A30001040FEF737B810BD004C004000010020D8
:103A40000C4810B50A4901604FF4E1314160002192
:103A500081600C22C160C0E904128161C161FFF77D
:103A60004DFB002803D0BDE81040FEF71BB810BD89
:103A700000500040480100200C4810B50A49016080
:103A80004FF461214160002181600C22C160C0E9D6
:103A900004128161C161FFF731FB002803D0BDE84A
:103AA0001040FDF7FFBF10BD001001409001002045
:103AB0000C4810B50A4901604FF4E1314160002122
:103AC00081600C22C160C0E904128161C161FFF70D
:103AD00015FB002803D0BDE81040FDF7E3BF10BD83
:103AE00000440040D80100200C4810B50A4901608C
:103AF0004FF4E1314160002181600C22C160C0E9D6
:103B000004128161C161FFF7F9FA002803D0BDE812
:103B10001040FDF7C7BF10BD004800402002002044
:103B2000FEE700000B4910B50870F3204870AB2089
:103B300088700120C870002008716B2048714FF414
:103B40007A7306220448FFF7A0FCBDE810400A2063
:103B5000FDF770BF5A0300202002002010B501209D
:103B6000FFF7E0FF0220FFF7DDFF0320FFF7DAFF9A
:103B70000420FFF7D7FFBDE810400520FFF7D2BFB4
:103B8000104810B50068C16841F02001C1600122F1
:103B90000D490C48FFF71CFC052000F08DF80120B2
:103BA00000F08AF8022000F087F8032000F084F883
:103BB000042000F081F86420FDF73CFFBDE81040D0
:103BC000FFF7CCBF200200203F000020F0B5384AAC
:103BD000012411461779CB78591CCEB23549C7B1AB
:103BE0000225012F1ED0022F12D1D07801EB400008
:103BF00030F8023C00206B2B1DD01071D070157076
:103C00005FF0000221F81200521CD2B20A2AF9D346
:103C1000F0BD012801D00528FAD1147121F8130054
:103C2000D670F0BD21F81300D6700A2E01D26B2891
:103C3000F7D11571D9E7D07010710B88012B02D024
:103C4000052B10D01AE04B88FD2B17D18B889F2BAA
:103C500014D114705FF0000221F81200521CD2B28D
:103C6000042AF9D3F0BD4B88FD2B02D0272B18D0A6
:103C700004E08B889F2B01D1937843B15FF0000261
:103C800021F81200521CD2B20A2AF9D3F0BD947066
:103C90005FF0000221F81200521CD2B2042AF9D3BC
:103CA000F0BDC888097940EA01209081F0BD00008C
:103CB00034000020460300202DE9F041134C054656
:103CC0006B262070FE2060709820A0700020E070AD
:103CD0004FF47A7726713B46052221460C48FFF7C0
:103CE000D4FB0A20FDF7A6FE25700A2060706D2027
:103CF000A070E6703B46042221460548FFF7C5FB4D
:103D0000BDE8F0410A20FDF795BE00005A030020EF
:103D100020020020074800214FF47A730170FF2130
:103D20004170662181706B21C170014604220248F6
:103D3000FFF7ABBB5A0300202002002070B50446F9
:103D4000104600F0BBF885B21A48FD26012C04701D
:103D5000467005D0042C03D0002A03DB012202E0C8
:103D6000002AFBDB002282702A0AC27005714371AF
:103D70000A0E82710A0CC2710A0A0272417200258F
:103D800085720121C1726B2101734FF47A730D2288
:103D900008490948FFF779FB012C05D1074C0A2097
:103DA0002570FDF747FE2570BDE870400120FDF746
:103DB0005FBE00005A0300202002002034000020D3
:103DC00070B50446104600F079F885B22248FD2609
:103DD000012C0470467005D0042C03D0002A03DBAC
:103DE000012202E0002AFBDB002282702A0AC27054
:103DF000057143710A0E82710A0CC2710A0A0272BD
:103E0000417201218172C1726B2101734FF47A7387
:103E10000D2211491148FFF738FB0A20FDF70AFE71
:103E20000D4A0F4B0021143A012C0BD0052C08D160
:103E30000020997022F81010401CC0B20428F9D359
:103E4000997070BD0020197022F81010401CC0B28B
:103E50000428F9D370BD00005A030020200200207E
:103E60003400002070B50346084600F027F884B2FD
:103E70001048F625037045700125012B17D0042B3F
:103E800015D005EBE1718170210AC1700471427196
:103E900085716B21C1714FF47A7308220549064878
:103EA000FFF7F3FABDE870400120FDF7E1BDC90F4F
:103EB000E9E700005A03002020020020002800DA71
:103EC00040427047FEE7704700B503895B1E00F073
:103ED00003F8181A80B200BD8288C1888A4203D9CB
:103EE0000089511A401A00E0881A80B27047F0B574
:103EF0000746FFF7F1FF00240646254606E0A9B273
:103F0000384600F007F82044C4B26D1CB542F6DB19
:103F10002046F0BD10B50C460346FFF7DDFFA0427A
:103F200001D8002010BD9888641C19892044B0FB7A
:103F3000F1F201FB1200196880B2085C10BD02604A
:103F400000228280C280491C0181114603E003687F
:103F50005A54491C89B203898B42F8D8704710B56E
:103F60000446FFF7B1FF2189491E89B2884201D179
:103F7000012010BD002010BD00B5FFF7A5FF08B15E
:103F8000002000BD012000BD10B50446FFF7E7FF8B
:103F900008B1002010BDA0882189401CB0FBF1F2BF
:103FA00001FB120081B2A18022680023505C5354AF
:103FB00010BD30B50D460446FFF7DEFF10B12046B8
:103FC000FFF7E2FFE0882189401CB0FBF1F201FB22
:103FD000120080B2E08021680D5430BDFFF7D4BFDD
:103FE000FFF7E7BFF0B515460E460746002405E08B
:103FF000315D3846FFF7DDFF641CA4B2AC42F7D355
:10400000F0BD03B501A90222FFF7ECFF0CBD03B51B
:1040100001A90222FFF7E6FF0CBD7047014900200D
:1040200008717047100000202DE9F05FF748FA4A48
:10403000F6490779F74891F803B092F800E090F854
:1040400000905378907891F802C092F804A05479C7
:104050000125EF4E49789279082F1FD2DFE807F04B
:10406000042067DEFDFCFBFA00231A4619461846B9
:10407000FDF794F9E54CE9A0617800F0C9FE2179DB
:10408000EAA000F0C5FE2078012807D14FF4FA60BD
:10409000FDF7D0FC0120207100202070BDE8F09FCA
:1040A000DC48B9F1000F02D0BCF1010FF6D1D74CBA
:1040B0000829F3D2DFE801F0040D1A1E22282E375A
:1040C000C8213180322305701A4600216FF0950017
:1040D000C2E24FF4C871318096230570A02240F2ED
:1040E000DC5143E06078401C6070D7E7502131809C
:1040F00005705CE00420FFF7C5FBF3E7BBF1000FA0
:10410000CCD1E57001200AE0BBF1000FC6D1E5700B
:10411000022004E0BBF1000FC0D1E5700320BDE830
:10412000F05FFCF7C9BB00206070022074E0B94F5B
:10413000B9F1000F02D0BCF1010FAFD1B34C082987
:10414000ACD2DFE801F0040D151B27313963502094
:1041500030809623C8223D7000216FF031007BE251
:10416000C82030809623B5493D705A00002073E284
:10417000DC22A5704FF4CD715A20E9E0A7A000F031
:1041800047FE4FF42F7030803D7082234FF4C87289
:10419000AB49EBE7DC22A5704FF4CD71B420D7E03A
:1041A000A07800289ED079E7502030803D7096237B
:1041B000C822002132204FE2BEF1320F73D0BEF18F
:1041C000310F79D0BEF1330F10D0E3E133286DD039
:1041D000E0E1332BF9D131286BD0DBE1332870D00B
:1041E000D8E1332BF1D132286ED0D3E1312B02D07C
:1041F000322B03D0CEE132286ED0CBE13128E4D18E
:10420000FCF764FF00287FF478AF47E7BCF1000FAC
:10421000C9D100206070032020713FE77D4AB9F1C9
:10422000000F02D0BCF1010FBDD1784C0529BAD2E4
:10423000DFE801F00320272C5A004FF4AF713180E2
:10424000157031280CD032280FD03328DBD19623BB
:104250005A0003E0B7E143E1B5E055E0794985E76D
:10426000962378495A00643980E7962375495A00A5
:10427000C8397BE7A570DC224FF4CD714FF487700D
:1042800066E04FF4AF7030801570C0E1BEF1320FC0
:1042900009D0BEF1310F0FD0BEF1330F17D079E145
:1042A00001E009E002E0312B93D18FE7FCF718FD24
:1042B000A8E7FCF7C7FDA5E7322B92D18EE700E017
:1042C00002E0FCF7E3FB9DE7FCF758FC9AE7312B93
:1042D00091D0322B03D05DE1FCF75AFE92E73128F2
:1042E00070D1FCF76BFF8DE7C821A5700846FCF77D
:1042F000EBFF10B10020A07002E0A078002884D16C
:1043000000206070042087E7424AB9F1000F02D014
:10431000BCF1010F88D13D4C092988D2DFE801F0BA
:10432000071320292D3506054200F3E6ECE64FF48D
:10433000AF713180157065E1332887D196234149EB
:104340005A000F3112E7A570DC224FF4CD71002026
:10435000FDF7B2F800283FF423AF0020A070C1E6BB
:104360004FF48C70308015709623FA226FF4D4715C
:10437000FCE650203080157019E70420FFF782FA20
:10438000617826A000F044FDACE6BBF1000F03D13C
:10439000E5700120FCF790FA6178BDE8F05F1FA09E
:1043A00000F036BDC821A5700846FCF78DFF10B19E
:1043B0000020A07002E0A0780028A0D1002060704A
:1043C000052029E767E01348B9F1000F02D0BCF1DE
:1043D000010F94D10D4F08299FD2DFE801F0040DA1
:1043E00015353F414B785021318005709623C82206
:1043F00000216FF031003AE0C821318096230F4947
:104400005A000570143927E03C46B1E61000002040
:1044100086000020800000201E00002074392E74C9
:1044200078743D22256422FFFFFF000074352E744E
:1044300078743D22256422FFFFFF000084FEFFFF09
:104440005CF9FFFF5DFDFFFF4FF42F71318085495F
:10445000057082234FF4C872002008E03C4699E6BC
:104460005021318005709623C82200213220FCF7AC
:1044700095FF28E0BAF1320F6ED0BAF1310F76D045
:10448000BAF1330F10D085E0332A6AD082E0332CA2
:1044900001D1312A68D07DE0332A6BD07AE0332C09
:1044A00078D1322A69D075E0312C02D0322C03D079
:1044B00070E0322A69D06DE0312A6BD1FCF706FE3C
:1044C00000283FF412AE7978491C7970E6E5384649
:1044D000BCF1000FFAD10021417006213971DDE5F0
:1044E0006148B9F1000F02D0BCF1010FEED15F4F6E
:1044F0000529EBD2DFE801F0031B1D2656004FF41F
:10450000AF7131800570312A07D0322A0AD0332AA0
:10451000D9D196235A0056499EE7962354495A000A
:10452000643999E7962352495A00C83994E73C46C2
:10453000A0E64FF4AF71318096234D495A000570C3
:10454000B93989E7BAF1320F06D0BAF1310F0ED07E
:10455000BAF1330F14D01DE0312C98D194E706E066
:10456000FFE7FCF7BDFBABE7FCF76CFCA8E7322CE0
:1045700095D191E7FCF78AFAA2E7FCF7FFFA9FE7EB
:10458000312C96D0322C03D004E0FCF701FD97E7E4
:10459000312A04D0BDE8F05F36A000F039BCFCF74A
:1045A0000DFE8DE7C8213C46BD700846FCF78CFE29
:1045B00010B10020A07002E0A078002886D1002071
:1045C0006070072028E6284FB9F1000F02D0BCF137
:1045D000010F84D1254C05298BD2DFE801F00403BB
:1045E00022304000AFE6AFF2CC1000F011FC217990
:1045F000AFF2C81000F00CFC4FF4AF7030802648CA
:104600003D708079312807D032287FF495AE96230B
:1046100017495A00B939A9E5962315495A00553961
:10462000A4E5AFF2082000F0F3FB4FF48C700D49C5
:10463000308096233D704FF4C872F53196E5AFF2A5
:10464000242000F0E5FB4FF48C7030803D70962301
:104650004FF4C87200214B20FCF7A0FE42E5002079
:104660006070D9E548F9FFFF8000002010000020AD
:104670005DFDFFFF74382E7478743D224572726FB1
:10468000723A20496E76616C696420515220436F02
:10469000646522FFFFFF00001E000020FDF7ACBE96
:1046A00030B593B030216846FBF7C4FD14210CA847
:1046B000FBF7C0FD1C480025016841F080510160F6
:1046C000006800F0805011901848016841F4804162
:1046D00001600068022400F48040119001200090E5
:1046E000000401908001CDE9064008AA0420A82119
:1046F00082E813000B906846FEF70AF808B172B61C
:10470000FEE70CA90F2081E831004FF4A0500F9074
:10471000109005210CA8FDF711FF002801D072B6FA
:10472000FEE713B030BD000040380240007000408A
:104730000248016841F470010160704788ED00E0B3
:104740000148FEF786BA0000B8000020F0B5026804
:10475000294C2A4D2A4E2B4F2B4B4FF0804CA04218
:1047600009D0604507D0A84205D0B04203D0B84276
:1047700001D0984204D122F0700E4A6842EA0E023B
:10478000A0421BD0604519D0A84217D0B04215D026
:10479000B84213D0984211D01C4DA8420ED01C4DE7
:1047A000A8420BD01B4DA84208D01B4DA84205D0F3
:1047B0001A4DA84202D01A4DA84203D122F44075E6
:1047C000CA682A434D6922F080022A4302608A683F
:1047D000C2620A688262A04201D0984201D109698E
:1047E0000163012141610169C90703D0016921F019
:1047F00001010161F0BD0000000001400004004023
:1048000000080040000C004000040140004001404E
:10481000004401400048014000180040001C0040D6
:10482000002000400148FEF731BB00004801002095
:1048300010B5806B0021C185C184FEF725FB10BD3A
:1048400070B5846B2068406994F84110C0F3C010C3
:104850000025212904D118B1E584204600F0B4F8E0
:104860002068406994F84210C0F38010222904D1D6
:1048700018B1E585204600F080F8606C40F010002B
:1048800060642046FEF700FB70BD10B50146806BEA
:10489000096809684FF00002C9052ED4C285016875
:1048A0000C3151E8003F23F4807341E80034002CC0
:1048B000F5D10168143151E8003F23F0010341E8CC
:1048C0000034002CF5D10168143151E8003F23F089
:1048D000400341E80034002CF5D1202180F842103B
:1048E000016B012909D101680C3151E8003F23F027
:1048F000100341E80034002CF5D14263016B01291B
:1049000002D0FEF773FD10BD818DFEF784FA10BD55
:1049100010B5806B01214163016B012902D0FEF7C4
:10492000B3FD10BD818D4908FEF775FA10BD10B5B5
:104930000146806B09680968C90516D40021C18445
:104940000168143151E8002F22F0800241E8002371
:10495000002BF5D101680C3151E8002F42F04002E4
:1049600041E80023002BF5D110BDFEF71BFE10BD62
:1049700010B5806BFEF717FE10BD01680C3151E8D1
:10498000002F22F4907241E80023002BF5D101683A
:10499000143151E8002F22F0010241E80023002BDE
:1049A000F5D1016B012909D101680C3151E8002FC3
:1049B00022F0100241E80023002BF5D1202180F8DD
:1049C000421000210163704701680C3151E8002F4B
:1049D00022F0C00241E80023002BF5D1202180F80D
:1049E0004110704708B590F84210222901D00220EA
:1049F00008BD82684FF480539A4201D1016921B108
:104A0000816A9A421BD04AB10AE00268816A526800
:104A1000C2F308020A80816A891C08E0026972B147
:104A20000268526802F07F020A70816A491C816242
:104A3000C18D491E0904090CC18503D01BE0026821
:104A40005268F1E70168CA6822F02002CA60016872
:104A5000CA6822F48072CA6001684A6922F00102C1
:104A60004A61202180F8421000214163026B012A33
:104A700003D0FEF7BBFC002008BD016301680C31C8
:104A800051E8002F22F0100241E80023002BF5D15D
:104A900001680A68D20602D50A6849680091818DCA
:104AA000FEF7B9F9E7E7000070B504460068016950
:104AB000E26821F44051114301612169A068E26973
:104AC00008436169114308432168CA6849F20C63CD
:104AD0009A430243CA6020684169A26921F4407187
:104AE0001143416131492068884202D030498842EF
:104AF00002D1FDF7CDFD01E0FDF7BAFDE26900232B
:104B0000192164253226B2F5004F626828D0A0FB37
:104B10000101930F9200FBF755FB0146B0FBF5F046
:104B20006FF01802504301EB800006EB0010B0FB61
:104B3000F5F000F0F002B1FBF5F002EB0012B1FB72
:104B4000F5F06FF01803584301EB800006EB0010FE
:104B5000B0FBF5F000F00F0021681044886070BDD4
:104B6000A0FB010192185B41FBF72CFB0146B0FB57
:104B7000F5F00201B1FBF5F06FF01803584301EBBB
:104B8000800006EBC000B0FBF5F000F0F80002EB8F
:104B90004002B1FBF5F0584301EB800006EBC0008A
:104BA000B0FBF5F000F00700D6E700000010014070
:104BB0000014014038B58162044682850020134606
:104BC0006064222284F84220E56B1B4AEA63E56BAD
:104BD0001A4A2A64E56B1A4AEA64E26B10650A46CF
:104BE0002168E06B091DFDF7BFFA20680168406885
:104BF0000090206948B120680C3050E8001F41F453
:104C0000807140E80012002AF5D12068143050E885
:104C1000001F41F0010140E80012002AF5D1206890
:104C2000143050E8001F41F0400140E80012002A13
:104C3000F5D1002038BD00008B480008114900085C
:104C40004148000881628285C28500214164222199
:104C500080F84210016921B10168CA6842F480728B
:104C6000CA6001684A6942F001024A610068C1688D
:104C700041F02001C160002070472DE9F8439846BB
:104C800017460D460446089E24E0701C22D0FDF70E
:104C9000ADFBA0EB0800B0421AD8CEB12068C168C5
:104CA000490717D5802D15D0402D13D00168C94371
:104CB00009070FD401680025406800902046FFF7DF
:104CC0005CFE0820606484F840500120BDE8F88351
:104CD0000320FBE72068006835EA000004D00020CC
:104CE000B842D2D00020F1E70120F9E710B5012247
:104CF00004490548FEF76CFBBDE810406420FCF752
:104D000099BE0000170000209001002070B50E4CE5
:104D10000025607868B92646A07830700120607060
:104D20000246A11C0948FEF753FB6078012803D016
:104D300000E06570002070BD3078552801D02570E6
:104D4000F7E76570012070BD15000020900100207C
:104D50000148FEF79BB8000090010020094808B503
:104D600000680168C90608D50168406800900548D8
:104D7000FEF752F8044901200870BDE808400148D8
:104D8000FEF784B8D8010020280000200148FEF773
:104D90007DB8000020020020FEE738B504460AE096
:104DA0006068FFF7F1F88DF8000001231A466946A4
:104DB0002068FEF76AFB6068FFF78EF80028EFD1E5
:104DC00038BD000070B50E4A04464FF4FA75294606
:104DD00002F57B70FFF7B3F80A4A294602F2032076
:104DE000FFF7ADF8084901F10C0081600C39C0E90A
:104DF00000412046BDE8704001220449FEF7E8BAB0
:104E0000700300206505002068070020980000203E
:104E10000FB4054B10B503A9044A029800F040F9FD
:104E200010BC5DF814FB0000C55700089C00002072
:104E30000FB4084B10B504A902AA039800F030F98A
:104E4000044602A9002000F0AEFC204610BC5DF82C
:104E500014FB0000A75700080907090E002804DB0F
:104E600000F1E02080F80014704700F00F0000F11E
:104E7000E02080F8141D704700B52DED048BB0EED6
:104E8000409AF0EE609A83B051EC190BFBF780FC6E
:104E900041EC180B18EE100A18EE901A8DED008BED
:104EA000002818BF0120084320F00040C0F17F60B7
:104EB00000F1E040C00F14D019EE101A19EE900A5C
:104EC0008DED009B002918BF0121084320F0004010
:104ED000C0F17F6000F1E040C00F04BF012000F08E
:104EE00017F8B0EE480A03B0F0EE680ABDEC048B88
:104EF00000BD02E008C8121F08C1002AFAD170479D
:104F00007047002001E001C1121F002AFBD1704749
:104F10000149086070470000A00000202DE9FF5FF4
:104F200082B00021DDE90430020DDDF840B003431A
:104F300018D044F61050A2F2FF32424315141198D3
:104F400001281FD0A5EB0B00401C5FEA000A4FF0C0
:104F500000064E4FDFF83891B046504615D5CAF1DD
:104F6000000413E0119801244AA3012801D16FEA3B
:104F70000B010298119AC0E90031C0E9024206B063
:104F8000BDE8F09FCBF10000DFE704460021404A76
:104F9000491842EB0450CDE9001012E0E00707D0B9
:104FA00032463B4640464946FBF7F6F9804689467D
:104FB00032463B4610461946FBF7EEF906460F46C9
:104FC0006410002CEAD1DDE90401DDE90023BAF127
:104FD000000F06DAFBF7E0F942464B46FBF7DCF937
:104FE00005E0FBF74BFA42464B46FBF747FA04460F
:104FF0000E460022284BFBF735FC03D84FF0FF305C
:10500000014607E00022254B20463146FBF71DF9FB
:10501000FBF70FFC102409E0002C0ADB0A22002316
:10502000FBF7D0F8039B30321A55641E50EA010298
:10503000F2D1641C039AC4F111031444119A012A99
:1050400003D0012208430DD10AE0084304D0002018
:105050004FF0110B119072E7A3EB0B056D1E0DE0E5
:105060005B4504DD4FF0000205F1010504E003DAC1
:105070004FF00002A5F10105002AECD00298119929
:10508000C0E90231C0E9004579E7000000001440A2
:105090000000F03F300000000000F0430000E03F5F
:1050A0002DE9FF4F95B09A46884606460025EEE169
:1050B000252877D100242746F94A0121039400E0EE
:1050C000044316F8013F203B01FA03F01042F7D1E8
:1050D00030782A2811D06FF02F033078A0F13002F9
:1050E000092A16D8039A44F0020402EB820203EB69
:1050F00042021044761C0390EFE758F8042B039209
:10510000002A03DA504244F40054039044F00204AD
:10511000761C30782E2816D116F8010F44F00404BE
:105120002A280DD06FF02F023078A0F13003092B20
:1051300009D807EB870302EB4303C718761CF3E794
:1051400058F8047B761C30786C280FD006DC4C288D
:1051500017D068280DD06A2814D104E0742810D024
:105160007A280FD10DE044F400140AE044F48014CE
:1051700001E044F440147278824202D104F58014B4
:10518000761C761C307866280BD013DC582877D034
:1051900009DC002875D04528F6D04628F4D04728E9
:1051A0001AD193E118E0632835D0642879D06528B6
:1051B00012D18BE1702873D008DC6728F1D0692800
:1051C0006FD06E280DD06F2806D1ACE073282CD09C
:1051D000752874D0782853D05246179990476D1C83
:1051E00054E1C4F30250022809D003280DD0D8F8A6
:1051F000001004280DD00D6008F1040846E1D8F82D
:105200000010EA17C1E90052F6E7D8F800100D8047
:10521000F2E70D70F0E718F8041B8DF8001000207D
:105220008DF80100EB46012003E058F804BB4FF075
:10523000FF3061074FF0000102D40DE009F10101D8
:105240008946B9420FDA8145F8DB1BF809100029BD
:10525000F4D108E009F1010189468142FADB1BF82B
:1052600009100029F6D103985346A0EB09072146FF
:105270003846179A00F080FA284400EB090507E049
:1052800044E008E10DE01BF8010B524617999047E6
:10529000B9F10109F7D2534621463846179AF2E090
:1052A00039E00A21C4F302524FF0000B0091022AA8
:1052B00006D058F8040BC117032A09D00AE023E0EE
:1052C00008F1070020F00702F2E80201904605E02D
:1052D00000B2C117042A01D140B2C117002906DA71
:1052E0000A460021404261EB02012D2202E0220524
:1052F00004D52B228DF80420012203E0E20701D01F
:105300002022F7E7914657E00A2100E010214FF0F4
:10531000000B00910BE010214FF0000B44F004044F
:105320000827009103E008204FF0000B0090C4F321
:105330000252022A05D058F8040B0021032A08D093
:1053400008E008F1070020F00702F2E802019046A9
:1053500003E080B2042A00D1C0B24FF00009220756
:105360002AD53278702A07D0DDF800C08CF0100CF6
:105370005CEA0B0C05D00EE040228DF804200122DF
:1053800008E050EA010306D030238DF804308DF890
:10539000052002229146009B83F0080353EA0B0389
:1053A0000AD150EA010201D1620705D530228DF8F9
:1053B00004204FF001097F1E3278582A04D039A208
:1053C0000C920CAA02920BE03BA2F9E75B46009A12
:1053D000FAF7F8FE0C9B9B5C029A521E0292137025
:1053E00050EA0102F2D1029804A9081A00F1200B38
:1053F000600702D524F4803400E001275F4502DD18
:10540000A7EB0B0000E0002000EB0B0100900398DD
:105410004944401A0390E00306D453462146179AA4
:10542000039800F0A9F90544002706E001A85246B8
:10543000C05D179990476D1C7F1C4F45F6DBE0035C
:105440000CD553462146179A039800F095F9054468
:1054500004E030205246179990476D1C0099481E71
:1054600000900029F5DC08E0029802995246007885
:10547000491C0291179990476D1CBBF10001ABF1DB
:10548000010BF1DC5BE100F065F90544761C307836
:1054900000287FF40DAE19B02846BDE8F08F00005B
:1054A00009280100303132333435363738396162FA
:1054B00063646566000000003031323334353637BE
:1054C000383941424344454600000000600700D49B
:1054D000062708F1070020F00700F0E802238046C5
:1054E00003F0004C5FEA0C0001D097A009E0200512
:1054F00001D596A005E0E00701D095A001E0AFF24C
:105500004C001390307823F0004365280CD006DC63
:10551000452809D046281DD047287FD13BE0662882
:1055200018D067287AD136E00021112F01DB112035
:1055300000E0781CCDE9000104A90CA8FFF7EEFCFF
:10554000DDE90D010C9A4FF0000B07F101091092F3
:1055500000914EE04FF000400097CDE9011004A902
:105560000CA8FFF7DBFCDDE90D020C9B0F994FF057
:10557000000B91461093009211B9791C00EB0109C0
:10558000B7EB090003D4C0F1FF3B07F10109A9EB18
:105590000700019042E0012F00DA01270021112FBE
:1055A00001DD112000E03846CDE9000104A90CA876
:1055B000FFF7B4FCDDE90D010C9A00914FF0000BF0
:1055C000B946109221070FD4009A4A4503DA914652
:1055D00001E0A9F10109B9F1010F05DD109AA9F166
:1055E0000101515C3029F4D0B84202DA10F1040F05
:1055F00003DA0121CDE9011010E0002803DC834427
:10560000A9EB000102E0411C494500DD8946A0EB01
:105610000B00401C01904FF000400290200705D481
:105620000198484502DB4FF0FF30019000208DF8D3
:105630004B0002980DF14B07B0F1004F25D002202E
:105640000C902B200D90029800280CDA404202901A
:105650002D200D9007E00A210298FAF7BEFF3031A5
:10566000029007F8011D0C99481E0C900029F2DCED
:1056700002980028EFD1791E0D980870307800F05C
:10568000200040F0450007F8020D11A8C01BC01D06
:1056900002901398007800B1012000EB09010198F5
:1056A00001EBE071029801440398401A401E0390F8
:1056B000E00306D453462146179A039800F05CF89D
:1056C00005441398007818B15246179990476D1CFD
:1056D000E00323D553462146179A039800F04CF86F
:1056E00005441BE0BBF1000F07DB0098584504DDC3
:1056F0001098179910F80B0001E0179930205246C6
:10570000904701980BF1010B401E05F10105019036
:1057100004D12E205246179990476D1CB9F1000113
:10572000A9F10109DEDC05E017F8010B52461799D3
:1057300090476D1C0299481E02900029F4DC5346E4
:105740002146179A03989EE62D0000002B000000CA
:10575000200000002DE9F041044600251E461746B2
:10576000880404D405E039462020B0476D1C641E2F
:10577000F9D52846BDE8F0812DE9F0410446002521
:105780001E469046C80301D5302700E02027880434
:1057900004D505E041463846B0476D1C641EF9D576
:1057A0002846BDE8F0810A68531C0B6010707047F2
:1057B000F6EE000A30EE200ABDEEC00A10EE100A26
:1057C0007047000013B54FF6FF7301226946024887
:1057D000FDF75BFE00981CBD90010020FCF714FE55
:1057E000FEF75EFFFEF7BEF8FEF79EF8FEF744F9FF
:1057F000FEF75EF9FEF7E4F8FEF776F9FEF720F91A
:10580000FEF702F9FDF72AFFFEF7BAF90848FFF79D
:10581000D9FAFEF7A3F9FDF799FFFFF767FAFEF74C
:10582000FDFB0448FDF7D4F9FEF7FEFBFCE70000A2
:1058300000010020B8000020000610160006101617
:105840000000000000000000010203040607080930
:105850000000000001020304785800080000002046
:10586000A4000000F24E00081C590008A40000200B
:10587000DC0A0000024F00080100000010000000D8
:10588000000000000024F4000000000100000000FF
:105890000000000000000000000000000000000008
:1058A00000000000000000000000000001000100F6
:1058B00000000000010000000000000000000000E7
:1058C000000000009A996142000000000000000002
:1058D00000000000000000009A99193F000000003D
:1058E000CDCC4C3D00000000000000000000000096
:1058F000740700200000000000000000000000000D
:105900000000000000000000000000000000000097
:0C5910000000000000000000000000008B
:040000050800018965
:00000001FF
