:020000040800F2
:10000000F0050020A10100080F1700089316000852
:100010000D1700084F070008991A0008000000009B
:10002000000000000000000000000000131700089E
:1000300051070008000000001117000815170008FC
:10004000BB010008BB010008BB010008BB010008A0
:10005000BB010008BB010008BB010008BB01000890
:10006000BB010008BB010008BB010008BB01000880
:10007000BB010008BB010008BB010008BB01000870
:10008000BB010008BB010008BB010008BB01000860
:10009000BB010008BB010008BB010008BB01000850
:1000A000BB010008BB010008BB010008BB01000840
:1000B000BB010008BB010008BB010008BB01000830
:1000C000BB010008BB010008BB010008BB01000820
:1000D000BB0100088D1A0008BB010008BB01000825
:1000E000BB010008BB010008BB010008BB01000800
:1000F000BB010008BB010008BB010008BB010008F0
:10010000BB010008BB010008BB010008BB010008DF
:10011000BB010008BB010008BB010008BB010008CF
:10012000BB010008BB010008BB010008BB010008BF
:10013000BB010008BB010008BB010008BB010008AF
:10014000BB010008BB010008BB010008BB0100089F
:10015000BB010008BB010008BB010008BB0100088F
:10016000BB010008BB010008BB010008BB0100087F
:10017000BB010008BB010008BB0100080000000033
:10018000BB01000899080008DFF810D000F05EFA03
:100190000048004721240008AFF30080F00500204C
:1001A0000648804706480047FEE7FEE7FEE7FEE711
:1001B000FEE7FEE7FEE7FEE7FEE7FEE7A917000819
:1001C000890100082DE9F05F0546002092469B4614
:1001D00088460646814640241BE02846414647465D
:1001E000224600F06AF853465A46C01A914110D38D
:1001F00011461846224600F051F82D1A67EB010807
:100200004F4622460120002100F048F817EB000974
:100210004E41201EA4F10104DFDC484631462A4647
:100220004346BDE8F09FD2B201E000F8012B491E21
:10023000FBD270470022F6E710B513460A46044683
:100240001946FFF7F0FF204610BD00F0004230F0E5
:1002500000400AD0C10D01F56071C0F3160042EAFA
:100260000151C20840071143704700200146704702
:1002700030B50B46014600202022012409E021FA76
:1002800002F59D4205D303FA02F5491B04FA02F573
:100290002844151EA2F10102F1DC30BD202A04DB46
:1002A000203A00FA02F1002070479140C2F1200389
:1002B00020FA03F3194390407047202A04DB203AC8
:1002C00021FA02F00021704721FA02F3D040C2F176
:1002D000200291400843194670472DE9FE4F8046A1
:1002E00081EA0300C00F0C46009021F0004123F08A
:1002F0000045B8EB0200A94105D240462146904690
:100300001C460B46024623F00040104347D0270D01
:10031000C7F30A00C3F30A510290401A0190402823
:100320006BDAC3F3130040F4801B0098924620B1AF
:100330000023D2EB030A63EB0B0B01985946C0F183
:1003400040025046FFF7AAFF06460D465046594662
:10035000019A00F08DF910EB08006141002487EA52
:10036000115284EAE7731A4340D0009A62B3019AAB
:10037000012A4FEA075215DC001B61EB02014FF026
:10038000004202EA0752CDE90042001C41F580110B
:1003900032462B4600F08DF903B0BDE8F08F4046A1
:1003A0002146F9E7001B61EB0201001C41F58013B7
:1003B00000185B412018A2F5001747EB030140EA43
:1003C000D570B6196D4111E06D084FEA360645EA61
:1003D000C0754FEA0752001B61EB0201001C41F59A
:1003E000801149084FEA30000019514132462B462E
:1003F00003B0BDE8F04F00F04DB900980122400075
:100400000023D0EB020263EBE073009821464FEA31
:10041000E074B8EB000061EB0401E9E783F000430E
:100420005BE781F0004158E72DE9FE4F81EA0304C4
:1004300004F0004421F0004100944FF0000B23F041
:10044000004350EA01045ED052EA03045BD0C3F3D8
:100450000A54C1F30A552C44A4F2F3340194A0FBCE
:100460000254C1F3130141F48011C3F3130343F4A5
:10047000801301FB024400FB034E840A970A44EAFE
:10048000815447EA8357A4FB076802958D0A05FB50
:1004900007854FEA932C04FB0C542705029D4FEA75
:1004A000065847EA1637B5EB08056EEB070C870EC2
:1004B000920E47EA811742EA8312A7FB0201B6EBCC
:1004C0000B0164EB00042B0D43EA0C335E1844EB84
:1004D0001C50DA465146E7FB0201C5F313044FEA0C
:1004E0000B3343EA14534FEA0432019C43EA0603F8
:1004F000A4F10C040294009CCDE900B400F0D9F8FA
:1005000003B0BDE8F08F00200146F9E72DE9F04D7A
:1005100081EA030404F0004B21F0004514464FF03B
:10052000000A23F0004150EA050220D054EA0102FB
:100530001DD0C5F30A570246C5F31303C1F31300D8
:10054000C1F30A5640F4801543F48013A7EB060864
:10055000101BD64608F2FD3873EB050002D308F1F4
:10056000010801E092185B41B8F1000F03DA0020A6
:100570000146BDE8F08D00204FF480110646844608
:100580000EE0171B73EB050705D3121B63EB050386
:1005900006434CEA010C49084FEA300092185B41CF
:1005A00050EA0107EDD152EA030012D082EA0400BA
:1005B00083EA0501084305D0101BAB4106D2012296
:1005C000002306E000224FF0004302E06FF001023A
:1005D00053101AEB06004CEB085110EB0A0041EBEC
:1005E0000B01BDE8F04D00F055B8C1F30A52C1F35C
:1005F000130140F2FF3341F480119A4202DA0020E5
:100600000146704740F233439A42A2F2334202DC81
:100610005242FFF752BEFFF741BE000030B5041E44
:1006200071F1000404DB4FF00044404264EB01012F
:10063000141E73F1000405DB1C464FF000435242C8
:1006400063EB0403994208BF904230BD064C074D4E
:1006500006E0E06840F0010394E807009847103492
:10066000AC42F6D3FFF794FD242600084426000888
:10067000202A06DBCB17203A41FA02F043EAE07366
:1006800006E041FA02F3D040C2F120029140084353
:100690001946704710B5141E73F1000408DA401CA7
:1006A00041F1000192185B411A4301D120F0010091
:1006B00010BD2DE9F04D92469B4611B1B1FA81F281
:1006C00002E0B0FA80F220329046FFF7E7FD0446E0
:1006D0000F4640EA0A0041EA0B0153465A460843D6
:1006E00013D0114653EA010019D0C8F14002504618
:1006F000FFF7E3FD05460E46504659464246FFF7D2
:10070000CDFD084305D0012004E020463946BDE870
:10071000F08D0020054346EAE0762C4337430A98E3
:100720006305E40AA0EB08000022FD0A44EA4754EE
:100730000A3002D500200146E9E701051019694198
:10074000DDE9084500196941BDE8F04DA2E7FEE783
:1007500070472DE9FF410027DDE90A4600978DF833
:100760000000FD208DF801008DF802100197100A9D
:100770008DF803008DF804208DF80530200E8DF8DB
:100780000600200C0C9D8DF807000297200A8DF8BA
:10079000080003978DF809406B208DF80A608DF8EA
:1007A0000C008DF80B500D21684601F025FFBDE8C7
:1007B000FF811FB5002200928DF800000192029285
:1007C000039201206A46112931D2DFE801F0090BBA
:1007D000101230143016181A1C1E30202429220042
:1007E0001F2000E020208DF8010002201FE02120C2
:1007F000F9E72420F7E72720F5E73120F3E7332056
:10080000F1E73520EFE73620EDE73720EBE73A2038
:10081000E9E73B20E7E742208DF801006C2003E088
:1008200043208DF801007A208DF8020003206B210F
:100830001154411C104601F0DFFE1FBD1FB5002101
:1008400000918DF800000A208DF801006D208DF8D0
:1008500002006B200191029103918DF803000421A5
:10086000684601F0C9FE1FBD1FB5002100918DF83B
:100870000000FF208DF8010066208DF802006B203B
:100880000191029103918DF803000421684601F063
:10089000B3FE1FBD72B6FEE770472DE9F041044676
:1008A000876D00F05FF9064694F8350000250228B0
:1008B00006D08020606584F834500120BDE8F081C6
:1008C0002068016821F0160101602068416921F06B
:1008D00080014161206C08B9A06C20B120680168DA
:1008E00021F0080101602068016821F00101016028
:1008F0000CE000F037F9801B052807D9202060653F
:10090000032084F8350084F83450D7E72068006865
:10091000C007EED194F85C103F208840B8600120F9
:1009200084F8350084F834500020C7E790F835107B
:10093000022903D08021416501207047052180F8FC
:1009400035100068016821F0010101600020704746
:1009500070B5044600F006F90546601C02D0044854
:100960000078044400F0FEF8401BA042FAD370BDAA
:100970000C0000202DE9F84FDFF8BCA10022012572
:1009800003264FF00F090AF1040BAAF1040E00BF71
:100990000B6805FA02F42340A34270D10F7907F0E7
:1009A0000307012F01D0022F16D187684FEA4208B2
:1009B00006FA08FC27EA0C07D1F80CC00CFA08FC70
:1009C0004CEA070CC0F808C04768A7430C79C4F389
:1009D000001494403C4344600C79E443A4070AD0DB
:1009E000C4684FEA420C06FA0CF7BC438F6807FA5A
:1009F0000CF72743C7600C7904F00304022C12D1D2
:100A0000D40800EB840CDCF820405707FF0E09FAED
:100A100007F824EA0804D1F8108008FA07F848EA31
:100A20000408CCF8208004684FEA420C06FA0CF760
:100A3000BC430F7907F0030707FA0CF72743076059
:100A40004C6814F4403F70D03C4C276847F4804712
:100A50002760246822F0030704F480440094384C93
:100A600007EB040CDCF8084897074FEA177809FAF7
:100A700008F7BC43334FB84202D1002724E054E0CA
:100A8000314FB84201D101271EE0304FB84201D1A9
:100A9000022719E02E4FB84201D1032714E02D4F51
:100AA000B84201D104270FE02B4FB84201D10527EE
:100AB0000AE02A4FB84201D1062705E0284FB84284
:100AC00001D1072700E0082707FA08F72743CCF8E9
:100AD0000878DAF800405746D1F804C09C435FEA32
:100AE000CC2C00D51C433C60DBF800405F46D1F8BD
:100AF00004C09C435FEA8C2C00D51C433C60DEF8AC
:100B000000407746D1F804C09C435FEA8C3C00D596
:100B10001C433C60084F083F3C68D1F804C09C432C
:100B20005FEACC3C00D51C433C60521C102AFFF409
:100B30002FAFBDE8F88F0000083C01404438024068
:100B40000030014000000240000402400008024062
:100B5000000C024000100240001402400018024045
:100B6000001C024001488068704700000C00002013
:100B70000248816802781144816070470C000020AF
:100B80000B4810B5016841F400710160016841F43F
:100B900080610160016841F480710160032000F010
:100BA00077F80F2000F006F800F024F8002010BDC0
:100BB000003C024070B50D4D04464FF47A71287820
:100BC000B1FBF0F00A490968B1FBF0F000F012FB4C
:100BD00048B9102C07D200222146501E00F038F8E8
:100BE00000206C6070BD012070BD00000C00002072
:100BF000180000200E4808B5016841F480410160EA
:100C0000006800F4804000900948001F016841F02E
:100C1000805101600068002200F080500090114671
:100C2000512000F015F8BDE80840512000F002B84E
:100C300044380240002809DB00F01F0201219140E6
:100C40004009800000F1E020C0F80011704700006A
:100C5000F0B40E4B1B680C46C3F30223C3F1070527
:100C6000042D00D90425191D072901D2002300E015
:100C7000DB1E012606FA05F1491E214099409E40DF
:100C8000761E16403143F0BC00F018BF0CED00E0BA
:100C9000064900F0070208684FF6FF03184040EAD3
:100CA0000220034A10430860704700000CED00E08A
:100CB0000000FA052DE9F0470E46050065D0DFF883
:100CC0001481D8F80000F7B200F00700B04207D254
:100CD00088F80070D8F8000000F00700B04254D146
:100CE00028683D4C810712D5400703D5206840F4A1
:100CF000E05020602878000703D5206840F4604069
:100D000020602068A96820F0F0000843206028785F
:100D1000C0072DD0304968680839012812D0022850
:100D200013D0032811D00968890700292DDA21681A
:100D300021F0030101432160FFF714FF814641F2D6
:100D4000883A0EE009688903EFE709688901ECE752
:100D5000FFF708FFA0EB0901514502D90320BDE8C8
:100D6000F0872068696800F00C00B0EB810FEFD1CC
:100D7000D8F80010404601F00701B14207D90770CA
:100D8000006800F00700B04201D00120E7E72878B2
:100D9000400705D52068E96820F4E050084320604A
:100DA0002878000706D52068296920F4604040EAC9
:100DB000C100206000F038F82168084AC1F303112F
:100DC000515CC8400649086006480068FFF7F2FE1B
:100DD0000020C4E7003C0240083802400C2600080E
:100DE0001800002010000020044805490068096828
:100DF000044AC1F38221515CC840704718000020AA
:100E0000083802401C2600080448054900680968A3
:100E1000044AC1F34231515CC840704718000020B9
:100E2000083802401C260008154810B5006810F06C
:100E30000C02144813D04110042A0FD0082A0ED1F6
:100E40000F4C241F2268236802F03F025B0207D583
:100E50002068C0F38810A0FB010106E0084610BD21
:100E60002168C1F38811A1FB00010023FFF7AAF953
:100E70002168C1F30141491C4900B0FBF1F010BDEC
:100E8000083802400024F4002DE9F84F04006ED029
:100E90002078DFF84C93C007A9F104054AD009F186
:100EA00004000168C1F38101012908D00068C0F382
:100EB000810002280AD1D9F80000400206D528682E
:100EC000800337D560680028E1D033E06068B0F572
:100ED000803F10D0B0F5A02F286810D020F48030CB
:100EE0002860286820F4802028606068A8B1FFF797
:100EF00039FE06460DE0286840F48030F4E740F4FF
:100F000080202860F7E700BFFFF72CFE801B6428D5
:100F100073D828688003F7D50CE0FFF723FE064658
:100F200005E000BFFFF71EFE801B6428F0D828688C
:100F30008003F7D42078DFF8AC8280074FF0000AF6
:100F40003ED5A748001D016811F00C0F08D00068BD
:100F5000C0F3810002280BD1D9F80000400207D469
:100F60002868800716D5E068012800D112E033E137
:100F7000E068B8B10120C8F80000FFF7F3FD0646AD
:100F800005E000BFFFF7EEFD801B0228C0D82868EF
:100F90008007F7D52868216920F0F80040EAC100F1
:100FA00028600DE0C8F800A0FFF7DCFD064604E06D
:100FB000FFF7D8FD801B02281FD828688007F7D4C8
:100FC0002078000722D5864F87486169703771B154
:100FD00001210160FFF7C6FD064604E0FFF7C2FDF0
:100FE000801B022809D838688007F7D50EE0C0F8C2
:100FF00000A0FFF7B7FD064605E082E0FFF7B2FD6F
:10100000801B02287DD838688007F7D420784007F5
:1010100068D5DFF8CCB100270BF13C0BDBF8000002
:10102000C0000BD4DBF8001041F08051CBF8001069
:10103000DBF80000012700F0805000906B4E306814
:10104000C00510D4306840F480703060FFF78AFD2E
:10105000009005E0FFF786FD0099401A022850D85D
:101060003068C005F6D55E4EA0686C3601280FD0FA
:101070000528306810D020F001003060306820F082
:1010800004003060A068B8B1FFF76CFD00900FE07D
:10109000306840F00100F4E740F004003060F7E70A
:1010A000FFF760FD0099411A41F28830814266D80D
:1010B00030688007F4D50EE0FFF754FD009007E09C
:1010C000FFF750FD0099411A41F28830814256D80D
:1010D00030688007F4D42FB1DBF8001021F0805184
:1010E000CBF80010A069C8B33D49091D0968C1F3D8
:1010F000810102294AD00228504607D0C8F8600072
:1011000000E03CE0FFF72EFD04463BE04746C8F810
:101110006000FFF727FD064605E000BFFFF722FD50
:10112000801B02282BD828688001F7D4D4E9070156
:101130000843A16A2E4A490802EB0141626A41EA6A
:101140008211084394F82C1040EA0161C9F800109C
:1011500001203866FFF706FD044606E03EE000BFCA
:10116000FFF700FD001B022809D828688001F7D589
:1011700034E000BFFFF7F6FC001B022802D9032071
:10118000BDE8F88F28688001F4D427E00128F7D063
:10119000D9F80000E26900F4800191421CD1226A72
:1011A00000F03F01914217D147F6C071626A0140D9
:1011B000B1EB821F10D1A26A4FF0FF3300F440312F
:1011C00003EB5202B1EB024F06D194F82C1000F061
:1011D0007060B0EB016F01D00120D1E70020CFE7B4
:1011E0000438024000004742800E47420070004031
:1011F0000000FFFF10B5401EB0F1807F01D3012039
:1012000010BD4FF0E02460610F21601700F056FC24
:101210000020A06107202061002010BD70477047AA
:10122000F8B5016804460868CA684B6910F00F0FEA
:101230004FF0000559D003F0010602F490773743D0
:1012400065D0C10705D0D10503D5616C41F001011E
:101250006164410705D5D90703D0616C41F00201F3
:101260006164810705D5D90703D0616C41F00401A1
:101270006164010707D502F02001314303D0616C9E
:1012800041F008016164616C00293AD0800604D500
:10129000900602D5204600F0BEFA20684069616CD5
:1012A000C0F38010090700D460B3204600F08CFA28
:1012B00020684069400621D52068143050E8001F9E
:1012C00021F0400140E80012002AF5D1E06BA8B1FE
:1012D0006E490165E06BFFF729FB002811D0E06B38
:1012E000016D01B0BDE8F040084783060FD59306B5
:1012F0000DD52046BDE8F84000F08DBA2046FFF736
:101300008EFFF8BD2046FFF78AFF6564F8BD266BA7
:101310002023012E7DD1C6067BD5D60679D5086857
:101320004868009048694FF00206400641D5E16BDD
:10133000086840680004000CE8D0A28D8242E5D91C
:10134000E085C869B0F5807F2DD020680C3050E86A
:10135000001F21F4807140E80012002AF5D12068B6
:10136000143050E8001F21F0010140E80012002A6B
:10137000F5D12068143050E8001F21F0400140E80A
:101380000012002AF5D184F84230256320680C3021
:1013900050E8001F21F0100140E80012002AF5D1AA
:1013A000E06BFFF77AFA6663A08DE18D401A81B297
:1013B0002AE0A08DE18D401A81B2E08D0028A5D0F1
:1013C0000029A3D022680C3252E8000F20F490705C
:1013D00042E80007002FF5D12068143050E8002FB4
:1013E00022F0010240E80027002FF5D184F84230B6
:1013F000256320680C3050E8002F22F0100240E8EE
:101400000023002BF5D166632046FFF707FFF8BDE8
:10141000FFE705062BD5150629D594F841002128AC
:10142000F5D1A068B0F5805F01D12069B0B1206A24
:10143000411C2162216800784860E08C401E000455
:10144000000CE084E3D12068C16821F08001C16014
:101450002068C16841F04001C160D8E7206A008877
:10146000C0F308004860206A801C2062E5E740065F
:10147000CDD55006CBD5CA68204622F04002CA60BE
:1014800084F8413000F004F9C1E70000B917000802
:1014900070B5040004D094F84100002510B106E0B6
:1014A000012070BD84F84050204600F023F824202D
:1014B00084F841002068C16821F40051C1602046D1
:1014C00000F00AFA2068016921F490410161206866
:1014D000416921F02A0141612068C16841F400514D
:1014E000C1606564202084F8410084F8420065638F
:1014F000002070BD10B586B0044614216846FEF782
:1015000099FE18492068884229D1174800210268AD
:1015100042F010020260006800F0100005901248CE
:101520001438026842F001020260006800F0010015
:1015300005904FF4C06000900220CDE90101032026
:1015400003900720049069460848FFF713FA002229
:1015500011462520FFF77CFB2520FFF76BFB06B02B
:1015600010BD00000010014044380240000002405D
:1015700090F84230202B01D00220704721B11AB1DF
:101580000023036300F02EBA0120704770B5006895
:101590001349884222D14068C0B200F009FF00F030
:1015A0001BFF104D687068780F4E08280ED300247A
:1015B00005E000BF00F0E8FE3055641CE4B2687836
:1015C0008442F7D3012028700020687068783118B1
:1015D000BDE8704001220548FFF7CABF70BD00009A
:1015E000001001400000002020000020A401002085
:1015F0002DE9F843044690F84100984616460D46FA
:10160000202802D00220BDE8F88385B17EB10020F9
:101610006064212084F84100FFF7A4FAA684814683
:10162000E684A0682027B0F5805F02D003E00120A7
:10163000E9E7206910B12E4600250EE000260CE0F7
:101640008021204600F0E9F9A8B9C6B116F8010BCF
:1016500021684860E08C401EE084E08C4B464FF0EF
:101660000002CDF800800028EAD14FF0400120466A
:1016700000F0D3F940B184F841700320C3E735F896
:10168000020BC0F30800E3E784F841700020BAE7DA
:101690007047FEE7094808B5016841F08001016024
:1016A000016801F080010091016841F001010160D1
:1016B000006800F00100009008BD000030380240D2
:1016C0000F4810B50D4901604FF4E1314160002130
:1016D00081600C22C160C0E904128161C161FFF721
:1016E000D7FE08B1FFF7D6F8074906480978BDE8E4
:1016F0001040014401220248FFF73ABF00100140A8
:10170000A40100202000002001000020FEE7FEE7E9
:1017100070477047FFF72CBA30B593B03021684658
:10172000FEF788FD14210CA8FEF784FD1C48002557
:10173000016841F080510160006800F08050119014
:101740001848016841F4804101600068022400F4F7
:101750008040119001200090000401908001CDE9AB
:10176000064008AA0420A82182E813000B906846CE
:10177000FFF78AFB08B172B6FEE70CA90F2081E8DB
:1017800031004FF4A0500F90109005210CA8FFF7E6
:1017900091FA002801D072B6FEE713B030BD000008
:1017A00040380240007000400248016841F4700176
:1017B0000160704788ED00E010B5806B0021C185A5
:1017C000C184FFF72CFD10BD01680C3151E8002FDA
:1017D00022F4907241E80023002BF5D10168143106
:1017E00051E8002F22F0010241E80023002BF5D13F
:1017F000016B012909D101680C3151E8002F22F059
:10180000100241E80023002BF5D1202180F842107E
:1018100000210163704708B590F84210222901D0D9
:10182000022008BD82684FF480539A4201D10169B9
:1018300021B1816A9A421BD04AB10AE00268816AEA
:101840005268C2F308020A80816A891C08E00269B2
:1018500072B10268526802F07F020A70816A491C04
:101860008162C18D491E0904090CC18503D01BE0AA
:1018700002685268F1E70168CA6822F02002CA6073
:101880000168CA6822F48072CA6001684A6922F05D
:1018900001024A61202180F8421000214163026B5D
:1018A000012A03D0FFF772FE002008BD0163016822
:1018B0000C3151E8002F22F0100241E80023002BE8
:1018C000F5D101680A68D20602D50A684968009114
:1018D000818DFFF7A3FCE7E770B504460068016956
:1018E000E26821F44051114301612169A068E26975
:1018F00008436169114308432168CA6849F20C63CF
:101900009A430243CA6020684169A26921F4407188
:101910001143416131492068884202D030498842F0
:1019200002D1FFF771FA01E0FFF75EFAE2690023E6
:10193000192164253226B2F5004F626828D0A0FB39
:101940000101930F9200FEF73DFC0146B0FBF5F05C
:101950006FF01802504301EB800006EB0010B0FB63
:10196000F5F000F0F002B1FBF5F002EB0012B1FB74
:10197000F5F06FF01803584301EB800006EB001000
:10198000B0FBF5F000F00F0021681044886070BDD6
:10199000A0FB010192185B41FEF714FC0146B0FB6D
:1019A000F5F00201B1FBF5F06FF01803584301EBBD
:1019B000800006EBC000B0FBF5F000F0F80002EB91
:1019C0004002B1FBF5F0584301EB800006EBC0008C
:1019D000B0FBF5F000F00700D6E700000010014072
:1019E0000014014081628285C28500214164222168
:1019F00080F84210016921B10168CA6842F480721E
:101A0000CA6001684A6942F001024A610068C1681F
:101A100041F02001C160002070472DE9F84398464D
:101A200017460D460446089E24E0701C22D0FFF79E
:101A300099F8A0EB0800B0421AD8CEB12068C1686E
:101A4000490717D5802D15D0402D13D00168C94303
:101A500009070FD401680025406800902046FFF771
:101A6000B3FE0820606484F840500120BDE8F8838C
:101A70000320FBE72068006835EA000004D000205E
:101A8000B842D2D00020F1E70120F9E70148FFF782
:101A9000C7BB0000A4010020FEE700000FB4054B07
:101AA00010B503A9044A029800F0EAF810BC5DF8EA
:101AB00014FB0000092400081C0000200907090E7F
:101AC000002804DB00F1E02080F80014704700F0EB
:101AD0000F0000F1E02080F8141D704702E008C8F4
:101AE000121F08C1002AFAD170477047002001E098
:101AF00001C1121F002AFBD1704700002DE9FF5FD2
:101B000082B00021DDE90430020DDDF840B003436E
:101B100018D044F61050A2F2FF3242431514119827
:101B200001281FD0A5EB0B00401C5FEA000A4FF014
:101B300000064E4FDFF83891B046504615D5CAF131
:101B4000000413E0119801244AA3012801D16FEA8F
:101B50000B010298119AC0E90031C0E9024206B0B7
:101B6000BDE8F09FCBF10000DFE704460021404ACA
:101B7000491842EB0450CDE9001012E0E00707D00D
:101B800032463B4640464946FEF74EFC8046894673
:101B900032463B4610461946FEF746FC06460F46BF
:101BA0006410002CEAD1DDE90401DDE90023BAF17B
:101BB000000F06DAFEF738FC42464B46FEF734FCCF
:101BC00005E0FEF7A3FC42464B46FEF79FFC0446A9
:101BD0000E460022284BFEF721FD03D84FF0FF30C0
:101BE000014607E00022254B20463146FEF775FBF3
:101BF000FEF7FBFC102409E0002C0ADB0A2200237C
:101C0000FEF7E0FA039B30321A55641E50EA0102D7
:101C1000F2D1641C039AC4F111031444119A012AED
:101C200003D0012208430DD10AE0084304D000206C
:101C30004FF0110B119072E7A3EB0B056D1E0DE039
:101C40005B4504DD4FF0000205F1010504E003DA15
:101C50004FF00002A5F10105002AECD0029811997D
:101C6000C0E90231C0E9004579E7000000001440F6
:101C70000000F03F300000000000F0430000E03FB3
:101C80002DE9FF4F95B09A46884606460025EEE1BD
:101C9000252877D100242746F94A0121039400E042
:101CA000044316F8013F203B01FA03F01042F7D13C
:101CB00030782A2811D06FF02F033078A0F130024D
:101CC000092A16D8039A44F0020402EB820203EBBD
:101CD00042021044761C0390EFE758F8042B03925D
:101CE000002A03DA504244F40054039044F0020402
:101CF000761C30782E2816D116F8010F44F0040413
:101D00002A280DD06FF02F023078A0F13003092B74
:101D100009D807EB870302EB4303C718761CF3E7E8
:101D200058F8047B761C30786C280FD006DC4C28E1
:101D300017D068280DD06A2814D104E0742810D078
:101D40007A280FD10DE044F400140AE044F4801422
:101D500001E044F440147278824202D104F5801408
:101D6000761C761C307866280BD013DC582877D088
:101D700009DC002875D04528F6D04628F4D047283D
:101D80001AD193E118E0632835D0642879D065280A
:101D900012D18BE1702873D008DC6728F1D0692854
:101DA0006FD06E280DD06F2806D1ACE073282CD0F0
:101DB000752874D0782853D05246179990476D1CD7
:101DC00054E1C4F30250022809D003280DD0D8F8FA
:101DD000001004280DD00D6008F1040846E1D8F881
:101DE0000010EA17C1E90052F6E7D8F800100D809C
:101DF000F2E70D70F0E718F8041B8DF800100020D2
:101E00008DF80100EB46012003E058F804BB4FF0C9
:101E1000FF3061074FF0000102D40DE009F101012C
:101E20008946B9420FDA8145F8DB1BF80910002911
:101E3000F4D108E009F1010189468142FADB1BF87F
:101E400009100029F6D103985346A0EB0907214653
:101E50003846179A00F080FA284400EB090507E09D
:101E600044E008E10DE01BF8010B5246179990473A
:101E7000B9F10109F7D2534621463846179AF2E0E4
:101E800039E00A21C4F302524FF0000B0091022AFC
:101E900006D058F8040BC117032A09D00AE023E042
:101EA00008F1070020F00702F2E80201904605E081
:101EB00000B2C117042A01D140B2C117002906DAC5
:101EC0000A460021404261EB02012D2202E0220578
:101ED00004D52B228DF80420012203E0E20701D073
:101EE0002022F7E7914657E00A2100E010214FF049
:101EF000000B00910BE010214FF0000B44F00404A4
:101F00000827009103E008204FF0000B0090C4F375
:101F10000252022A05D058F8040B0021032A08D0E7
:101F200008E008F1070020F00702F2E802019046FD
:101F300003E080B2042A00D1C0B24FF000092207AA
:101F40002AD53278702A07D0DDF800C08CF0100C4A
:101F50005CEA0B0C05D00EE040228DF80420012233
:101F600008E050EA010306D030238DF804308DF8E4
:101F7000052002229146009B83F0080353EA0B03DD
:101F80000AD150EA010201D1620705D530228DF84D
:101F900004204FF001097F1E3278582A04D039A25C
:101FA0000C920CAA02920BE03BA2F9E75B46009A66
:101FB000FEF708F90C9B9B5C029A521E029213706A
:101FC00050EA0102F2D1029804A9081A00F1200B8C
:101FD000600702D524F4803400E001275F4502DD6C
:101FE000A7EB0B0000E0002000EB0B010090039832
:101FF0004944401A0390E00306D453462146179AF9
:10200000039800F0A9F90544002706E001A852460C
:10201000C05D179990476D1C7F1C4F45F6DBE003B0
:102020000CD553462146179A039800F095F90544BC
:1020300004E030205246179990476D1C0099481EC5
:1020400000900029F5DC08E00298029952460078D9
:10205000491C0291179990476D1CBBF10001ABF12F
:10206000010BF1DC5BE100F065F90544761C30788A
:1020700000287FF40DAE19B02846BDE8F08F0000AF
:10208000092801003031323334353637383961624E
:102090006364656600000000303132333435363712
:1020A000383941424344454600000000600700D4EF
:1020B000062708F1070020F00700F0E80223804619
:1020C00003F0004C5FEA0C0001D097A009E0200566
:1020D00001D596A005E0E00701D095A001E0AFF2A0
:1020E0004C001390307823F0004365280CD006DCB8
:1020F000452809D046281DD047287FD13BE06628D7
:1021000018D067287AD136E00021112F01DB112089
:1021100000E0781CCDE9000104A90CA8FFF7EEFC53
:10212000DDE90D010C9A4FF0000B07F10109109247
:1021300000914EE04FF000400097CDE9011004A956
:102140000CA8FFF7DBFCDDE90D020C9B0F994FF0AB
:10215000000B91461093009211B9791C00EB010914
:10216000B7EB090003D4C0F1FF3B07F10109A9EB6C
:102170000700019042E0012F00DA01270021112F12
:1021800001DD112000E03846CDE9000104A90CA8CA
:10219000FFF7B4FCDDE90D010C9A00914FF0000B44
:1021A000B946109221070FD4009A4A4503DA9146A6
:1021B00001E0A9F10109B9F1010F05DD109AA9F1BA
:1021C0000101515C3029F4D0B84202DA10F1040F59
:1021D00003DA0121CDE9011010E0002803DC83447B
:1021E000A9EB000102E0411C494500DD8946A0EB56
:1021F0000B00401C01904FF000400290200705D4D6
:102200000198484502DB4FF0FF30019000208DF827
:102210004B0002980DF14B07B0F1004F25D0022082
:102220000C902B200D90029800280CDA404202906E
:102230002D200D9007E00A210298FEF719F83031A1
:10224000029007F8011D0C99481E0C900029F2DC41
:1022500002980028EFD1791E0D980870307800F0B0
:10226000200040F0450007F8020D11A8C01BC01D5A
:1022700002901398007800B1012000EB0901019849
:1022800001EBE071029801440398401A401E03904C
:10229000E00306D453462146179A039800F05CF8F1
:1022A00005441398007818B15246179990476D1C51
:1022B000E00323D553462146179A039800F04CF8C3
:1022C00005441BE0BBF1000F07DB0098584504DD17
:1022D0001098179910F80B0001E01799302052461A
:1022E000904701980BF1010B401E05F1010501908B
:1022F00004D12E205246179990476D1CB9F1000168
:10230000A9F10109DEDC05E017F8010B5246179927
:1023100090476D1C0299481E02900029F4DC534638
:102320002146179A03989EE62D0000002B0000001E
:10233000200000002DE9F041044600251E46174606
:10234000880404D405E039462020B0476D1C641E83
:10235000F9D52846BDE8F0812DE9F0410446002575
:102360001E469046C80301D5302700E02027880488
:1023700004D505E041463846B0476D1C641EF9D5CA
:102380002846BDE8F0810000084991F8010131F8C4
:10239000100091F80121521C81F8012191F80121CE
:1023A000802A02D3002281F801217047A00000207A
:1023B000084991F8002121F8120091F80001401C11
:1023C00081F8000191F80001802802D3002081F8F3
:1023D00000017047A00000200A4890F8011190F811
:1023E0000021914205D890F8001190F80101081AD7
:1023F00006E090F8011190F80001C1F18001084455
:1024000080B27047A000002013B54FF6FF73012281
:1024100069460248FFF7ECF800981CBDA4010020B3
:102420000EB5FEF7ADFBFFF777F9FFF733F9FFF7CE
:1024300047F94FF4FA60FEF78BFA0120FEF7FEF938
:102440001420FEF785FA0220FEF7F8F91420FEF7B3
:102450007FFA0320FEF7F2F91420FEF779FA042040
:10246000FEF7ECF91420FEF773FA0020FEF7FCF9F2
:1024700040F6B830FEF76CFA012544F620660024D9
:102480004FF42F77009632233A4629462846CDE965
:102490000145FEF75EF91420FEF75AFA0096322342
:1024A0003A4601210220CDE90145FEF752F91420F8
:1024B000FEF74EFA009664234FF47A72012103204E
:1024C000CDE90145FEF745F91420FEF741FA0096E3
:1024D00032233A4601210420CDE90145FEF739F9BE
:1024E0001420FEF735FA0020FEF7BEF94FF4FA503B
:1024F000FEF72EFA0A210120FEF75BF92F4E4FF668
:10250000FF7505E02B4610222DA13048FFF770F82B
:1025100030780028F6D034702D4801782D4C0129F0
:1025200026D14178362923D12B49097808291FD192
:102530008179C27841EA026102794379120442EA60
:102540000322114300EE101ADFED240AB8EE400A10
:1025500084ED000A20EE200ADFED210A20EE200A99
:1025600084ED010A807818B1B1EE400A84ED010AC9
:102570004FF4FA763046FEF7EBF92068FDF765FE7A
:1025800041EC100B17A053EC102BFFF787FA3046E5
:10259000FEF7DEF96068FDF758FE41EC100B11A064
:1025A00053EC102BFFF77AFA2B46102204A10748B0
:1025B000FFF71EF83046FEF7CBF9DBE700000020FE
:1025C00068656C6C6F2031210D0A0000A4010020A9
:1025D0002000002004000020010000200000B4437F
:1025E00000008037466C6F617420446174613A204A
:1025F0002566200D0A0000000A4601464FF0FF3311
:102600000148FEF7F5BF0000A40100200000000013
:102610000000000001020304060708090000000092
:1026200001020304442600080000002020000000EE
:10263000DC1A00086426000820000020D0050000F5
:10264000EC1A00080000000000000000000000007C
:102650000100000010000000000000000024F40051
:042660000000000076
:040000050800018965
:00000001FF
