:020000040800F2
:10000000E8070020A1010008D51E0008DD1C00083B
:10001000951E00087307000819250008000000005D
:10002000000000000000000000000000EF1E0008BB
:100030002508000800000000ED1E0008091F000848
:10004000BB010008BB010008BB010008BB010008A0
:10005000BB010008BB010008BB010008BB01000890
:10006000BB010008BB010008BB010008BB01000880
:10007000BB010008BB010008BB010008BB01000870
:1000800075070008BB010008BB010008BB010008A0
:10009000BB010008BB010008BB010008BB01000850
:1000A000BB010008BB010008BB010008BB01000840
:1000B000BB010008BB010008BB010008BB01000830
:1000C000BB010008BB010008BB010008BB01000820
:1000D000BB010008012500080D250008BB01000830
:1000E000BB010008BB010008BB010008BB01000800
:1000F000BB010008BB010008BB010008BB010008F0
:10010000BB010008BB010008BB010008BB010008DF
:10011000BB010008BB010008AD1F0008BB010008BF
:10012000BB010008BB010008BB010008BB010008BF
:10013000BB010008BB010008BB010008BB010008AF
:10014000BB010008BB010008BB010008BB0100089F
:10015000BB010008BB010008BB010008BB0100088F
:10016000BB010008BB010008BB010008BB0100087F
:10017000BB010008BB010008BB0100080000000033
:10018000BB01000857080008DFF810D000F070FA33
:1001900000480047A12E0008AFF30080E8070020C8
:1001A0000648804706480047FEE7FEE7FEE7FEE711
:1001B000FEE7FEE7FEE7FEE7FEE7FEE79D1F00081D
:1001C000890100082DE9F05F0546002092469B4614
:1001D00088460646814640241BE02846414647465D
:1001E000224600F07CF853465A46C01A914110D37B
:1001F00011461846224600F063F82D1A67EB0108F5
:100200004F4622460120002100F05AF817EB000962
:100210004E41201EA4F10104DFDC484631462A4647
:100220004346BDE8F09F40EA01039B0703D009E085
:1002300008C9121F08C0042AFAD203E011F8013BD2
:1002400000F8013B521EF9D27047D2B201E000F82B
:10025000012B491EFBD270470022F6E710B513466A
:100260000A4604461946FFF7F0FF204610BD00F08D
:10027000004230F000400AD0C10D01F56071C0F3BA
:10028000160042EA0151C20840071143704700209E
:100290000146704730B50B4601460020202201245C
:1002A00009E021FA02F59D4205D303FA02F5491B44
:1002B00004FA02F52844151EA2F10102F1DC30BD5A
:1002C000202A04DB203A00FA02F100207047914016
:1002D000C2F1200320FA03F3194390407047202A0B
:1002E00004DB203A21FA02F00021704721FA02F3E0
:1002F000D040C2F1200291400843194670472DE9D1
:10030000FE4F804681EA0300C00F0C46009021F0AA
:10031000004123F00045B8EB0200A94105D2404658
:10032000214690461C460B46024623F000401043EF
:1003300047D0270DC7F30A00C3F30A510290401AB1
:10034000019040286BDAC3F3130040F4801B00983F
:10035000924620B10023D2EB030A63EB0B0B01980A
:100360005946C0F140025046FFF7AAFF06460D4627
:1003700050465946019A00F08DF910EB0800614192
:10038000002487EA115284EAE7731A4340D0009AA6
:1003900062B3019A012A4FEA075215DC001B61EB98
:1003A00002014FF0004202EA0752CDE90042001C70
:1003B00041F5801132462B4600F08DF903B0BDE8BF
:1003C000F08F40462146F9E7001B61EB0201001C5B
:1003D00041F5801300185B412018A2F5001747EB88
:1003E000030140EAD570B6196D4111E06D084FEA7E
:1003F000360645EAC0754FEA0752001B61EB020161
:10040000001C41F5801149084FEA300000195141A4
:1004100032462B4603B0BDE8F04F00F04DB90098CE
:10042000012240000023D0EB020263EBE07300984E
:1004300021464FEAE074B8EB000061EB0401E9E704
:1004400083F000435BE781F0004158E72DE9FE4F60
:1004500081EA030404F0004421F0004100944FF0CD
:10046000000B23F0004350EA01045ED052EA03047B
:100470005BD0C3F30A54C1F30A552C44A4F2F334FD
:100480000194A0FB0254C1F3130141F48011C3F3A2
:10049000130343F4801301FB024400FB034E840A60
:1004A000970A44EA815447EA8357A4FB07680295F8
:1004B0008D0A05FB07854FEA932C04FB0C54270596
:1004C000029D4FEA065847EA1637B5EB08056EEB72
:1004D000070C870E920E47EA811742EA8312A7FBA8
:1004E0000201B6EB0B0164EB00042B0D43EA0C3365
:1004F0005E1844EB1C50DA465146E7FB0201C5F397
:1005000013044FEA0B3343EA14534FEA0432019CBD
:1005100043EA0603A4F10C040294009CCDE900B464
:1005200000F0D9F803B0BDE8F08F00200146F9E7EC
:100530002DE9F04D81EA030404F0004B21F0004561
:1005400014464FF0000A23F0004150EA050220D083
:1005500054EA01021DD0C5F30A570246C5F313033E
:10056000C1F31300C1F30A5640F4801543F480131D
:10057000A7EB0608101BD64608F2FD3873EB050002
:1005800002D308F1010801E092185B41B8F1000FB5
:1005900003DA00200146BDE8F08D00204FF4801101
:1005A000064684460EE0171B73EB050705D3121BA6
:1005B00063EB050306434CEA010C49084FEA30009F
:1005C00092185B4150EA0107EDD152EA030012D0C4
:1005D00082EA040083EA0501084305D0101BAB4101
:1005E00006D20122002306E000224FF0004302E081
:1005F0006FF0010253101AEB06004CEB085110EBA0
:100600000A0041EB0B01BDE8F04D00F055B8C1F315
:100610000A52C1F3130140F2FF3341F480119A42B0
:1006200002DA00200146704740F233439A42A2F2B8
:10063000334202DC5242FFF752BEFFF741BE0000D8
:1006400030B5041E71F1000404DB4FF00044404259
:1006500064EB0101141E73F1000405DB1C464FF02E
:100660000043524263EB0403994208BF904230BDFD
:10067000064C074D06E0E06840F0010394E80700EF
:1006800098471034AC42F6D3FFF782FD902F000854
:10069000B02F0008202A06DBCB17203A41FA02F0DF
:1006A00043EAE07306E041FA02F3D040C2F12002CF
:1006B000914008431946704710B5141E73F10004A9
:1006C00008DA401C41F1000192185B411A4301D144
:1006D00020F0010010BD2DE9F04D92469B4611B16E
:1006E000B1FA81F202E0B0FA80F220329046FFF7D0
:1006F000E7FD04460F4640EA0A0041EA0B01534673
:100700005A46084313D0114653EA010019D0C8F1E4
:1007100040025046FFF7E3FD05460E465046594657
:100720004246FFF7CDFD084305D0012004E02046F6
:100730003946BDE8F08D0020054346EAE0762C43BB
:1007400037430A986305E40AA0EB08000022FD0A7B
:1007500044EA47540A3002D500200146E9E7010582
:1007600010196941DDE9084500196941BDE8F04DFE
:10077000A2E7FEE7014800F0CBB8000084030020A8
:1007800001681823CAB2103AB2FBF3F2054B6FF3BB
:100790000901032A9B5CC36500D9091D81650846D0
:1007A00070470000702F000810B5014600208B69CB
:1007B0008A6A4FF0C07453B1B3F5005F15D072B1BF
:1007C000012A0CD0022A0AD0032A09D104E01AB166
:1007D000012A06D0022A03D1C96AC90100D5012025
:1007E00010BDC96AA142FAD010BD002AF7D0012A73
:1007F000F2D0022AF3D0032AF3D010BD30B504683A
:10080000256825F480252560046863608368402B93
:10081000036803D099600068C26030BD9A600068C8
:10082000C16030BD70471FB5002100918DF80000F8
:100830000A208DF801006D208DF802006B200191D7
:10084000029103918DF803000421684602F086FBB3
:100850001FBD72B6FEE770472DE9F0410446876D73
:1008600000F0D2FA064694F835000025022806D09A
:100870008020606584F834500120BDE8F081206854
:10088000016821F0160101602068416921F08001B2
:100890004161206C08B9A06C20B12068016821F08A
:1008A000080101602068016821F0010101600CE08D
:1008B00000F0AAFA801B052807D9202060650320D4
:1008C00084F8350084F83450D7E720680068C00702
:1008D000EED194F85C103F208840B860012084F885
:1008E000350084F834500020C7E790F8351002290D
:1008F00003D08021416501207047052180F8351023
:100900000068016821F001010160002070470000CB
:100910002DE9F84304464FF00009CDF800906348F4
:100920004FF41651A56D0068B0FBF1F72E6894F8EE
:100930005C10082000FA01F131420FD021680A68EA
:1009400052070BD50A6822F004020A6094F85C1082
:100950008840A860606D40F00100606594F85C100C
:100960004FF0010808FA01F0304208D021684969C7
:10097000090604D5A860606D40F00200606594F837
:100980005C1004208840304208D02168096889073B
:1009900004D5A860606D40F00400606594F85C10B8
:1009A00010208840304218D021680968090714D502
:1009B000A86020680168490304D50068000308D5D1
:1009C000A16C07E00168C90503D4016821F00801A2
:1009D0000160216C09B12046884794F85C10202002
:1009E0008840304231D021680968C9062DD5A860F9
:1009F00094F8350005282068016806D0490347D5DA
:100A0000006800031DD4616C1CE021F01601016038
:100A10002068416921F080014161206C08B9A06C17
:100A200020B12068016821F00801016094F85C1091
:100A30003F208840A86084F8358084F83490216D88
:100A40001FE0E16B09B120468847606D00282BD07C
:100A5000606DC00714D0052084F835002068016857
:100A600021F0010101600098401C0090B84203D8B9
:100A700020680068C007F6D184F8358084F8349087
:100A8000E16C002910D001B02046BDE8F0430847D2
:100A90000168C905D5D4016821F01001016084F80E
:100AA000358084F83490CCE7BDE8F883240000203A
:100AB0002DE9F041044600F0A7F906465CB102209A
:100AC00084F83500002584F834502068016821F04E
:100AD000010101600DE00120BDE8F08100F094F912
:100AE000801B052805D920206065032084F8350087
:100AF000F2E720680068C007F0D12268116820483A
:100B00000140D4E901031843D4E9033633431843C1
:100B100063691843A3691843E3691843236A1843B8
:100B20000843616A042903D1D4E90B13194308432C
:100B3000106020684069666A20F0070130460E4365
:100B4000012704280CD1A06A0643E06A40B1204680
:100B5000FFF72AFE20B14020606584F83570BAE7BF
:100B6000206846612046FFF70BFE94F85C203F2189
:100B700091408160656584F835700020ACE7000025
:100B80003F8010F02DE9F0410446866D90F8340066
:100B9000002501280DD0012084F8340094F8357028
:100BA0000020012F07D084F8340002252846BDE834
:100BB000F0810220FBE7022784F83570606520464B
:100BC000FFF71CFE94F85C103F208840B06020685E
:100BD000016841F016010160206C20B120680168B5
:100BE00041F0080101602068016841F001010160E5
:100BF000DCE7000070B5044600F006F90546601C0D
:100C000002D004480078044400F0FEF8401BA042E3
:100C1000FAD370BD180000202DE9F84FDFF8BCA111
:100C20000022012503264FF00F090AF1040BAAF157
:100C3000040E00BF0B6805FA02F42340A34270D1F2
:100C40000F7907F00307012F01D0022F16D1876813
:100C50004FEA420806FA08FC27EA0C07D1F80CC054
:100C60000CFA08FC4CEA070CC0F808C04768A74318
:100C70000C79C4F3001494403C4344600C79E44381
:100C8000A4070AD0C4684FEA420C06FA0CF7BC432A
:100C90008F6807FA0CF72743C7600C7904F0030448
:100CA000022C12D1D40800EB840CDCF8204057074A
:100CB000FF0E09FA07F824EA0804D1F8108008FAB0
:100CC00007F848EA0408CCF8208004684FEA420C90
:100CD00006FA0CF7BC430F7907F0030707FA0CF785
:100CE000274307604C6814F4403F70D03C4C2768A1
:100CF00047F480472760246822F0030704F4804407
:100D00000094384C07EB040CDCF8084897074FEACE
:100D1000177809FA08F7BC43334FB84202D10027CD
:100D200024E054E0314FB84201D101271EE0304F9A
:100D3000B84201D1022719E02E4FB84201D1032752
:100D400014E02D4FB84201D104270FE02B4FB842D9
:100D500001D105270AE02A4FB84201D1062705E054
:100D6000284FB84201D1072700E0082707FA08F703
:100D70002743CCF80878DAF800405746D1F804C089
:100D80009C435FEACC2C00D51C433C60DBF8004060
:100D90005F46D1F804C09C435FEA8C2C00D51C430D
:100DA0003C60DEF800407746D1F804C09C435FEA1F
:100DB0008C3C00D51C433C60084F083F3C68D1F890
:100DC00004C09C435FEACC3C00D51C433C60521CF1
:100DD000102AFFF42FAFBDE8F88F0000083C014057
:100DE000443802400030014000000240000402404C
:100DF00000080240000C02400010024000140240B3
:100E000000180240001C0240014880687047000042
:100E10001800002002488168027811448160704700
:100E2000180000200B4810B5016841F40071016002
:100E3000016841F480610160016841F480710160E2
:100E4000032000F077F80F2000F006F800F024F8F7
:100E5000002010BD003C024070B50D4D04464FF41B
:100E60007A712878B1FBF0F00A490968B1FBF0F01B
:100E700000F012FB48B9102C07D200222146501E68
:100E800000F038F800206C6070BD012070BD0000DB
:100E900018000020240000200E4808B5016841F425
:100EA00080410160006800F4804000900948001F04
:100EB000016841F0805101600068002200F080501C
:100EC00000901146512000F015F8BDE8084051206F
:100ED00000F002B844380240002809DB00F01F028D
:100EE000012191404009800000F1E020C0F800118C
:100EF00070470000F0B40E4B1B680C46C3F302238E
:100F0000C3F10705042D00D90425191D072901D2B5
:100F1000002300E0DB1E012606FA05F1491E2140F0
:100F200099409E40761E16403143F0BC01F006BB4E
:100F30000CED00E0064900F0070208684FF6FF03D9
:100F4000184040EA0220034A10430860704700003E
:100F50000CED00E00000FA052DE9F0470E46050013
:100F600065D0DFF81481D8F80000F7B200F0070070
:100F7000B04207D288F80070D8F8000000F00700EF
:100F8000B04254D128683D4C810712D5400703D5A3
:100F9000206840F4E05020602878000703D52068DE
:100FA00040F4604020602068A96820F0F000084309
:100FB00020602878C0072DD030496868083901289A
:100FC00012D0022813D0032811D0096889070029FC
:100FD0002DDA216821F0030101432160FFF714FF9E
:100FE000814641F2883A0EE009688903EFE7096813
:100FF0008901ECE7FFF708FFA0EB0901514502D991
:101000000320BDE8F0872068696800F00C00B0EBB1
:10101000810FEFD1D8F80010404601F00701B1422E
:1010200007D90770006800F00700B04201D0012026
:10103000E7E72878400705D52068E96820F4E05004
:10104000084320602878000706D52068296920F425
:10105000604040EAC100206000F038F82168084A8A
:10106000C1F30311515CC840064908600648006896
:10107000FFF7F2FE0020C4E7003C024008380240BF
:10108000782F0008240000201C0000200448054997
:1010900000680968044AC1F38221515CC840704766
:1010A0002400002008380240882F00080448054921
:1010B00000680968044AC1F34231515CC840704776
:1010C0002400002008380240882F0008154810B579
:1010D000006810F00C02144813D04110042A0FD0FD
:1010E000082A0ED10F4C241F2268236802F03F0209
:1010F0005B0207D52068C0F38810A0FB010106E061
:10110000084610BD2168C1F38811A1FB000100232E
:10111000FFF758F82168C1F30141491C4900B0FBB1
:10112000F1F010BD083802400024F4002DE9F84F1A
:1011300004006ED02078DFF84C93C007A9F10405B5
:101140004AD009F104000168C1F38101012908D0E6
:101150000068C0F3810002280AD1D9F800004002DB
:1011600006D52868800337D560680028E1D033E0D1
:101170006068B0F5803F10D0B0F5A02F286810D07F
:1011800020F480302860286820F48020286060687F
:10119000A8B1FFF739FE06460DE0286840F480301C
:1011A000F4E740F480202860F7E700BFFFF72CFE4B
:1011B000801B642873D828688003F7D50CE0FFF7FC
:1011C00023FE064605E000BFFFF71EFE801B6428D5
:1011D000F0D828688003F7D42078DFF8AC82800745
:1011E0004FF0000A3ED5A748001D016811F00C0F12
:1011F00008D00068C0F3810002280BD1D9F80000A4
:10120000400207D42868800716D5E068012800D17D
:1012100012E033E1E068B8B10120C8F80000FFF740
:10122000F3FD064605E000BFFFF7EEFD801B022838
:10123000C0D828688007F7D52868216920F0F80011
:1012400040EAC10028600DE0C8F800A0FFF7DCFD0F
:10125000064604E0FFF7D8FD801B02281FD8286847
:101260008007F7D42078000722D5864F8748616928
:10127000703771B101210160FFF7C6FD064604E039
:10128000FFF7C2FD801B022809D838688007F7D510
:101290000EE0C0F800A0FFF7B7FD064605E082E0CB
:1012A000FFF7B2FD801B02287DD838688007F7D48D
:1012B0002078400768D5DFF8CCB100270BF13C0B54
:1012C000DBF80000C0000BD4DBF8001041F08051C7
:1012D000CBF80010DBF80000012700F080500090F0
:1012E0006B4E3068C00510D4306840F480703060B8
:1012F000FFF78AFD009005E0FFF786FD0099401A90
:10130000022850D83068C005F6D55E4EA0686C360D
:1013100001280FD00528306810D020F0010030607F
:10132000306820F004003060A068B8B1FFF76CFDB1
:1013300000900FE0306840F00100F4E740F0040056
:101340003060F7E7FFF760FD0099411A41F28830FD
:10135000814266D830688007F4D50EE0FFF754FD6F
:10136000009007E0FFF750FD0099411A41F28830E4
:10137000814256D830688007F4D42FB1DBF80010D2
:1013800021F08051CBF80010A069C8B33D49091D78
:101390000968C1F3810102294AD00228504607D0CA
:1013A000C8F8600000E03CE0FFF72EFD04463BE09B
:1013B0004746C8F86000FFF727FD064605E000BF76
:1013C000FFF722FD801B02282BD828688001F7D464
:1013D000D4E907010843A16A2E4A490802EB0141FA
:1013E000626A41EA8211084394F82C1040EA0161D4
:1013F000C9F8001001203866FFF706FD044606E034
:101400003EE000BFFFF700FD001B022809D8286856
:101410008001F7D534E000BFFFF7F6FC001B02287F
:1014200002D90320BDE8F88F28688001F4D427E0B2
:101430000128F7D0D9F80000E26900F48001914258
:101440001CD1226A00F03F01914217D147F6C071CA
:10145000626A0140B1EB821F10D1A26A4FF0FF33E4
:1014600000F4403103EB5202B1EB024F06D194F885
:101470002C1000F07060B0EB016F01D00120D1E7BB
:101480000020CFE70438024000004742800E474268
:10149000007000400000FFFF10B5401EB0F1807FDB
:1014A00001D3012010BD4FF0E02460610F216017CF
:1014B00001F044F80020A06107202061002010BD49
:1014C0007047704770B590F83C20012A32D0012453
:1014D00080F83C40022280F83D2003685A689D68ED
:1014E00022F070060A6832435A60134B02689A422F
:1014F00014D0B2F1804F11D0104B9A420ED0104B45
:101500009A420BD00F4B9A4208D00F4B9A4205D00B
:101510000E4B9A4202D00E4B9A4204D1496825F0F4
:1015200080031943916080F83D40002180F83C1011
:10153000084670BD022070BD00000140000400405C
:1015400000080040000C0040000401400040014041
:101550000018004010B5040003D094F83D0010B10D
:1015600007E0012010BD002084F83C00204600F078
:101570001FF8022084F83D00211D206800F01CFDAA
:10158000012084F8460084F83E0084F83F0084F887
:10159000400084F8410084F8420084F8430084F855
:1015A000440084F8450084F83D00002010BD000090
:1015B00008B500680B49884212D10B48016841F018
:1015C000100101600068002200F010000090114638
:1015D0003620FFF78FFCBDE808403620FFF77CBCC3
:1015E00008BD0000001000404038024090F83D1057
:1015F000012901D001207047022180F83D100168C7
:10160000CA6842F00102CA6000681149884214D0D9
:10161000B0F1804F11D00F4988420ED00E49884258
:101620000BD00E49884208D00D49884205D00D499B
:10163000884202D00C49884204D1816801F0070138
:10164000062903D0016841F00101016000207047C4
:10165000000001400004004000080040000C004071
:1016600000040140004001400018004070472DE98F
:10167000F04104460068C66805694FF00007A907F5
:1016800013D5B10711D5F91E01610120207720681B
:1016900080698007204602D0FFF7E8FF04E000F0F1
:1016A0007EF8204600F07CF82777680716D570078B
:1016B00014D521686FF004000861022020772068AB
:1016C000806910F4407F204602D0FFF7CFFF04E08E
:1016D00000F065F8204600F063F82777280715D555
:1016E000300713D521686FF00800086104202077C7
:1016F0002068C0698007204602D0FFF7B7FF04E0EA
:1017000000F04DF8204600F04BF82777E80616D594
:10171000F00614D521686FF01000086108202077CA
:101720002068C06910F4407F204602D0FFF79EFF7A
:1017300004E000F034F8204600F032F82777E8079C
:1017400008D0F00706D021686FF00100086120463C
:1017500000F027F8280608D5300606D521686FF076
:10176000800008612046FFF7ABFE680608D57006CA
:1017700006D521686FF040000861204600F012F89D
:10178000A8060AD5B00608D521686FF020000861C8
:101790002046BDE8F041FFF794BEBDE8F0817047F8
:1017A000704770477047704770470000F8B5016890
:1017B00004460868CA684B6910F00F0F4FF0000527
:1017C00059D003F0010602F49077374365D0C10782
:1017D00005D0D10503D5616C41F001016164410779
:1017E00005D5D90703D0616C41F00201616481071E
:1017F00005D5D90703D0616C41F00401616401078C
:1018000007D502F02001314303D0616C41F008019B
:101810006164616C00293AD0800604D5900602D537
:10182000204600F0E9FC20684069616CC0F380103C
:10183000090700D460B3204600F0A9FC2068406985
:10184000400621D52068143050E8001F21F04001E7
:1018500040E80012002AF5D1E06BA8B16E4901659D
:10186000E06BFFF742F8002811D0E06B016D01B08A
:10187000BDE8F040084783060FD593060DD52046F6
:10188000BDE8F84000F0B8BC2046FFF78DFFF8BD7A
:101890002046FFF789FF6564F8BD266B2023012EE3
:1018A0007DD1C6067BD5D60679D5086848680090F4
:1018B00048694FF00206400641D5E16B0868406870
:1018C0000004000CE8D0A28D8242E5D9E085C86909
:1018D000B0F5807F2DD020680C3050E8001F21F437
:1018E000807140E80012002AF5D12068143050E8D9
:1018F000001F21F0010140E80012002AF5D1206804
:10190000143050E8001F21F0400140E80012002A86
:10191000F5D184F84230256320680C3050E8001F70
:1019200021F0100140E80012002AF5D1E06BFEF72B
:1019300093FF6663A08DE18D401A81B22AE0A08DED
:10194000E18D401A81B2E08D0028A5D00029A3D0F6
:1019500022680C3252E8000F20F4907042E8000731
:10196000002FF5D12068143050E8002F22F001023A
:1019700040E80027002FF5D184F842302563206825
:101980000C3050E8002F22F0100240E80023002B1A
:10199000F5D166632046FFF706FFF8BDFFE70506B1
:1019A0002BD5150629D594F841002128F5D1A0683A
:1019B000B0F5805F01D12069B0B1206A411C21627D
:1019C000216800784860E08C401E0004000CE08430
:1019D000E3D12068C16821F08001C1602068C1683E
:1019E00041F04001C160D8E7206A0088C0F30800D8
:1019F0004860206A801C2062E5E74006CDD550068D
:101A0000CBD5CA68204622F04002CA6084F8413033
:101A100000F063F9C1E700009120000870B50400F0
:101A200004D094F84100002510B106E0012070BDFB
:101A300084F84050204600F023F8242084F8410028
:101A40002068C16821F40051C160204600F036FCD6
:101A50002068016921F4904101612068416921F009
:101A60002A0141612068C16841F40051C160656488
:101A7000202084F8410084F842006563002070BD96
:101A8000F0B587B0064614216846FEF7E5FBDFF89F
:101A9000E4C0306800253849022203230727374C69
:101AA000604521D134481430066846F010060660BF
:101AB000006800F010000590086840F00100086020
:101AC0000868694600F00100059058028DE825007D
:101AD000CDE903372046FFF79FF800221146252065
:101AE000FFF708FA252040E0DFF894C060453ED1BA
:101AF00021481030D0F800C04CF4003CC0F800C0C1
:101B0000006800F400300590086840F001000860AB
:101B10000868694600F0010005900C208DE825005A
:101B2000CDE903372046FFF777F8174C15482060BA
:101B30004FF00060C4E901054014C4E9035080106F
:101B40006561C4E906504FF44030C4E908052046F9
:101B5000FEF7AEFF08B1FEF77CFEF46300221146EB
:101B60002620A663FFF7C6F92620FFF7B5F907B0D0
:101B7000F0BD00000010014030380240000002407B
:101B800000440040886002408403002090F8423006
:101B9000202B01D00220704721B11AB1002303632A
:101BA00000F012BC0120704790F84230202B01D089
:101BB0000220704721B11AB10023036300F04CBC2E
:101BC0000120704770B5174A0168914222D14868D8
:101BD000C0B201F02DF901F03FF9134D687068783B
:101BE000124E08280ED3002405E000BF01F00CF9C6
:101BF0003055641CE4B268788442F7D30120287021
:101C00000020687068783118BDE8704001220848EB
:101C1000FFF7CABF074A914203D1BDE8704000F008
:101C20005FB870BD00100140000000202C000020B3
:101C3000F40200200044004070472DE9F8430446B8
:101C400090F84100984616460D46202802D0022002
:101C5000BDE8F88385B17EB100206064212084F85E
:101C60004100FFF7D1F8A6848146E684A0682027CA
:101C7000B0F5805F02D003E00120E9E7206910B1F0
:101C80002E4600250EE000260CE08021204600F0C4
:101C9000FEFBA8B9C6B116F8010B21684860E08CBC
:101CA000401EE084E08C4B464FF00002CDF80080EF
:101CB0000028EAD14FF04001204600F0E8FB40B197
:101CC00084F841700320C3E735F8020BC0F3080025
:101CD000E3E784F841700020BAE77047FEE70000B0
:101CE0002DE9F0411F490020A1F1A0050A5C2A540A
:101CF000401C5028FADB00261B4C0127607810B9E5
:101D0000A85DAA2801D0207848B167702078401CCF
:101D100020706878022802D1A878382803D0A078EB
:101D2000012801D012E0A770207838280ED10020B9
:101D30002070A070E77095F83700552806D1094942
:101D40003822A03901F15000FEF76DFA761C502EB2
:101D5000D4DB2771BDE8F041502202490348FFF768
:101D600015BF00004E020020040000203C030020AC
:101D7000094808B5016841F40011016000680022BB
:101D800000F40010009011461020FFF7B3F8BDE8F2
:101D900008401020FFF7A0B830380240094808B5C5
:101DA000016841F080010160016801F0800100914B
:101DB000016841F001010160006800F0010000903D
:101DC00008BD0000303802401CB500240F480094C4
:101DD0000D490194016042F2CF01C0E90114632171
:101DE000C16080218161FFF7B5FB08B1FEF731FDCD
:101DF0000094694605480194FFF764FB002801D070
:101E0000FEF727FD1CBD000000100040AC020020C2
:101E10000F4810B50D4901604FF4E13141600021D8
:101E200081600C22C160C0E904128161C161FFF7C9
:101E3000F5FD08B1FEF70DFD074906480978BDE834
:101E40001040014401220248FFF7AEBE00100140DD
:101E5000F40200202C000020010000200C4810B5E6
:101E60000A4901604FF461214160002181600C2228
:101E7000C160C0E904128161C161FFF7CFFD002894
:101E800003D0BDE81040FEF7E4BC10BD00440040A4
:101E90003C030020FEE710B54FF47A70FEF7AAFE6F
:101EA0000120FEF7C0FC1420FEF7A4FE0220FEF77E
:101EB000BAFC1420FEF79EFE0320FEF7B4FC1420AB
:101EC000FEF798FE0420FEF7AEFCBDE8104014209B
:101ED000FEF790BEFEE7000080EC020A9FED020ACA
:101EE00080ED020A70470000000000007047704754
:101EF000DFED030AB7EE000A0248FFF7EDBF00006E
:101F0000CDCCCC3DA0020020FEF784BF30B593B00D
:101F100030216846FEF7A0F914210CA8FEF79CF9C1
:101F20001C480025016841F080510160006800F004
:101F3000805011901848016841F4804101600068A8
:101F4000022400F4804011900120009000040190D0
:101F50008001CDE9064008AA0420A82182E81300E8
:101F60000B906846FFF7E2F808B172B6FEE70CA9DD
:101F70000F2081E831004FF4A0500F901090052100
:101F80000CA8FEF7E9FF002801D072B6FEE713B0F7
:101F900030BD000040380240007000400248016837
:101FA00041F470010160704788ED00E00148FFF7DF
:101FB0005EBB0000AC020020F0B50268294C2A4D3F
:101FC0002A4E2B4F2B4B4FF0804CA04209D060453E
:101FD00007D0A84205D0B04203D0B84201D0984201
:101FE00004D122F0700E4A6842EA0E02A0421BD0D1
:101FF000604519D0A84217D0B04215D0B84213D0CE
:10200000984211D01C4DA8420ED01C4DA8420BD0B6
:102010001B4DA84208D01B4DA84205D01A4DA8421E
:1020200002D01A4DA84203D122F44075CA682A434F
:102030004D6922F080022A4302608A68C2620A68FF
:102040008262A04201D0984201D109690163012155
:1020500041610169C90703D0016921F001010161F2
:10206000F0BD0000000001400004004000080040F6
:10207000000C0040000401400040014000440140C9
:102080000048014000180040001C004000200040B3
:1020900010B5806B0021C185C184FFF785FB10BDA1
:1020A00070B5846B2068406994F84110C0F3C0108B
:1020B0000025212904D118B1E584204600F08EF8CE
:1020C0002068406994F84210C0F38010222904D19E
:1020D00018B1E585204600F05AF8606C40F0100019
:1020E00060642046FFF760FB70BD10B50146806B51
:1020F000096809684FF00002C9052ED4C28501683D
:102100000C3151E8003F23F4807341E80034002C87
:10211000F5D10168143151E8003F23F0010341E893
:102120000034002CF5D10168143151E8003F23F050
:10213000400341E80034002CF5D1202180F8421002
:10214000016B012909D101680C3151E8003F23F0EE
:10215000100341E80034002CF5D14263016B0129E2
:1021600002D0FFF72FFD10BD818DFFF71CFB10BDC6
:1021700010B5806B01214163016B012902D0FFF78B
:102180005BFD10BD818D4908FFF70DFB10BD016897
:102190000C3151E8002F22F4907241E80023002B0B
:1021A000F5D10168143151E8002F22F0010241E815
:1021B0000023002BF5D1016B012909D101680C31F5
:1021C00051E8002F22F0100241E80023002BF5D146
:1021D000202180F8421000210163704701680C3112
:1021E00051E8002F22F0C00241E80023002BF5D176
:1021F000202180F84110704708B590F8421022293C
:1022000001D0022008BD82684FF480539A4201D168
:10221000016921B1816A9A421BD04AB10AE0026881
:10222000816A5268C2F308020A80816A891C08E048
:10223000026972B10268526802F07F020A70816A14
:10224000491C8162C18D491E0904090CC18503D056
:102250001BE002685268F1E70168CA6822F02002B8
:10226000CA600168CA6822F48072CA6001684A695B
:1022700022F001024A61202180F8421000214163CE
:10228000026B012A03D0FFF79DFC002008BD01630B
:1022900001680C3151E8002F22F0100241E80023C0
:1022A000002BF5D101680A68D20602D50A68496890
:1022B0000091818DFFF777FAE7E7000070B50446DB
:1022C00000680169E26821F440511143016121690C
:1022D000A068E26908436169114308432168CA683C
:1022E00049F20C639A430243CA6020684169A269BB
:1022F00021F440711143416131492068884202D084
:102300003049884202D1FEF7D1FE01E0FEF7BEFE61
:10231000E2690023192164253226B2F5004F626874
:1023200028D0A0FB0101930F9200FDF74BFF01465F
:10233000B0FBF5F06FF01802504301EB800006EBA4
:102340000010B0FBF5F000F0F002B1FBF5F002EB8D
:102350000012B1FBF5F06FF01803584301EB800059
:1023600006EB0010B0FBF5F000F00F002168104400
:10237000886070BDA0FB010192185B41FDF722FF50
:102380000146B0FBF5F00201B1FBF5F06FF0180368
:10239000584301EB800006EBC000B0FBF5F000F005
:1023A000F80002EB4002B1FBF5F0584301EB80006E
:1023B00006EBC000B0FBF5F000F00700D6E7000028
:1023C000001001400014014038B581620446828546
:1023D000002013466064222284F84220E56B1B4AE9
:1023E000EA63E56B1A4A2A64E56B1A4AEA64E26B0F
:1023F00010650A462168E06B091DFEF7C3FB2068E3
:10240000016840680090206948B120680C3050E8AD
:10241000001F41F4807140E80012002AF5D12068C5
:10242000143050E8001F41F0010140E80012002A7A
:10243000F5D12068143050E8001F41F0400140E819
:102440000012002AF5D1002038BD0000EB20000862
:1024500071210008A120000881628285C2850021C7
:102460004164222180F84210016921B10168CA68E3
:1024700042F48072CA6001684A6942F001024A610E
:102480000068C16841F02001C160002070472DE95B
:10249000F843984617460D460446089E24E0701CF3
:1024A00022D0FEF7B1FCA0EB0800B0421AD8CEB1A2
:1024B0002068C168490717D5802D15D0402D13D04D
:1024C0000168C94309070FD40168002540680090DE
:1024D0002046FFF75CFE0820606484F8405001202D
:1024E000BDE8F8830320FBE72068006835EA0000B8
:1024F00004D00020B842D2D00020F1E70120F9E753
:102500000148FFF753B90000F40200200148FFF72B
:102510004DB900003C030020FEE700000FB4054B5E
:1025200010B503A9044A029800F0EAF810BC5DF85F
:1025300014FB0000892E0008280000200907090E5E
:10254000002804DB00F1E02080F80014704700F060
:102550000F0000F1E02080F8141D704702E008C869
:10256000121F08C1002AFAD170477047002001E00D
:1025700001C1121F002AFBD1704700002DE9FF5F47
:1025800082B00021DDE90430020DDDF840B00343E4
:1025900018D044F61050A2F2FF324243151411989D
:1025A00001281FD0A5EB0B00401C5FEA000A4FF08A
:1025B00000064E4FDFF83891B046504615D5CAF1A7
:1025C000000413E0119801244AA3012801D16FEA05
:1025D0000B010298119AC0E90031C0E9024206B02D
:1025E000BDE8F09FCBF10000DFE704460021404A40
:1025F000491842EB0450CDE9001012E0E00707D083
:1026000032463B4640464946FDF720FF8046894614
:1026100032463B4610461946FDF718FF06460F4660
:102620006410002CEAD1DDE90401DDE90023BAF1F0
:10263000000F06DAFDF70AFF42464B46FDF706FF9C
:1026400005E0FDF775FF42464B46FDF771FF044676
:102650000E460022284BFDF7F3FF03D84FF0FF3062
:10266000014607E00022254B20463146FDF747FE94
:10267000FDF7CDFF102409E0002C0ADB0A2200231D
:10268000FDF7A0FD039B30321A55641E50EA01028B
:10269000F2D1641C039AC4F111031444119A012A63
:1026A00003D0012208430DD10AE0084304D00020E2
:1026B0004FF0110B119072E7A3EB0B056D1E0DE0AF
:1026C0005B4504DD4FF0000205F1010504E003DA8B
:1026D0004FF00002A5F10105002AECD002981199F3
:1026E000C0E90231C0E9004579E70000000014406C
:1026F0000000F03F300000000000F0430000E03F29
:102700002DE9FF4F95B09A46884606460025EEE132
:10271000252877D100242746F94A0121039400E0B7
:10272000044316F8013F203B01FA03F01042F7D1B1
:1027300030782A2811D06FF02F033078A0F13002C2
:10274000092A16D8039A44F0020402EB820203EB32
:1027500042021044761C0390EFE758F8042B0392D2
:10276000002A03DA504244F40054039044F0020477
:10277000761C30782E2816D116F8010F44F0040488
:102780002A280DD06FF02F023078A0F13003092BEA
:1027900009D807EB870302EB4303C718761CF3E75E
:1027A00058F8047B761C30786C280FD006DC4C2857
:1027B00017D068280DD06A2814D104E0742810D0EE
:1027C0007A280FD10DE044F400140AE044F4801498
:1027D00001E044F440147278824202D104F580147E
:1027E000761C761C307866280BD013DC582877D0FE
:1027F00009DC002875D04528F6D04628F4D04728B3
:102800001AD193E118E0632835D0642879D065287F
:1028100012D18BE1702873D008DC6728F1D06928C9
:102820006FD06E280DD06F2806D1ACE073282CD065
:10283000752874D0782853D05246179990476D1C4C
:1028400054E1C4F30250022809D003280DD0D8F86F
:10285000001004280DD00D6008F1040846E1D8F8F6
:102860000010EA17C1E90052F6E7D8F800100D8011
:10287000F2E70D70F0E718F8041B8DF80010002047
:102880008DF80100EB46012003E058F804BB4FF03F
:10289000FF3061074FF0000102D40DE009F10101A2
:1028A0008946B9420FDA8145F8DB1BF80910002987
:1028B000F4D108E009F1010189468142FADB1BF8F5
:1028C00009100029F6D103985346A0EB09072146C9
:1028D0003846179A00F080FA284400EB090507E013
:1028E00044E008E10DE01BF8010B524617999047B0
:1028F000B9F10109F7D2534621463846179AF2E05A
:1029000039E00A21C4F302524FF0000B0091022A71
:1029100006D058F8040BC117032A09D00AE023E0B7
:1029200008F1070020F00702F2E80201904605E0F6
:1029300000B2C117042A01D140B2C117002906DA3A
:102940000A460021404261EB02012D2202E02205ED
:1029500004D52B228DF80420012203E0E20701D0E8
:102960002022F7E7914657E00A2100E010214FF0BE
:10297000000B00910BE010214FF0000B44F0040419
:102980000827009103E008204FF0000B0090C4F3EB
:102990000252022A05D058F8040B0021032A08D05D
:1029A00008E008F1070020F00702F2E80201904673
:1029B00003E080B2042A00D1C0B24FF00009220720
:1029C0002AD53278702A07D0DDF800C08CF0100CC0
:1029D0005CEA0B0C05D00EE040228DF804200122A9
:1029E00008E050EA010306D030238DF804308DF85A
:1029F000052002229146009B83F0080353EA0B0353
:102A00000AD150EA010201D1620705D530228DF8C2
:102A100004204FF001097F1E3278582A04D039A2D1
:102A20000C920CAA02920BE03BA2F9E75B46009ADB
:102A3000FDF7C8FB0C9B9B5C029A521E029213701E
:102A400050EA0102F2D1029804A9081A00F1200B01
:102A5000600702D524F4803400E001275F4502DDE1
:102A6000A7EB0B0000E0002000EB0B0100900398A7
:102A70004944401A0390E00306D453462146179A6E
:102A8000039800F0A9F90544002706E001A8524682
:102A9000C05D179990476D1C7F1C4F45F6DBE00326
:102AA0000CD553462146179A039800F095F9054432
:102AB00004E030205246179990476D1C0099481E3B
:102AC00000900029F5DC08E002980299524600784F
:102AD000491C0291179990476D1CBBF10001ABF1A5
:102AE000010BF1DC5BE100F065F90544761C307800
:102AF00000287FF40DAE19B02846BDE8F08F000025
:102B000009280100303132333435363738396162C3
:102B10006364656600000000303132333435363787
:102B2000383941424344454600000000600700D464
:102B3000062708F1070020F00700F0E8022380468E
:102B400003F0004C5FEA0C0001D097A009E02005DB
:102B500001D596A005E0E00701D095A001E0AFF215
:102B60004C001390307823F0004365280CD006DC2D
:102B7000452809D046281DD047287FD13BE066284C
:102B800018D067287AD136E00021112F01DB1120FF
:102B900000E0781CCDE9000104A90CA8FFF7EEFCC9
:102BA000DDE90D010C9A4FF0000B07F101091092BD
:102BB00000914EE04FF000400097CDE9011004A9CC
:102BC0000CA8FFF7DBFCDDE90D020C9B0F994FF021
:102BD000000B91461093009211B9791C00EB01098A
:102BE000B7EB090003D4C0F1FF3B07F10109A9EBE2
:102BF0000700019042E0012F00DA01270021112F88
:102C000001DD112000E03846CDE9000104A90CA83F
:102C1000FFF7B4FCDDE90D010C9A00914FF0000BB9
:102C2000B946109221070FD4009A4A4503DA91461B
:102C300001E0A9F10109B9F1010F05DD109AA9F12F
:102C40000101515C3029F4D0B84202DA10F1040FCE
:102C500003DA0121CDE9011010E0002803DC8344F0
:102C6000A9EB000102E0411C494500DD8946A0EBCB
:102C70000B00401C01904FF000400290200705D44B
:102C80000198484502DB4FF0FF30019000208DF89D
:102C90004B0002980DF14B07B0F1004F25D00220F8
:102CA0000C902B200D90029800280CDA40420290E4
:102CB0002D200D9007E00A210298FDF7EBFA303144
:102CC000029007F8011D0C99481E0C900029F2DCB7
:102CD00002980028EFD1791E0D980870307800F026
:102CE000200040F0450007F8020D11A8C01BC01DD0
:102CF00002901398007800B1012000EB09010198BF
:102D000001EBE071029801440398401A401E0390C1
:102D1000E00306D453462146179A039800F05CF866
:102D200005441398007818B15246179990476D1CC6
:102D3000E00323D553462146179A039800F04CF838
:102D400005441BE0BBF1000F07DB0098584504DD8C
:102D50001098179910F80B0001E01799302052468F
:102D6000904701980BF1010B401E05F10105019000
:102D700004D12E205246179990476D1CB9F10001DD
:102D8000A9F10109DEDC05E017F8010B524617999D
:102D900090476D1C0299481E02900029F4DC5346AE
:102DA0002146179A03989EE62D0000002B00000094
:102DB000200000002DE9F041044600251E4617467C
:102DC000880404D405E039462020B0476D1C641EF9
:102DD000F9D52846BDE8F0812DE9F04104460025EB
:102DE0001E469046C80301D5302700E020278804FE
:102DF00004D505E041463846B0476D1C641EF9D540
:102E00002846BDE8F0810000084991F8010131F839
:102E1000100091F80121521C81F8012191F8012143
:102E2000802A02D3002281F801217047AC000020E3
:102E3000084991F8002121F8120091F80001401C86
:102E400081F8000191F80001802802D3002081F868
:102E500000017047AC0000200A4890F8011190F87A
:102E60000021914205D890F8001190F80101081A4C
:102E700006E090F8011190F80001C1F180010844CA
:102E800080B27047AC00002013B54FF6FF730122EB
:102E900069460248FEF7D1FE00981CBDF4020020EE
:102EA00070B5FDF7BFFFFFF731F8FEF777FFFEF7CC
:102EB0005FFFFEF7ADFFFEF7D1FFFEF785FFFEF7E0
:102EC000EAFFFFF715F8502217491848FEF75EFE93
:102ED0001748FEF78BFB4FF4FA752846FDF78AFE7C
:102EE000144C2068FDF7C3F941EC100B12A053EC11
:102EF000102BFFF713FB2846FDF77CFE6068FDF7FB
:102F0000B6F941EC100B0CA053EC102BFFF706FBAD
:102F10004FF6FF7310220DA10F48FEF78EFE2846D4
:102F2000FDF768FE002070BD4E0200203C0300202B
:102F3000AC02002010000020466C6F6174204461D8
:102F400074613A202566200D0A00000068656C6CEB
:102F50006F2031210D0A0000F40200200A460146CC
:102F60004FF0FF330148FEF768BE0000F402002076
:102F700000061016000610160000000000000000F9
:102F8000010203040607080900000000010203040F
:102F9000B02F0008000000202C0000005C25000875
:102FA000DC2F00082C000020BC0700006C25000866
:102FB0000000000000000000000000000000000011
:102FC00000000000000000000100000010000000F0
:0C2FD000000000000024F40000000000DD
:040000050800018965
:00000001FF
