:020000040800F2
:10000000580B0020A1010008F52A0008552400081B
:10001000FD27000845080008893500080000000099
:10002000000000000000000000000000BD2B0008E0
:10003000850C000800000000F72A00088D2E00083B
:10004000BB010008BB010008BB010008BB010008A0
:10005000BB010008BB010008BB010008BB01000890
:10006000BB010008BB010008BB010008BB01000880
:10007000BB010008BB010008BB010008BB01000870
:10008000C90B0008D50B0008BB010008BB01000824
:10009000BB010008BB010008BB010008BB01000850
:1000A000BB010008BB010008BB010008BB01000840
:1000B000BB010008BB010008BB010008BB01000830
:1000C000BB010008BB010008BB010008BB01000820
:1000D000BB010008413500084D3500087D3500089A
:1000E000BB010008BB010008BB010008BB01000800
:1000F000BB010008BB010008BB010008BB010008F0
:10010000BB010008BB010008BB010008BB010008DF
:10011000BB01000815300008312F0008BB010008A2
:10012000BB010008BB010008BB010008BB010008BF
:10013000BB010008BB010008BB010008BB010008AF
:10014000BB010008BB010008BB010008BB0100089F
:10015000BB010008BB010008BB010008BB0100088F
:10016000BB010008BB010008BB010008BB0100087F
:10017000BB010008BB010008BB0100080000000033
:10018000BB010008FD0C0008DFF810D000F048FBB0
:1001900000480047613F0008AFF30080580B002083
:1001A0000648804706480047FEE7FEE7FEE7FEE711
:1001B000FEE7FEE7FEE7FEE7FEE7FEE7212F000889
:1001C000890100082DE9F05F0546002092469B4614
:1001D00088460646814640241BE02846414647465D
:1001E000224600F01CFA53465A46C01A914110D3D9
:1001F00011461846224600F003FA2D1A67EB010853
:100200004F4622460120002100F0FAF917EB0009C1
:100210004E41201EA4F10104DFDC484631462A4647
:100220004346BDE8F09FD2B201E000F8012B491E21
:10023000FBD270470022F6E710B513460A46044683
:100240001946FFF7F0FF204610BD2DE9FE4F80460E
:1002500081EA0300C00F0C46009021F0004123F01A
:100260000045B8EB0200A94105D240462146904620
:100270001C460B46024623F00040104347D0270D92
:10028000C7F30A00C3F30A510290401A01904028B4
:100290006BDAC3F3130040F4801B0098924620B140
:1002A0000023D2EB030A63EB0B0B01985946C0F114
:1002B0004002504600F0A4F906460D465046594605
:1002C000019A00F0BCF910EB08006141002487EAB4
:1002D000115284EAE7731A4340D0009A62B3019A3C
:1002E000012A4FEA075215DC001B61EB02014FF0B7
:1002F000004202EA0752CDE90042001C41F580119C
:1003000032462B4600F0BCF903B0BDE8F08F404602
:100310002146F9E7001B61EB0201001C41F5801347
:1003200000185B412018A2F5001747EB030140EAD3
:10033000D570B6196D4111E06D084FEA360645EAF1
:10034000C0754FEA0752001B61EB0201001C41F52A
:10035000801149084FEA30000019514132462B46BE
:1003600003B0BDE8F04F00F07CB9009801224000D6
:100370000023D0EB020263EBE073009821464FEAC2
:10038000E074B8EB000061EB0401E9E783F000439F
:100390005BE781F0004158E72DE9FE4F81EA030455
:1003A00004F0004421F0004100944FF0000B23F0D2
:1003B000004350EA01045ED052EA03045BD0C3F369
:1003C0000A54C1F30A552C44A4F2F3340194A0FB5F
:1003D0000254C1F3130141F48011C3F3130343F436
:1003E000801301FB024400FB034E840A970A44EA8F
:1003F000815447EA8357A4FB076802958D0A05FBE1
:1004000007854FEA932C04FB0C542705029D4FEA05
:10041000065847EA1637B5EB08056EEB070C870E52
:10042000920E47EA811742EA8312A7FB0201B6EB5C
:100430000B0164EB00042B0D43EA0C335E1844EB14
:100440001C50DA465146E7FB0201C5F313044FEA9C
:100450000B3343EA14534FEA0432019C43EA060388
:10046000A4F10C040294009CCDE900B400F008F95A
:1004700003B0BDE8F08F00200146F9E72DE9F04D0B
:1004800081EA030404F0004B21F0004514464FF0CC
:10049000000A23F0004150EA050220D054EA01028C
:1004A0001DD0C5F30A570246C5F31303C1F3130069
:1004B000C1F30A5640F4801543F48013A7EB0608F5
:1004C000101BD64608F2FD3873EB050002D308F185
:1004D000010801E092185B41B8F1000F03DA002037
:1004E0000146BDE8F08D00204FF480110646844699
:1004F0000EE0171B73EB050705D3121B63EB050317
:1005000006434CEA010C49084FEA300092185B415F
:1005100050EA0107EDD152EA030012D082EA04004A
:1005200083EA0501084305D0101BAB4106D2012226
:10053000002306E000224FF0004302E06FF00102CA
:1005400053101AEB06004CEB085110EB0A0041EB7C
:100550000B01BDE8F04D00F084B80EB5C10F80EA84
:10056000E0700844CA07002140F233438DE80E00D2
:100570000A460B4600F084F803B000BD0EB540F209
:10058000334102910021CDE900110A460B4600F0EB
:1005900077F803B000BD70B5C1F30A5201F0004511
:1005A0000024C1F3130140F2FF3341F480119A4259
:1005B00001DA002070BD40F233439A42A2F2334286
:1005C00003DC524200F02BF800E090402C43F1D0C5
:1005D000404270BD30B50B46014600202022012468
:1005E00009E021FA02F59D4205D303FA02F5491B01
:1005F00004FA02F52844151EA2F10102F1DC30BD17
:10060000202A04DB203A00FA02F1002070479140D2
:10061000C2F1200320FA03F3194390407047202AC7
:1006200004DB203A21FA02F00021704721FA02F39C
:10063000D040C2F120029140084319467047202A59
:1006400006DBCB17203A41FA02F043EAE07306E0FA
:1006500041FA02F3D040C2F120029140084319460A
:10066000704710B5141E73F1000408DA401C41F104
:10067000000192185B411A4301D120F0010010BD26
:100680002DE9F04D92469B4611B1B1FA81F202E09C
:10069000B0FA80F220329046FFF7B2FF04460F46D0
:1006A00040EA0A0041EA0B0153465A46084313D078
:1006B000114653EA010019D0C8F140025046FFF735
:1006C000AEFF05460E46504659464246FFF798FF94
:1006D000084305D0012004E020463946BDE8F08DEE
:1006E0000020054346EAE0762C4337430A98630529
:1006F000E40AA0EB08000022FD0A44EA47540A304D
:1007000002D500200146E9E7010510196941DDE93C
:10071000084500196941BDE8F04DA2E72DE9F04D0B
:1007200000231A461B1A8A4103DB00200146BDE85C
:10073000F08DC1F30A52C1F3130141F480154FF05B
:10074000000BD10702D100186D41521E002704464C
:1007500040F2FF11384601EB620A3E4680460246EF
:1007600000204FF48011FFF75AFFC2197141BB18E6
:1007700046EB0100B4EB030C75EB000C04D3E41A58
:1007800065EB000517460E46241908F101006D417E
:1007900080463428E3DDF91946EB0600091BA84121
:1007A00003D24FF0FF32134601E0002213461BEB49
:1007B000070046EB0A51BDE8F04DFFF752BFC1F309
:1007C0000A52C1F3130140F2FF3341F480119A42FF
:1007D00002DA00200146704740F233439A42A2F207
:1007E000334202DC5242FFF71ABFFFF709BF000095
:1007F00030B5041E71F1000404DB4FF000444042A8
:1008000064EB0101141E73F1000405DB1C464FF07C
:100810000043524263EB0403994208BF904230BD4B
:10082000064C074D06E0E06840F0010394E807003D
:1008300098471034AC42F6D3FFF7AAFCDC3F00081F
:10084000FC3F0008FEE700002DE9F04180462A4801
:1008500000252A4C90ED000A0F46B5EEC00AF1EED5
:1008600010FA01D084ED0A0AE07910B1012805D010
:100870003EE00120E07194ED0A0A37E0204A616A07
:1008800000204FF4A026914203DD1E4A1144B142DC
:1008900004D83A464146002000F0D6F81A4A616A68
:1008A0001144B1F5A01F04D83A4641465A2000F041
:1008B000CBF8164A616A1144B1F5202F04D83A46A4
:1008C0004146B42000F0C0F8114A616A1144B142B7
:1008D00005D83A4641464FF4877000F0B5F8012834
:1008E00006D1012500209FED0B0AE07184ED090A75
:1008F0002846BDE8F08100002400002028000020E8
:1009000000002041000051BC000056BD0000D1BCD9
:1009100000807BBC000000002DE9F05F1C462DED3F
:10092000048B92460D46FFF718FE9FED438B53EC68
:10093000182BFFF731FDFFF72EFE07462846FFF77D
:100940000CFE53EC182BFFF727FDFFF724FE06469D
:1009500007FB07F006FB0600FFF7FFFD8B4680460E
:100960004BEC100B02F058FE9FED359B51EC100B39
:1009700053EC192BFFF710FD41EC180BF01B05464B
:1009800002F0B4F800FB0AF0FFF7F8FD53EC182B67
:10099000FFF774FDFFF7FFFD81464BEC108B02F073
:1009A0003BFE53EC192B51EC100BFFF7F5FC41EC1F
:1009B000180BF01902F09AF800FB0AF0FFF7DEFDC1
:1009C00053EC182BFFF75AFDFFF7E5FD0246B81967
:1009D0005FEA0008E3B202D4014612B204E0C8F1B3
:1009E00000015042884602B29246012002F00EF801
:1009F000E3B241465246032002F008F8002DE3B26C
:100A000004D40FFA89F22946164605E0BD1BC9F148
:100A1000000002B216462946022001F0F7FFE3B2B9
:100A200029463246042001F0F1FFBDEC048BBDE8FD
:100A3000F05F01F0D1BF00002B48C0325E572F405D
:100A4000666666666666F63F2DE9F04116460D4617
:100A5000044601F021FD5748002790ED000A564852
:100A6000B5EEC00AF1EE10FA01D080ED060A417928
:100A700011B1012909D098E000EE104A012141711D
:100A8000B8EEC00A80ED050A8FE090ED060AD0EDC1
:100A9000050A4A4A30EE600A10EE101A80ED070A85
:100AA000DFED470A914202DB30EE600A06E010EE0D
:100AB000101A444A914203D330EE200A80ED070A0F
:100AC000D0ED080A044620EE200A00EE905A80ED90
:100AD000070AF8EE600AB4EEE00AF1EE10FA04DD5F
:100AE00000EE105AB8EE400A0DE0684200EE900A9F
:100AF000F8EEE00AB4EEE00AF1EE10FA05D200EEEC
:100B0000100AB8EEC00A84ED070A94ED070AF2B2A3
:100B1000B1EE400ABDEEC00A10EE100A01B201208B
:100B200001F0B6FF94ED070AF2B2BDEEC00A10EE76
:100B3000100A01B2022001F0ABFF94ED070AF2B2F5
:100B4000BDEEC00A10EE100A01B2032001F0A0FFB2
:100B500094ED070AF2B2B1EE400ABDEEC00A10EE03
:100B6000100A01B2042001F093FF01F035FFD4ED2B
:100B7000050AB0EE001A94ED060A70EEC11A0020C4
:100B8000F4EEC01AF1EE10FA12D870EE810AF4EE0B
:100B9000C00AF1EE10FA0BDBA179491CC9B2A171B0
:100BA000032902D3A071012760713846BDE8F081A6
:100BB000A071FAE724000020280000200000344340
:100BC0000000B443000034C3014800F0F3B8000053
:100BD00040020020014800F0EDB80000A002002013
:100BE00001681823CAB2103AB2FBF3F2054B6FF357
:100BF0000901032A9B5CC36500D9091D816508466C
:100C000070470000BC3F000810B5014600208B690A
:100C10008A6A4FF0C07453B1B3F5005F15D072B15A
:100C2000012A0CD0022A0AD0032A09D104E01AB101
:100C3000012A06D0022A03D1C96AC90100D50120C0
:100C400010BDC96AA142FAD010BD002AF7D0012A0E
:100C5000F2D0022AF3D0032AF3D010BD30B50468D5
:100C6000256825F480252560046863608368402B2F
:100C7000036803D099600068C26030BD9A60006864
:100C8000C16030BD704700004FF4077170B5B0FB14
:100C9000F1F2B0FBF1F501FB1204094E03E030461E
:100CA00000F010F86D1E002DF9D1002C06D04FF485
:100CB0007A706043BDE8704000F004B870BD000079
:100CC000603D08000B49097848434FF0E021401E81
:100CD000486100228A61086940F0010008610869E2
:100CE000C30701D0C003FAD5086920F001000861EC
:100CF0008A6170475400002072B6FEE770472DE904
:100D0000F0410446876D00F0BFFA064694F83500BE
:100D10000025022806D08020606584F83450012028
:100D2000BDE8F0812068016821F0160101602068AB
:100D3000416921F080014161206C08B9A06C20B1AB
:100D40002068016821F0080101602068016821F035
:100D5000010101600CE000F097FA801B052807D91B
:100D600020206065032084F8350084F83450D7E7EC
:100D700020680068C007EED194F85C103F208840DE
:100D8000B860012084F8350084F834500020C7E7AB
:100D900090F83510022903D0802141650120704769
:100DA000052180F835100068016821F0010101601B
:100DB000002070472DE9F84304464FF00009CDF8B4
:100DC000009063484FF41651A56D0068B0FBF1F731
:100DD0002E6894F85C10082000FA01F131420FD01F
:100DE00021680A6852070BD50A6822F004020A60DB
:100DF00094F85C108840A860606D40F00100606568
:100E000094F85C104FF0010808FA01F0304208D065
:100E100021684969090604D5A860606D40F00200A8
:100E2000606594F85C1004208840304208D0216846
:100E30000968890704D5A860606D40F0040060650A
:100E400094F85C1010208840304218D0216809685E
:100E5000090714D5A86020680168490304D5006813
:100E6000000308D5A16C07E00168C90503D4016837
:100E700021F008010160216C09B12046884794F8EF
:100E80005C1020208840304231D021680968C906B2
:100E90002DD5A86094F8350005282068016806D093
:100EA000490347D5006800031DD4616C1CE021F0A4
:100EB000160101602068416921F080014161206CC8
:100EC00008B9A06C20B12068016821F00801016018
:100ED00094F85C103F208840A86084F8358084F83E
:100EE0003490216D1FE0E16B09B120468847606DA9
:100EF00000282BD0606DC00714D0052084F8350081
:100F00002068016821F0010101600098401C0090F8
:100F1000B84203D820680068C007F6D184F835804D
:100F200084F83490E16C002910D001B02046BDE86F
:100F3000F04308470168C905D5D4016821F01001C4
:100F4000016084F8358084F83490CCE7BDE8F883FC
:100F50000C0000202DE9F041044600F095F906460A
:100F60005CB1022084F83500002584F834502068F4
:100F7000016821F0010101600DE00120BDE8F08170
:100F800000F082F9801B052805D920206065032028
:100F900084F83500F2E720680068C007F0D12268C5
:100FA000116820480140D4E901031843D4E903360D
:100FB0003343184363691843A3691843E36918432B
:100FC000236A18430843616A042903D1D4E90B1347
:100FD00019430843106020684069666A20F00701E1
:100FE00030460E43012704280CD1A06A0643E06A6C
:100FF00040B12046FFF708FE20B14020606584F82C
:101000003570BAE7206846612046FFF7E9FD94F89D
:101010005C203F2191408160656584F83570002037
:10102000ACE700003F8010F02DE9F0410446866DEA
:1010300090F83400002501280DD0012084F83400F8
:1010400094F835700020012F07D084F83400022571
:101050002846BDE8F0810220FBE7022784F83570BE
:1010600060652046FFF7FAFD94F85C103F20884049
:10107000B0602068016841F016010160206C20B169
:101080002068016841F0080101602068016841F0B2
:1010900001010160DCE700002DE9F84FDFF8BCA199
:1010A0000022012503264FF00F090AF1040BAAF1D3
:1010B000040E00BF0B6805FA02F42340A34270D16E
:1010C0000F7907F00307012F01D0022F16D187688F
:1010D0004FEA420806FA08FC27EA0C07D1F80CC0D0
:1010E0000CFA08FC4CEA070CC0F808C04768A74394
:1010F0000C79C4F3001494403C4344600C79E443FD
:10110000A4070AD0C4684FEA420C06FA0CF7BC43A5
:101110008F6807FA0CF72743C7600C7904F00304C3
:10112000022C12D1D40800EB840CDCF820405707C5
:10113000FF0E09FA07F824EA0804D1F8108008FA2B
:1011400007F848EA0408CCF8208004684FEA420C0B
:1011500006FA0CF7BC430F7907F0030707FA0CF700
:10116000274307604C6814F4403F70D03C4C27681C
:1011700047F480472760246822F0030704F4804482
:101180000094384C07EB040CDCF8084897074FEA4A
:10119000177809FA08F7BC43334FB84202D1002749
:1011A00024E054E0314FB84201D101271EE0304F16
:1011B000B84201D1022719E02E4FB84201D10327CE
:1011C00014E02D4FB84201D104270FE02B4FB84255
:1011D00001D105270AE02A4FB84201D1062705E0D0
:1011E000284FB84201D1072700E0082707FA08F77F
:1011F0002743CCF80878DAF800405746D1F804C005
:101200009C435FEACC2C00D51C433C60DBF80040DB
:101210005F46D1F804C09C435FEA8C2C00D51C4388
:101220003C60DEF800407746D1F804C09C435FEA9A
:101230008C3C00D51C433C60084F083F3C68D1F80B
:1012400004C09C435FEACC3C00D51C433C60521C6C
:10125000102AFFF42FAFBDE8F88F0000083C0140D2
:1012600044380240003001400000024000040240C7
:1012700000080240000C024000100240001402402E
:1012800000180240001C02400148806870470000BE
:101290000000002002488168027811448160704794
:1012A000000000200B4810B5016841F40071016096
:1012B000016841F480610160016841F4807101605E
:1012C000032000F077F80F2000F006F800F024F873
:1012D000002010BD003C024070B50D4D04464FF497
:1012E0007A712878B1FBF0F00A490968B1FBF0F097
:1012F00000F012FB48B9102C07D200222146501EE4
:1013000000F038F800206C6070BD012070BD000056
:10131000000000200C0000200E4808B5016841F4D0
:1013200080410160006800F4804000900948001F7F
:10133000016841F0805101600068002200F0805097
:1013400000901146512000F015F8BDE808405120EA
:1013500000F002B844380240002809DB00F01F0208
:10136000012191404009800000F1E020C0F8001107
:1013700070470000F0B40E4B1B680C46C3F3022309
:10138000C3F10705042D00D90425191D072901D231
:10139000002300E0DB1E012606FA05F1491E21406C
:1013A00099409E40761E16403143F0BC02F024B9AD
:1013B0000CED00E0064900F0070208684FF6FF0355
:1013C000184040EA0220034A1043086070470000BA
:1013D0000CED00E00000FA052DE9F0470E4605008F
:1013E00065D0DFF81481D8F80000F7B200F00700EC
:1013F000B04207D288F80070D8F8000000F007006B
:10140000B04254D128683D4C810712D5400703D51E
:10141000206840F4E05020602878000703D5206859
:1014200040F4604020602068A96820F0F000084384
:1014300020602878C0072DD0304968680839012815
:1014400012D0022813D0032811D009688907002977
:101450002DDA216821F0030101432160FFF714FF19
:10146000814641F2883A0EE009688903EFE709688E
:101470008901ECE7FFF708FFA0EB0901514502D90C
:101480000320BDE8F0872068696800F00C00B0EB2D
:10149000810FEFD1D8F80010404601F00701B142AA
:1014A00007D90770006800F00700B04201D00120A2
:1014B000E7E72878400705D52068E96820F4E05080
:1014C000084320602878000706D52068296920F4A1
:1014D000604040EAC100206000F038F82168084A06
:1014E000C1F30311515CC840064908600648006812
:1014F000FFF7F2FE0020C4E7003C0240083802403B
:10150000C43F00080C0000200400002004480549E6
:1015100000680968044AC1F38221515CC8407047E1
:101520000C00002008380240D43F00080448054958
:1015300000680968044AC1F34231515CC8407047F1
:101540000C00002008380240D43F0008154810B5B0
:10155000006810F00C02144813D04110042A0FD078
:10156000082A0ED10F4C241F2268236802F03F0284
:101570005B0207D52068C0F38810A0FB010106E0DC
:10158000084610BD2168C1F38811A1FB00010023AA
:10159000FEF718FE2168C1F30141491C4900B0FB68
:1015A000F1F010BD083802400024F4002DE9F84F96
:1015B00004006ED02078DFF84C93C007A9F1040531
:1015C0004AD009F104000168C1F38101012908D062
:1015D0000068C0F3810002280AD1D9F80000400257
:1015E00006D52868800337D560680028E1D033E04D
:1015F0006068B0F5803F10D0B0F5A02F286810D0FB
:1016000020F480302860286820F4802028606068FA
:10161000A8B1FFF739FE06460DE0286840F4803097
:10162000F4E740F480202860F7E700BFFFF72CFEC6
:10163000801B642873D828688003F7D50CE0FFF777
:1016400023FE064605E000BFFFF71EFE801B642850
:10165000F0D828688003F7D42078DFF8AC828007C0
:101660004FF0000A3ED5A748001D016811F00C0F8D
:1016700008D00068C0F3810002280BD1D9F800001F
:10168000400207D42868800716D5E068012800D1F9
:1016900012E033E1E068B8B10120C8F80000FFF7BC
:1016A000F3FD064605E000BFFFF7EEFD801B0228B4
:1016B000C0D828688007F7D52868216920F0F8008D
:1016C00040EAC10028600DE0C8F800A0FFF7DCFD8B
:1016D000064604E0FFF7D8FD801B02281FD82868C3
:1016E0008007F7D42078000722D5864F87486169A4
:1016F000703771B101210160FFF7C6FD064604E0B5
:10170000FFF7C2FD801B022809D838688007F7D58B
:101710000EE0C0F800A0FFF7B7FD064605E082E046
:10172000FFF7B2FD801B02287DD838688007F7D408
:101730002078400768D5DFF8CCB100270BF13C0BCF
:10174000DBF80000C0000BD4DBF8001041F0805142
:10175000CBF80010DBF80000012700F0805000906B
:101760006B4E3068C00510D4306840F48070306033
:10177000FFF78AFD009005E0FFF786FD0099401A0B
:10178000022850D83068C005F6D55E4EA0686C3689
:1017900001280FD00528306810D020F001003060FB
:1017A000306820F004003060A068B8B1FFF76CFD2D
:1017B00000900FE0306840F00100F4E740F00400D2
:1017C0003060F7E7FFF760FD0099411A41F2883079
:1017D000814266D830688007F4D50EE0FFF754FDEB
:1017E000009007E0FFF750FD0099411A41F2883060
:1017F000814256D830688007F4D42FB1DBF800104E
:1018000021F08051CBF80010A069C8B33D49091DF3
:101810000968C1F3810102294AD00228504607D045
:10182000C8F8600000E03CE0FFF72EFD04463BE016
:101830004746C8F86000FFF727FD064605E000BFF1
:10184000FFF722FD801B02282BD828688001F7D4DF
:10185000D4E907010843A16A2E4A490802EB014175
:10186000626A41EA8211084394F82C1040EA01614F
:10187000C9F8001001203866FFF706FD044606E0AF
:101880003EE000BFFFF700FD001B022809D82868D2
:101890008001F7D534E000BFFFF7F6FC001B0228FB
:1018A00002D90320BDE8F88F28688001F4D427E02E
:1018B0000128F7D0D9F80000E26900F480019142D4
:1018C0001CD1226A00F03F01914217D147F6C07146
:1018D000626A0140B1EB821F10D1A26A4FF0FF3360
:1018E00000F4403103EB5202B1EB024F06D194F801
:1018F0002C1000F07060B0EB016F01D00120D1E737
:101900000020CFE70438024000004742800E4742E3
:10191000007000400000FFFF10B5401EB0F1807F56
:1019200001D3012010BD4FF0E02460610F2160174A
:1019300001F062FE0020A06107202061002010BDA0
:101940007047704770B590F83C20012A32D00124CE
:1019500080F83C40022280F83D2003685A689D6868
:1019600022F070060A6832435A60134B02689A42AA
:1019700014D0B2F1804F11D0104B9A420ED0104BC0
:101980009A420BD00F4B9A4208D00F4B9A4205D087
:101990000E4B9A4202D00E4B9A4204D1496825F070
:1019A00080031943916080F83D40002180F83C108D
:1019B000084670BD022070BD0000014000040040D8
:1019C00000080040000C00400004014000400140BD
:1019D0000018004010B5040003D094F83D0010B189
:1019E00007E0012010BD002084F83C00204600F0F4
:1019F0001FF8022084F83D00211D206801F09EFAA6
:101A0000012084F8460084F83E0084F83F0084F802
:101A1000400084F8410084F8420084F8430084F8D0
:101A2000440084F8450084F83D00002010BD00000B
:101A300008B500680B49884212D10B48016841F093
:101A4000100101600068002200F0100000901146B3
:101A50003620FFF78FFCBDE808403620FFF77CBC3E
:101A600008BD0000001000404038024090F83D10D2
:101A7000012901D001207047022180F83D10016842
:101A8000CA6842F00102CA6000681149884214D055
:101A9000B0F1804F11D00F4988420ED00E498842D4
:101AA0000BD00E49884208D00D49884205D00D4917
:101AB000884202D00C49884204D1816801F00701B4
:101AC000062903D0016841F0010101600020704740
:101AD000000001400004004000080040000C0040ED
:101AE00000040140004001400018004070472DE90B
:101AF000F04104460068C66805694FF00007A90771
:101B000013D5B10711D5F91E016101202077206896
:101B100080698007204602D0FFF7E8FF04E000F06C
:101B20007EF8204600F07CF82777680716D5700706
:101B300014D521686FF00400086102202077206826
:101B4000806910F4407F204602D0FFF7CFFF04E009
:101B500000F065F8204600F063F82777280715D5D0
:101B6000300713D521686FF0080008610420207742
:101B70002068C0698007204602D0FFF7B7FF04E065
:101B800000F04DF8204600F04BF82777E80616D510
:101B9000F00614D521686FF0100008610820207746
:101BA0002068C06910F4407F204602D0FFF79EFFF6
:101BB00004E000F034F8204600F032F82777E80718
:101BC00008D0F00706D021686FF0010008612046B8
:101BD00000F028F8280608D5300606D521686FF0F1
:101BE000800008612046FFF7ABFE680608D5700646
:101BF00006D521686FF040000861204600F060F8CB
:101C0000A8060AD5B00608D521686FF02000086143
:101C10002046BDE8F041FFF794BEBDE8F081704773
:101C20007047000070B51E49884238D11D4C002510
:101C30002078012801D070B10EE06088401C81B28C
:101C4000618019A001F0C8FC6088A188884203D394
:101C50006580257000E065806078012801D050B172
:101C60000AE02089401C80B22081E188884203D3A9
:101C70002581657000E025816089401C80B260810B
:101C800064280CD365819FED0C0B53EC102B94ED65
:101C9000040B51EC100BFEF779FBC4E9040170BD95
:101CA000900000205800002074372E7478743D2274
:101CB000256422FFFFFF000079E9263108AC7C3F54
:101CC0007047704710B504460068406994F84110A9
:101CD000C0F3C010212911D180B12068143050E820
:101CE000001F21F0800140E80012002AF5D1A06B0E
:101CF00008B1FFF704F8204601F05EFA2068406959
:101D000094F84210C0F38010222911D180B12068CC
:101D1000143050E8001F21F0400140E80012002A72
:101D2000F5D1E06B08B1FEF7EAFF204601F01DFA9D
:101D3000002010BD70470000F8B50168044608682F
:101D4000CA684B6910F00F0F4FF0000559D003F02F
:101D5000010602F49077374365D0C10705D0D1055D
:101D600003D5616C41F001016164410705D5D907D4
:101D700003D0616C41F002016164810705D5D90788
:101D800003D0616C41F004016164010707D502F0E2
:101D90002001314303D0616C41F008016164616C42
:101DA00000293AD0800604D5900602D5204601F0DD
:101DB00011FA20684069616CC0F38010090700D4F3
:101DC00060B3204601F0D1F920684069400621D572
:101DD0002068143050E8001F21F0400140E8001254
:101DE000002AF5D1E06BA8B16E490165E06BFEF702
:101DF000CFFF002811D0E06B016D01B0BDE8F040CD
:101E0000084783060FD593060DD52046BDE8F84058
:101E100001F0E0B92046FFF78DFFF8BD2046FFF73F
:101E200089FF6564F8BD266B2023012E7DD1C6068F
:101E30007BD5D60679D508684868009048694FF088
:101E40000206400641D5E16B086840680004000CBA
:101E5000E8D0A28D8242E5D9E085C869B0F5807FDF
:101E60002DD020680C3050E8001F21F4807140E82C
:101E70000012002AF5D12068143050E8001F21F02C
:101E8000010140E80012002AF5D12068143050E822
:101E9000001F21F0400140E80012002AF5D184F82B
:101EA0004230256320680C3050E8001F21F01001FB
:101EB00040E80012002AF5D1E06BFEF720FF6663D0
:101EC000A08DE18D401A81B22AE0A08DE18D401AEB
:101ED00081B2E08D0028A5D00029A3D022680C3261
:101EE00052E8000F20F4907042E80007002FF5D16F
:101EF0002068143050E8002F22F0010240E800274B
:101F0000002FF5D184F84230256320680C3050E86A
:101F1000002F22F0100240E80023002BF5D1666369
:101F20002046FFF7CEFEF8BDFFE705062BD51506C8
:101F300029D594F841002128F5D1A068B0F5805F3B
:101F400001D12069B0B1206A411C2162216800786A
:101F50004860E08C401E0004000CE084E3D120685F
:101F6000C16821F08001C1602068C16841F0400172
:101F7000C160D8E7206A0088C0F308004860206A82
:101F8000801C2062E5E74006CDD55006CBD5CA6857
:101F9000204622F04002CA6084F8413000F058FA2E
:101FA000C1E700002130000870B5040004D094F8A7
:101FB0004100002510B106E0012070BD84F84050BA
:101FC000204600F023F8242084F841002068C168EE
:101FD00021F40051C160204601F05EF920680169DA
:101FE00021F4904101612068416921F02A01416199
:101FF0002068C16841F40051C1606564202084F804
:10200000410084F842006563002070BD2DE9F04175
:1020100086B0064614216846FEF70CF98548844BC5
:10202000D6F800C08349103803250227824A0024CD
:102030004FF008089C451BD10B6843F400230B604C
:10204000096801F400210591016841F00101016076
:102050000068CDE9005700F00100CDE90480694631
:102060001046CDE90245FFF717F806B0BDE8F0814C
:10207000724B9C4532D10A6842F480120A600968AA
:1020800001F480110591016841F0040101600168CB
:1020900001F004010591016841F008010160006848
:1020A00002AA00F0080005909814CDE9000782E824
:1020B000300169466248FEF7EFFF0420CDE90007D2
:1020C00002AA694682E830015E48FEF7E5FF002279
:1020D00011463520FFF74EF9352027E0DFF86881FB
:1020E0000723C44525D15349091D0E6846F0100643
:1020F0000E60096801F010010591016841F00101CD
:1021000001600068029400F0010005904FF4C06087
:10211000CDE90007CDE9035369461046FEF7BCFF41
:10212000002211462520FFF725F92520FFF714F995
:102130009BE7DFF81881C44554D1D1F800C04CF4B6
:10214000003CC1F800C0096801F400310591016844
:1021500041F0010101600068029400F00100059067
:102160000C20CDE90007CDE9035369461046FEF780
:1021700093FF384D36484FF000672860C5E9017479
:102180004FF48068C5E903486C614FF44030AC619E
:10219000C5E9074028466C62FEF7DCFE08B1FEF791
:1021A000ABFDF563AE632B4D294860351830E5E88B
:1021B00002074020A5E81101264845F8144960307F
:1021C000AC61EC612C626C62FEF7C4FE08B1FEF7F4
:1021D00093FDB563002211462620AE63FFF7CAF8CF
:1021E0002620A3E71C4A9445A2D10A6842F4802223
:1021F0000A60096801F480210591016841F002013B
:1022000001600068029400F0020005904FF4406005
:10221000CDE90007CDE9035369461048FEF73CFFBE
:10222000002211462720FFF7A5F827207EE70000AF
:10223000004C004040380240000002400050004086
:1022400000080240000C0240001001400044004021
:102250008860024040020020004800400004024024
:1022600090F84230202B01D00220704721B11AB1E2
:102270000023036301F096B80120704790F84230C4
:10228000202B01D00220704721B11AB10023036333
:1022900001F0D0B80120704770B5044600681349BA
:1022A000884207D1204601F029F90100104800D0EA
:1022B000012101700F492068884203D10E4800783F
:1022C00000F0E6FA0D4D2068A84202D1204600F049
:1022D00019F82068A84202D1204600F045F9BDE86F
:1022E0007040012204490648FFF7C8BF00100140B2
:1022F0001000002000480040300000200050004046
:10230000F801002010B5094C00682168096888426E
:102310000BD107480178A06800F03BFC2068BDE8BD
:10232000104001220249FFF7A9BF10BD4C07002051
:102330007000002070472DE9F843044690F84100F2
:10234000984616460D46202802D00220BDE8F883A4
:1023500085B17EB100206064212084F84100FEF741
:1023600093FFA6848146E684A0682027B0F5805FAD
:1023700002D003E00120E9E7206910B12E460025D4
:102380000EE000260CE08021204601F06EF8A8B98E
:10239000C6B116F8010B21684860E08C401EE0844D
:1023A000E08C4B464FF00002CDF800800028EAD1C7
:1023B0004FF04001204601F058F840B184F84170D8
:1023C0000320C3E735F8020BC0F30800E3E784F805
:1023D00041700020BAE7000070B5044690F8410053
:1023E000202801D0022070BD49B342B32162A284EB
:1023F000E28400206064212384F84130A56B114BF6
:10240000EB63A56B104B2B64A56B104BEB64A36BBC
:102410001865256813462A1DA06BFEF705FE216886
:102420006FF0400008602068143050E8001F41F051
:10243000800140E80012002AF5D1002070BD012083
:1024400070BD00001F310008613100083130000804
:1024500070477047FEE700001CB50BA1D1E90001F1
:10246000CDE900010A480068C16841F01001C1606F
:102470001E2208490648FFF7F3FEFF22694604487A
:10248000FFF7AAFF1CBD0000FFAA760000000000B5
:10249000B00100200003002070B5204D28780128ED
:1024A0003BD11F4C607CA17C227D0844E17C11441F
:1024B0000844A830617DC0B2884221D119A001F042
:1024C0008BF8B4F81100DFED1A0A00EE100A1B4970
:1024D000B8EE400A20EE200ADFED160A20EE200AB0
:1024E000DFED150A85ED010A30EEC00A10EE100A84
:1024F00085ED020A884203DB9FED110A85ED020A91
:10250000002028701E210648FDF794FEBDE87040AB
:102510001E2203490B48FFF7A3BE70BD1C0000201C
:10252000000300204552524F52210D0A00000000C6
:1025300000000038000034430000B4430000B443FE
:1025400000000000B001002010B501220449054838
:10255000FFF794FEBDE810406420FEF795BB000035
:10256000180000202001002070B5104C104D0122F1
:10257000207861782954401C2070611C0D48FFF7B9
:102580007DFE207809280FD1287838B9287AEF28DD
:1025900004D168780A2801D100F00EF8044900201F
:1025A000086048600872207070BD000017000020AD
:1025B0007C00002020010020104910B5002041F8C7
:1025C000090F486008720D49093108700B204870E6
:1025D000022004220A54401C0728FBDDEF20087269
:1025E00006494FF47A73092209310548FFF7A3FE23
:1025F000BDE810401420FEF747BB00007C0000201F
:10260000200100200D4808B5016841F40011016067
:102610000068002200F40010009011461020FEF720
:10262000A9FE1020FEF798FE002211461120FEF7A9
:10263000A1FEBDE808401120FEF78EBE30380240F2
:10264000154808B5016841F080010160016801F09A
:1026500080010091016841F001010160016801F011
:1026600001010091016841F002010160016801F07F
:1026700002010091016841F004010160016801F06C
:1026800004010091016841F008010160006800F058
:102690000800009008BD0000303802401CB500243E
:1026A0000F4800940D490194016042F2CF01C0E946
:1026B00001146321C16080218161FFF78BF908B1AA
:1026C000FEF71AFB0094694605480194FFF73AF9B2
:1026D000002801D0FEF710FB1CBD000000100040D8
:1026E000900000200C4810B50A4901604FF4E13118
:1026F0004160002181600C22C160C0E90412816147
:10270000C161FFF751FC002803D0BDE81040FEF77F
:10271000F3BA10BD004C0040D80000200C4810B5A2
:102720000A4901604FF4E1314160002181600C22CF
:10273000C160C0E904128161C161FFF735FC002866
:1027400003D0BDE81040FEF7D7BA10BD00500040DE
:10275000200100200C4810B50A4901604FF46121A6
:102760004160002181600C22C160C0E904128161D6
:10277000C161FFF719FC002803D0BDE81040FEF747
:10278000BBBA10BD00100140680100200C4810B514
:102790000A4901604FF4E1314160002181600C225F
:1027A000C160C0E904128161C161FFF7FDFB00282F
:1027B00003D0BDE81040FEF79FBA10BD00440040B2
:1027C000B00100200C4810B50A4901604FF4E13116
:1027D0004160002181600C22C160C0E90412816166
:1027E000C161FFF7E1FB002803D0BDE81040FEF710
:1027F00083BA10BD00480040F8010020FEE7000049
:102800000B4910B50870F3204870AB208870012088
:10281000C870002008716B2048714FF47A7306224B
:102820000448FFF788FDBDE810400A20FEF72CBAE7
:1028300032030020F801002010B50120FFF7E0FF6F
:102840000220FFF7DDFF0320FFF7DAFF0420FFF788
:10285000D7FFBDE810400520FFF7D2BF0A4810B5EA
:102860000068C16841F02001C160012207490648A3
:10287000FFF704FD002000F081F86420FEF704FA61
:10288000BDE81040FFF7D8BFF8010020300000205D
:10289000F0B5384A012411461779CB78591CCEB2CD
:1028A0003549C7B10225012F1ED0022F12D1D07891
:1028B00001EB400030F8023C00206B2B1DD0107162
:1028C000D07015705FF0000221F81200521CD2B2D5
:1028D0000A2AF9D3F0BD012801D00528FAD11471D4
:1028E00021F81300D670F0BD21F81300D6700A2E1F
:1028F00001D26B28F7D11571D9E7D07010710B8810
:10290000012B02D0052B10D01AE04B88FD2B17D1DC
:102910008B889F2B14D114705FF0000221F81200F5
:10292000521CD2B2042AF9D3F0BD4B88FD2B02D041
:10293000272B18D004E08B889F2B01D1937843B1CB
:102940005FF0000221F81200521CD2B20A2AF9D319
:10295000F0BD94705FF0000221F81200521CD2B258
:10296000042AF9D3F0BDC888097940EA01205081D2
:10297000F0BD0000280000201E0300202DE9F041DA
:10298000134C05466B262070FE2060709820A070C6
:102990000020E0704FF47A7726713B4605222146ED
:1029A0000C48FFF7C8FC0A20FEF76EF925700A20D4
:1029B00060706D20A070E6703B46042221460548F9
:1029C000FFF7B9FCBDE8F0410A20FEF75DB9000051
:1029D00032030020F80100200A4810B500210170E0
:1029E000FF214170662181706B21C17001464FF457
:1029F0007A7304220448FFF79EFCBDE810400120D2
:102A0000FEF760B932030020F801002070B50446DB
:102A1000104600F06BF885B21A48FD26012C0470B0
:102A2000467005D0042C03D0002A03DB012202E00B
:102A3000002AFBDB002282702A0AC27005714371F2
:102A40000A0E82710A0CC2710A0A027241720025D2
:102A500085720121C1726B2101734FF47A730D22CB
:102A600008490948FFF767FC012C05D1074C0A20EB
:102A70002570FEF709F92570BDE870400120FEF7CA
:102A800021B9000032030020F801002028000020B6
:102A900070B50346084600F029F884B21148F625BF
:102AA000012B0370457005D0042B03D0002903DBF4
:102AB000012102E00029FBDB00218170210AC170A5
:102AC00004714271012181716B21C1714FF47A73DC
:102AD000082204490448FFF72EFCBDE8704001209D
:102AE000FEF7F0B832030020F8010020002800DAD9
:102AF00040427047FEE7704700B503895B1E00F057
:102B000003F8181A80B200BD8288C1888A4203D9AE
:102B10000089511A401A00E0881A80B2704702609A
:102B200000228280C280491C0181114603E00368B3
:102B30005A54491C89B203898B42F8D8704710B5A2
:102B40000446FFF7D9FF2189491E89B2884201D185
:102B5000012010BD002010BD00B5FFF7CDFF08B16A
:102B6000002000BD012000BD10B50446FFF7E7FFBF
:102B700008B1002010BDA0882189401CB0FBF1F2F3
:102B800001FB120081B2A18022680023505C5354E3
:102B900010BD30B50D460446FFF7DEFF10B12046EC
:102BA000FFF7E2FFE0882189401CB0FBF1F201FB56
:102BB000120080B2E08021680D5430BD70470000E3
:102BC00001490020C8707047100000202DE9F05F17
:102BD000A04CA248214694F803C08A7801259E4F54
:102BE0000378497800264FF0C80A4FF0500B4FF495
:102BF000AF79BCF1050F1CD2DFE80CF0031D54B116
:102C0000E70000231A4619461846FDF785FE61784D
:102C100093A000F0E1FCE17895A000F0DDFC2078C5
:102C2000012806D14FF4FA60FEF72EF80120E0707B
:102C30002670BDE8F09F80460BB1012AF9D141B161
:102C4000012916D0022921D00329F2D16670022071
:102C500083E083A000F0C0FCE17885A000F0BCFC1C
:102C6000A7F800A09623C822002188F800505842F7
:102C7000E6E07BA000F0B0FC4FF4C87038809623EB
:102C800088F800505A0040F2AA51D8E074A000F031
:102C9000A3FCA7F800B09623C822002188F80050B2
:102CA0003220CDE080460BB1012AC2D10629C0D224
:102CB000DFE801F003101B23304369A000F08CFC17
:102CC000A7F800B09623C82288F8005000216FF0C2
:102CD0003100B5E062A000F07FFCA7F800A09623C9
:102CE00088F800505A006649A9E05DA000F074FC25
:102CF0009622C821A5705A2013E059A000F06CFC60
:102D00004FF46170388088F8005082234FF4C87205
:102D10005C4994E052A000F05FFCC822A570114607
:102D2000B420FDF791FE08B1A67002E0A07800285B
:102D300084D16078401C60707BE749A000F04CFCB7
:102D4000C821A5700846FDF77FFD08B1A67002E016
:102D5000A0780028F0D166700320E07069E7804613
:102D60000BB1012AE8D181B101291DD0022924D05B
:102D70000329E1D13AA000F02FFCC821A570084634
:102D8000FDF762FDD8B1A6701CE035A000F024FC70
:102D9000E17837A000F020FCA7F80090962388F88F
:102DA00000505A0038494AE02DA000F015FCC82216
:102DB000A57011464FF48770B3E729A020E0A078F2
:102DC0000028B9D166700420C7E780460BB1012AFC
:102DD000B2D181B101291ED0022924D00329ABD15F
:102DE0001FA000F0F9FBC821A5700846FDF72CFDD7
:102DF00048B3A6702AE01AA000F0EEFBE1781CA010
:102E000000F0EAFB96232049A7F800905A0088F8C2
:102E100000500F3113E012A000F0DEFBC822A570B5
:102E2000114600207DE70EA000F0D6FB4FF48C7019
:102E30003880962388F80050FA226FF4D47100206D
:102E4000FDF76AFD75E7A078002887D16670E67007
:102E5000EFE60000100000205C0000205800002079
:102E600074392E7478743D22256422FFFFFF000020
:102E700074352E7478743D22256422FFFFFF000014
:102E800070FEFFFF48F9FFFF95FCFFFFFEF702BA57
:102E900030B593B030216846FDF7CCF914210CA869
:102EA000FDF7C8F91C480025016841F08051016018
:102EB000006800F0805011901848016841F480418A
:102EC00001600068022400F480401190012000900D
:102ED000000401908001CDE9064008AA0420A82141
:102EE00082E813000B906846FEF760FB08B172B6EB
:102EF000FEE70CA90F2081E831004FF4A0500F909D
:102F0000109005210CA8FEF767FA002801D072B6D0
:102F1000FEE713B030BD00004038024000700040B2
:102F20000248016841F470010160704788ED00E0DB
:102F30000148FEF7DCBD000090000020F0B50268FB
:102F4000294C2A4D2A4E2B4F2B4B4FF0804CA04240
:102F500009D0604507D0A84205D0B04203D0B8429E
:102F600001D0984204D122F0700E4A6842EA0E0263
:102F7000A0421BD0604519D0A84217D0B04215D04E
:102F8000B84213D0984211D01C4DA8420ED01C4D0F
:102F9000A8420BD01B4DA84208D01B4DA84205D01B
:102FA0001A4DA84202D01A4DA84203D122F440750E
:102FB000CA682A434D6922F080022A4302608A6867
:102FC000C2620A688262A04201D0984201D10969B6
:102FD0000163012141610169C90703D0016921F041
:102FE00001010161F0BD000000000140000400404B
:102FF00000080040000C0040000401400040014077
:10300000004401400048014000180040001C0040FE
:10301000002000400148FEF78FBE00002001002084
:1030200010B5806B0021C185C184FEF783FE10BD01
:1030300070B5846B2068406994F84110C0F3C010EB
:103040000025212904D118B1E584204600F0B4F808
:103050002068406994F84210C0F38010222904D1FE
:1030600018B1E585204600F080F8606C40F0100053
:1030700060642046FEF75EFE70BD10B50146806BB1
:10308000096809684FF00002C9052ED4C28501689D
:103090000C3151E8003F23F4807341E80034002CE8
:1030A000F5D10168143151E8003F23F0010341E8F4
:1030B0000034002CF5D10168143151E8003F23F0B1
:1030C000400341E80034002CF5D1202180F8421063
:1030D000016B012909D101680C3151E8003F23F04F
:1030E000100341E80034002CF5D14263016B012943
:1030F00002D0FFF7D1F810BD818DFEF7E2FD10BDC3
:1031000010B5806B01214163016B012902D0FFF7EB
:1031100011F910BD818D4908FEF7D3FD10BD10B522
:103120000146806B09680968C90516D40021C1846D
:103130000168143151E8002F22F0800241E8002399
:10314000002BF5D101680C3151E8002F42F040020C
:1031500041E80023002BF5D110BDFFF779F910BD30
:1031600010B5806BFFF775F910BD01680C3151E89F
:10317000002F22F4907241E80023002BF5D1016862
:10318000143151E8002F22F0010241E80023002B06
:10319000F5D1016B012909D101680C3151E8002FEB
:1031A00022F0100241E80023002BF5D1202180F805
:1031B000421000210163704701680C3151E8002F73
:1031C00022F0C00241E80023002BF5D1202180F835
:1031D0004110704708B590F84210222901D0022012
:1031E00008BD82684FF480539A4201D1016921B130
:1031F000816A9A421BD04AB10AE00268816A526829
:10320000C2F308020A80816A891C08E0026972B16F
:103210000268526802F07F020A70816A491C81626A
:10322000C18D491E0904090CC18503D01BE0026849
:103230005268F1E70168CA6822F02002CA6001689A
:10324000CA6822F48072CA6001684A6922F00102E9
:103250004A61202180F8421000214163026B012A5B
:1032600003D0FFF719F8002008BD016301680C3195
:1032700051E8002F22F0100241E80023002BF5D185
:1032800001680A68D20602D50A6849680091818DF2
:10329000FEF717FDE7E7000070B504460068016916
:1032A000E26821F44051114301612169A068E2699B
:1032B00008436169114308432168CA6849F20C63F5
:1032C0009A430243CA6020684169A26921F44071AF
:1032D0001143416131492068884202D03049884217
:1032E00002D1FEF723F901E0FEF710F9E2690023AD
:1032F000192164253226B2F5004F626828D0A0FB60
:103300000101930F9200FCF75DFF0146B0FBF5F061
:103310006FF01802504301EB800006EB0010B0FB89
:10332000F5F000F0F002B1FBF5F002EB0012B1FB9A
:10333000F5F06FF01803584301EB800006EB001026
:10334000B0FBF5F000F00F0021681044886070BDFC
:10335000A0FB010192185B41FCF734FF0146B0FB72
:10336000F5F00201B1FBF5F06FF01803584301EBE3
:10337000800006EBC000B0FBF5F000F0F80002EBB7
:103380004002B1FBF5F0584301EB800006EBC000B2
:10339000B0FBF5F000F00700D6E700000010014098
:1033A0000014014038B5816204468285002013462E
:1033B0006064222284F84220E56B1B4AEA63E56BD5
:1033C0001A4A2A64E56B1A4AEA64E26B10650A46F7
:1033D0002168E06B091DFDF727FE20680168406841
:1033E0000090206948B120680C3050E8001F41F47B
:1033F000807140E80012002AF5D12068143050E8AE
:10340000001F41F0010140E80012002AF5D12068B8
:10341000143050E8001F41F0400140E80012002A3B
:10342000F5D1002038BD00007B30000801310008D4
:103430003130000881628285C285002141642221E9
:1034400080F84210016921B10168CA6842F48072B3
:10345000CA6001684A6942F001024A610068C168B5
:1034600041F02001C160002070472DE9F8439846E3
:1034700017460D460446089E24E0701C22D0FDF736
:1034800003FFA0EB0800B0421AD8CEB12068C16893
:10349000490717D5802D15D0402D13D00168C94399
:1034A00009070FD401680025406800902046FFF707
:1034B0005CFE0820606484F840500120BDE8F88379
:1034C0000320FBE72068006835EA000004D00020F4
:1034D000B842D2D00020F1E70120F9E710B501226F
:1034E00004490548FEF7CAFEBDE810406420FDF718
:1034F000CBBB0000160000206801002070B50E4C08
:103500000025607868B92646A07830700120607088
:103510000246A11C0948FEF7B1FE6078012803D0DD
:1035200000E06570002070BD3078552801D025700E
:10353000F7E76570012070BD1400002068010020CD
:103540000148FEF7F9BB000068010020094808B5F2
:1035500000680168C90608D5016840680090054800
:10356000FEF7B0FB044901200870BDE8084001489F
:10357000FEF7E2BBB00100201C0000200148FEF76E
:10358000DBBB0000F8010020FEE7000070B50E4A2A
:1035900004464FF4FA75294602F57B70FFF7BFFA2F
:1035A0000A4A294602F20320FFF7B9FA084901F155
:1035B0000C0081600C39C0E900412046BDE8704034
:1035C00001220449FEF75ABE480300203D050020B1
:1035D00040070020700000200FB4054B10B503A970
:1035E000044A029800F02CF910BC5DF814FB0000AE
:1035F000493F0008740000200907090E002804DB79
:1036000000F1E02080F80014704700F00F0000F196
:10361000E02080F8141D704700B52DED048BB0EE4E
:10362000409AF0EE609A83B051EC190BFDF776F8F2
:1036300041EC180B18EE100A18EE901A8DED008B65
:10364000002818BF0120084320F00040C0F17F602F
:1036500000F1E040C00F14D019EE101A19EE900AD4
:103660008DED009B002918BF0121084320F0004088
:10367000C0F17F6000F1E040C00F04BF012000F006
:1036800017F8B0EE480A03B0F0EE680ABDEC048B00
:1036900000BD02E008C8121F08C1002AFAD1704715
:1036A0007047002001E001C1121F002AFBD17047C2
:1036B0000149086070470000780000202DE9FF5F95
:1036C00082B00021DDE90430020DDDF840B0034393
:1036D00018D044F61050A2F2FF324243151411984C
:1036E00001281FD0A5EB0B00401C5FEA000A4FF039
:1036F00000064E4FDFF83891B046504615D5CAF156
:10370000000413E0119801244AA3012801D16FEAB3
:103710000B010298119AC0E90031C0E9024206B0DB
:10372000BDE8F09FCBF10000DFE704460021404AEE
:10373000491842EB0450CDE9001012E0E00707D031
:1037400032463B4640464946FCF726FE80468946BF
:1037500032463B4610461946FCF71EFE06460F460B
:103760006410002CEAD1DDE90401DDE90023BAF19F
:10377000000F06DAFCF710FE42464B46FCF70CFE43
:1037800005E0FCF77BFE42464B46FCF777FE04461D
:103790000E460022284BFDF72BF803D84FF0FF30E0
:1037A000014607E00022254B20463146FCF74DFD3F
:1037B000FDF705F8102409E0002C0ADB0A2200239B
:1037C000FCF700FD039B30321A55641E50EA0102DB
:1037D000F2D1641C039AC4F111031444119A012A12
:1037E00003D0012208430DD10AE0084304D0002091
:1037F0004FF0110B119072E7A3EB0B056D1E0DE05E
:103800005B4504DD4FF0000205F1010504E003DA39
:103810004FF00002A5F10105002AECD002981199A1
:10382000C0E90231C0E9004579E70000000014401A
:103830000000F03F300000000000F0430000E03FD7
:103840002DE9FF4F95B09A46884606460025EEE1E1
:10385000252877D100242746F94A0121039400E066
:10386000044316F8013F203B01FA03F01042F7D160
:1038700030782A2811D06FF02F033078A0F1300271
:10388000092A16D8039A44F0020402EB820203EBE1
:1038900042021044761C0390EFE758F8042B039281
:1038A000002A03DA504244F40054039044F0020426
:1038B000761C30782E2816D116F8010F44F0040437
:1038C0002A280DD06FF02F023078A0F13003092B99
:1038D00009D807EB870302EB4303C718761CF3E70D
:1038E00058F8047B761C30786C280FD006DC4C2806
:1038F00017D068280DD06A2814D104E0742810D09D
:103900007A280FD10DE044F400140AE044F4801446
:1039100001E044F440147278824202D104F580142C
:10392000761C761C307866280BD013DC582877D0AC
:1039300009DC002875D04528F6D04628F4D0472861
:103940001AD193E118E0632835D0642879D065282E
:1039500012D18BE1702873D008DC6728F1D0692878
:103960006FD06E280DD06F2806D1ACE073282CD014
:10397000752874D0782853D05246179990476D1CFB
:1039800054E1C4F30250022809D003280DD0D8F81E
:10399000001004280DD00D6008F1040846E1D8F8A5
:1039A0000010EA17C1E90052F6E7D8F800100D80C0
:1039B000F2E70D70F0E718F8041B8DF800100020F6
:1039C0008DF80100EB46012003E058F804BB4FF0EE
:1039D000FF3061074FF0000102D40DE009F1010151
:1039E0008946B9420FDA8145F8DB1BF80910002936
:1039F000F4D108E009F1010189468142FADB1BF8A4
:103A000009100029F6D103985346A0EB0907214677
:103A10003846179A00F080FA284400EB090507E0C1
:103A200044E008E10DE01BF8010B5246179990475E
:103A3000B9F10109F7D2534621463846179AF2E008
:103A400039E00A21C4F302524FF0000B0091022A20
:103A500006D058F8040BC117032A09D00AE023E066
:103A600008F1070020F00702F2E80201904605E0A5
:103A700000B2C117042A01D140B2C117002906DAE9
:103A80000A460021404261EB02012D2202E022059C
:103A900004D52B228DF80420012203E0E20701D097
:103AA0002022F7E7914657E00A2100E010214FF06D
:103AB000000B00910BE010214FF0000B44F00404C8
:103AC0000827009103E008204FF0000B0090C4F39A
:103AD0000252022A05D058F8040B0021032A08D00C
:103AE00008E008F1070020F00702F2E80201904622
:103AF00003E080B2042A00D1C0B24FF000092207CF
:103B00002AD53278702A07D0DDF800C08CF0100C6E
:103B10005CEA0B0C05D00EE040228DF80420012257
:103B200008E050EA010306D030238DF804308DF808
:103B3000052002229146009B83F0080353EA0B0301
:103B40000AD150EA010201D1620705D530228DF871
:103B500004204FF001097F1E3278582A04D039A280
:103B60000C920CAA02920BE03BA2F9E75B46009A8A
:103B7000FCF728FB0C9B9B5C029A521E029213706E
:103B800050EA0102F2D1029804A9081A00F1200BB0
:103B9000600702D524F4803400E001275F4502DD90
:103BA000A7EB0B0000E0002000EB0B010090039856
:103BB0004944401A0390E00306D453462146179A1D
:103BC000039800F0A9F90544002706E001A8524631
:103BD000C05D179990476D1C7F1C4F45F6DBE003D5
:103BE0000CD553462146179A039800F095F90544E1
:103BF00004E030205246179990476D1C0099481EEA
:103C000000900029F5DC08E00298029952460078FD
:103C1000491C0291179990476D1CBBF10001ABF153
:103C2000010BF1DC5BE100F065F90544761C3078AE
:103C300000287FF40DAE19B02846BDE8F08F0000D3
:103C40000928010030313233343536373839616272
:103C50006364656600000000303132333435363736
:103C6000383941424344454600000000600700D413
:103C7000062708F1070020F00700F0E8022380463D
:103C800003F0004C5FEA0C0001D097A009E020058A
:103C900001D596A005E0E00701D095A001E0AFF2C4
:103CA0004C001390307823F0004365280CD006DCDC
:103CB000452809D046281DD047287FD13BE06628FB
:103CC00018D067287AD136E00021112F01DB1120AE
:103CD00000E0781CCDE9000104A90CA8FFF7EEFC78
:103CE000DDE90D010C9A4FF0000B07F1010910926C
:103CF00000914EE04FF000400097CDE9011004A97B
:103D00000CA8FFF7DBFCDDE90D020C9B0F994FF0CF
:103D1000000B91461093009211B9791C00EB010938
:103D2000B7EB090003D4C0F1FF3B07F10109A9EB90
:103D30000700019042E0012F00DA01270021112F36
:103D400001DD112000E03846CDE9000104A90CA8EE
:103D5000FFF7B4FCDDE90D010C9A00914FF0000B68
:103D6000B946109221070FD4009A4A4503DA9146CA
:103D700001E0A9F10109B9F1010F05DD109AA9F1DE
:103D80000101515C3029F4D0B84202DA10F1040F7D
:103D900003DA0121CDE9011010E0002803DC83449F
:103DA000A9EB000102E0411C494500DD8946A0EB7A
:103DB0000B00401C01904FF000400290200705D4FA
:103DC0000198484502DB4FF0FF30019000208DF84C
:103DD0004B0002980DF14B07B0F1004F25D00220A7
:103DE0000C902B200D90029800280CDA4042029093
:103DF0002D200D9007E00A210298FCF7EBFB3031F3
:103E0000029007F8011D0C99481E0C900029F2DC65
:103E100002980028EFD1791E0D980870307800F0D4
:103E2000200040F0450007F8020D11A8C01BC01D7E
:103E300002901398007800B1012000EB090101986D
:103E400001EBE071029801440398401A401E039070
:103E5000E00306D453462146179A039800F05CF815
:103E600005441398007818B15246179990476D1C75
:103E7000E00323D553462146179A039800F04CF8E7
:103E800005441BE0BBF1000F07DB0098584504DD3B
:103E90001098179910F80B0001E01799302052463E
:103EA000904701980BF1010B401E05F101050190AF
:103EB00004D12E205246179990476D1CB9F100018C
:103EC000A9F10109DEDC05E017F8010B524617994C
:103ED00090476D1C0299481E02900029F4DC53465D
:103EE0002146179A03989EE62D0000002B00000043
:103EF000200000002DE9F041044600251E4617462B
:103F0000880404D405E039462020B0476D1C641EA7
:103F1000F9D52846BDE8F0812DE9F0410446002599
:103F20001E469046C80301D5302700E020278804AC
:103F300004D505E041463846B0476D1C641EF9D5EE
:103F40002846BDE8F081000013B54FF6FF7301224B
:103F500069460248FEF7EFF900981CBD6801002091
:103F6000FDF7A0F9FEF794FFFEF76AFBFEF74AFBA8
:103F7000FEF7F0FBFEF70AFCFEF790FBFEF722FCD3
:103F8000FEF7CCFBFEF7AEFBFEF766FAFEF766FC2B
:103F90000848FFF7FBFAFEF74FFCFEF7D5FAFFF7EC
:103FA0009DFAFEF70DFE0448FDF760FDFEF70EFEDC
:103FB000FCE70000D800002090000020000610164A
:103FC00000061016000000000000000001020304BB
:103FD000060708090000000001020304FC3F000876
:103FE000000000207C0000009236000878400008A5
:103FF0007C000020DC0A0000A2360008010000005E
:1040000010000000000000000024F4000000000088
:1040100000000000000000000000000000000000A0
:10402000000000000100010000000000000000008E
:104030000000000000000000000000000000000080
:10404000000000003333333F000000000000000098
:104050000000000000000000000000000000000060
:104060000000000000000000000000000000000050
:08407000000000000000000048
:040000050800018965
:00000001FF
