:020000040800F2
:10000000700B0020A1010008893F00085536000848
:10001000E53B0008C9120008A94E000800000000D6
:10002000000000000000000000000000DF400008A9
:10003000DD1A0008000000008B3F0008AD470008F3
:10004000BB010008BB010008BB010008BB010008A0
:10005000BB010008BB010008BB010008BB01000890
:10006000BB010008BB010008BB010008BB01000880
:10007000BB010008BB010008BB010008BB01000870
:10008000211A00082D1A0008BB010008BB01000856
:10009000BB010008BB010008BB010008BB01000850
:1000A000BB010008BB010008BB010008BB01000840
:1000B000BB010008BB010008BB010008BB01000830
:1000C000BB010008BB010008BB010008BB01000820
:1000D000BB010008614E00086D4E00089D4E0008EF
:1000E000BB010008BB010008BB010008BB01000800
:1000F000BB010008BB010008BB010008BB010008F0
:10010000BB010008BB010008BB010008BB010008DF
:10011000BB0100083549000851480008BB01000830
:10012000BB010008BB010008BB010008BB010008BF
:10013000BB010008BB010008BB010008BB010008AF
:10014000BB010008BB010008BB010008BB0100089F
:10015000BB010008BB010008BB010008BB0100088F
:10016000BB010008BB010008BB010008BB0100087F
:10017000BB010008BB010008BB0100080000000033
:10018000BB010008551B0008DFF810D000F082FB0F
:1001900000480047ED580008AFF30080700B0020C6
:1001A0000648804706480047FEE7FEE7FEE7FEE711
:1001B000FEE7FEE7FEE7FEE7FEE7FEE74148000850
:1001C000890100082DE9F05F0546002092469B4614
:1001D00088460646814640241BE02846414647465D
:1001E000224600F01FFA53465A46C01A914110D3D6
:1001F00011461846224600F006FA2D1A67EB010850
:100200004F4622460120002100F0FDF917EB0009BE
:100210004E41201EA4F10104DFDC484631462A4647
:100220004346BDE8F09FD2B201E000F8012B491E21
:10023000FBD270470022F6E710B513460A46044683
:100240001946FFF7F0FF204610BD2DE9FE4F80460E
:1002500081EA0300C00F0C46009021F0004123F01A
:100260000045B8EB0200A94105D240462146904620
:100270001C460B46024623F00040104347D0270D92
:10028000C7F30A00C3F30A510290401A01904028B4
:100290006BDAC3F3130040F4801B0098924620B140
:1002A0000023D2EB030A63EB0B0B01985946C0F114
:1002B0004002504600F0A7F906460D465046594602
:1002C000019A00F0BFF910EB08006141002487EAB1
:1002D000115284EAE7731A4340D0009A62B3019A3C
:1002E000012A4FEA075215DC001B61EB02014FF0B7
:1002F000004202EA0752CDE90042001C41F580119C
:1003000032462B4600F0F6F903B0BDE8F08F4046C8
:100310002146F9E7001B61EB0201001C41F5801347
:1003200000185B412018A2F5001747EB030140EAD3
:10033000D570B6196D4111E06D084FEA360645EAF1
:10034000C0754FEA0752001B61EB0201001C41F52A
:10035000801149084FEA30000019514132462B46BE
:1003600003B0BDE8F04F00F0B6B90098012240009C
:100370000023D0EB020263EBE073009821464FEAC2
:10038000E074B8EB000061EB0401E9E783F000439F
:100390005BE781F0004158E72DE9FE4F81EA030455
:1003A00004F0004421F0004100944FF0000B23F0D2
:1003B000004350EA01045ED052EA03045BD0C3F369
:1003C0000A54C1F30A552C44A4F2F3340194A0FB5F
:1003D0000254C1F3130141F48011C3F3130343F436
:1003E000801301FB024400FB034E840A970A44EA8F
:1003F000815447EA8357A4FB076802958D0A05FBE1
:1004000007854FEA932C04FB0C542705029D4FEA05
:10041000065847EA1637B5EB08056EEB070C870E52
:10042000920E47EA811742EA8312A7FB0201B6EB5C
:100430000B0164EB00042B0D43EA0C335E1844EB14
:100440001C50DA465146E7FB0201C5F313044FEA9C
:100450000B3343EA14534FEA0432019C43EA060388
:10046000A4F10C040294009CCDE900B400F042F920
:1004700003B0BDE8F08F00200146F9E72DE9F04D0B
:1004800081EA030404F0004B21F0004514464FF0CC
:10049000000A23F0004150EA050220D054EA01028C
:1004A0001DD0C5F30A570246C5F31303C1F3130069
:1004B000C1F30A5640F4801543F48013A7EB0608F5
:1004C000101BD64608F2FD3873EB050002D308F185
:1004D000010801E092185B41B8F1000F03DA002037
:1004E0000146BDE8F08D00204FF480110646844699
:1004F0000EE0171B73EB050705D3121B63EB050317
:1005000006434CEA010C49084FEA300092185B415F
:1005100050EA0107EDD152EA030012D082EA04004A
:1005200083EA0501084305D0101BAB4106D2012226
:10053000002306E000224FF0004302E06FF00102CA
:1005400053101AEB06004CEB085110EB0A0041EB7C
:100550000B01BDE8F04D00F0BEB80EB5C10F80EA4A
:10056000E0700844CA07002140F233438DE80E00D2
:100570000A460B4600F0BEF803B000BD00F0004292
:1005800030F000400AD0C10D01F56071C0F31600D3
:1005900042EA0151C208400711437047002001465A
:1005A000704701F0004330B421F0004150EA0102ED
:1005B00006D00A0DA2F56072C1F31301002A02DC15
:1005C00030BC00207047440F44EAC104C100E01869
:1005D00030BC00EBC25000F047B830B50B460146C6
:1005E00000202022012409E021FA02F59D4205D3D2
:1005F00003FA02F5491B04FA02F52844151EA2F17C
:100600000102F1DC30BD202A04DB203A00FA02F1BD
:10061000002070479140C2F1200320FA03F31943F0
:1006200090407047202A04DB203A21FA02F0002192
:10063000704721FA02F3D040C2F1200291400843F2
:1006400019467047202A06DBCB17203A41FA02F000
:1006500043EAE07306E041FA02F3D040C2F120021F
:1006600091400843194670470029A8BF7047401CB5
:10067000490008BF20F00100704710B4B0FA80FCB8
:1006800000FA0CF050EA010404BF10BC704749B1F5
:10069000CCF1200421FA04F411FA0CF118BF012165
:1006A00021430843A3EB0C01CB1D4FEA00614FEA45
:1006B000102042BF002010BC704700EBC350104414
:1006C0000029A4BF10BC7047401C490008BF20F09F
:1006D000010010BC704710B5141E73F1000408DA55
:1006E000401C41F1000192185B411A4301D120F0F6
:1006F000010010BD2DE9F04D92469B4611B1B1FAB3
:1007000081F202E0B0FA80F220329046FFF77BFFE0
:1007100004460F4640EA0A0041EA0B0153465A4696
:10072000084313D0114653EA010019D0C8F1400222
:100730005046FFF777FF05460E465046594642465B
:10074000FFF761FF084305D0012004E02046394649
:10075000BDE8F08D0020054346EAE0762C433743A0
:100760000A986305E40AA0EB08000022FD0A44EAA7
:1007700047540A3002D500200146E9E70105101967
:100780006941DDE9084500196941BDE8F04DA2E77E
:100790002DE9F04D00231A461B1A8A4103DB002085
:1007A0000146BDE8F08DC1F30A52C1F3130141F4D3
:1007B00080154FF0000BD10702D100186D41521E79
:1007C0000027044640F2FF11384601EB620A3E461C
:1007D0008046024600204FF48011FFF723FFC21924
:1007E0007141BB1846EB0100B4EB030C75EB000C38
:1007F00004D3E41A65EB000517460E46241908F1E8
:1008000001006D4180463428E3DDF91946EB06000E
:10081000091BA84103D24FF0FF32134601E000222A
:1008200013461BEB070046EB0A51BDE8F04DFFF7FE
:1008300052BFC1F30A52C1F3130140F2FF3341F436
:1008400080119A4202DA00200146704740F2334399
:100850009A42A2F2334202DC5242FFF7E3BEFFF7B4
:10086000D2BE000030B5041E71F1000404DB4FF06D
:100870000044404264EB0101141E73F1000405DBE7
:100880001C464FF00043524263EB0403994208BFF9
:10089000904230BD064C074D06E0E06840F0010391
:1008A00094E8070098471034AC42F6D3FFF770FC89
:1008B000785900089859000870B5064601F0A2F86A
:1008C0004FF47A74E621204602F0FAFE65002846CD
:1008D00001F006F901F086F8204601F001F9E62161
:1008E000204602F0DDFE012E04D0022E05D0032E9C
:1008F00008D105E003F04AF804E003F057F801E0FE
:1009000003F064F840F6B836304601F0E9F8E62125
:10091000204602F0C5FE00F0C7FC304601F0E0F8CA
:10092000E621204602F0DEFE284601F0D9F801F06B
:1009300069F8284601F0D4F8E621204602F0B0FE1E
:10094000204601F0CDF801F0BFFA304601F0C8F8BA
:10095000E621204602F0A4FE204601F0C1F802493B
:100960000878401C087070BD1100002070B5012887
:1009700004D0022805D0032808D105E003F006F8CA
:1009800004E003F013F801E003F020F84FF47A7468
:10099000E621204602F072FEA00001F0A1F801F06D
:1009A00021F8204601F09CF8E621204602F078FE6E
:1009B000600001F095F800F077FC40F6B835284665
:1009C00001F08EF8E621204602F08CFE204601F070
:1009D00087F801F017F8204601F082F8E62120465A
:1009E00002F05EFE204601F07BF801F06DFA284629
:1009F000BDE8704001F074B870B5044600F054FCD6
:100A0000012C04D0022C05D0032C08D105E002F003
:100A1000BDFF04E002F0CAFF01E002F0D7FF41F29F
:100A20008834204601F05CF84FF47A75E6212846B8
:100A300002F058FE284601F053F800F0D3FF284694
:100A400001F04EF8E621284602F02AFE4FF4167017
:100A500001F046F801F038FA40F6B83001F040F8FD
:100A6000E621284602F0F8FD204601F039F800F0B2
:100A7000C9FF284601F034F8E621284602F010FEAE
:100A80002846BDE8704001F02BB800002DE9F04782
:100A9000354E3078B0BB354C6427DFF8D4902078E1
:100AA0000125DFF8D0804FF0000A10284BD2DFE894
:100AB00000F0080F2F4D0F354D0F393B424D444D7F
:100AC0005456A9F80070962364223570594221E0EB
:100AD000607818B9052002F035FF6570B8F900009C
:100AE00088B100BFA9F800703570B8F902109623DC
:100AF000C82200F0F5FC84F801A0A8F800A0A8F82E
:100B000002A01DE01FE0B8F802100029EAD11AE0A7
:100B1000012004E0002000F0E3FC11E00220FFF7D8
:100B20006BFF0DE00320FAE7A9F8007096233570FB
:100B300064221149EEE7012000E00220FFF716FFD2
:100B40002078401C20700020BDE8F0879623A9F88B
:100B50000070357064221946DCE70320EEE784F864
:100B600000A00120F0E70000700000202600002017
:100B7000760000201A000020D4FEFFFF2DE9F05F70
:100B8000474E307800287BD1464C6427DFF8189117
:100B900021780125DFF8148182464FF4967B1029D5
:100BA0006ED2DFE801F00816235A2C490C2C500CA9
:100BB000555A640C70753EA004F0B2F9217840A03B
:100BC00004F0AEF9A9F800709623642235705942FA
:100BD00011E03BA004F0A4F96078C8B93CA004F08F
:100BE0009FF911E0B8F80210B1B949E034A004F05F
:100BF00097F9012024E0002000F072FC3DE030A0D5
:100C000004F08EF9607818B9052002F09BFE65703B
:100C1000B8F900000028E5D0A9F800703570B8F9DF
:100C200002109623C82200F05BFC84F801A0A8F80B
:100C300000A0A8F802A020E021A004F071F9022091
:100C4000FFF7DAFE19E01EA004F06AF90320F7E7C7
:100C50001BA004F065F901200DE019A004F060F973
:100C6000A9F800709623357064225946C3E714A092
:100C700004F056F90220FFF779FE2078401C20701E
:100C80000020BDE8F09F0EA004F04AF90320F2E72F
:100C90000BA004F045F984F800A00120F1E7000062
:100CA0007000002026000020760000201A0000209E
:100CB00074382E7478743D2273643122FFFFFF0074
:100CC00074392E7478743D22256422FFFFFF0000E2
:100CD00074382E7478743D2273643222FFFFFF0053
:100CE0002DE9F05F4B4D287800287BD1DFF8288173
:100CF00064264A4F98F800100124DFF824A18146A9
:100D00006FF0950B0F296DD2DFE801F00825582A06
:100D10003B422A4E585358616F787D0041A004F041
:100D2000FFF898F8010030BB42A004F0F9F81DE08C
:100D30004A88002A56D03E802C70BAF902109623B9
:100D4000C82200F0CDFB88F8019098F80010491CEB
:100D500088F8001046E033A004F0E2F8012014E027
:100D600030A004F0DDF898F8010020B9052002F069
:100D7000E9FD88F80140BAF9000051460028DAD1AF
:100D8000D6E728A004F0CCF80220FFF735FE24E0D7
:100D900024A004F0C5F83E80962364222C705900EC
:100DA000002000F09DFB18E01EA004F0B9F803201D
:100DB000EBE71CA004F0B4F801200CE019A004F04B
:100DC000AFF83E8096232C7064225946E8E715A0C0
:100DD00004F0A6F80220FFF7C9FD98F80000401CB7
:100DE00088F800000020BDE8F09F0EA004F098F8FD
:100DF00096233E802C7064221946D1E709A004F0A6
:100E00008FF80320E7E707A004F08AF888F800903D
:100E10000120E8E770000020260000207600002076
:100E20001A00002074392E7478743D22256422FF44
:100E3000FFFF000074382E7478743D2273643222F0
:100E4000FFFFFF002DE9F047444E307800286CD1B9
:100E5000434C6427DFF80C8121780125DFF808A1D5
:100E600081460F2961D2DFE801F00811131A3138E9
:100E70004549534E5357636D72006078A8B93BA043
:100E800004F04EF80DE04A88A2B94EE0012021E0BE
:100E90009623A8F8007035706422194626E0607821
:100EA00018B9052002F04EFD6570BAF900005146F0
:100EB0000028E8D0A8F800703570BAF9021096231F
:100EC000C82200F00DFB84F801902BE02BA004F069
:100ED00027F80220FFF790FD24E028A004F020F876
:100EE000A8F800709623294935706422002000F08C
:100EF000F7FA17E021A004F013F8D0E71FA004F0E0
:100F00000FF80320E6E71DA004F00AF8012007E02F
:100F10001AA004F005F8BBE718A004F001F80220BD
:100F2000FFF724FD2078401C20700020BDE8F087EA
:100F300012A003F0F5FFA8F8007096236422357024
:100F40005942D3E70DA003F0EBFF0320E8E70BA025
:100F500003F0E6FF84F800900120E7E7700000202E
:100F600026000020760000201A00002074382E741D
:100F700078743D2273643222FFFFFF0074392E74AF
:100F800078743D22256422FFFFFF0000D4FEFFFF9E
:100F90002DE9F05F404E3078002864D13F4C642743
:100FA000DFF8FC802178DFF8FCB00125DFF8F8A03D
:100FB0008146102957D2DFE801F0590811131D347A
:100FC000593B3F5944494D5963686078C0B937A0CF
:100FD00003F0A6FF10E04A88BAB944E0012024E0FB
:100FE000A8F800709623357064225946002000F05E
:100FF00077FA35E0607818B9052002F0A3FC657037
:10100000BAF9000051460028E5D0A8F80070357004
:10101000BAF902109623C82200F062FA84F801900F
:101020001EE026A003F07CFF0220FFF7E5FC17E09E
:1010300022A003F075FFDDE720A003F071FF03207D
:10104000F3E71EA003F06CFF012007E01BA003F0F4
:1010500067FFC5E719A003F063FF0220FFF786FCD6
:101060002078401C20700020BDE8F09F13A003F002
:1010700057FF9623A8F80070357064221946B5E72B
:101080000EA003F04DFF0320E8E70CA003F048FF9B
:1010900084F800900120E7E770000020260000207F
:1010A00076000020D4FEFFFF1A00002074382E7452
:1010B00078743D2273643222FFFFFF0074392E746E
:1010C00078743D22256422FFFFFF00002DE9F047E0
:1010D000374E3078C0BB374CC820374F22780125B7
:1010E000DFF8D8804FF0000A4FF064096FF09501E7
:1010F000102A4DD2DFE802F0080E2E300E36300EE8
:101100003A3C444F464F55573223388035701A4683
:10111000962123E0607818B9052002F013FC657071
:10112000B8F9000088B100BFA7F8009035703223ED
:10113000B8F902101A4600F0D3F984F801A0A8F813
:1011400000A0A8F802A020E022E0B8F802100029D0
:10115000EAD11DE0012006E038801EE0002000F00A
:10116000BFF912E00220FFF747FC0EE00320FAE788
:10117000FA203880322335701A464FF49671EDE725
:10118000012000E00220FFF7F1FB2078401C2070D6
:101190000020BDE8F087A7F80090322335701A468A
:1011A000DCE70320EFE784F800A00120F1E700006E
:1011B0007000002026000020760000201A00002089
:1011C0002DE9F047344E307880BB344CDFF8D090B6
:1011D00001252078334F4FF0000A4FF064086FF07C
:1011E00095010A2848D2DFE800F0050C1F4A264185
:1011F0004A0C50523223A9F8008035701A469621C5
:1012000015E0607818B9052002F09CFB6570B7F90D
:10121000000008B9798849B1A9F8008035703223F7
:10122000B7F902101A4618E0012020E024E000205F
:1012300000F056F91DE0607818B9052002F082FB35
:101240006570B7F9000008B97988A9B1A9F80080DC
:101250003570B7F902109623C82200F041F984F8DE
:1012600001A0A7F800A0A7F802A002E00220FFF763
:10127000C3FB2078401C20700020BDE8F087A9F84F
:101280000080322335701A46D1E70320EFE784F857
:1012900000A00120F1E700007000002026000020DF
:1012A000760000201A00002008B5064800230093AD
:1012B000C8229FED030A0221006800F07FFD08BDEF
:1012C0000000944268000020FEE700002DE9F04194
:1012D000724C80462DED028B0F46607A002510B1CE
:1012E000012806D0D4E0012060726D4890ED000A1C
:1012F000CCE094ED0C0A6B4A10EE101A00209142DB
:101300000FDC10EE101A684A91420AD8B1EE400A7A
:101310003A46BDEEC00A414610EE100A00B200F097
:101320006DF994ED0C0A614A10EE101A4FF4A016F4
:1013300011449FED5F8AB1420AD838EE400A3A461E
:101340004146BDEEC00A10EE100A00B200F056F998
:1013500094ED0C0A574A10EE101A1144B1420CD801
:10136000B1EE400A3A4630EE480A4146BDEEC00AA8
:1013700010EE100A00B200F041F994ED0C0A4E4A4A
:1013800010EE101A4FF4202611449FED4C8AB14202
:101390000AD838EE400A3A464146BDEEC00A10EE81
:1013A000100A00B200F02AF994ED0C0A444A10EE3B
:1013B000101A1144B1420CD8B1EE400A3A4630EE50
:1013C000480A4146BDEEC00A10EE100A00B200F015
:1013D00015F994ED0C0A3B4A10EE101A4FF4A026B2
:1013E0009FED398A1144B1420AD838EE400A3A4694
:1013F0004146BDEEC00A10EE100A00B200F0FEF841
:1014000094ED0C0A314A10EE101A1144B1420CD876
:10141000B1EE400A3A4630EE480A4146BDEEC00AF7
:1014200010EE100A00B200F0E9F894ED0C0A284A18
:1014300010EE101A9FED278A1144B1420AD838EEF7
:10144000400A3A464146BDEEC00A10EE100A00B20C
:1014500000F0D4F894ED0C0A1F4A10EE101A114453
:10146000B1420CD8B1EE400A3A4630EE480A414645
:10147000BDEEC00A10EE100A00B200F0BFF801285D
:1014800006D1012500209FED150A607284ED0C0A3B
:101490002846BDEC028BBDE8F0810000340000203E
:1014A0003000002000002041000020C1000056BD97
:1014B0000000B4420000563D0000D1BC000034439F
:1014C0000000D13C00807BBC0000874300807B3C57
:1014D00000804EBC0000B44300804E3C0000000081
:1014E0002DE9F04F00EE100A2DED028B81B0B8EE21
:1014F000C00A1C4693469FED3E1A20EE010A04F0F6
:10150000DFF900EE101A0646B8EEC00A20EE010A16
:1015100004F0D6F90546801B804602F031FD00FB41
:101520000BF706FB06F005FB0500FFF716F88246F1
:1015300041EC100B009103F027FD9FED2E8B51EC39
:10154000100B53EC182BFEF727FFFFF72AF800EEDD
:10155000100A04F0B5F9B7FBF0F9A81902F010FD74
:10156000009900FB0BF741EC10AB03F00DFD53ECC1
:10157000182B51EC100BFEF70FFFFFF712F800EEDF
:10158000100A04F09DF9B7FBF0F7B8F10000E3B2E0
:1015900003D401460FFA89F204E0711BC9F100007F
:1015A000884602B29146022002F02AFCE3B241468C
:1015B0004A46042002F024FC7519E3B203D43AB27F
:1015C0002946164604E06D42784202B21646294684
:1015D000012002F015FCE3B229463246032002F056
:1015E0000FFC01B0BDEC028BBDE8F04F02F0F4BB84
:1015F00033338141666666666666F63F70B5124CA7
:101600000025237A3BB1012B0DD0022B12D00020F4
:10161000032B13D115E000F019F841F2707000F0BF
:101620005FFA01200AE0022020724FF4967000F069
:1016300057FA04E000F0B4F808B1032020722846FD
:1016400070BD0125FAE70000340000202DE9F047C5
:10165000DFF848810446154698F805004FF0000968
:1016600010B101287DD096E04C480FB2EBB290ED5E
:10167000060A484206B2002C3EDB00EE904A3A468B
:101680000120F8EEE00A20EE800ABCEEC00A10EE5F
:10169000101A02F0B5FB00EE104AD8ED060AEBB2C4
:1016A000B8EEC00A3246022020EE200ABCEEC00A84
:1016B00010EE101A02F0A4FB00EE104AD8ED060A54
:1016C000EBB2B8EEC00A3246032020EE200ABCEE90
:1016D000C00A10EE101A02F093FB00EE104AD8ED8B
:1016E000060AEBB2B8EEC00A3A4620EE200ABCEE7B
:1016F000C00A10EE101A40E0644200EE904A3A46EA
:101700000120F8EEE00A20EE800ABCEEC00A10EEDE
:10171000101A02F075FB00EE104AD8ED060AEBB283
:10172000B8EEC00A3246022020EE200ABCEEC00A03
:1017300010EE101A02F064FB00EE104AD8ED060A13
:10174000EBB2B8EEC00A3A46032020EE200ABCEE07
:10175000C00A10EE101A02F053FBEBB200EE104A72
:1017600000E013E0B8EEC00AD8ED060A324620EEDB
:10177000200ABCEEC00A10EE101A042002F040FB52
:1017800002F02AFB012188F8051004E0002088F807
:1017900005004FF001094846BDE8F08734000020FD
:1017A0002DE9F0412DED048B1546002659B155B1B8
:1017B0007D4C7E4AA379D2ED000ADFED7D8A3BB1F4
:1017C000012B4DD0ECE00020BDEC048BBDE8F08196
:1017D0000121A17177495A2802DA10F15A0F21DC50
:1017E00000EE100AD4ED0B0AB8EEC00A30EE800A03
:1017F00084ED0A0A02E000BF30EE680A10EE100A1B
:101800008842F9DA84ED0A0A02E000BF30EE280AC5
:10181000B5EEC00AF1EE10FAF8D384ED0A0A84EDB1
:101820000B0ABDE000EE100AB8EEC00A30EE800AE6
:1018300084ED0A0A02E000BF30EE680A10EE100ADA
:101840008842F9DA84ED0A0A02E000BF30EE280A85
:10185000B5EEC00AF1EE10FAF8D384ED0A0A9FE063
:1018600094ED0A0A544F30EE600A10EE100AB842A6
:1018700001DD30EE680A514B10EE100A984201D992
:1018800030EE280A4E4B94ED071AF0EEC01A11EE16
:10189000900A984203DDF7EE081A21EE211AD4EDE2
:1018A000091A70EE611A21EE008A94ED081A84ED8F
:1018B000090A00EE101A01EE218AB8EE400AB4EED1
:1018C000C08AF1EE10FA00EE101A02DDB8EE408A7E
:1018D0000EE0B8EE400AB1EE400AB4EEC08AF1EE76
:1018E00010FA05D200EE101AB8EE400AB1EE408AA6
:1018F000904610EE900AFEF741FE41EC100B31A02D
:1019000053EC102B03F00CFB18EE100AFEF736FE1A
:1019100041EC100B2FA053EC102B03F001FBBDEE9C
:10192000C89AEAB219EE100A01B2012002F0FCFADC
:10193000B1EE480AEAB2BDEEC08A18EE100A01B252
:10194000022002F0F1FA18EE100AEAB201B2032006
:1019500002F0EAFA19EE100AEAB201B2042002F02B
:10196000E3FA02F039FA94ED0A0AD8ED000A30EEF3
:10197000600AB0EEC00A10EE100AB84201DD38EE7F
:10198000C00A002010EE101AB1F17E5F0ADCE17986
:10199000491CC9B2E171032902D3E0710126A0718B
:1019A000304611E7E071FBE73400002030000020F2
:1019B0000000B4430000B44300003443000034C3CB
:1019C0000000344274322E7478743D22256622FF62
:1019D000FFFF000074332E7478743D22256622FFC9
:1019E000FFFF000008B5064800230093C8229FEDC2
:1019F000030A0321006800F0E1F908BD000074C289
:101A00006800002008B5054800230093C822B1EE05
:101A1000040A0321006800F0D1F908BD6800002025
:101A2000014800F0BDBA000058020020014800F053
:101A3000B7BA0000B802002001681823CAB2103AF1
:101A4000B2FBF3F2054B6FF30901032A9B5CC365FC
:101A500000D9091D816508467047000058590008E3
:101A600010B5014600208B698A6A4FF0C07453B1EB
:101A7000B3F5005F15D072B1012A0CD0022A0AD04A
:101A8000032A09D104E01AB1012A06D0022A03D19F
:101A9000C96AC90100D5012010BDC96AA142FAD0A6
:101AA00010BD002AF7D0012AF2D0022AF3D0032A6F
:101AB000F3D010BD30B50468256825F48025256075
:101AC000046863608368402B036803D099600068F2
:101AD000C26030BD9A600068C16030BD70470000D0
:101AE0004FF4077170B5B0FBF1F2B0FBF1F501FBFB
:101AF0001204094E03E0304600F010F86D1E002D70
:101B0000F9D1002C06D04FF47A706043BDE87040E4
:101B100000F004B870BD0000603D08000B49097872
:101B200048434FF0E021401E486100228A61086965
:101B300040F0010008610869C30701D0C003FAD56D
:101B4000086920F0010008618A6170476C0000207C
:101B500072B6FEE7704710B590B0044603AA322172
:101B6000684602F04EFA6946204600F00AF86846D8
:101B700002F014FA401E81B2684602F02DFA10B04D
:101B800010BD70B50D4604460188284602F0A1FA42
:101B9000A178284602F086FAE178284602F082FA17
:101BA000E278211D284602F07FFA284602F001FA69
:101BB00001462846BDE8704002F074BA37B58EB0D1
:101BC000154604460FAB01220A2100F0DAF86946F7
:101BD000204600F053F8040015D19DF804009DF84C
:101BE0003C10884202D0072011B030BDBDF905007D
:101BF000FEF7B3FC9FED051B53EC112BFEF73EFCEB
:101C0000FEF7CFFC28602046EEE700000000000051
:101C10000000244037B58EB0154604460FAB0122B4
:101C2000102100F0AEF86946204600F027F80400C5
:101C30001DD19DF804009DF83C10884202D0072079
:101C400011B030BD9DF80710BDF8050061F31F40CD
:101C50009DF8081040EA0160FEF77FFC9FED051B30
:101C600053EC112BFEF70AFCFEF79BFC2860204684
:101C7000E6E7000000000000000024402DE9F041EC
:101C8000054600200C4681F837000646804664274A
:101C900062E0012000F0F6FAA86802F07FF9A8B32C
:101CA00094F83700010716D5A86802F0F9F984F80E
:101CB000360094F8370040F0100084F837002046D2
:101CC000FFF749FF94F83610884202D00620BDE89D
:101CD000F0810020FBE741070ED5A86802F0E0F98B
:101CE000A119761C0871E078F6B2B04234D194F8AC
:101CF000370040F008000EE081070FD5A86802F019
:101D0000CFF9E0702D2802D90520E0E724E094F80F
:101D1000370040F0040084F837001DE0C0070CD005
:101D2000A86802F0BDF9A070112801D90420CEE7FF
:101D300094F8370040F00200EDE7B8F1000F03D04F
:101D4000B8F1050F0DD005E0A86802F0A9F98046AA
:101D5000052801D04FF000087F1EBFB299D20220A3
:101D6000B5E7A86802F09CF948EA0028A8F5E05118
:101D70000539EFD1A4F8008094F8370040F0010055
:101D8000C9E770B58EB0044644F61240ADF80000C5
:101D90008DF802108DF803200021684603E05D5C99
:101DA0004618491C35719142F9DB6168FFF7E9FE7D
:101DB000204603F07AF80EB070BD00002DE9F04126
:101DC00016462DED028B86B00F4680461D46B0EEBE
:101DD000408A03AA072168460E9C02F012F918EE09
:101DE000100A1D49884202DD9FED1C8A06E018EEAC
:101DF000100A1B49884201D99FED1A8A3946684664
:101E000002F050F9B2EE040A28EE000ABDEEC00A54
:101E100010EE100A01B2684602F055F931466846E4
:101E200002F057F92946684602F053F90DF10D0307
:101E3000072208214046FFF7A4FF5CB10022B0EE64
:101E4000480A3946404600F00FF806B0BDEC028B58
:101E5000BDE8F0810020F8E700003443000034437F
:101E6000000034C3000034C32DE9F04115462DEDC8
:101E7000028B82B0B0EE408A0F46804600244FF0BD
:101E80007E566A463946404615B1FFF7C3FE01E06B
:101E9000FFF794FE9DED000A38EE400AF0EEC00A0E
:101EA00010EE900AB04205DC002002B0BDEC028BBF
:101EB000BDE8F081641CA4B2642C01D30120F4E7D6
:101EC000642000F0DFF9DCE708B506480023009342
:101ED000C8229FED030A02210068FFF76FFF08BDCB
:101EE0000000AEC2680000202DE9F0410446876D75
:101EF00000F0D2FA064694F835000025022806D0F4
:101F00008020606584F834500120BDE8F0812068AD
:101F1000016821F0160101602068416921F080010B
:101F20004161206C08B9A06C20B12068016821F0E3
:101F3000080101602068016821F0010101600CE0E6
:101F400000F0AAFA801B052807D92020606503202D
:101F500084F8350084F83450D7E720680068C0075B
:101F6000EED194F85C103F208840B860012084F8DE
:101F7000350084F834500020C7E790F83510022966
:101F800003D08021416501207047052180F835107C
:101F90000068016821F00101016000207047000025
:101FA0002DE9F84304464FF00009CDF8009063484E
:101FB0004FF41651A56D0068B0FBF1F72E6894F848
:101FC0005C10082000FA01F131420FD021680A6844
:101FD00052070BD50A6822F004020A6094F85C10DC
:101FE0008840A860606D40F00100606594F85C1066
:101FF0004FF0010808FA01F0304208D02168496921
:10200000090604D5A860606D40F00200606594F890
:102010005C1004208840304208D021680968890794
:1020200004D5A860606D40F00400606594F85C1011
:1020300010208840304218D021680968090714D55B
:10204000A86020680168490304D50068000308D52A
:10205000A16C07E00168C90503D4016821F00801FB
:102060000160216C09B12046884794F85C1020205B
:102070008840304231D021680968C9062DD5A86052
:1020800094F8350005282068016806D0490347D533
:10209000006800031DD4616C1CE021F01601016092
:1020A0002068416921F080014161206C08B9A06C71
:1020B00020B12068016821F00801016094F85C10EB
:1020C0003F208840A86084F8358084F83490216DE2
:1020D0001FE0E16B09B120468847606D00282BD0D6
:1020E000606DC00714D0052084F8350020680168B1
:1020F00021F0010101600098401C0090B84203D813
:1021000020680068C007F6D184F8358084F83490E0
:10211000E16C002910D001B02046BDE8F04308472B
:102120000168C905D5D4016821F01001016084F867
:10213000358084F83490CCE7BDE8F8830C000020AB
:102140002DE9F041044600F0A7F906465CB10220F3
:1021500084F83500002584F834502068016821F0A7
:10216000010101600DE00120BDE8F08100F094F96B
:10217000801B052805D920206065032084F83500E0
:10218000F2E720680068C007F0D122681168204893
:102190000140D4E901031843D4E90336334318431B
:1021A00063691843A3691843E3691843236A184312
:1021B0000843616A042903D1D4E90B131943084386
:1021C000106020684069666A20F0070130460E43BF
:1021D000012704280CD1A06A0643E06A40B12046DA
:1021E000FFF73EFC20B14020606584F83570BAE707
:1021F000206846612046FFF71FFC94F85C203F21D1
:1022000091408160656584F835700020ACE700007E
:102210003F8010F02DE9F0410446866D90F83400BF
:10222000002501280DD0012084F8340094F8357081
:102230000020012F07D084F8340002252846BDE88D
:10224000F0810220FBE7022784F8357060652046A4
:10225000FFF730FC94F85C103F208840B0602068A5
:10226000016841F016010160206C20B1206801680E
:1022700041F0080101602068016841F0010101603E
:10228000DCE7000070B5044600F006F90546601C66
:1022900002D004480078044400F0FEF8401BA0423D
:1022A000FAD370BD000000202DE9F84FDFF8BCA183
:1022B0000022012503264FF00F090AF1040BAAF1B1
:1022C000040E00BF0B6805FA02F42340A34270D14C
:1022D0000F7907F00307012F01D0022F16D187686D
:1022E0004FEA420806FA08FC27EA0C07D1F80CC0AE
:1022F0000CFA08FC4CEA070CC0F808C04768A74372
:102300000C79C4F3001494403C4344600C79E443DA
:10231000A4070AD0C4684FEA420C06FA0CF7BC4383
:102320008F6807FA0CF72743C7600C7904F00304A1
:10233000022C12D1D40800EB840CDCF820405707A3
:10234000FF0E09FA07F824EA0804D1F8108008FA09
:1023500007F848EA0408CCF8208004684FEA420CE9
:1023600006FA0CF7BC430F7907F0030707FA0CF7DE
:10237000274307604C6814F4403F70D03C4C2768FA
:1023800047F480472760246822F0030704F4804460
:102390000094384C07EB040CDCF8084897074FEA28
:1023A000177809FA08F7BC43334FB84202D1002727
:1023B00024E054E0314FB84201D101271EE0304FF4
:1023C000B84201D1022719E02E4FB84201D10327AC
:1023D00014E02D4FB84201D104270FE02B4FB84233
:1023E00001D105270AE02A4FB84201D1062705E0AE
:1023F000284FB84201D1072700E0082707FA08F75D
:102400002743CCF80878DAF800405746D1F804C0E2
:102410009C435FEACC2C00D51C433C60DBF80040B9
:102420005F46D1F804C09C435FEA8C2C00D51C4366
:102430003C60DEF800407746D1F804C09C435FEA78
:102440008C3C00D51C433C60084F083F3C68D1F8E9
:1024500004C09C435FEACC3C00D51C433C60521C4A
:10246000102AFFF42FAFBDE8F88F0000083C0140B0
:1024700044380240003001400000024000040240A5
:1024800000080240000C024000100240001402400C
:1024900000180240001C024001488068704700009C
:1024A0000000002002488168027811448160704772
:1024B000000000200B4810B5016841F40071016074
:1024C000016841F480610160016841F4807101603C
:1024D000032000F077F80F2000F006F800F024F851
:1024E000002010BD003C024070B50D4D04464FF475
:1024F0007A712878B1FBF0F00A490968B1FBF0F075
:1025000000F012FB48B9102C07D200222146501EC1
:1025100000F038F800206C6070BD012070BD000034
:10252000000000200C0000200E4808B5016841F4AE
:1025300080410160006800F4804000900948001F5D
:10254000016841F0805101600068002200F0805075
:1025500000901146512000F015F8BDE808405120C8
:1025600000F002B844380240002809DB00F01F02E6
:10257000012191404009800000F1E020C0F80011E5
:1025800070470000F0B40E4B1B680C46C3F30223E7
:10259000C3F10705042D00D90425191D072901D20F
:1025A000002300E0DB1E012606FA05F1491E21404A
:1025B00099409E40761E16403143F0BC02F0D4BCD8
:1025C0000CED00E0064900F0070208684FF6FF0333
:1025D000184040EA0220034A104308607047000098
:1025E0000CED00E00000FA052DE9F0470E4605006D
:1025F00065D0DFF81481D8F80000F7B200F00700CA
:10260000B04207D288F80070D8F8000000F0070048
:10261000B04254D128683D4C810712D5400703D5FC
:10262000206840F4E05020602878000703D5206837
:1026300040F4604020602068A96820F0F000084362
:1026400020602878C0072DD03049686808390128F3
:1026500012D0022813D0032811D009688907002955
:102660002DDA216821F0030101432160FFF714FFF7
:10267000814641F2883A0EE009688903EFE709686C
:102680008901ECE7FFF708FFA0EB0901514502D9EA
:102690000320BDE8F0872068696800F00C00B0EB0B
:1026A000810FEFD1D8F80010404601F00701B14288
:1026B00007D90770006800F00700B04201D0012080
:1026C000E7E72878400705D52068E96820F4E0505E
:1026D000084320602878000706D52068296920F47F
:1026E000604040EAC100206000F038F82168084AE4
:1026F000C1F30311515CC8400649086006480068F0
:10270000FFF7F2FE0020C4E7003C02400838024018
:10271000605900080C00002004000020044805490E
:1027200000680968044AC1F38221515CC8407047BF
:102730000C00002008380240705900080448054980
:1027400000680968044AC1F34231515CC8407047CF
:102750000C0000200838024070590008154810B5D8
:10276000006810F00C02144813D04110042A0FD056
:10277000082A0ED10F4C241F2268236802F03F0262
:102780005B0207D52068C0F38810A0FB010106E0BA
:10279000084610BD2168C1F38811A1FB0001002388
:1027A000FDF710FD2168C1F30141491C4900B0FB50
:1027B000F1F010BD083802400024F4002DE9F84F74
:1027C00004006ED02078DFF84C93C007A9F104050F
:1027D0004AD009F104000168C1F38101012908D040
:1027E0000068C0F3810002280AD1D9F80000400235
:1027F00006D52868800337D560680028E1D033E02B
:102800006068B0F5803F10D0B0F5A02F286810D0D8
:1028100020F480302860286820F4802028606068D8
:10282000A8B1FFF739FE06460DE0286840F4803075
:10283000F4E740F480202860F7E700BFFFF72CFEA4
:10284000801B642873D828688003F7D50CE0FFF755
:1028500023FE064605E000BFFFF71EFE801B64282E
:10286000F0D828688003F7D42078DFF8AC8280079E
:102870004FF0000A3ED5A748001D016811F00C0F6B
:1028800008D00068C0F3810002280BD1D9F80000FD
:10289000400207D42868800716D5E068012800D1D7
:1028A00012E033E1E068B8B10120C8F80000FFF79A
:1028B000F3FD064605E000BFFFF7EEFD801B022892
:1028C000C0D828688007F7D52868216920F0F8006B
:1028D00040EAC10028600DE0C8F800A0FFF7DCFD69
:1028E000064604E0FFF7D8FD801B02281FD82868A1
:1028F0008007F7D42078000722D5864F8748616982
:10290000703771B101210160FFF7C6FD064604E092
:10291000FFF7C2FD801B022809D838688007F7D569
:102920000EE0C0F800A0FFF7B7FD064605E082E024
:10293000FFF7B2FD801B02287DD838688007F7D4E6
:102940002078400768D5DFF8CCB100270BF13C0BAD
:10295000DBF80000C0000BD4DBF8001041F0805120
:10296000CBF80010DBF80000012700F08050009049
:102970006B4E3068C00510D4306840F48070306011
:10298000FFF78AFD009005E0FFF786FD0099401AE9
:10299000022850D83068C005F6D55E4EA0686C3667
:1029A00001280FD00528306810D020F001003060D9
:1029B000306820F004003060A068B8B1FFF76CFD0B
:1029C00000900FE0306840F00100F4E740F00400B0
:1029D0003060F7E7FFF760FD0099411A41F2883057
:1029E000814266D830688007F4D50EE0FFF754FDC9
:1029F000009007E0FFF750FD0099411A41F288303E
:102A0000814256D830688007F4D42FB1DBF800102B
:102A100021F08051CBF80010A069C8B33D49091DD1
:102A20000968C1F3810102294AD00228504607D023
:102A3000C8F8600000E03CE0FFF72EFD04463BE0F4
:102A40004746C8F86000FFF727FD064605E000BFCF
:102A5000FFF722FD801B02282BD828688001F7D4BD
:102A6000D4E907010843A16A2E4A490802EB014153
:102A7000626A41EA8211084394F82C1040EA01612D
:102A8000C9F8001001203866FFF706FD044606E08D
:102A90003EE000BFFFF700FD001B022809D82868B0
:102AA0008001F7D534E000BFFFF7F6FC001B0228D9
:102AB00002D90320BDE8F88F28688001F4D427E00C
:102AC0000128F7D0D9F80000E26900F480019142B2
:102AD0001CD1226A00F03F01914217D147F6C07124
:102AE000626A0140B1EB821F10D1A26A4FF0FF333E
:102AF00000F4403103EB5202B1EB024F06D194F8DF
:102B00002C1000F07060B0EB016F01D00120D1E714
:102B10000020CFE70438024000004742800E4742C1
:102B2000007000400000FFFF10B5401EB0F1807F34
:102B300001D3012010BD4FF0E02460610F21601728
:102B400002F012FA0020A06107202061002010BDD1
:102B50007047704770B590F83C20012A32D00124AC
:102B600080F83C40022280F83D2003685A689D6846
:102B700022F070060A6832435A60134B02689A4288
:102B800014D0B2F1804F11D0104B9A420ED0104B9E
:102B90009A420BD00F4B9A4208D00F4B9A4205D065
:102BA0000E4B9A4202D00E4B9A4204D1496825F04E
:102BB00080031943916080F83D40002180F83C106B
:102BC000084670BD022070BD0000014000040040B6
:102BD00000080040000C004000040140004001409B
:102BE0000018004010B5040003D094F83D0010B167
:102BF00007E0012010BD002084F83C00204600F0D2
:102C00001FF8022084F83D00211D206801F026FEF7
:102C1000012084F8460084F83E0084F83F0084F8E0
:102C2000400084F8410084F8420084F8430084F8AE
:102C3000440084F8450084F83D00002010BD0000E9
:102C400008B500680B49884212D10B48016841F071
:102C5000100101600068002200F010000090114691
:102C60003620FFF78FFCBDE808403620FFF77CBC1C
:102C700008BD0000001000404038024090F83D10B0
:102C8000012901D001207047022180F83D10016820
:102C9000CA6842F00102CA6000681149884214D033
:102CA000B0F1804F11D00F4988420ED00E498842B2
:102CB0000BD00E49884208D00D49884205D00D49F5
:102CC000884202D00C49884204D1816801F0070192
:102CD000062903D0016841F001010160002070471E
:102CE000000001400004004000080040000C0040CB
:102CF00000040140004001400018004070472DE9E9
:102D0000F04104460068C66805694FF00007A9074E
:102D100013D5B10711D5F91E016101202077206874
:102D200080698007204602D0FFF7E8FF04E000F04A
:102D30007EF8204600F07CF82777680716D57007E4
:102D400014D521686FF00400086102202077206804
:102D5000806910F4407F204602D0FFF7CFFF04E0E7
:102D600000F065F8204600F063F82777280715D5AE
:102D7000300713D521686FF0080008610420207720
:102D80002068C0698007204602D0FFF7B7FF04E043
:102D900000F04DF8204600F04BF82777E80616D5EE
:102DA000F00614D521686FF0100008610820207724
:102DB0002068C06910F4407F204602D0FFF79EFFD4
:102DC00004E000F034F8204600F032F82777E807F6
:102DD00008D0F00706D021686FF001000861204696
:102DE00000F028F8280608D5300606D521686FF0CF
:102DF000800008612046FFF7ABFE680608D5700624
:102E000006D521686FF040000861204600F058F8B0
:102E1000A8060AD5B00608D521686FF02000086121
:102E20002046BDE8F041FFF794BEBDE8F081704751
:102E3000704700001E4910B5884237D11D4C002054
:102E40002178012901D051B10AE0A188491C89B239
:102E5000A180E288914203D3A080207000E0A0808E
:102E60006178012901D051B10AE06189491C89B218
:102E700061812289914203D36081607000E06081AA
:102E8000A189491C89B2A181B1F57A7F0ED3A081B5
:102E90009FED090B0120A07053EC102B94ED040B57
:102EA00051EC100BFDF772FAC4E9040110BD0000EB
:102EB000A80000207000002079E9263108AC7C3F92
:102EC0007047704710B504460068406994F8411097
:102ED000C0F3C010212911D180B12068143050E80E
:102EE000001F21F0800140E80012002AF5D1A06BFC
:102EF00008B1FEF7F9FF204601F0EEFD20684069B9
:102F000094F84210C0F38010222911D180B12068BA
:102F1000143050E8001F21F0400140E80012002A60
:102F2000F5D1E06B08B1FEF7DFFF204601F0ADFD03
:102F3000002010BD70470000F8B50168044608681D
:102F4000CA684B6910F00F0F4FF0000559D003F01D
:102F5000010602F49077374365D0C10705D0D1054B
:102F600003D5616C41F001016164410705D5D907C2
:102F700003D0616C41F002016164810705D5D90776
:102F800003D0616C41F004016164010707D502F0D0
:102F90002001314303D0616C41F008016164616C30
:102FA00000293AD0800604D5900602D5204601F0CB
:102FB000A1FD20684069616CC0F38010090700D44E
:102FC00060B3204601F061FD20684069400621D5CC
:102FD0002068143050E8001F21F0400140E8001242
:102FE000002AF5D1E06BA8B16E490165E06BFEF7F0
:102FF000C4FF002811D0E06B016D01B0BDE8F040C6
:10300000084783060FD593060DD52046BDE8F84046
:1030100001F070BD2046FFF78DFFF8BD2046FFF799
:1030200089FF6564F8BD266B2023012E7DD1C6067D
:103030007BD5D60679D508684868009048694FF076
:103040000206400641D5E16B086840680004000CA8
:10305000E8D0A28D8242E5D9E085C869B0F5807FCD
:103060002DD020680C3050E8001F21F4807140E81A
:103070000012002AF5D12068143050E8001F21F01A
:10308000010140E80012002AF5D12068143050E810
:10309000001F21F0400140E80012002AF5D184F819
:1030A0004230256320680C3050E8001F21F01001E9
:1030B00040E80012002AF5D1E06BFEF715FF6663C9
:1030C000A08DE18D401A81B22AE0A08DE18D401AD9
:1030D00081B2E08D0028A5D00029A3D022680C324F
:1030E00052E8000F20F4907042E80007002FF5D15D
:1030F0002068143050E8002F22F0010240E8002739
:10310000002FF5D184F84230256320680C3050E858
:10311000002F22F0100240E80023002BF5D1666357
:103120002046FFF7CEFEF8BDFFE705062BD51506B6
:1031300029D594F841002128F5D1A068B0F5805F29
:1031400001D12069B0B1206A411C21622168007858
:103150004860E08C401E0004000CE084E3D120684D
:10316000C16821F08001C1602068C16841F0400160
:10317000C160D8E7206A0088C0F308004860206A70
:10318000801C2062E5E74006CDD55006CBD5CA6845
:10319000204622F04002CA6084F8413000F058FA1C
:1031A000C1E700004149000870B5040004D094F85C
:1031B0004100002510B106E0012070BD84F84050A8
:1031C000204600F023F8242084F841002068C168DC
:1031D00021F40051C160204601F0EEFC2068016935
:1031E00021F4904101612068416921F02A01416187
:1031F0002068C16841F40051C1606564202084F8F2
:10320000410084F842006563002070BD2DE9F04163
:1032100086B0064614216846FDF70CF88548844BB5
:10322000D6F800C08349103803250227824A0024BB
:103230004FF008089C451BD10B6843F400230B603A
:10324000096801F400210591016841F00101016064
:103250000068CDE9005700F00100CDE9048069461F
:103260001046CDE90245FFF71FF806B0BDE8F08132
:10327000724B9C4532D10A6842F480120A60096898
:1032800001F480110591016841F0040101600168B9
:1032900001F004010591016841F008010160006836
:1032A00002AA00F0080005909814CDE9000782E812
:1032B000300169466248FEF7F7FF0420CDE90007B8
:1032C00002AA694682E830015E48FEF7EDFF00225F
:1032D00011463520FFF756F9352027E0DFF86881E1
:1032E0000723C44525D15349091D0E6846F0100631
:1032F0000E60096801F010010591016841F00101BB
:1033000001600068029400F0010005904FF4C06075
:10331000CDE90007CDE9035369461046FEF7C4FF27
:10332000002211462520FFF72DF92520FFF71CF973
:103330009BE7DFF81881C44554D1D1F800C04CF4A4
:10334000003CC1F800C0096801F400310591016832
:1033500041F0010101600068029400F00100059055
:103360000C20CDE90007CDE9035369461046FEF76E
:103370009BFF384D36484FF000672860C5E901745F
:103380004FF48068C5E903486C614FF44030AC618C
:10339000C5E9074028466C62FEF7D2FE08B1FEF789
:1033A000D7FBF563AE632B4D294860351830E5E84F
:1033B00002074020A5E81101264845F8144960306D
:1033C000AC61EC612C626C62FEF7BAFE08B1FEF7EC
:1033D000BFFBB563002211462620AE63FFF7D2F88B
:1033E0002620A3E71C4A9445A2D10A6842F4802211
:1033F0000A60096801F480210591016841F0020129
:1034000001600068029400F0020005904FF44060F3
:10341000CDE90007CDE9035369461048FEF744FFA4
:10342000002211462720FFF7ADF827207EE7000095
:10343000004C004040380240000002400050004074
:1034400000080240000C024000100140004400400F
:1034500088600240580200200048004000040240FA
:1034600090F84230202B01D00220704721B11AB1D0
:103470000023036301F026BC0120704790F842301E
:10348000202B01D00220704721B11AB10023036321
:1034900001F060BC0120704770B504460068134914
:1034A000884207D1204601F0B9FC0100104800D045
:1034B000012101700F492068884203D10E4800782D
:1034C00000F0E6FB0D4D2068A84202D1204600F036
:1034D00019F82068A84202D1204600F09DF9BDE805
:1034E0007040012204490648FFF7C8BF00100140A0
:1034F00010000020004800403E0000200050004026
:103500001002002010B5094C006821680968884243
:103510000BD107480178A06800F0ADFD2068BDE838
:10352000104001220249FFF7A9BF10BD6407002027
:103530008800002070472DE9F843044690F84100C8
:10354000984616460D46202802D00220BDE8F88392
:1035500085B17EB100206064212084F84100FEF72F
:103560009BFFA6848146E684A0682027B0F5805F93
:1035700002D003E00120E9E7206910B12E460025C2
:103580000EE000260CE08021204601F0FEFBA8B9E9
:10359000C6B116F8010B21684860E08C401EE0843B
:1035A000E08C4B464FF00002CDF800800028EAD1B5
:1035B0004FF04001204601F0E8FB40B184F8417033
:1035C0000320C3E735F8020BC0F30800E3E784F8F3
:1035D00041700020BAE7000070B5044690F8410041
:1035E000202801D0022070BD49B342B32162A284D9
:1035F000E28400206064212384F84130A56B114BE4
:10360000EB63A56B104B2B64A56B104BEB64A36BAA
:103610001865256813462A1DA06BFEF7FBFD21687F
:103620006FF0400008602068143050E8001F41F03F
:10363000800140E80012002AF5D1002070BD012071
:1036400070BD00003F4A0008814A00085149000847
:1036500070477047FEE70000074B10B501225A7013
:10366000CBB202B243F23811052000F00BFCBDE8EA
:10367000104000F0B1BB000034000020074B10B533
:1036800002225A70CBB202B243F2D401052000F0FC
:10369000F9FBBDE8104000F09FBB000034000020A3
:1036A000064B10B500225A70CBB202B200210520A1
:1036B00000F0E8FBBDE8104000F08EBB34000020B5
:1036C000074B10B504225A70CBB202B24FF47A61A4
:1036D000052000F0D7FBBDE8104000F07DBB0000E6
:1036E00034000020074B10B505225A70CBB202B24D
:1036F00040F6FC01052000F0C5FBBDE8104000F0DD
:103700006BBB0000340000201CB50BA1D1E9000107
:10371000CDE900010A480068C16841F01001C160AC
:103720001E2208490648FFF79BFEFF22694604480F
:10373000FFF752FF1CBD0000FFAA7600000000004A
:10374000C80100201803002070B5204D28780128FA
:103750003BD11F4C607CA17C227D0844E17C11445C
:103760000844A830617DC0B2884221D119A001F07F
:10377000D7FBB4F81100DFED1A0A00EE100A1B495E
:10378000B8EE400A20EE200ADFED160A20EE200AED
:10379000DFED150A85ED010A30EEC00A10EE100AC1
:1037A00085ED020A884203DB9FED110A85ED020ACE
:1037B000002028701E210648FCF73CFDBDE8704043
:1037C0001E2203490B48FFF74BBE70BD28000020A6
:1037D000180300204552524F52210D0A00000000EC
:1037E00000000038000034430000B4430000B4433C
:1037F00000000000C801002010B50122044905485E
:10380000FFF73CFEBDE810406420FEF769B90000F8
:1038100019000020380100202DE9F843DFF8EC8082
:103820003B4C454698F8000098F8011001222154BD
:10383000401C88F80000691C3648FFF71FFE2878F6
:10384000092815D12078002760B9207AEF2809D1FE
:1038500060780A280ED00C283CD00D284FD02EA01E
:1038600001F05EFB2A4807604760077288F8007025
:10387000BDE8F883254E0025B61D60192BA182787E
:10388000684601F05DFB9DF8000070556D1C032D2E
:10389000F3DB2B20F0700025601924A142796846E3
:1038A00001F04EFB71199DF800006D1C0871032D8D
:1038B000F2DB1649F771891D1DA001F031FB134998
:1038C0001BA0891D01F02CFB104919A0891D01F0D6
:1038D00027FBC7E72079E17840EA0110A1780A299F
:1038E00000D040420949891C0880E079A27940EA69
:1038F000021062790A2A00D040424880B2E7A078DC
:103900000228AFD10E480770ACE700001800002075
:1039100094000020380100207431302E7478743DFA
:10392000226572726F7222FFFFFF000025640000A3
:103930007431302E7478743D22257322FFFFFF000E
:10394000130000200F4A10B5002142F8091F5160F2
:1039500011720C4A093211700B215170022150541E
:10396000491C0729FBDDEF20107206494FF47A73DA
:10397000092209310448FFF7DEFDBDE8104014209C
:10398000FEF7AEB8940000203801002008B50648C4
:1039900000230093C8229FED030A01210068FEF76F
:1039A0000DFA08BD0000A4426800002008B50648D2
:1039B00000230093C8229FED030A01210068FEF74F
:1039C000FDF908BD000004C26800002008B50648E3
:1039D00000230093C8229FED030A01210068FEF72F
:1039E000EDF908BD000023C3680000200D4808B5AC
:1039F000016841F4001101600068002200F4001029
:103A0000009011461020FEF7BDFD1020FEF7ACFD22
:103A1000002211461120FEF7B5FDBDE80840112037
:103A2000FEF7A2BD30380240154808B5016841F0E4
:103A300080010160016801F080010091016841F09E
:103A400001010160016801F001010091016841F08C
:103A500002010160016801F002010091016841F07A
:103A600004010160016801F004010091016841F066
:103A700008010160006800F00800009008BD000027
:103A8000303802401CB500240F4800940D490194C1
:103A9000016042F2CF01C0E901146321C1608021BD
:103AA0008161FFF79FF808B1FEF752F8009469466C
:103AB00005480194FFF74EF8002801D0FEF748F8BA
:103AC0001CBD000000100040A80000200C4810B5EC
:103AD0000A4901604FF4E1314160002181600C220C
:103AE000C160C0E904128161C161FFF75DFB00287C
:103AF00003D0BDE81040FEF72BB810BD004C0040CD
:103B0000F00000200C4810B50A4901604FF4E13183
:103B10004160002181600C22C160C0E90412816112
:103B2000C161FFF741FB002803D0BDE81040FEF75C
:103B30000FB810BD00500040380100200C4810B5EF
:103B40000A4901604FF461214160002181600C222B
:103B5000C160C0E904128161C161FFF725FB002843
:103B600003D0BDE81040FDF7F3BF10BD00100140C9
:103B7000800100200C4810B50A4901604FF4E13182
:103B80004160002181600C22C160C0E904128161A2
:103B9000C161FFF709FB002803D0BDE81040FDF725
:103BA000D7BF10BD00440040C80100200C4810B52C
:103BB0000A4901604FF4E1314160002181600C222B
:103BC000C160C0E904128161C161FFF7EDFA00280C
:103BD00003D0BDE81040FDF7BBBF10BD004800405A
:103BE00010020020FEE700000B4910B50870F3201A
:103BF0004870AB2088700120C870002008716B20CD
:103C000048714FF47A7306220448FFF794FCBDE82C
:103C100010400A20FDF764BF4A0300201002002074
:103C200010B50120FFF7E0FF0220FFF7DDFF0320C2
:103C3000FFF7DAFF0420FFF7D7FFBDE810400520AB
:103C4000FFF7D2BF104810B50068C16841F02001ED
:103C5000C16001220D490C48FFF710FC052000F05F
:103C60008DF8012000F08AF8022000F087F8032088
:103C700000F084F8042000F081F86420FDF730FFA4
:103C8000BDE81040FFF7CCBF100200203E0000202E
:103C9000F0B5384A012411461779CB78591CCEB2B9
:103CA0003549C7B10225012F1ED0022F12D1D0787D
:103CB00001EB400030F8023C00206B2B1DD010714E
:103CC000D07015705FF0000221F81200521CD2B2C1
:103CD0000A2AF9D3F0BD012801D00528FAD11471C0
:103CE00021F81300D670F0BD21F81300D6700A2E0B
:103CF00001D26B28F7D11571D9E7D07010710B88FC
:103D0000012B02D0052B10D01AE04B88FD2B17D1C8
:103D10008B889F2B14D114705FF0000221F81200E1
:103D2000521CD2B2042AF9D3F0BD4B88FD2B02D02D
:103D3000272B18D004E08B889F2B01D1937843B1B7
:103D40005FF0000221F81200521CD2B20A2AF9D305
:103D5000F0BD94705FF0000221F81200521CD2B244
:103D6000042AF9D3F0BDC888097940EA012090817E
:103D7000F0BD000034000020360300202DE9F041A2
:103D8000134C05466B262070FE2060709820A070B2
:103D90000020E0704FF47A7726713B4605222146D9
:103DA0000C48FFF7C8FB0A20FDF79AFE25700A2091
:103DB00060706D20A070E6703B46042221460548E5
:103DC000FFF7B9FBBDE8F0410A20FDF789BE00000E
:103DD0004A03002010020020074800214FF47A73A4
:103DE0000170FF214170662181706B21C170014615
:103DF00004220248FFF79FBB4A0300201002002064
:103E000070B50446104600F0BBF885B21A48FD268E
:103E1000012C0470467005D0042C03D0002A03DB6B
:103E2000012202E0002AFBDB002282702A0AC27013
:103E3000057143710A0E82710A0CC2710A0A02727C
:103E40004172002585720121C1726B2101734FF40B
:103E50007A730D2208490948FFF76DFB012C05D143
:103E6000074C0A202570FDF73BFE2570BDE8704029
:103E70000A20FDF735BE00004A0300201002002092
:103E80003400002070B50446104600F079F885B281
:103E90002248FD26012C0470467005D0042C03D066
:103EA000002A03DB012202E0002AFBDB00228270F1
:103EB0002A0AC270057143710A0E82710A0CC2711E
:103EC0000A0A0272417201218172C1726B2101736F
:103ED0004FF47A730D2211491148FFF72CFB0A2089
:103EE000FDF7FEFD0D4A0F4B0021143A012C0BD0BB
:103EF000052C08D10020997022F81010401CC0B287
:103F00000428F9D3997070BD0020197022F81010A0
:103F1000401CC0B20428F9D370BD00004A03002041
:103F2000100200203400002070B50346084600F05F
:103F300027F884B21048F625037045700125012B3F
:103F400017D0042B15D005EBE1718170210AC170E7
:103F50000471427185716B21C1714FF47A7308222B
:103F600005490648FFF7E7FABDE870400120FDF774
:103F7000D5BDC90FE9E700004A0300201002002068
:103F8000002800DA40427047FEE7704700B5038919
:103F90005B1E00F003F8181A80B200BD8288C18849
:103FA0008A4203D90089511A401A00E0881A80B267
:103FB0007047F0B50746FFF7F1FF00240646254697
:103FC00006E0A9B2384600F007F82044C4B26D1CE0
:103FD000B542F6DB2046F0BD10B50C460346FFF7B0
:103FE000DDFFA04201D8002010BD9888641C19890B
:103FF0002044B0FBF1F201FB1200196880B2085CAA
:1040000010BD026000228280C280491C01811146DD
:1040100003E003685A54491C89B203898B42F8D8DB
:10402000704710B50446FFF7B1FF2189491E89B2D8
:10403000884201D1012010BD002010BD00B5FFF75E
:10404000A5FF08B1002000BD012000BD10B5044649
:10405000FFF7E7FF08B1002010BDA0882189401CB0
:10406000B0FBF1F201FB120081B2A18022680023B3
:10407000505C535410BD30B50D460446FFF7DEFFCB
:1040800010B12046FFF7E2FFE0882189401CB0FB19
:10409000F1F201FB120080B2E08021680D5430BDC6
:1040A000FFF7D4BFFFF7E7BFF0B515460E4607464A
:1040B000002405E0315D3846FFF7DDFF641CA4B243
:1040C000AC42F7D3F0BD03B501A90222FFF7ECFF24
:1040D0000CBD03B501A90222FFF7E6FF0CBD704736
:1040E0000149002008717047100000202DE9F05FA1
:1040F000F748F749012590F804C0F7488B7891F804
:1041000003A00478F548F34E4978877890F804B016
:10411000427980794FF0500E4FF49679BCF1090F37
:1041200020D2DFE80CF0057EBFF2F1F0EFEE2100C7
:1041300000231A4619461846FDF7D2F9E44CE8A0C8
:10414000617800F0EDFE2179E9A000F0E9FE207829
:10415000012807D14FF4FA60FDF7C2FC012020715D
:1041600000202070BDE8F09FDB4F0CB1012BF9D18E
:10417000D74C1D29F6D2DFE801F00F131CF220F115
:10418000F024F1F01C42F1F0EF291CF22EF1F03591
:10419000F1F01C4247EEED00C82030803D7050E049
:1041A0004FF41670308096233D70A02240F2AA5141
:1041B000ECE1A6F800E03D70B6E0C82030803D702C
:1041C0008DE04FF4487030803D7095E04FF48C7076
:1041D00030803D70D6E1C82030803D7096234A463D
:1041E000C749D3E14FF42F7030803D7082234FF4E4
:1041F000C872C449CAE1A078002838D0B2E74FF4A9
:10420000AF7030803D7000E1B5A000F089FE4FF442
:104210008C70BC49308096233D704FF4C872F531E4
:10422000B4E1AD480CB1012B9CD1A94C082999D21D
:10423000DFE801F0040D161A1E242A33C82131804C
:10424000057032231A4600216FF0950070E04FF49C
:104250001671318096230570A02240F2DC5195E161
:10426000A6F800E005705FE00420FFF76BFB60E25A
:10427000BAF1000FC2D1E57001200AE0BAF1000FD7
:10428000BCD1E570022004E0BAF1000FB6D1E570B0
:104290000320BDE8F05FFCF70FBB00206070022038
:1042A00020715FE7DFF830820CB1012BA6D1884C7A
:1042B0000A29A3D2DFE801F0050F2A51182A513448
:1042C0003F75A6F800E088F800509623C822002128
:1042D0006FF031002CE0C820308088F80050884909
:1042E00096234A46143151E17DA000F019FE4FF4A7
:1042F0009660308088F8005082498223C8221431A9
:1043000044E1F0E192E14DE107E15AE0A6F80090C6
:10431000494688F80050A7225A20FDF797F908E28D
:10432000A6F800E088F800509623C8220021322029
:10433000FDF7D6F8FDE1694801784078322904D0CC
:10434000312913D033291CD025E0312808D0332857
:1043500009D020E00CE2FDE182E1E5E1ECE132E1AF
:10436000332F71D017E0312F6FD014E0322802D0F4
:10437000332803D00FE0332F68D00CE0322F71D0F8
:1043800009E0312802D0322803D004E0322F6AD06D
:1043900001E0312F68D0092060708CE10028BED187
:1043A000E0E6A5709621C820FCF790FF10B1002030
:1043B000A07002E0A0780028F2D1002060700320F5
:1043C0006EE7454F0CB1012BEAD1414C0629E7D2EB
:1043D000DFE801F003253D444B7541A000F0A0FD4E
:1043E000217943A000F09CFD4FF4FA7030803B48E7
:1043F0003D708078312804D0322806D0332809D087
:1044000003E096234A464049C0E03F4996234A4686
:104410006439BBE03C4996234A466431B6E030A09B
:1044200000F07EFDA5709622C8216FF05900FDF7BF
:10443000B7F910B10020A07002E0A0780028AFD139
:104440006078801C60708DE61CE11EE123E124A0F1
:1044500000F066FD75E10020A0706AE120A000F088
:104460005FFDFDE01AE121E1D5E01DA000F058FD5F
:104470001A480178322904D031290CD0332914D0BC
:1044800019E14178312902D0332902D013E1807833
:10449000A7E08078AAE04178322902D0332902D0FF
:1044A00009E18078A5E08078A8E04178312902D040
:1044B000322902D0FFE08078A8E08078F9E0A5708A
:1044C0009621C820FCF702FF00B30020A07020E076
:1044D0001000002076000020700000201E00002048
:1044E00074392E7478743D22256422FFFFFF00008A
:1044F00074352E7478743D22256422FFFFFF00007E
:1045000070FEFFFF48F9FFFFF9FCFFFFA0780028CD
:1045100099D1002060700420C2E697480CB1012BAD
:1045200091D1964C0A298ED2DFE801F00A23FE28A9
:10453000090807060578A7E6A0E699E694E68FE65F
:104540004FF4AF7131800570312F04D0322F06D077
:10455000332F09D0EDE096234A46894916E0884971
:1045600096234A46643911E0854996234A466431C8
:104570000CE0A6F8009049460570CCE64FF48C712B
:10458000318005709623FA226FF4D4710020CFE6B3
:104590000020A07002E0A0780028B9D1002060704F
:1045A00005207DE6744F0CB1012BB1D1734C0A2963
:1045B000B9D2DFE801F00807C1C606C1C6050C3351
:1045C000F7E50FE607E6A6F800E03D707DE6BBF1F3
:1045D000320F54D0BBF1310F5AD0BBF1330F10D092
:1045E00069E033284ED066E0332A64D131284CD0BC
:1045F00061E033284FD05EE0332A5CD132284DD0C1
:1046000059E0312A02D0322A03D054E032284DD06A
:1046100051E031284FD1FCF759FDBFE6C821A57004
:104620000846FCF753FE0028B5D0B1E7524F0CB155
:10463000012BB2D1514C0629BAD2DFE801F0037D3B
:10464000821116444FF4AF7131803D7031283FF430
:10465000D8AE32283FF4D7AD33283FF4DBAE68E064
:104660004FF4AF7030803D7079E7BBF1320F06D068
:10467000BBF1310F0CD0BBF1330F12D01BE0312A4C
:10468000B2D1AEE7FCF72CFB88E6FCF7DBFB85E656
:10469000322AB1D1ADE7FCF7F9F97FE6FCF76EFA03
:1046A0007CE6312AB2D0322A03D004E0FCF770FC59
:1046B00074E6312804D0BDE8F05F32A000F030BCD1
:1046C000FCF77EFD6AE6C821A5700846FCF7FEFDF2
:1046D00010B10020A07002E0A0780028A9D100202D
:1046E00060700720DCE5244F0CB1012BA1D1234CD5
:1046F0000629A1D2DFE801F0042025032E3C83E542
:10470000AFF2242000F00CFC2179AFF21C2000F065
:1047100007FC4FF4AF70308023483D70807931281A
:104720003FF419AF322800E00BE09DD033283FF46E
:104730001BAF6078401C85E6A6F8009049463D70A6
:10474000E9E5A5709621C820FCF7C0FD00287FF49C
:1047500082AE50E5AFF2782000F0E2FB4FF48C70AF
:104760003080962300213D704FF4C8724B20DFE566
:104770000020607094E50000700000201000002010
:1047800008FDFFFF74382E7478743D224572726FF5
:10479000723A20496E76616C696420515220436FF1
:1047A000646522FFFFFF00001E000020FDF77ABEB7
:1047B00030B593B030216846FBF73CFD14210CA8BE
:1047C000FBF738FD1C480025016841F0805101606D
:1047D000006800F0805011901848016841F4804151
:1047E00001600068022400F48040119001200090D4
:1047F000000401908001CDE9064008AA0420A82108
:1048000082E813000B906846FDF7D8FF08B172B636
:10481000FEE70CA90F2081E831004FF4A0500F9063
:10482000109005210CA8FDF7DFFE002801D072B61C
:10483000FEE713B030BD0000403802400070004079
:104840000248016841F470010160704788ED00E0A2
:104850000148FEF754BA0000A8000020F0B5026835
:10486000294C2A4D2A4E2B4F2B4B4FF0804CA04207
:1048700009D0604507D0A84205D0B04203D0B84265
:1048800001D0984204D122F0700E4A6842EA0E022A
:10489000A0421BD0604519D0A84217D0B04215D015
:1048A000B84213D0984211D01C4DA8420ED01C4DD6
:1048B000A8420BD01B4DA84208D01B4DA84205D0E2
:1048C0001A4DA84202D01A4DA84203D122F44075D5
:1048D000CA682A434D6922F080022A4302608A682E
:1048E000C2620A688262A04201D0984201D109697D
:1048F0000163012141610169C90703D0016921F008
:1049000001010161F0BD0000000001400004004011
:1049100000080040000C004000040140004001403D
:10492000004401400048014000180040001C0040C5
:10493000002000400148FEF7FFBA000038010020C7
:1049400010B5806B0021C185C184FEF7F3FA10BD5C
:1049500070B5846B2068406994F84110C0F3C010B2
:104960000025212904D118B1E584204600F0B4F8CF
:104970002068406994F84210C0F38010222904D1C5
:1049800018B1E585204600F080F8606C40F010001A
:1049900060642046FEF7CEFA70BD10B50146806B0C
:1049A000096809684FF00002C9052ED4C285016864
:1049B0000C3151E8003F23F4807341E80034002CAF
:1049C000F5D10168143151E8003F23F0010341E8BB
:1049D0000034002CF5D10168143151E8003F23F078
:1049E000400341E80034002CF5D1202180F842102A
:1049F000016B012909D101680C3151E8003F23F016
:104A0000100341E80034002CF5D14263016B012909
:104A100002D0FEF741FD10BD818DFEF752FA10BDA8
:104A200010B5806B01214163016B012902D0FEF7B3
:104A300081FD10BD818D4908FEF743FA10BD10B508
:104A40000146806B09680968C90516D40021C18434
:104A50000168143151E8002F22F0800241E8002360
:104A6000002BF5D101680C3151E8002F42F04002D3
:104A700041E80023002BF5D110BDFEF7E9FD10BD84
:104A800010B5806BFEF7E5FD10BD01680C3151E8F3
:104A9000002F22F4907241E80023002BF5D1016829
:104AA000143151E8002F22F0010241E80023002BCD
:104AB000F5D1016B012909D101680C3151E8002FB2
:104AC00022F0100241E80023002BF5D1202180F8CC
:104AD000421000210163704701680C3151E8002F3A
:104AE00022F0C00241E80023002BF5D1202180F8FC
:104AF0004110704708B590F84210222901D00220D9
:104B000008BD82684FF480539A4201D1016921B1F6
:104B1000816A9A421BD04AB10AE00268816A5268EF
:104B2000C2F308020A80816A891C08E0026972B136
:104B30000268526802F07F020A70816A491C816231
:104B4000C18D491E0904090CC18503D01BE0026810
:104B50005268F1E70168CA6822F02002CA60016861
:104B6000CA6822F48072CA6001684A6922F00102B0
:104B70004A61202180F8421000214163026B012A22
:104B800003D0FEF789FC002008BD016301680C31E9
:104B900051E8002F22F0100241E80023002BF5D14C
:104BA00001680A68D20602D50A6849680091818DB9
:104BB000FEF787F9E7E7000070B504460068016971
:104BC000E26821F44051114301612169A068E26962
:104BD00008436169114308432168CA6849F20C63BC
:104BE0009A430243CA6020684169A26921F4407176
:104BF0001143416131492068884202D030498842DE
:104C000002D1FDF79BFD01E0FDF788FDE26900237D
:104C1000192164253226B2F5004F626828D0A0FB26
:104C20000101930F9200FBF7CDFA0146B0FBF5F0BE
:104C30006FF01802504301EB800006EB0010B0FB50
:104C4000F5F000F0F002B1FBF5F002EB0012B1FB61
:104C5000F5F06FF01803584301EB800006EB0010ED
:104C6000B0FBF5F000F00F0021681044886070BDC3
:104C7000A0FB010192185B41FBF7A4FA0146B0FBCF
:104C8000F5F00201B1FBF5F06FF01803584301EBAA
:104C9000800006EBC000B0FBF5F000F0F80002EB7E
:104CA0004002B1FBF5F0584301EB800006EBC00079
:104CB000B0FBF5F000F00700D6E70000001001405F
:104CC0000014014038B581620446828500201346F5
:104CD0006064222284F84220E56B1B4AEA63E56B9C
:104CE0001A4A2A64E56B1A4AEA64E26B10650A46BE
:104CF0002168E06B091DFDF78DFA206801684068A6
:104D00000090206948B120680C3050E8001F41F441
:104D1000807140E80012002AF5D12068143050E874
:104D2000001F41F0010140E80012002AF5D120687F
:104D3000143050E8001F41F0400140E80012002A02
:104D4000F5D1002038BD00009B490008214A000829
:104D50005149000881628285C28500214164222177
:104D600080F84210016921B10168CA6842F480727A
:104D7000CA6001684A6942F001024A610068C1687C
:104D800041F02001C160002070472DE9F8439846AA
:104D900017460D460446089E24E0701C22D0FDF7FD
:104DA0007BFBA0EB0800B0421AD8CEB12068C168E6
:104DB000490717D5802D15D0402D13D00168C94360
:104DC00009070FD401680025406800902046FFF7CE
:104DD0005CFE0820606484F840500120BDE8F88340
:104DE0000320FBE72068006835EA000004D00020BB
:104DF000B842D2D00020F1E70120F9E710B5012236
:104E000004490548FEF73AFBBDE810406420FCF772
:104E100067BE0000170000208001002070B50E4C16
:104E20000025607868B92646A0783070012060704F
:104E30000246A11C0948FEF721FB6078012803D037
:104E400000E06570002070BD3078552801D02570D5
:104E5000F7E76570012070BD15000020800100207B
:104E60000148FEF769B8000080010020094808B534
:104E700000680168C90608D50168406800900548C7
:104E8000FEF720F8044901200870BDE808400148F9
:104E9000FEF752B8C8010020280000200148FEF7A4
:104EA0004BB8000010020020FEE738B504460AE0C7
:104EB0006068FFF7CBF88DF8000001231A466946B9
:104EC0002068FEF738FB6068FFF768F80028EFD12C
:104ED00038BD000070B50E4A04464FF4FA752946F5
:104EE00002F57B70FFF78DF80A4A294602F203208B
:104EF000FFF787F8084901F10C0081600C39C0E91F
:104F000000412046BDE8704001220449FEF7B6BAD0
:104F1000600300205505002058070020880000206D
:104F20000FB4054B10B503A9044A029800F040F9EC
:104F300010BC5DF814FB0000D55800088C00002060
:104F40000FB4084B10B504A902AA039800F030F979
:104F5000044602A9002000F0AEFC204610BC5DF81B
:104F600014FB0000B75800080907090E002804DBED
:104F700000F1E02080F80014704700F00F0000F10D
:104F8000E02080F8141D704700B52DED048BB0EEC5
:104F9000409AF0EE609A83B051EC190BFBF7F8FBE6
:104FA00041EC180B18EE100A18EE901A8DED008BDC
:104FB000002818BF0120084320F00040C0F17F60A6
:104FC00000F1E040C00F14D019EE101A19EE900A4B
:104FD0008DED009B002918BF0121084320F00040FF
:104FE000C0F17F6000F1E040C00F04BF012000F07D
:104FF00017F8B0EE480A03B0F0EE680ABDEC048B77
:1050000000BD02E008C8121F08C1002AFAD170478B
:105010007047002001E001C1121F002AFBD1704738
:105020000149086070470000900000202DE9FF5FF3
:1050300082B00021DDE90430020DDDF840B0034309
:1050400018D044F61050A2F2FF32424315141198C2
:1050500001281FD0A5EB0B00401C5FEA000A4FF0AF
:1050600000064E4FDFF83891B046504615D5CAF1CC
:10507000000413E0119801244AA3012801D16FEA2A
:105080000B010298119AC0E90031C0E9024206B052
:10509000BDE8F09FCBF10000DFE704460021404A65
:1050A000491842EB0450CDE9001012E0E00707D0A8
:1050B00032463B4640464946FBF76EF980468946F4
:1050C00032463B4610461946FBF766F906460F4640
:1050D0006410002CEAD1DDE90401DDE90023BAF116
:1050E000000F06DAFBF758F942464B46FBF754F936
:1050F00005E0FBF7C3F942464B46FBF7BFF9044610
:105100000E460022284BFBF7ADFB03D84FF0FF30D3
:10511000014607E00022254B20463146FBF795F873
:10512000FBF787FB102409E0002C0ADB0A2200238E
:10513000FBF748F8039B30321A55641E50EA01020F
:10514000F2D1641C039AC4F111031444119A012A88
:1051500003D0012208430DD10AE0084304D0002007
:105160004FF0110B119072E7A3EB0B056D1E0DE0D4
:105170005B4504DD4FF0000205F1010504E003DAB0
:105180004FF00002A5F10105002AECD00298119918
:10519000C0E90231C0E9004579E700000000144091
:1051A0000000F03F300000000000F0430000E03F4E
:1051B0002DE9FF4F95B09A46884606460025EEE158
:1051C000252877D100242746F94A0121039400E0DD
:1051D000044316F8013F203B01FA03F01042F7D1D7
:1051E00030782A2811D06FF02F033078A0F13002E8
:1051F000092A16D8039A44F0020402EB820203EB58
:1052000042021044761C0390EFE758F8042B0392F7
:10521000002A03DA504244F40054039044F002049C
:10522000761C30782E2816D116F8010F44F00404AD
:105230002A280DD06FF02F023078A0F13003092B0F
:1052400009D807EB870302EB4303C718761CF3E783
:1052500058F8047B761C30786C280FD006DC4C287C
:1052600017D068280DD06A2814D104E0742810D013
:105270007A280FD10DE044F400140AE044F48014BD
:1052800001E044F440147278824202D104F58014A3
:10529000761C761C307866280BD013DC582877D023
:1052A00009DC002875D04528F6D04628F4D04728D8
:1052B0001AD193E118E0632835D0642879D06528A5
:1052C00012D18BE1702873D008DC6728F1D06928EF
:1052D0006FD06E280DD06F2806D1ACE073282CD08B
:1052E000752874D0782853D05246179990476D1C72
:1052F00054E1C4F30250022809D003280DD0D8F895
:10530000001004280DD00D6008F1040846E1D8F81B
:105310000010EA17C1E90052F6E7D8F800100D8036
:10532000F2E70D70F0E718F8041B8DF8001000206C
:105330008DF80100EB46012003E058F804BB4FF064
:10534000FF3061074FF0000102D40DE009F10101C7
:105350008946B9420FDA8145F8DB1BF809100029AC
:10536000F4D108E009F1010189468142FADB1BF81A
:1053700009100029F6D103985346A0EB09072146EE
:105380003846179A00F080FA284400EB090507E038
:1053900044E008E10DE01BF8010B524617999047D5
:1053A000B9F10109F7D2534621463846179AF2E07F
:1053B00039E00A21C4F302524FF0000B0091022A97
:1053C00006D058F8040BC117032A09D00AE023E0DD
:1053D00008F1070020F00702F2E80201904605E01C
:1053E00000B2C117042A01D140B2C117002906DA60
:1053F0000A460021404261EB02012D2202E0220513
:1054000004D52B228DF80420012203E0E20701D00D
:105410002022F7E7914657E00A2100E010214FF0E3
:10542000000B00910BE010214FF0000B44F004043E
:105430000827009103E008204FF0000B0090C4F310
:105440000252022A05D058F8040B0021032A08D082
:1054500008E008F1070020F00702F2E80201904698
:1054600003E080B2042A00D1C0B24FF00009220745
:105470002AD53278702A07D0DDF800C08CF0100CE5
:105480005CEA0B0C05D00EE040228DF804200122CE
:1054900008E050EA010306D030238DF804308DF87F
:1054A000052002229146009B83F0080353EA0B0378
:1054B0000AD150EA010201D1620705D530228DF8E8
:1054C00004204FF001097F1E3278582A04D039A2F7
:1054D0000C920CAA02920BE03BA2F9E75B46009A01
:1054E000FAF770FE0C9B9B5C029A521E029213709C
:1054F00050EA0102F2D1029804A9081A00F1200B27
:10550000600702D524F4803400E001275F4502DD06
:10551000A7EB0B0000E0002000EB0B0100900398CC
:105520004944401A0390E00306D453462146179A93
:10553000039800F0A9F90544002706E001A85246A7
:10554000C05D179990476D1C7F1C4F45F6DBE0034B
:105550000CD553462146179A039800F095F9054457
:1055600004E030205246179990476D1C0099481E60
:1055700000900029F5DC08E0029802995246007874
:10558000491C0291179990476D1CBBF10001ABF1CA
:10559000010BF1DC5BE100F065F90544761C307825
:1055A00000287FF40DAE19B02846BDE8F08F00004A
:1055B00009280100303132333435363738396162E9
:1055C00063646566000000003031323334353637AD
:1055D000383941424344454600000000600700D48A
:1055E000062708F1070020F00700F0E802238046B4
:1055F00003F0004C5FEA0C0001D097A009E0200501
:1056000001D596A005E0E00701D095A001E0AFF23A
:105610004C001390307823F0004365280CD006DC52
:10562000452809D046281DD047287FD13BE0662871
:1056300018D067287AD136E00021112F01DB112024
:1056400000E0781CCDE9000104A90CA8FFF7EEFCEE
:10565000DDE90D010C9A4FF0000B07F101091092E2
:1056600000914EE04FF000400097CDE9011004A9F1
:105670000CA8FFF7DBFCDDE90D020C9B0F994FF046
:10568000000B91461093009211B9791C00EB0109AF
:10569000B7EB090003D4C0F1FF3B07F10109A9EB07
:1056A0000700019042E0012F00DA01270021112FAD
:1056B00001DD112000E03846CDE9000104A90CA865
:1056C000FFF7B4FCDDE90D010C9A00914FF0000BDF
:1056D000B946109221070FD4009A4A4503DA914641
:1056E00001E0A9F10109B9F1010F05DD109AA9F155
:1056F0000101515C3029F4D0B84202DA10F1040FF4
:1057000003DA0121CDE9011010E0002803DC834415
:10571000A9EB000102E0411C494500DD8946A0EBF0
:105720000B00401C01904FF000400290200705D470
:105730000198484502DB4FF0FF30019000208DF8C2
:105740004B0002980DF14B07B0F1004F25D002201D
:105750000C902B200D90029800280CDA4042029009
:105760002D200D9007E00A210298FAF736FF30311C
:10577000029007F8011D0C99481E0C900029F2DCDC
:1057800002980028EFD1791E0D980870307800F04B
:10579000200040F0450007F8020D11A8C01BC01DF5
:1057A00002901398007800B1012000EB09010198E4
:1057B00001EBE071029801440398401A401E0390E7
:1057C000E00306D453462146179A039800F05CF88C
:1057D00005441398007818B15246179990476D1CEC
:1057E000E00323D553462146179A039800F04CF85E
:1057F00005441BE0BBF1000F07DB0098584504DDB2
:105800001098179910F80B0001E0179930205246B4
:10581000904701980BF1010B401E05F10105019025
:1058200004D12E205246179990476D1CB9F1000102
:10583000A9F10109DEDC05E017F8010B52461799C2
:1058400090476D1C0299481E02900029F4DC5346D3
:105850002146179A03989EE62D0000002B000000B9
:10586000200000002DE9F041044600251E461746A1
:10587000880404D405E039462020B0476D1C641E1E
:10588000F9D52846BDE8F0812DE9F0410446002510
:105890001E469046C80301D5302700E02027880423
:1058A00004D505E041463846B0476D1C641EF9D565
:1058B0002846BDE8F0810A68531C0B6010707047E1
:1058C000F6EE000A30EE200ABDEEC00A10EE100A15
:1058D0007047000013B54FF6FF7301226946024876
:1058E000FDF729FE00981CBD80010020FCF7E2FDB9
:1058F000FEF75EFFFEF798F8FEF778F8FEF71EF960
:10590000FEF738F9FEF7BEF8FEF750F9FEF7FAF8A1
:10591000FEF7DCF8FDF7F8FEFEF794F90B48FFF709
:10592000D9FAFEF77DF9FDF767FFFFF767FAFEF793
:10593000D7FB0748FDF7A2F9064C20780128FCD1D7
:10594000FEF7D4FBFDF700FFF7E70000F0000020B2
:10595000A8000020280000200006101600061016DF
:10596000000000000000000001020304060708090F
:105970000000000001020304985900080000002004
:1059800094000000025000082C5A000894000020E7
:10599000DC0A0000125000080100000010000000A6
:1059A000000000000024F4000000000100000000DE
:1059B00000000000000000000000000000000000E7
:1059C00000000000000000000000000001000100D5
:1059D00000000000000000000000000000000000C7
:1059E000000000009A9969429A99193F000000004E
:1059F00000000000000000000000000000000000A7
:105A0000640700200000000000000000000000000B
:105A10000000000000000000000000000000000086
:0C5A20000000000000000000000000007A
:040000050800018965
:00000001FF
