:020000040800F2
:10000000000B0020A1010008552E000871280008EF
:100010005D2B0008E50800087D36000800000000A0
:10002000000000000000000000000000C72F0008D2
:100030004B0D000800000000572E0008F12F0008AB
:10004000BB010008BB010008BB010008BB010008A0
:10005000BB010008BB010008BB010008BB01000890
:10006000BB010008BB010008BB010008BB01000880
:10007000BB010008BB010008BB010008BB01000870
:100080007D0C0008BB010008BB010008BB01000893
:10009000BB010008BB010008BB010008BB01000850
:1000A000BB010008BB010008BB010008BB01000840
:1000B000BB010008BB010008BB010008BB01000830
:1000C000BB010008BB010008BB010008BB01000820
:1000D000BB01000859360008653600087136000873
:1000E000BB010008BB010008BB010008BB01000800
:1000F000BB010008BB010008BB010008BB010008F0
:10010000BB010008BB010008BB010008BB010008DF
:10011000BB0100087931000895300008BB010008D8
:10012000BB010008BB010008BB010008BB010008BF
:10013000BB010008BB010008BB010008BB010008AF
:10014000BB010008BB010008BB010008BB0100089F
:10015000BB010008BB010008BB010008BB0100088F
:10016000BB010008BB010008BB010008BB0100087F
:10017000BB010008BB010008BB0100080000000033
:10018000BB010008C10D0008DFF810D000F098FB9B
:1001900000480047414E0008AFF30080000B0020EC
:1001A0000648804706480047FEE7FEE7FEE7FEE711
:1001B000FEE7FEE7FEE7FEE7FEE7FEE78530000824
:1001C000890100082DE9F05F0546002092469B4614
:1001D00088460646814640241BE02846414647465D
:1001E000224600F01FFA53465A46C01A914110D3D6
:1001F00011461846224600F006FA2D1A67EB010850
:100200004F4622460120002100F0FDF917EB0009BE
:100210004E41201EA4F10104DFDC484631462A4647
:100220004346BDE8F09FD2B201E000F8012B491E21
:10023000FBD270470022F6E710B513460A46044683
:100240001946FFF7F0FF204610BD2DE9FE4F80460E
:1002500081EA0300C00F0C46009021F0004123F01A
:100260000045B8EB0200A94105D240462146904620
:100270001C460B46024623F00040104347D0270D92
:10028000C7F30A00C3F30A510290401A01904028B4
:100290006BDAC3F3130040F4801B0098924620B140
:1002A0000023D2EB030A63EB0B0B01985946C0F114
:1002B0004002504600F0A7F906460D465046594602
:1002C000019A00F0BFF910EB08006141002487EAB1
:1002D000115284EAE7731A4340D0009A62B3019A3C
:1002E000012A4FEA075215DC001B61EB02014FF0B7
:1002F000004202EA0752CDE90042001C41F580119C
:1003000032462B4600F0F6F903B0BDE8F08F4046C8
:100310002146F9E7001B61EB0201001C41F5801347
:1003200000185B412018A2F5001747EB030140EAD3
:10033000D570B6196D4111E06D084FEA360645EAF1
:10034000C0754FEA0752001B61EB0201001C41F52A
:10035000801149084FEA30000019514132462B46BE
:1003600003B0BDE8F04F00F0B6B90098012240009C
:100370000023D0EB020263EBE073009821464FEAC2
:10038000E074B8EB000061EB0401E9E783F000439F
:100390005BE781F0004158E72DE9FE4F81EA030455
:1003A00004F0004421F0004100944FF0000B23F0D2
:1003B000004350EA01045ED052EA03045BD0C3F369
:1003C0000A54C1F30A552C44A4F2F3340194A0FB5F
:1003D0000254C1F3130141F48011C3F3130343F436
:1003E000801301FB024400FB034E840A970A44EA8F
:1003F000815447EA8357A4FB076802958D0A05FBE1
:1004000007854FEA932C04FB0C542705029D4FEA05
:10041000065847EA1637B5EB08056EEB070C870E52
:10042000920E47EA811742EA8312A7FB0201B6EB5C
:100430000B0164EB00042B0D43EA0C335E1844EB14
:100440001C50DA465146E7FB0201C5F313044FEA9C
:100450000B3343EA14534FEA0432019C43EA060388
:10046000A4F10C040294009CCDE900B400F042F920
:1004700003B0BDE8F08F00200146F9E72DE9F04D0B
:1004800081EA030404F0004B21F0004514464FF0CC
:10049000000A23F0004150EA050220D054EA01028C
:1004A0001DD0C5F30A570246C5F31303C1F3130069
:1004B000C1F30A5640F4801543F48013A7EB0608F5
:1004C000101BD64608F2FD3873EB050002D308F185
:1004D000010801E092185B41B8F1000F03DA002037
:1004E0000146BDE8F08D00204FF480110646844699
:1004F0000EE0171B73EB050705D3121B63EB050317
:1005000006434CEA010C49084FEA300092185B415F
:1005100050EA0107EDD152EA030012D082EA04004A
:1005200083EA0501084305D0101BAB4106D2012226
:10053000002306E000224FF0004302E06FF00102CA
:1005400053101AEB06004CEB085110EB0A0041EB7C
:100550000B01BDE8F04D00F0BEB80EB5C10F80EA4A
:10056000E0700844CA07002140F233438DE80E00D2
:100570000A460B4600F0BEF803B000BD00F0004292
:1005800030F000400AD0C10D01F56071C0F31600D3
:1005900042EA0151C208400711437047002001465A
:1005A000704701F0004330B421F0004150EA0102ED
:1005B00006D00A0DA2F56072C1F31301002A02DC15
:1005C00030BC00207047440F44EAC104C100E01869
:1005D00030BC00EBC25000F047B830B50B460146C6
:1005E00000202022012409E021FA02F59D4205D3D2
:1005F00003FA02F5491B04FA02F52844151EA2F17C
:100600000102F1DC30BD202A04DB203A00FA02F1BD
:10061000002070479140C2F1200320FA03F31943F0
:1006200090407047202A04DB203A21FA02F0002192
:10063000704721FA02F3D040C2F1200291400843F2
:1006400019467047202A06DBCB17203A41FA02F000
:1006500043EAE07306E041FA02F3D040C2F120021F
:1006600091400843194670470029A8BF7047401CB5
:10067000490008BF20F00100704710B4B0FA80FCB8
:1006800000FA0CF050EA010404BF10BC704749B1F5
:10069000CCF1200421FA04F411FA0CF118BF012165
:1006A00021430843A3EB0C01CB1D4FEA00614FEA45
:1006B000102042BF002010BC704700EBC350104414
:1006C0000029A4BF10BC7047401C490008BF20F09F
:1006D000010010BC704710B5141E73F1000408DA55
:1006E000401C41F1000192185B411A4301D120F0F6
:1006F000010010BD2DE9F04D92469B4611B1B1FAB3
:1007000081F202E0B0FA80F220329046FFF77BFFE0
:1007100004460F4640EA0A0041EA0B0153465A4696
:10072000084313D0114653EA010019D0C8F1400222
:100730005046FFF777FF05460E465046594642465B
:10074000FFF761FF084305D0012004E02046394649
:10075000BDE8F08D0020054346EAE0762C433743A0
:100760000A986305E40AA0EB08000022FD0A44EAA7
:1007700047540A3002D500200146E9E70105101967
:100780006941DDE9084500196941BDE8F04DA2E77E
:1007900070B521F0004303430CD0C1F30A55002487
:1007A000D5EB040564EB0403D617AD1AB34102DBA5
:1007B0000020014670BD201841EB025170BD2DE9AB
:1007C000F04D00231A461B1A8A4103DB0020014624
:1007D000BDE8F08DC1F30A52C1F3130141F4801555
:1007E0004FF0000BD10702D100186D41521E0027B7
:1007F000044640F2FF11384601EB620A3E4680464D
:10080000024600204FF48011FFF70CFFC21971411E
:10081000BB1846EB0100B4EB030C75EB000C04D3E2
:10082000E41A65EB000517460E46241908F101008D
:100830006D4180463428E3DDF91946EB0600091BBB
:10084000A84103D24FF0FF32134601E000221346C5
:100850001BEB070046EB0A51BDE8F04DFFF73BBF2D
:10086000C1F30A52C1F3130140F2FF3341F4801186
:100870009A4202DA00200146704740F233439A421E
:10088000A2F2334202DC5242FFF7CCBEFFF7BBBEFE
:1008900030B5041E71F1000404DB4FF00044404207
:1008A00064EB0101141E73F1000405DB1C464FF0DC
:1008B0000043524263EB0403994208BF904230BDAB
:1008C000064C074D06E0E06840F0010394E807009D
:1008D00098471034AC42F6D3FFF75AFC005000089A
:1008E00020500008FEE72DE9F05F05461C469146C2
:1008F0000E4602FB05F811FB05F7C1EB061000EBF5
:10090000400B5A2D31D80A46E3B24946012002F085
:100910002DFA2D259BFBF5F097FBF5F1401A02B25D
:10092000C9EB091000EB400A9AFBF5F198FBF5F0D2
:10093000081A02F08BFA0146E3B2022002F016FA1E
:100940009BFBF5F097FBF5F1401A02B29AFBF5F12B
:1009500098FBF5F0081A02F079FA0146E3B2032099
:1009600002F004FAE3B2324692E07142A5F15B0074
:1009700009B28A46592832D82D25C6EB061000EB5D
:10098000C00B9BFBF5F097FBF5F1401A02B2C9EBE7
:10099000091000EBC00696FBF5F198FBF5F0081A7C
:1009A00002F054FA0146E3B2012002F0DFF9E3B2AB
:1009B00052464946022002F0D9F9E3B2524649466E
:1009C000032002F0D3F99BFBF5F097FBF5F1401AF9
:1009D00002B296FBF5F198FBF5F0081A2AE015F142
:1009E00059002CD34FF02D0A9BFBFAF197FBFAF03C
:1009F00008442D3502B209FB05F898FBFAF002F025
:100A000025FA0146E3B2012002F0B0F9E3B2324622
:100A10004946022002F0AAF9E3B2324649460320D1
:100A200002F0A4F99BFBFAF197FBFAF0084402B23A
:100A300098FBFAF002F00AFA0146E3B229E005F168
:100A4000B4005A2828D80A46E3B24946012002F0E9
:100A50008DF987356E432D2796FBF7F002B209FB1F
:100A600005F898FBF7F002F0F1F90146E3B2022035
:100A700002F07CF996FBF7F002B298FBF7F002F077
:100A8000E5F90146E3B2032002F070F9E3B2524601
:100A90004946042002F06AF9BDE8F05F02F04CB963
:100AA0002DE9F041494C15462DED028B0026627967
:100AB00012B1012A09D082E000EE100A0121617111
:100AC000B8EEC00A84ED060A79E0414FD4ED060A7B
:100AD000404A97ED020A30EE600ADFED3F0A10EE61
:100AE000100A904202DB30EE600A06E010EE100AB7
:100AF0003A4A904201D330EE200AD4ED050A20EEA6
:100B0000208A00EE101AB8EE400AB4EEC08AF1EE68
:100B100010FA04DD00EE101AB8EE408A0DE04842EB
:100B200000EE100AB8EEC00AB4EEC08AF1EE10FA78
:100B300003D200EE100AB8EEC08AEAB2B1EE480A5B
:100B4000FDEEC08A18EE900A01B2012002F050F9C1
:100B5000BDEEC88AEAB218EE100A01B2022002F015
:100B600047F918EE100AEAB201B2032002F040F988
:100B700018EE900AEAB201B2042002F039F902F04C
:100B8000DBF894ED060AB0EE001AD7ED020A70EE1B
:100B9000411A0020F4EEE10AF1EE10FA14DB30EE17
:100BA000010AF4EEC00AF1EE10FA0DD8A179491C41
:100BB000C9B2A1710A2902D3A07101266071304621
:100BC000BDEC028BBDE8F081A071F8E71C000020AD
:100BD000BC020020000034430000B443000034C3D2
:100BE00070B51D061304DC170902CA172B4344EA2B
:100BF000E5742DED048B19432243014302D54FF0D8
:100C0000FF3400E00124C80DC1F3160100EE101AF4
:100C10009FED171A40EA4220F8EE400AC0B27F3832
:100C200080EE810AF7EE000A30EE208AFFF795FC8D
:100C300041EC110B9FED0F0B02F096FDB0EE409AC8
:100C400000EE104AF0EE609AB8EEC00A20EE080AF4
:100C500010EE100AFFF792FC53EC192BFFF79CFBE8
:100C6000FFF79FFCBDEC048B00EE100A70BD000086
:100C7000FEFFFF4A0000000000000040014800F0B5
:100C8000DFBA00005C02002001681823CAB2103AE3
:100C9000B2FBF3F2054B6FF30901032A9B5CC365BA
:100CA00000D9091D81650846704700004E4F0008B5
:100CB00010B5014600208B698A6A4FF0C07453B1A9
:100CC000B3F5005F15D072B1012A0CD0022A0AD008
:100CD000032A09D104E01AB1012A06D0022A03D15D
:100CE000C96AC90100D5012010BDC96AA142FAD064
:100CF00010BD002AF7D0012AF2D0022AF3D0032A2D
:100D0000F3D010BD30B50468256825F48025256032
:100D1000046863608368402B036803D099600068AF
:100D2000C26030BD9A600068C16030BD0378FC2BA2
:100D300009D1024412F8012CFD2A04D140788842DE
:100D400001D1012070470020704770474FF40771B0
:100D500070B5B0FBF1F2B0FBF1F501FB1204094EE6
:100D600003E0304600F010F86D1E002DF9D1002C84
:100D700006D04FF47A706043BDE8704000F004B8CC
:100D800070BD0000603D08000B49097848434FF0F2
:100D9000E021401E486100228A61086940F001009C
:100DA00008610869C30701D0C003FAD5086920F0BB
:100DB000010008618A6170474000002072B6FEE7BA
:100DC000704710B590B0044603AA3221684602F07D
:100DD0008CF86946204600F00AF8684602F052F89E
:100DE000401E81B2684602F06BF810B010BD70B5BD
:100DF0000D4604460188284602F0DFF8A17828460F
:100E000002F0C4F8E178284602F0C0F8E278211D2B
:100E1000284602F0BDF8284602F03FF80146284671
:100E2000BDE8704002F0B2B837B58EB01546044642
:100E30000FAB01220A2100F0DAF86946204600F0E3
:100E400053F8040015D19DF804009DF83C10884229
:100E500002D0072011B030BDBDF90500FFF77DFBC2
:100E60009FED051B53EC112BFFF708FBFFF799FBD8
:100E700028602046EEE7000000000000000024404B
:100E800037B58EB0154604460FAB0122102100F095
:100E9000AEF86946204600F027F804001DD19DF801
:100EA00004009DF83C10884202D0072011B030BDEC
:100EB0009DF80710BDF8050061F31F409DF808106C
:100EC00040EA0160FFF749FB9FED051B53EC112B36
:100ED000FFF7D4FAFFF765FB28602046E6E700003D
:100EE00000000000000024402DE9F04105460020EC
:100EF0000C4681F8370006468046642762E00120F0
:100F000000F010FBA86801F0BDFFA8B394F837000B
:100F1000010716D5A86802F037F884F8360094F86F
:100F2000370040F0100084F837002046FFF749FFF3
:100F300094F83610884202D00620BDE8F0810020E7
:100F4000FBE741070ED5A86802F01EF8A119761C30
:100F50000871E078F6B2B04234D194F8370040F02E
:100F600008000EE081070FD5A86802F00DF8E070C8
:100F70002D2802D90520E0E724E094F8370040F05E
:100F8000040084F837001DE0C0070CD0A86801F009
:100F9000FBFFA070112801D90420CEE794F8370098
:100FA00040F00200EDE7B8F1000F03D0B8F1050FF3
:100FB0000DD005E0A86801F0E7FF8046052801D0C4
:100FC0004FF000087F1EBFB299D20220B5E7A86893
:100FD00001F0DAFF48EA0028A8F5E0510539EFD121
:100FE000A4F8008094F8370040F00100C9E770B51C
:100FF0008EB0044644F61240ADF800008DF80210A1
:101000008DF803200021684603E05D5C4618491C0A
:1010100035719142F9DB6168FFF7E9FE204602F085
:101020002EFB0EB070BD00002DE9F04315462DEDEE
:10103000048B87B08846DDE9127681461C46B0EE07
:10104000608AF0EE408A03AA0B21684601F04DFF4A
:1010500018EE900A2E49884202DDDFED2E8A06E066
:1010600018EE900A2C49884201D9DFED2C8A18EE3F
:10107000100AB0F17E5F02DAB7EE008A06E018EEE1
:10108000100A2749884201DD9FED268A142D00D2DF
:101090001425142C00D214244146684601F076FF32
:1010A000B2EE049A28EE890ABDEEC00A10EE100ACC
:1010B00001B2684601F07BFF28EE090ABCEEC00AC7
:1010C00010EE100A81B2684601F077FF29466846A3
:1010D00001F073FF2146684601F06FFF394668460C
:1010E00001F06BFF0DF10D030B220C214846FFF7B9
:1010F0007EFF5EB10022B0EE680A4146484600F02D
:1011000013F807B0BDEC048BBDE8F0830020F8E7CE
:101110000000344300003443000034C3000034C3F3
:1011200000803B4400803B442DE9F04115462DED05
:10113000028B82B0B0EE408A0F46804600244FF00A
:101140007E566A463946404615B1FFF799FE01E0E2
:10115000FFF76AFE9DED000A38EE400AF0EEC00A85
:1011600010EE900AB04205DC002002B0BDEC028B0C
:10117000BDE8F081641CA4B2642C01D30120F4E723
:10118000642000F0CFF9DCE72DE9F0410446876DDB
:1011900000F0D2FA064694F835000025022806D061
:1011A0008020606584F834500120BDE8F08120681B
:1011B000016821F0160101602068416921F0800179
:1011C0004161206C08B9A06C20B12068016821F051
:1011D000080101602068016821F0010101600CE054
:1011E00000F0AAFA801B052807D92020606503209B
:1011F00084F8350084F83450D7E720680068C007C9
:10120000EED194F85C103F208840B860012084F84B
:10121000350084F834500020C7E790F835100229D3
:1012200003D08021416501207047052180F83510E9
:101230000068016821F00101016000207047000092
:101240002DE9F84304464FF00009CDF800906348BB
:101250004FF41651A56D0068B0FBF1F72E6894F8B5
:101260005C10082000FA01F131420FD021680A68B1
:1012700052070BD50A6822F004020A6094F85C1049
:101280008840A860606D40F00100606594F85C10D3
:101290004FF0010808FA01F0304208D0216849698E
:1012A000090604D5A860606D40F00200606594F8FE
:1012B0005C1004208840304208D021680968890702
:1012C00004D5A860606D40F00400606594F85C107F
:1012D00010208840304218D021680968090714D5C9
:1012E000A86020680168490304D50068000308D598
:1012F000A16C07E00168C90503D4016821F0080169
:101300000160216C09B12046884794F85C102020C8
:101310008840304231D021680968C9062DD5A860BF
:1013200094F8350005282068016806D0490347D5A0
:10133000006800031DD4616C1CE021F016010160FF
:101340002068416921F080014161206C08B9A06CDE
:1013500020B12068016821F00801016094F85C1058
:101360003F208840A86084F8358084F83490216D4F
:101370001FE0E16B09B120468847606D00282BD043
:10138000606DC00714D0052084F83500206801681E
:1013900021F0010101600098401C0090B84203D880
:1013A00020680068C007F6D184F8358084F834904E
:1013B000E16C002910D001B02046BDE8F043084799
:1013C0000168C905D5D4016821F01001016084F8D5
:1013D000358084F83490CCE7BDE8F8830C00002019
:1013E0002DE9F041044600F0A7F906465CB1022061
:1013F00084F83500002584F834502068016821F015
:10140000010101600DE00120BDE8F08100F094F9D8
:10141000801B052805D920206065032084F835004D
:10142000F2E720680068C007F0D122681168204800
:101430000140D4E901031843D4E903363343184388
:1014400063691843A3691843E3691843236A18437F
:101450000843616A042903D1D4E90B1319430843F3
:10146000106020684069666A20F0070130460E432C
:10147000012704280CD1A06A0643E06A40B1204647
:10148000FFF716FC20B14020606584F83570BAE79C
:10149000206846612046FFF7F7FB94F85C203F2167
:1014A00091408160656584F835700020ACE70000EC
:1014B0003F8010F02DE9F0410446866D90F834002D
:1014C000002501280DD0012084F8340094F83570EF
:1014D0000020012F07D084F8340002252846BDE8FB
:1014E000F0810220FBE7022784F835706065204612
:1014F000FFF708FC94F85C103F208840B06020683B
:10150000016841F016010160206C20B1206801687B
:1015100041F0080101602068016841F001010160AB
:10152000DCE7000070B5044600F006F90546601CD3
:1015300002D004480078044400F0FEF8401BA042AA
:10154000FAD370BD000000202DE9F84FDFF8BCA1F0
:101550000022012503264FF00F090AF1040BAAF11E
:10156000040E00BF0B6805FA02F42340A34270D1B9
:101570000F7907F00307012F01D0022F16D18768DA
:101580004FEA420806FA08FC27EA0C07D1F80CC01B
:101590000CFA08FC4CEA070CC0F808C04768A743DF
:1015A0000C79C4F3001494403C4344600C79E44348
:1015B000A4070AD0C4684FEA420C06FA0CF7BC43F1
:1015C0008F6807FA0CF72743C7600C7904F003040F
:1015D000022C12D1D40800EB840CDCF82040570711
:1015E000FF0E09FA07F824EA0804D1F8108008FA77
:1015F00007F848EA0408CCF8208004684FEA420C57
:1016000006FA0CF7BC430F7907F0030707FA0CF74B
:10161000274307604C6814F4403F70D03C4C276867
:1016200047F480472760246822F0030704F48044CD
:101630000094384C07EB040CDCF8084897074FEA95
:10164000177809FA08F7BC43334FB84202D1002794
:1016500024E054E0314FB84201D101271EE0304F61
:10166000B84201D1022719E02E4FB84201D1032719
:1016700014E02D4FB84201D104270FE02B4FB842A0
:1016800001D105270AE02A4FB84201D1062705E01B
:10169000284FB84201D1072700E0082707FA08F7CA
:1016A0002743CCF80878DAF800405746D1F804C050
:1016B0009C435FEACC2C00D51C433C60DBF8004027
:1016C0005F46D1F804C09C435FEA8C2C00D51C43D4
:1016D0003C60DEF800407746D1F804C09C435FEAE6
:1016E0008C3C00D51C433C60084F083F3C68D1F857
:1016F00004C09C435FEACC3C00D51C433C60521CB8
:10170000102AFFF42FAFBDE8F88F0000083C01401D
:101710004438024000300140000002400004024012
:1017200000080240000C0240001002400014024079
:1017300000180240001C0240014880687047000009
:1017400000000020024881680278114481607047DF
:10175000000000200B4810B5016841F400710160E1
:10176000016841F480610160016841F480710160A9
:10177000032000F077F80F2000F006F800F024F8BE
:10178000002010BD003C024070B50D4D04464FF4E2
:101790007A712878B1FBF0F00A490968B1FBF0F0E2
:1017A00000F012FB48B9102C07D200222146501E2F
:1017B00000F038F800206C6070BD012070BD0000A2
:1017C000000000200C0000200E4808B5016841F41C
:1017D00080410160006800F4804000900948001FCB
:1017E000016841F0805101600068002200F08050E3
:1017F00000901146512000F015F8BDE80840512036
:1018000000F002B844380240002809DB00F01F0253
:10181000012191404009800000F1E020C0F8001152
:1018200070470000F0B40E4B1B680C46C3F3022354
:10183000C3F10705042D00D90425191D072901D27C
:10184000002300E0DB1E012606FA05F1491E2140B7
:1018500099409E40761E16403143F0BC01F072BFA5
:101860000CED00E0064900F0070208684FF6FF03A0
:10187000184040EA0220034A104308607047000005
:101880000CED00E00000FA052DE9F0470E460500DA
:1018900065D0DFF81481D8F80000F7B200F0070037
:1018A000B04207D288F80070D8F8000000F00700B6
:1018B000B04254D128683D4C810712D5400703D56A
:1018C000206840F4E05020602878000703D52068A5
:1018D00040F4604020602068A96820F0F0000843D0
:1018E00020602878C0072DD0304968680839012861
:1018F00012D0022813D0032811D0096889070029C3
:101900002DDA216821F0030101432160FFF714FF64
:10191000814641F2883A0EE009688903EFE70968D9
:101920008901ECE7FFF708FFA0EB0901514502D957
:101930000320BDE8F0872068696800F00C00B0EB78
:10194000810FEFD1D8F80010404601F00701B142F5
:1019500007D90770006800F00700B04201D00120ED
:10196000E7E72878400705D52068E96820F4E050CB
:10197000084320602878000706D52068296920F4EC
:10198000604040EAC100206000F038F82168084A51
:10199000C1F30311515CC84006490860064800685D
:1019A000FFF7F2FE0020C4E7003C02400838024086
:1019B000564F00080C000020040000200448054990
:1019C00000680968044AC1F38221515CC84070472D
:1019D0000C00002008380240664F00080448054902
:1019E00000680968044AC1F34231515CC84070473D
:1019F0000C00002008380240664F0008154810B55A
:101A0000006810F00C02144813D04110042A0FD0C3
:101A1000082A0ED10F4C241F2268236802F03F02CF
:101A20005B0207D52068C0F38810A0FB010106E027
:101A3000084610BD2168C1F38811A1FB00010023F5
:101A4000FEF7C0FB2168C1F30141491C4900B0FB0E
:101A5000F1F010BD083802400024F4002DE9F84FE1
:101A600004006ED02078DFF84C93C007A9F104057C
:101A70004AD009F104000168C1F38101012908D0AD
:101A80000068C0F3810002280AD1D9F800004002A2
:101A900006D52868800337D560680028E1D033E098
:101AA0006068B0F5803F10D0B0F5A02F286810D046
:101AB00020F480302860286820F480202860606846
:101AC000A8B1FFF739FE06460DE0286840F48030E3
:101AD000F4E740F480202860F7E700BFFFF72CFE12
:101AE000801B642873D828688003F7D50CE0FFF7C3
:101AF00023FE064605E000BFFFF71EFE801B64289C
:101B0000F0D828688003F7D42078DFF8AC8280070B
:101B10004FF0000A3ED5A748001D016811F00C0FD8
:101B200008D00068C0F3810002280BD1D9F800006A
:101B3000400207D42868800716D5E068012800D144
:101B400012E033E1E068B8B10120C8F80000FFF707
:101B5000F3FD064605E000BFFFF7EEFD801B0228FF
:101B6000C0D828688007F7D52868216920F0F800D8
:101B700040EAC10028600DE0C8F800A0FFF7DCFDD6
:101B8000064604E0FFF7D8FD801B02281FD828680E
:101B90008007F7D42078000722D5864F87486169EF
:101BA000703771B101210160FFF7C6FD064604E000
:101BB000FFF7C2FD801B022809D838688007F7D5D7
:101BC0000EE0C0F800A0FFF7B7FD064605E082E092
:101BD000FFF7B2FD801B02287DD838688007F7D454
:101BE0002078400768D5DFF8CCB100270BF13C0B1B
:101BF000DBF80000C0000BD4DBF8001041F080518E
:101C0000CBF80010DBF80000012700F080500090B6
:101C10006B4E3068C00510D4306840F4807030607E
:101C2000FFF78AFD009005E0FFF786FD0099401A56
:101C3000022850D83068C005F6D55E4EA0686C36D4
:101C400001280FD00528306810D020F00100306046
:101C5000306820F004003060A068B8B1FFF76CFD78
:101C600000900FE0306840F00100F4E740F004001D
:101C70003060F7E7FFF760FD0099411A41F28830C4
:101C8000814266D830688007F4D50EE0FFF754FD36
:101C9000009007E0FFF750FD0099411A41F28830AB
:101CA000814256D830688007F4D42FB1DBF8001099
:101CB00021F08051CBF80010A069C8B33D49091D3F
:101CC0000968C1F3810102294AD00228504607D091
:101CD000C8F8600000E03CE0FFF72EFD04463BE062
:101CE0004746C8F86000FFF727FD064605E000BF3D
:101CF000FFF722FD801B02282BD828688001F7D42B
:101D0000D4E907010843A16A2E4A490802EB0141C0
:101D1000626A41EA8211084394F82C1040EA01619A
:101D2000C9F8001001203866FFF706FD044606E0FA
:101D30003EE000BFFFF700FD001B022809D828681D
:101D40008001F7D534E000BFFFF7F6FC001B022846
:101D500002D90320BDE8F88F28688001F4D427E079
:101D60000128F7D0D9F80000E26900F4800191421F
:101D70001CD1226A00F03F01914217D147F6C07191
:101D8000626A0140B1EB821F10D1A26A4FF0FF33AB
:101D900000F4403103EB5202B1EB024F06D194F84C
:101DA0002C1000F07060B0EB016F01D00120D1E782
:101DB0000020CFE70438024000004742800E47422F
:101DC000007000400000FFFF10B5401EB0F1807FA2
:101DD00001D3012010BD4FF0E02460610F21601796
:101DE00001F0B0FC0020A06107202061002010BDA0
:101DF0007047704770B590F83C20012A32D001241A
:101E000080F83C40022280F83D2003685A689D68B3
:101E100022F070060A6832435A60134B02689A42F5
:101E200014D0B2F1804F11D0104B9A420ED0104B0B
:101E30009A420BD00F4B9A4208D00F4B9A4205D0D2
:101E40000E4B9A4202D00E4B9A4204D1496825F0BB
:101E500080031943916080F83D40002180F83C10D8
:101E6000084670BD022070BD000001400004004023
:101E700000080040000C0040000401400040014008
:101E80000018004010B5040003D094F83D0010B1D4
:101E900007E0012010BD002084F83C00204600F03F
:101EA0001FF8022084F83D00211D206801F0F8F899
:101EB000012084F8460084F83E0084F83F0084F84E
:101EC000400084F8410084F8420084F8430084F81C
:101ED000440084F8450084F83D00002010BD000057
:101EE00008B500680B49884212D10B48016841F0DF
:101EF000100101600068002200F0100000901146FF
:101F00003620FFF78FFCBDE808403620FFF77CBC89
:101F100008BD0000001000404038024090F83D101D
:101F2000012901D001207047022180F83D1001688D
:101F3000CA6842F00102CA6000681149884214D0A0
:101F4000B0F1804F11D00F4988420ED00E4988421F
:101F50000BD00E49884208D00D49884205D00D4962
:101F6000884202D00C49884204D1816801F00701FF
:101F7000062903D0016841F001010160002070478B
:101F8000000001400004004000080040000C004038
:101F900000040140004001400018004070472DE956
:101FA000F04104460068C66805694FF00007A907BC
:101FB00013D5B10711D5F91E0161012020772068E2
:101FC00080698007204602D0FFF7E8FF04E000F0B8
:101FD0007EF8204600F07CF82777680716D5700752
:101FE00014D521686FF00400086102202077206872
:101FF000806910F4407F204602D0FFF7CFFF04E055
:1020000000F065F8204600F063F82777280715D51B
:10201000300713D521686FF008000861042020778D
:102020002068C0698007204602D0FFF7B7FF04E0B0
:1020300000F04DF8204600F04BF82777E80616D55B
:10204000F00614D521686FF0100008610820207791
:102050002068C06910F4407F204602D0FFF79EFF41
:1020600004E000F034F8204600F032F82777E80763
:1020700008D0F00706D021686FF001000861204603
:1020800000F028F8280608D5300606D521686FF03C
:10209000800008612046FFF7ABFE680608D5700691
:1020A00006D521686FF040000861204600F060F816
:1020B000A8060AD5B00608D521686FF0200008618F
:1020C0002046BDE8F041FFF794BEBDE8F0817047BF
:1020D0007047000070B51E49884238D11D4C00255C
:1020E0002078012801D070B10EE06088401C81B2D8
:1020F000618019A001F0FEFA6088A188884203D3AC
:102100006580257000E065806078012801D050B1BD
:102110000AE02089401C80B22081E188884203D3F4
:102120002581657000E025816089401C80B2608156
:1021300064280CD365819FED0C0B53EC102B94EDB0
:10214000040B51EC100BFEF721F9C4E9040170BD3A
:10215000AC0000204800002074372E7478743D22B3
:10216000256422FFFFFF000079E9263108AC7C3F9F
:10217000704738B5044690F84200202801D002206C
:1021800038BD61B15AB10120206300206063204650
:1021900001F094F90028F3D1216B012901D001202D
:1021A00038BD21680A684968009121680C3151E8FE
:1021B000002F42F0100241E80023002BF5D138BD7A
:1021C00010B500680F4A904214D1142912D10E495B
:1021D0000E4A00200B5C1354401CC0B21428F9D3E3
:1021E000142263210948FEF7A1FD18B108490748E8
:1021F00000F09EFBBDE81040192203490548FFF797
:10220000B8BF0000004400407E000020970000207E
:10221000BC020020CC01002070470000F8B5016826
:1022200004460868CA684B6910F00F0F4FF00005AC
:1022300059D003F0010602F49077374365D0C10707
:1022400005D0D10503D5616C41F0010161644107FE
:1022500005D5D90703D0616C41F0020161648107A3
:1022600005D5D90703D0616C41F004016164010711
:1022700007D502F02001314303D0616C41F0080121
:102280006164616C00293AD0800604D5900602D5BD
:10229000204601F02BF820684069616CC0F3801083
:1022A000090700D460B3204600F0EBFF20684069C6
:1022B000400621D52068143050E8001F21F040016D
:1022C00040E80012002AF5D1E06BA8B16E49016523
:1022D000E06BFEF7A2FF002811D0E06B016D01B0AA
:1022E000BDE8F040084783060FD593060DD520467C
:1022F000BDE8F84000F0FABF2046FFF78DFFF8BDBB
:102300002046FFF789FF6564F8BD266B2023012E68
:102310007DD1C6067BD5D60679D508684868009079
:1023200048694FF00206400641D5E16B08684068F5
:102330000004000CE8D0A28D8242E5D9E085C8698E
:10234000B0F5807F2DD020680C3050E8001F21F4BC
:10235000807140E80012002AF5D12068143050E85E
:10236000001F21F0010140E80012002AF5D1206889
:10237000143050E8001F21F0400140E80012002A0C
:10238000F5D184F84230256320680C3050E8001FF6
:1023900021F0100140E80012002AF5D1E06BFEF7B1
:1023A000F3FE6663A08DE18D401A81B22AE0A08D14
:1023B000E18D401A81B2E08D0028A5D00029A3D07C
:1023C00022680C3252E8000F20F4907042E80007B7
:1023D000002FF5D12068143050E8002F22F00102C0
:1023E00040E80027002FF5D184F8423025632068AB
:1023F0000C3050E8002F22F0100240E80023002BA0
:10240000F5D166632046FFF7DBFEF8BDFFE7050662
:102410002BD5150629D594F841002128F5D1A068BF
:10242000B0F5805F01D12069B0B1206A411C216202
:10243000216800784860E08C401E0004000CE084B5
:10244000E3D12068C16821F08001C1602068C168C3
:1024500041F04001C160D8E7206A0088C0F308005D
:102460004860206A801C2062E5E74006CDD5500612
:10247000CBD5CA68204622F04002CA6084F84130B9
:1024800000F0F5F9C1E700008531000870B50400DF
:1024900004D094F84100002510B106E0012070BD81
:1024A00084F84050204600F023F8242084F84100AE
:1024B0002068C16821F40051C160204600F078FF17
:1024C0002068016921F4904101612068416921F08F
:1024D0002A0141612068C16841F40051C16065640E
:1024E000202084F8410084F842006563002070BD1C
:1024F000F0B587B0074614216846FDF79BFE7A4980
:10250000DFF8E0E1D7F800C00024774A103903254E
:1025100002260820754BF4451AD1176847F40027A6
:102520001760126802F4002205920A6842F0010264
:102530000A600968CDE9005601F00101CDE9040106
:1025400069461846CDE90245FEF7FEFF07B0F0BD2B
:10255000DFF89CE1F44534D1136843F48013136031
:10256000126802F4801205920A6842F004020A60BE
:102570000A6802F0040205920A6842F008020A6042
:102580000968074601F0080105914FF48051CDE933
:10259000001602AB694683E8B0005648FEF7D4FF48
:1025A0000420CDE9000602AB694683E8B00052483A
:1025B000FEF7CAFF002211463520FFF733F9352018
:1025C00027E0DFF838E10720F44525D1464A121DFF
:1025D000176847F010071760126802F010020592A2
:1025E0000A6842F001020A600968029401F00101E0
:1025F00005914FF4C061CDE90016CDE9035069465D
:102600001846FEF7A1FF002211462520FFF70AF920
:102610002520FFF7F9F899E7DFF8E4E0F4453BD12E
:10262000D2F800C04CF4003CC2F800C0126802F4BA
:10263000003205920A6842F001020A6009680294B9
:1026400001F0010105910C21CDE90016CDE90350FF
:1026500069461846FEF778FF2B4D2A4828604FF050
:102660000060C5E901044014C5E903406C614FF402
:102670004030AC61C5E9074028466C62FEF7B0FE09
:1026800008B1FEF79BFBFD63002211462620AF63D5
:10269000FFF7C8F82620BCE71C4B9C45BBD113684C
:1026A00043F480231360126802F4802205920A68C2
:1026B00042F002020A600968029401F002010591E9
:1026C0004FF44061CDE90016CDE90350694610484A
:1026D000FEF73AFF002211462720FFF7A3F8272034
:1026E00097E70000004C00404038024000000240E4
:1026F0000050004000080240000C02400010014061
:1027000000440040886002405C0200200048004015
:102710000004024090F84230202B01D00220704784
:1027200021B11AB10023036300F010BF01207047EC
:1027300070B5044600681349884207D1204600F06E
:1027400069FF0100104800D0012101700F49206885
:10275000884203D10E48007800F04AFA0D4D2068F7
:10276000A84202D1204600F019F82068A84202D100
:10277000204600F08FF8BDE8704001220449064869
:10278000FFF7C8BF001001401000002000480040C3
:1027900024000020005000401402002010B5094C15
:1027A00000682168096888420BD107480178A06851
:1027B00000F0D5FB2068BDE8104001220249FFF778
:1027C000A9BF10BDF40600206000002070472DE96D
:1027D000F843044690F84100984616460D462028D6
:1027E00002D00220BDE8F88385B17EB1002060648C
:1027F000212084F84100FEF79FFFA6848146E684ED
:10280000A0682027B0F5805F02D003E00120E9E74F
:10281000206910B12E4600250EE000260CE0802134
:10282000204600F0AEFEA8B9C6B116F8010B21682B
:102830004860E08C401EE084E08C4B464FF0000284
:10284000CDF800800028EAD14FF04001204600F08A
:1028500098FE40B184F841700320C3E735F8020BBD
:10286000C0F30800E3E784F841700020BAE770473E
:10287000FEE7000010B5012204490548FFF74AFFB2
:10288000BDE810406420FEF761BA00001800002087
:102890003C01002070B5104C104D01222078617869
:1028A0002954401C2070611C0D48FFF733FF20782D
:1028B00009280FD1287838B9287AEF2804D1687808
:1028C0000A2801D100F00EF8044900200860486091
:1028D0000872207070BD0000170000206C000020FE
:1028E0003C010020104910B5002041F8090F486054
:1028F00008720D49093108700B204870022004222B
:102900000A54401C0728FBDDEF20087206494FF4EB
:102910007A73092209310548FFF759FFBDE81040D5
:102920001420FEF713BA00006C0000203C010020C8
:1029300070B50D460446837A427A017AC079FEF773
:102940004FF900F089FA85ED000AA37B627B217BB9
:10295000E07AFEF745F900F07FFA85ED010AA37CE5
:10296000627C217CE07BFEF73BF900F075FA85ED97
:10297000020A70BD094808B5016841F40011016000
:102980000068002200F40010009011461020FEF7AD
:1029900049FFBDE808401020FEF736BF303802403E
:1029A000154808B5016841F080010160016801F037
:1029B00080010091016841F001010160016801F0AE
:1029C00001010091016841F002010160016801F01C
:1029D00002010091016841F004010160016801F009
:1029E00004010091016841F008010160006800F0F5
:1029F0000800009008BD0000303802401CB50024DB
:102A00000F4800940D490194016042F2CF01C0E9E2
:102A100001146321C16080218161FFF733FA08B19D
:102A2000FEF7CCF90094694605480194FFF7E2F9F6
:102A3000002801D0FEF7C2F91CBD000000100040C4
:102A4000AC0000200C4810B50A4901604FF4E13198
:102A50004160002181600C22C160C0E904128161E3
:102A6000C161FFF713FD002803D0BDE81040FEF759
:102A7000A5B910BD004C0040F40000200C4810B572
:102A80000A4901604FF4E1314160002181600C226C
:102A9000C160C0E904128161C161FFF7F7FC002841
:102AA00003D0BDE81040FEF789B910BD00500040CA
:102AB0003C0100200C4810B50A4901604FF4612127
:102AC0004160002181600C22C160C0E90412816173
:102AD000C161FFF7DBFC002803D0BDE81040FEF722
:102AE0006DB910BD00100140840100200C4810B5E4
:102AF0000A4901604FF461214160002181600C228C
:102B0000C160C0E904128161C161FFF7BFFC002808
:102B100003D0BDE81040FEF751B910BD004400409D
:102B2000CC0100200C4810B50A4901604FF4E13196
:102B30004160002181600C22C160C0E90412816102
:102B4000C161FFF7A3FC002803D0BDE81040FEF7E9
:102B500035B910BD0048004014020020FEE7000017
:102B60000B4910B50870F3204870AB208870012025
:102B7000C870002008716B2048714FF47A730622E8
:102B80000448FFF724FEBDE810400A20FEF7DEB837
:102B9000DC0200201402002010B50120FFF7E0FF46
:102BA0000220FFF7DDFF0320FFF7DAFF0420FFF725
:102BB000D7FFBDE810400520FFF7D2BF0A4810B587
:102BC0000068C16841F02001C16001220749064840
:102BD000FFF7A0FD002000F081F86420FEF7B6F8B2
:102BE000BDE81040FFF7D8BF1402002024000020E9
:102BF000F0B5384A012411461779CB78591CCEB26A
:102C00003549C7B10225012F1ED0022F12D1D0782D
:102C100001EB400030F8023C00206B2B1DD01071FE
:102C2000D07015705FF0000221F81200521CD2B271
:102C30000A2AF9D3F0BD012801D00528FAD1147170
:102C400021F81300D670F0BD21F81300D6700A2EBB
:102C500001D26B28F7D11571D9E7D07010710B88AC
:102C6000012B02D0052B10D01AE04B88FD2B17D179
:102C70008B889F2B14D114705FF0000221F8120092
:102C8000521CD2B2042AF9D3F0BD4B88FD2B02D0DE
:102C9000272B18D004E08B889F2B01D1937843B168
:102CA0005FF0000221F81200521CD2B20A2AF9D3B6
:102CB000F0BD94705FF0000221F81200521CD2B2F5
:102CC000042AF9D3F0BDC888097940EA012050816F
:102CD000F0BD00001C000020C80200202DE9F041DA
:102CE000134C05466B262070FE2060709820A07063
:102CF0000020E0704FF47A7726713B46052221468A
:102D00000C48FFF764FD0A20FEF720F825700A2022
:102D100060706D20A070E6703B4604222146054895
:102D2000FFF755FDBDE8F0410A20FEF70FB800009F
:102D3000DC020020140200200A4810B500210170B6
:102D4000FF214170662181706B21C17001464FF4F3
:102D50007A7304220448FFF73AFDBDE810400A20C8
:102D6000FDF7F4BFDC0200201402002070B5044619
:102D7000104600F06BF885B21A48FD26012C04704D
:102D8000467005D0042C03D0002A03DB012202E0A8
:102D9000002AFBDB002282702A0AC270057143718F
:102DA0000A0E82710A0CC2710A0A0272417200256F
:102DB00085720121C1726B2101734FF47A730D2268
:102DC00008490948FFF703FD012C05D1074C0A20EB
:102DD0002570FDF7BBFF2570BDE870400A20FDF7A8
:102DE000B5BF0000DC020020140200201C000020FF
:102DF00070B50346084600F029F884B21148F6255C
:102E0000012B0370457005D0042B03D0002903DB90
:102E1000012102E00029FBDB00218170210AC17041
:102E200004714271012181716B21C1714FF47A7378
:102E3000082204490448FFF7CAFCBDE870400A2094
:102E4000FDF784BFDC02002014020020002800DA15
:102E500040427047FEE77047DFED040A9FED041A19
:102E600060EE200A80EE810A7047000000003443C3
:102E7000D60F494000B503895B1E00F003F8181A0D
:102E800080B200BD8288C1888A4203D90089511A64
:102E9000401A00E0881A80B27047F0B50746FFF785
:102EA000F1FF00240646254606E0A9B2384600F0A8
:102EB00007F82044C4B26D1CB542F6DB2046F0BDD5
:102EC00010B50C460346FFF7DDFFA04201D80020F5
:102ED00010BD9888641C19892044B0FBF1F201FBF5
:102EE0001200196880B2085C10BD02600022828066
:102EF000C280491C0181114603E003685A54491CF1
:102F000089B203898B42F8D8704710B50446FFF7A1
:102F1000B1FF2189491E89B2884201D1012010BD2B
:102F2000002010BD00B5FFF7A5FF08B1002000BDCF
:102F3000012000BD10B50446FFF7E7FF08B10020EF
:102F400010BDA0882189401CB0FBF1F201FB1200EA
:102F500081B2A18022680023505C535410BD30B56B
:102F60000D460446FFF7DEFF10B12046FFF7E2FFF3
:102F7000E0882189401CB0FBF1F201FB120080B215
:102F8000E08021680D5430BDFFF7D4BFFFF7E7BFE5
:102F9000F0B515460E460746002405E0315D38467B
:102FA000FFF7DDFF641CA4B2AC42F7D3F0BD03B55C
:102FB00001A90222FFF7ECFF0CBD03B501A9022213
:102FC000FFF7E6FF0CBD70473EB50021CDE90011CB
:102FD000064D04460146642296232868FEF724F82D
:102FE00002AA21462868FDF71FFF3EBD3C000020D5
:102FF000FEF7A8BB30B593B030216846FDF71AF94B
:1030000014210CA8FDF716F91C480025016841F0B1
:1030100080510160006800F08050119018480168EC
:1030200041F4804101600068022400F48040119066
:1030300001200090000401908001CDE9064008AA1B
:103040000420A82182E813000B906846FEF706FDD5
:1030500008B172B6FEE70CA90F2081E831004FF4E9
:10306000A0500F90109005210CA8FEF70DFC002831
:1030700001D072B6FEE713B030BD00004038024008
:10308000007000400248016841F47001016070471F
:1030900088ED00E00148FEF782BF0000AC00002090
:1030A000F0B50268294C2A4D2A4E2B4F2B4B4FF07E
:1030B000804CA04209D0604507D0A84205D0B0425C
:1030C00003D0B84201D0984204D122F0700E4A6871
:1030D00042EA0E02A0421BD0604519D0A84217D088
:1030E000B04215D0B84213D0984211D01C4DA8421E
:1030F0000ED01C4DA8420BD01B4DA84208D01B4D32
:10310000A84205D01A4DA84202D01A4DA84203D1B8
:1031100022F44075CA682A434D6922F080022A438E
:1031200002608A68C2620A688262A04201D0984244
:1031300001D109690163012141610169C90703D016
:10314000016921F001010161F0BD000000000140B2
:103150000004004000080040000C00400004014052
:103160000040014000440140004801400018004078
:10317000001C0040002000400148FFF74FB800004D
:103180003C01002010B5806B0021C185C184FFF790
:1031900043F810BD70B5846B2068406994F8411005
:1031A000C0F3C0100025212904D118B1E5842046C0
:1031B00000F08EF82068406994F84210C0F3801047
:1031C000222904D118B1E585204600F05AF8606C38
:1031D00040F0100060642046FFF71EF870BD10B587
:1031E0000146806B096809684FF00002C9052ED4BA
:1031F000C28501680C3151E8003F23F4807341E837
:103200000034002CF5D10168143151E8003F23F05F
:10321000010341E80034002CF5D10168143151E874
:10322000003F23F0400341E80034002CF5D1202179
:1032300080F84210016B012909D101680C3151E875
:10324000003F23F0100341E80034002CF5D1426325
:10325000016B012902D0FFF76BFA10BD818DFEF7DB
:10326000AFFF10BD10B5806B01214163016B0129D7
:1032700002D0FFF7ABFA10BD818D4908FEF7A0FF21
:1032800010BD01680C3151E8002F22F4907241E822
:103290000023002BF5D10168143151E8002F22F0F2
:1032A000010241E80023002BF5D1016B012909D16E
:1032B00001680C3151E8002F22F0100241E8002390
:1032C000002BF5D1202180F84210002101637047C6
:1032D00001680C3151E8002F22F0C00241E80023C0
:1032E000002BF5D1202180F84110704708B590F8E7
:1032F0004210222901D0022008BD82684FF4805379
:103300009A4201D1016921B1816A9A421BD04AB126
:103310000AE00268816A5268C2F308020A80816A80
:10332000891C08E0026972B10268526802F07F02EB
:103330000A70816A491C8162C18D491E0904090C09
:10334000C18503D01BE002685268F1E70168CA68D2
:1033500022F02002CA600168CA6822F48072CA6042
:1033600001684A6922F001024A61202180F8421076
:1033700000214163026B012A03D0FFF7D9F9002035
:1033800008BD016301680C3151E8002F22F01002E2
:1033900041E80023002BF5D101680A68D20602D566
:1033A0000A6849680091818DFEF70AFFE7E700008F
:1033B00070B5044600680169E26821F44051114388
:1033C00001612169A068E26908436169114308430A
:1033D0002168CA6849F20C639A430243CA602068B4
:1033E0004169A26921F4407111434161314920686A
:1033F000884202D03049884202D1FEF7EFFA01E05C
:10340000FEF7DCFAE2690023192164253226B2F5C1
:10341000004F626828D0A0FB0101930F9200FCF7D7
:10342000D1FE0146B0FBF5F06FF01802504301EBFE
:10343000800006EB0010B0FBF5F000F0F002B1FBED
:10344000F5F002EB0012B1FBF5F06FF018035843F2
:1034500001EB800006EB0010B0FBF5F000F00F0070
:1034600021681044886070BDA0FB010192185B4187
:10347000FCF7A8FE0146B0FBF5F00201B1FBF5F048
:103480006FF01803584301EB800006EBC000B0FB5F
:10349000F5F000F0F80002EB4002B1FBF5F0584304
:1034A00001EB800006EBC000B0FBF5F000F0070078
:1034B000D6E70000001001400014014038B58162D9
:1034C00004468285002013466064222284F842204C
:1034D000E56B1B4AEA63E56B1A4A2A64E56B1A4AF4
:1034E000EA64E26B10650A462168E06B091DFDF78E
:1034F000E1FF2068016840680090206948B12068B9
:103500000C3050E8001F41F4807140E80012002A9E
:10351000F5D12068143050E8001F41F0010140E867
:103520000012002AF5D12068143050E8001F41F045
:10353000400140E80012002AF5D1002038BD00000B
:10354000DF3100086532000895310008816282850C
:10355000C28500214164222180F84210016921B115
:103560000168CA6842F48072CA6001684A6942F020
:1035700001024A610068C16841F02001C160002079
:1035800070472DE9F843984617460D460446089EB5
:1035900024E0701C22D0FEF7CFF8A0EB0800B04268
:1035A0001AD8CEB12068C168490717D5802D15D02B
:1035B000402D13D00168C94309070FD401680025C5
:1035C000406800902046FFF75CFE0820606484F8A5
:1035D00040500120BDE8F8830320FBE72068006825
:1035E00035EA000004D00020B842D2D00020F1E734
:1035F0000120F9E710B5012204490548FFF78AF8D0
:10360000BDE810406420FDF7A1BB000016000020BB
:103610008401002070B50E4C0025607868B92646FC
:10362000A0783070012060700246A11C0948FFF7A5
:1036300071F86078012803D000E06570002070BD4B
:103640003078552801D02570F7E76570012070BDEE
:1036500014000020840100200148FEF7DFBD0000B7
:10366000840100200148FEF7D9BD0000CC010020F4
:103670000148FEF7D3BD000014020020FEE738B574
:1036800004460AE06068FFF755FC8DF8000001234E
:103690001A4669462068FFF79AF86068FFF7F2FB60
:1036A0000028EFD138BD000070B50E4A04464FF433
:1036B000FA75294602F57B70FFF717FC0A4A29467E
:1036C00002F20320FFF711FC084901F10C008160B0
:1036D0000C39C0E900412046BDE870400122044990
:1036E000FFF718B8F0020020E5040020E8060020EB
:1036F000600000200FB4054B10B503A9044A0298DE
:1037000001F002F810BC5DF814FB0000294E00081F
:103710006400002003B401984100009850EAC120E1
:1037200018BF04204A0D18BF40F0010040F2FF729C
:10373000B2EB515F08BF40F00200012808BF05202E
:1037400002B070470907090E002804DB00F1E020F1
:1037500080F80014704700F00F0000F1E02080F8BE
:10376000141D7047000000002DE9F04D2DED040BF5
:103770002DED0E8B96B0DDE92550279CDDF890A04D
:1037800025F0004624F00048BAF1000F14BF0121D3
:10379000002101EB4502FC4953184A1093422AD3F9
:1037A000002814BF0123002303EB44030B44F74913
:1037B0008B4220D358EA00019FEDF59B76D0DFF8CD
:1037C000D8B35D4503D1BAF1000F05D188E0BAF155
:1037D000000F08BF002100D0012101EB450111F5C8
:1037E000001F08D8002814BF0121002101EB44016B
:1037F00011F5001F0BD99DED261B9DED240B16B076
:10380000BDEC0E8B04B0BDE8F04D00F069BE0027A2
:10381000002DBCBFE149884521DAE1498845A8BFB0
:1038200002271CDAC3451ADCDE4901EB28511429B2
:1038300008DDC1F1340220FA02F101FA02F28242FB
:103840000DD108E058B9C1F1140228FA02F101FAC9
:1038500002F2424503D101F00101C1F1020756EA2B
:103860000A0124D1002C22DA002D18BF022F01D02A
:10387000012F0AD0022000F07FFE16B0BDEC0E8BA7
:1038800004B0BDE8F04D00F013BE022000F074FE5D
:1038900000F00EFE51EC100B81F0004141EC100BDA
:1038A00016B0BDEC0E8B04B0BDE8F08D18E09FEDB6
:1038B000BEAB9FEDBF8B002871D1B848804522D1A7
:1038C00005F1804010F5801008BFBAF1000F07D055
:1038D000B3450ADC002CA8BF9DED260BE0DA0DE015
:1038E000B0EE490AF0EE690ADAE7002C06DA9DED3F
:1038F000260B51EC100B81F000416FE0AE4878448C
:1039000090ED000BCCE7D8454DD1002C48DA2EB114
:1039100086423AD1BAF1000F42D126E0BAF1000F47
:1039200013D0022000F028FE00F0F6FD8DED020B12
:103930009DED240B8DED000B10EE900A039961F3C1
:103940001E0003909DED020BAAE78DED02AB9DEDED
:10395000240B1AEE901A10EE900A8DED000B61F315
:103960001E0003909DED020B9AE78DED028B9DEDFD
:10397000240B18EE901A10EE900A8DED000B61F3F7
:103980001E0003909DED020B8AE709DA9DED240BE2
:1039900051EC190B53EC102BFCF770FD1EE020E0EE
:1039A0009DED240B7CE786421BDAB4F1804F0DD0ED
:1039B000A4F10050B0F1FF5013D1002D11DB9DEDAB
:1039C000240B51EC100B01F08BFA07E09DED240B5A
:1039D00053EC102B51EC100B00F0C2BC41EC100B5F
:1039E0005EE79DED240B51EC100B01F010FABAF1DB
:1039F000000FCDE90E0142D19FED710B46B3A6F148
:103A0000E040B0F17F600CD05E4538D1002D00DA87
:103A1000A7B3022F0CBF01204FF0FF30FCF79DFD34
:103A2000DCE7002D01DD002C0DDA002D01DD002C7E
:103A30001FDB002D16DA002C14DB012F08BF9FEDD1
:103A4000620B3FF42DAFB0EE4A0AF0EE6A0A27E7A8
:103A5000022F18BF002D0CD0012F0AD1002DFFF628
:103A60001FAF06E0002DB8BF002C08DA012F3FF48D
:103A700017AFB0EE480AF0EE680A11E71BE001202C
:103A800000EBE57050EA070115D0791EB0EE498AC7
:103A9000F0EE698A084308BF9FED4D8B4E48002524
:103AA000804570DD4D494E48884514DDB0420DDB40
:103AB000002C19DB2FE0012000F05EFD16B0BDECFC
:103AC0000E8B04B0BDE8F04D00F016BDB34502DC2E
:103AD000002C09DC1FE0864202DA002C1BDA03E02E
:103AE0005E452BDD002C16DD022000F045FD00F0C8
:103AF00013FD8DED020B53EC1A2B51EC180BFCF758
:103B00004BFCCDE900010399019861F31E0003907D
:103B10009DED020BC4E6022000F02EFD00F00CFD2E
:103B200010EE901A18EE900A8DED020B8DED008BC1
:103B300061F31E0003909DED020BB1E69DED0E0BAF
:103B400053EC192B51EC100BFCF720FC9FED260BCE
:103B5000CDE9080153EC102B9DED080B51EC100B37
:103B6000FCF71AFC9FED221B53EC112BFCF711FC08
:103B70009DED081B53EC112BFCF70EFC9FED1E1B5B
:103B800053EC112B3CE08CE0FFFF1F00FFFF0F0008
:103B9000000000000000F03F0000F03F0000F07F58
:103BA0000000404301FCFFFF000000000000F07F28
:103BB0000000000000000000F616000000000000F9
:103BC0000000000000000080000000000000F0FF86
:103BD000000000000000F0BF0000E0410000F043E2
:103BE000FFFFEF3F00000000000000000000D03F9A
:103BF000555555555555D53F000000000000E03F94
:103C0000FCF7C7FB9DED080B41EC1A0B53EC102B96
:103C100051EC100BFCF7C0FB53EC1A2BFCF7BCFB70
:103C200041EC1A0B9FEDFE0B53EC102B9DED080B96
:103C300051EC100BFCF7B0FB41EC1B0B9FEDFA0BAA
:103C400051EC1A0B53EC102BFCF7A6FB41EC1A0BB2
:103C50009FEDF70B53EC102B9DED080B51EC100B67
:103C6000FCF79AFB53EC1A2BFCF790FB41EC1A0B78
:103C700051EC1B0B53EC1A2BFCF7E7FA0690CDE93D
:103C800006519DED060B53EC1B2B51EC100BFCF772
:103C90007DFB53EC1A2BFCF77CFB41EC100B00F086
:103CA000A1B90020B6F5801F0EDA9FEDE30B53ECAF
:103CB000102B9DED0E0B51EC100BFCF76DFBCDE9BD
:103CC0000E016FF034000E4600EB2650A0F2FF37D5
:103CD000C6F31300DA4940F07F6646F0405688424A
:103CE000D8BF002408DDD7498142C8BF012403DCC6
:103CF0000024A6F580167F1CD348784400EBC4004E
:103D00000F9690ED00CB9DED0E0B53EC1C2B51EC60
:103D1000100BFCF73BFB9DED0E0B41EC1B0B53EC2A
:103D20001C2B51EC100BFCF790FA41EC100B51ECF2
:103D3000190B53EC102BFCF7A1FB41EC1D0B51ECC4
:103D40001B0B53EC1D2BFCF727FB41EC1A0BBF4858
:103D50008DED10AB7844109590ED000B4FF00050B6
:103D600040EA660000EB84408DED080B00F5002072
:103D700009909DED080B53EC1C2B51EC100BFCF73C
:103D800005FB9DED0E1B53EC112BFCF702FB41ECE8
:103D9000100B53EC102B9DED100B51EC100BFCF79E
:103DA000FBFA9DED080B41EC1C0B53EC102B9DED29
:103DB000100B51EC100BFCF7EFFA53EC1B2BFCF73C
:103DC000E8FA53EC1C2BFCF7E1FA53EC1D2BFCF743
:103DD000E3FA41EC1C0B53EC1A2B51EC1A0BFCF7D9
:103DE000DBFA41EC1B0B9A480621B0EE4B0AF0EED1
:103DF0006B0A784400F0E0FAB0EE401AF0EE601A78
:103E0000B0EE41DAF0EE61DA53EC1B2B51EC1B0BF8
:103E1000FCF7C2FA53EC1D2BFCF7BEFA9DED100B1C
:103E200041EC1B0B53EC1A2B51EC100BFCF70DFA69
:103E300053EC1C2BFCF7B0FA53EC1B2BFCF705FAE8
:103E40009DED100B41EC1B0B53EC102B51EC100BA8
:103E5000FCF7A2FA41EC1D0B9FED7FEB53EC1E2B00
:103E6000FCF7F3F953EC1B2BFCF7EFF90890CDE9C5
:103E700008519DED080B53EC1E2B51EC100BFCF779
:103E800085FA53EC1D2BFCF781FA53EC1B2BFCF746
:103E900080FA9DED080B41EC1D0B53EC102B9DEDB2
:103EA000100B51EC100BFCF777FA41EC1B0B53ECA9
:103EB0001A2B51EC1D0BFCF76FFA9DED080B41EC32
:103EC0001A0B53EC102B51EC1C0BFCF765FA53EC5E
:103ED0001A2BFCF7BAF941EC1A0B51EC1B0B53EC03
:103EE0001A2BFCF7B2F90C90CDE90C519DED0C0B9F
:103EF00053EC1B2B51EC100BFCF748FA53EC1A2B2C
:103F0000FCF747FA41EC1B0B9FED550B53EC102BC4
:103F10009DED0C0B51EC100BFCF73EFA41EC1A0B2B
:103F20009FED510B51EC1B0B53EC102BFCF734FAAB
:103F300041EC1B0B9FED4E0B53EC102B9DED0C0B2E
:103F400051EC100BFCF728FA53EC1B2BFCF77DF916
:103F500041EC100B4848784400EBC40090ED001B86
:103F600051EC100B53EC112BFCF76FF941EC1B0BD0
:103F70003846FCF7F2FACDE9080153EC1B2B51EC63
:103F80001A0BFCF762F941EC100B3C48784400EB4B
:103F9000C40090ED00CB51EC100B53EC1C2BFCF744
:103FA00054F99DED081B53EC112BFCF74EF90690CC
:103FB000CDE906519DED080B53EC102B9DED060B42
:103FC00051EC100BFCF7E2F953EC1C2BFCF7DEF97B
:103FD00053EC1A2BFCF7DAF953EC1B2BFCF7D9F94D
:103FE00041EC100B9DED261B53EC102B8DED001BAF
:103FF00000959DED260B51EC100BFCF7CDF99DEDD6
:10400000000B41EC1A0B53EC102B9DED260B51ECE1
:10401000100BFCF7BBF99DED061B53EC112B2FE0A9
:10402000000000604715F73FFE822B654715F73FFC
:1040300044DF5DF80BAE543E00000000000040433A
:104040008E9803007AB60B0072120000A0120000D6
:10405000AA1100000000000000000000000008405D
:10406000000000E009C7EE3FFD033ADC09C7EE3F60
:10407000F5015B14E02F3EBE36100000F00F00008B
:10408000FCF78AF953EC1A2BFCF7DFF89DED060BD1
:1040900041EC1A0B53EC102B9DED000B51EC100B67
:1040A000FCF77AF9CDE90C019DED0C0B51EC1A0BE4
:1040B00053EC102BFCF7C9F8CDE902010C46AA49D4
:1040C0008C422FDB611A084318D19DED0C0B53EC89
:1040D000102B9DED020B51EC100BFCF757F941EC46
:1040E0001B0B9FEDA30B51EC1A0B53EC102BFCF7A1
:1040F000ACF853EC1B2BFCF7CBFB2DD2022000F0CD
:104100003BFA00F009FA10EE901A18EE900A8DEDC5
:10411000020B8DED008B61F31E0003909DED020BF1
:10412000FFF7BEBB944A24F00041914214D3934957
:10413000214408437FF4EFAC9DED0C0B53EC102BA6
:104140009DED020B51EC100BFCF720F953EC1A2BF0
:10415000FCF79EFB7FF6DFAC24F000408849894ADB
:10416000002601EB205182422BDA481C4FF48011CB
:1041700021FA00F02044844AC0F30A517A44A1F2A3
:10418000FF3192ED000B814A8DED080BCA4020EA09
:104190000202C0F3130040F48010C1F1140120FAB0
:1041A00001F60992002CB8BF76429DED080B53EC46
:1041B000102B9DED0C0B51EC100BFCF7E7F8CDE943
:1041C0000C019DED0C0B51EC1A0B53EC102BFCF772
:1041D0003CF89FED6F0B0890CDE9085153EC102B84
:1041E0009DED080B51EC100BFCF7D6F841EC1B0BC6
:1041F0009FED690B53EC102B9DED080B51EC100B50
:10420000FCF7CAF89DED0C0B41EC1C0B53EC102B8A
:104210009DED080B51EC100BFCF7B8F853EC1A2B82
:10422000FCF7B7F89FED5E1B53EC112BFCF7B4F8CD
:1042300053EC1C2BFCF709F841EC1A0B51EC1B0B4F
:1042400053EC1A2BFCF701F8CDE902019DED020BAE
:1042500053EC1B2B51EC100BFCF798F853EC1A2B7A
:10426000FCF797F89DED020B41EC1A0B53EC102B69
:1042700051EC100BFCF790F8CDE908014A489DED90
:10428000080B0521784400F097F89DED081B51ECD0
:10429000100B53EC112BFCF77FF89DED021B53EC38
:1042A000112BFCF776F8CDE906019DED020B53ECDE
:1042B0001A2B51EC100BFCF76FF853EC1A2BFBF791
:1042C000C4FF9FED3B0B41EC1A0B53EC102B9DED03
:1042D000060B51EC100BFCF759F89DED060B41EC69
:1042E0001B0B53EC102B9DED020B51EC100BFCF74C
:1042F00053F853EC1B2BFCF7C1F853EC1A2BFCF7CB
:1043000045F89DED021B53EC112BFCF73FF853ECE5
:10431000192BFCF73EF8CDE9020101EB065001151F
:104320000029C8BF039015DC9DED020B324651EC0D
:10433000100BFCF72DFAFFF7EDF9042808BF00F089
:10434000FBF832469DED020B51EC100BFCF720FA06
:10435000CDE902019DED020B51EC180B53EC102B33
:10436000FCF71AF8FFF73ABB00009040000000008D
:10437000FE822B654715973C00CC904000346F3F80
:1043800001FCFFFF0000E03F780E0000FFFF0F0080
:1043900000000000432EE63F396CA80C615C20BE93
:1043A000EF39FAFE422EE63F480D00000000000003
:1043B000000000000000004070B504462DED028BA7
:1043C0004D1E00EBC500B0EE408AF0EE608A90ED25
:1043D000000B35F0060017D053EC182B51EC100BE6
:1043E000FBF7DAFF41EC100B6D1E04EBC50090EDFE
:1043F000001B51EC100B53EC112BFBF726FF41EC8B
:10440000100B35F00600E7D1022D36D0042D1CD05C
:10441000062D1CBFBDEC028B70BD53EC182B51EC6C
:10442000100BFBF7B9FF94ED0A1B53EC112BFBF7B4
:104430000CFF53EC182BFBF7AFFF94ED081B53EC6C
:10444000112BFBF702FF41EC100B53EC182B51EC36
:10445000100BFBF7A1FF94ED061B53EC112BFBF7A0
:10446000F4FE53EC182BFBF797FF94ED040B53EC81
:10447000102BFBF7EAFE41EC100B53EC182B51EC20
:10448000100BFBF789FF94ED021B53EC112BFBF78C
:10449000DCFE53EC182BFBF77FFF94ED001B53EC75
:1044A000112BFBF7D2FEBDEC028B41EC100B70BD63
:1044B0009FED070B10B553EC102B9FED070B51EC44
:1044C000100BFBF7DBFF41EC100B10BD00000000F0
:1044D0000000000000000000000000000000F03FAD
:1044E00010B553EC112B51EC100BFBF7AEFE41EC69
:1044F000100B10BD000000009FED050B10B553EC34
:10450000102B51EC100BFBF7B9FF41EC100B10BD59
:1045100000000000000000009FED050B10B553ECFB
:10452000102B51EC100BFBF737FF41EC100B10BDBB
:1045300000000000000000709FED050B10B553EC6B
:10454000102B51EC100BFBF727FF41EC100B10BDAB
:10455000000000000000001002E008C8121F08C19F
:10456000002AFAD170477047002001E001C1121FF4
:10457000002AFBD170470000014908607047000025
:10458000680000202DE9FF5F82B00021DDE90430E2
:10459000020DDDF840B0034318D044F61050A2F2EB
:1045A000FF3242431514119801281FD0A5EB0B00D0
:1045B000401C5FEA000A4FF000064E4FDFF83891CA
:1045C000B046504615D5CAF1000413E011980124F5
:1045D0004AA3012801D16FEA0B010298119AC0E9A0
:1045E0000031C0E9024206B0BDE8F09FCBF1000007
:1045F000DFE704460021404A491842EB0450CDE968
:10460000001012E0E00707D032463B4640464946DC
:10461000FBF7C2FE8046894632463B4610461946A5
:10462000FBF7BAFE06460F466410002CEAD1DDE91E
:104630000401DDE90023BAF1000F06DAFBF7ACFE56
:1046400042464B46FBF7A8FE05E0FBF717FF424644
:104650004B46FBF713FF04460E460022284BFCF79F
:1046600017F903D84FF0FF30014607E00022254B31
:1046700020463146FBF7E9FDFCF7F2F8102409E08B
:10468000002C0ADB0A220023FBF79CFD039B30323F
:104690001A55641E50EA0102F2D1641C039AC4F157
:1046A00011031444119A012A03D0012208430DD1A9
:1046B0000AE0084304D000204FF0110B119072E77C
:1046C000A3EB0B056D1E0DE05B4504DD4FF0000212
:1046D00005F1010504E003DA4FF00002A5F1010540
:1046E000002AECD002981199C0E90231C0E90045D6
:1046F00079E70000000014400000F03F30000000A7
:104700000000F0430000E03F2DE9FF4F95B09A46CE
:10471000884606460025EEE1252877D10024274665
:10472000F94A0121039400E0044316F8013F203BBD
:1047300001FA03F01042F7D130782A2811D06FF037
:104740002F033078A0F13002092A16D8039A44F0DA
:10475000020402EB820203EB42021044761C039037
:10476000EFE758F8042B0392002A03DA504244F48E
:104770000054039044F00204761C30782E2816D1A1
:1047800016F8010F44F004042A280DD06FF02F0210
:104790003078A0F13003092B09D807EB870302EB2F
:1047A0004303C718761CF3E758F8047B761C30786F
:1047B0006C280FD006DC4C2817D068280DD06A284A
:1047C00014D104E0742810D07A280FD10DE044F4FD
:1047D00000140AE044F4801401E044F440147278B8
:1047E000824202D104F58014761C761C307866284B
:1047F0000BD013DC582877D009DC002875D0452869
:10480000F6D04628F4D047281AD193E118E063285F
:1048100035D0642879D0652812D18BE1702873D007
:1048200008DC6728F1D069286FD06E280DD06F287A
:1048300006D1ACE073282CD0752874D0782853D0DA
:104840005246179990476D1C54E1C4F30250022858
:1048500009D003280DD0D8F8001004280DD00D6021
:1048600008F1040846E1D8F80010EA17C1E900523F
:10487000F6E7D8F800100D80F2E70D70F0E718F8B1
:10488000041B8DF8001000208DF80100EB4601207C
:1048900003E058F804BB4FF0FF3061074FF0000110
:1048A00002D40DE009F101018946B9420FDA8145D0
:1048B000F8DB1BF809100029F4D108E009F1010127
:1048C00089468142FADB1BF809100029F6D10398CA
:1048D0005346A0EB090721463846179A00F080FAA4
:1048E000284400EB090507E044E008E10DE01BF86F
:1048F000010B524617999047B9F10109F7D2534677
:1049000021463846179AF2E039E00A21C4F30252F0
:104910004FF0000B0091022A06D058F8040BC11783
:10492000032A09D00AE023E008F1070020F007027B
:10493000F2E80201904605E000B2C117042A01D155
:1049400040B2C117002906DA0A460021404261EB55
:1049500002012D2202E0220504D52B228DF804202D
:10496000012203E0E20701D02022F7E7914657E059
:104970000A2100E010214FF0000B00910BE0102104
:104980004FF0000B44F004040827009103E00820D6
:104990004FF0000B0090C4F30252022A05D058F8E1
:1049A000040B0021032A08D008E008F1070020F0DA
:1049B0000702F2E80201904603E080B2042A00D127
:1049C000C0B24FF0000922072AD53278702A07D0EA
:1049D000DDF800C08CF0100C5CEA0B0C05D00EE08A
:1049E00040228DF80420012208E050EA010306D09D
:1049F00030238DF804308DF8052002229146009B6B
:104A000083F0080353EA0B030AD150EA010201D1F3
:104A1000620705D530228DF804204FF001097F1E72
:104A20003278582A04D039A20C920CAA02920BE0D8
:104A30003BA2F9E75B46009AFBF7C4FB0C9B9B5C2F
:104A4000029A521E0292137050EA0102F2D10298A9
:104A500004A9081A00F1200B600702D524F4803461
:104A600000E001275F4502DDA7EB0B0000E000201E
:104A700000EB0B01009003984944401A0390E003B7
:104A800006D453462146179A039800F0A9F9054425
:104A9000002706E001A85246C05D179990476D1C9B
:104AA0007F1C4F45F6DBE0030CD553462146179A91
:104AB000039800F095F9054404E030205246179918
:104AC00090476D1C0099481E00900029F5DC08E015
:104AD0000298029952460078491C02911799904712
:104AE0006D1CBBF10001ABF1010BF1DC5BE100F0EF
:104AF00065F90544761C307800287FF40DAE19B0B6
:104B00002846BDE8F08F000009280100303132331B
:104B100034353637383961626364656600000000F9
:104B200030313233343536373839414243444546E3
:104B300000000000600700D4062708F1070020F0FD
:104B40000700F0E80223804603F0004C5FEA0C0007
:104B500001D097A009E0200501D596A005E0E00767
:104B600001D095A001E0AFF24C001390307823F013
:104B7000004365280CD006DC452809D046281DD006
:104B800047287FD13BE0662818D067287AD136E0E5
:104B90000021112F01DB112000E0781CCDE900017C
:104BA00004A90CA8FFF7EEFCDDE90D010C9A4FF00B
:104BB000000B07F10109109200914EE04FF0004008
:104BC0000097CDE9011004A90CA8FFF7DBFCDDE993
:104BD0000D020C9B0F994FF0000B91461093009221
:104BE00011B9791C00EB0109B7EB090003D4C0F13E
:104BF000FF3B07F10109A9EB0700019042E0012FFB
:104C000000DA01270021112F01DD112000E03846D4
:104C1000CDE9000104A90CA8FFF7B4FCDDE90D0102
:104C20000C9A00914FF0000BB946109221070FD457
:104C3000009A4A4503DA914601E0A9F10109B9F168
:104C4000010F05DD109AA9F10101515C3029F4D062
:104C5000B84202DA10F1040F03DA0121CDE90110A4
:104C600010E0002803DC8344A9EB000102E0411CB2
:104C7000494500DD8946A0EB0B00401C01904FF038
:104C800000400290200705D40198484502DB4FF010
:104C9000FF30019000208DF84B0002980DF14B077A
:104CA000B0F1004F25D002200C902B200D900298DF
:104CB00000280CDA404202902D200D9007E00A21D6
:104CC0000298FBF78AFC3031029007F8011D0C991D
:104CD000481E0C900029F2DC02980028EFD1791EC2
:104CE0000D980870307800F0200040F0450007F87B
:104CF000020D11A8C01BC01D02901398007800B1CE
:104D0000012000EB0901019801EBE07102980144D8
:104D10000398401A401E0390E00306D453462146F0
:104D2000179A039800F05CF805441398007818B1BE
:104D30005246179990476D1CE00323D553462146F0
:104D4000179A039800F04CF805441BE0BBF1000FE4
:104D500007DB0098584504DD1098179910F80B00F0
:104D600001E0179930205246904701980BF1010B52
:104D7000401E05F10105019004D12E2052461799DD
:104D800090476D1CB9F10001A9F10109DEDC05E0D5
:104D900017F8010B5246179990476D1C0299481E4F
:104DA00002900029F4DC53462146179A03989EE6A8
:104DB0002D0000002B000000200000002DE9F04134
:104DC000044600251E461746880404D405E03946EB
:104DD0002020B0476D1C641EF9D52846BDE8F0813F
:104DE0002DE9F041044600251E469046C80301D532
:104DF000302700E02027880404D505E041463846E6
:104E0000B0476D1C641EF9D52846BDE8F08182B01C
:104E1000CDE9000121F0004001909DED000B02B0B2
:104E200051EC100B7047000013B54FF6FF730122D1
:104E300069460248FDF7CBFC00981CBD84010020A8
:104E4000FCF788FCFEF7D6F8FDF7AAFDFDF792FD0A
:104E5000FDF730FEFDF74AFEFDF7D0FDFDF762FEDF
:104E6000FDF70CFEFDF7EEFD192217491748FDF777
:104E700080F9FDF7A3FE1648FEF716FCFDF78CFE41
:104E8000FDF7F8FCFEF7B6FB1248FDF747F8DFED3B
:104E9000120AB2EE0E0A0020FEF796F80F4C01251A
:104EA000207838B996221146B420FBF7F9FD08B1F5
:104EB000257002E020780128F2D100231A46194615
:104EC0001846FBF710FDEBE77E000020CC01002028
:104ED000F4000020AC00002000004843190000202E
:104EE00000B52DED048B83B041EC190BFBF767FC8B
:104EF00041EC180B18EE100A18EE901A8DED008B8D
:104F0000002818BF0120084320F00040C0F17F6056
:104F100000F1E040C00F14D019EE101A19EE900AFB
:104F20008DED009B002918BF0121084320F00040AF
:104F3000C0F17F6000F1E040C00F04BF0120FFF727
:104F40001BFB51EC180B03B0BDEC048B00BD00063D
:104F500010160006101600000000000000000102FC
:104F60000304060708090000000001020304000012
:104F7000000000000000F03F000000000000F83FCB
:104F800000000000000000000000004003B8E23F05
:104F9000000000000000000006D0CF43EBFD4C3EB7
:104FA000033333333333E33FFFAB6FDBB66DDB3FAC
:104FB0004D268F515555D53F01411DA96074D13FF4
:104FC00065DBC9934A86CD3FEF4E454A287ECA3FEE
:104FD0003E5555555555C53F93BDBE166CC166BF70
:104FE0002CDE25AF6A56113FF16BD2C541BDBBBE69
:104FF000D0A4BE726937663E0000000000000000C9
:1050000020500008000000206C00000058450008F7
:105010008C5000086C000020940A000068450008CD
:105020000100000010000000000000000024F40057
:10503000000000000000000000000000010001006E
:105040000000000000000000000000000000000060
:105050000000803F0000000000000000F406002077
:105060000000000000000000000000000000000040
:105070000000000000000000000000000000000030
:0C50800000000000000000000000000024
:040000050800018965
:00000001FF
