:020000040800F2
:10000000C80B00209D0100086D3D00082D3400083C
:10001000C939000871130008D14C00080000000025
:10002000000000000000000000000000C33E0008C7
:1000300081180008000000006F3D0008C945000855
:10004000B7010008B7010008B7010008B7010008B0
:10005000B7010008B7010008B7010008B7010008A0
:10006000B7010008B7010008B7010008B701000890
:10007000B7010008B7010008B7010008B701000880
:10008000C5170008D1170008B7010008B70100081C
:10009000B7010008B7010008B7010008B701000860
:1000A000B7010008B7010008B7010008B701000850
:1000B000B7010008B7010008B7010008B701000840
:1000C000B7010008B7010008B7010008B701000830
:1000D000B7010008894C0008954C0008C54C000881
:1000E000B7010008B7010008B7010008B701000810
:1000F000B7010008B7010008B7010008B701000800
:10010000B7010008B7010008B7010008B7010008EF
:10011000B70100085D4700086D46000879460008F1
:10012000B7010008B7010008B7010008B7010008CF
:10013000B7010008B7010008B7010008B7010008BF
:10014000B7010008B7010008B7010008B7010008AF
:10015000B7010008B7010008B7010008B70100089F
:10016000B7010008B7010008B7010008B70100088F
:10017000B7010008B7010008B7010008000000003F
:10018000B7010008F9180008DFF80CD000F0ACFB4C
:100190000048004729570008C80B00200648804740
:1001A00006480047FEE7FEE7FEE7FEE7FEE7FEE75C
:1001B000FEE7FEE7FEE7FEE75D460008890100086E
:1001C0002DE9F05F0546002092469B46884606468C
:1001D000814640241BE0284641464746224600F01F
:1001E0004BFA53465A46C01A914110D3114618464D
:1001F000224600F032FA2D1A67EB01084F462246DC
:100200000120002100F029FA17EB00094E41201EC1
:10021000A4F10104DFDC484631462A464346BDE8E6
:10022000F09FD2B201E000F8012B491EFBD27047CB
:100230000022F6E710B513460A4604461946FFF7B2
:10024000F0FF204610BD2DE9FE4F804681EA0300F5
:10025000C00F0C46009021F0004123F00045B8EBA0
:100260000200A94105D24046214690461C460B4655
:10027000024623F00040104347D0270DC7F30A0081
:10028000C3F30A510290401A019040286BDAC3F37D
:10029000130040F4801B0098924620B10023D2EB5B
:1002A000030A63EB0B0B01985946C0F1400250461C
:1002B00000F0D3F906460D4650465946019A00F023
:1002C000EBF910EB08006141002487EA115284EA3F
:1002D000E7731A4340D0009A62B3019A012A4FEAA9
:1002E000075215DC001B61EB02014FF0004202EAED
:1002F0000752CDE90042001C41F5801132462B46E1
:1003000000F022FA03B0BDE8F08F40462146F9E73D
:10031000001B61EB0201001C41F5801300185B41DA
:100320002018A2F5001747EB030140EAD570B61973
:100330006D4111E06D084FEA360645EAC0754FEA97
:100340000752001B61EB0201001C41F580114908B6
:100350004FEA30000019514132462B4603B0BDE848
:10036000F04F00F0E2B90098012240000023D0EBEA
:10037000020263EBE073009821464FEAE074B8EBA9
:10038000000061EB0401E9E783F000435BE781F0E3
:10039000004158E72DE9FE4F81EA030404F00044D0
:1003A00021F0004100944FF0000B23F0004350EA8D
:1003B00001045ED052EA03045BD0C3F30A54C1F3D4
:1003C0000A552C44A4F2F3340194A0FB0254C1F367
:1003D000130141F48011C3F3130343F4801301FBB1
:1003E000024400FB034E840A970A44EA815447EA18
:1003F0008357A4FB076802958D0A05FB07854FEA22
:10040000932C04FB0C542705029D4FEA065847EA3B
:100410001637B5EB08056EEB070C870E920E47EA10
:10042000811742EA8312A7FB0201B6EB0B0164EBD2
:1004300000042B0D43EA0C335E1844EB1C50DA46E3
:100440005146E7FB0201C5F313044FEA0B3343EABD
:1004500014534FEA0432019C43EA0603A4F10C044E
:100460000294009CCDE900B400F06EF903B0BDE841
:10047000F08F00200146F9E72DE9F04D81EA0304F1
:1004800004F0004B21F0004514464FF0000A23F021
:10049000004150EA050220D054EA01021DD0C5F304
:1004A0000A570246C5F31303C1F31300C1F30A56FA
:1004B00040F4801543F48013A7EB0608101BD646C2
:1004C00008F2FD3873EB050002D308F1010801E0E2
:1004D00092185B41B8F1000F03DA00200146BDE835
:1004E000F08D00204FF48011064684460EE0171B65
:1004F00073EB050705D3121B63EB050306434CEAB8
:10050000010C49084FEA300092185B4150EA01079C
:10051000EDD152EA030012D082EA040083EA050119
:10052000084305D0101BAB4106D20122002306E090
:1005300000224FF0004302E06FF0010253101AEB6B
:1005400006004CEB085110EB0A0041EB0B01BDE833
:10055000F04D00F0EAB80EB5C10F80EAE070084433
:10056000CA07002140F233438DE80E000A460B46CD
:1005700000F0EAF803B000BD0EB540F2334102913D
:100580000021CDE900110A460B4600F0DDF803B06A
:1005900000BD70B5C1F30A5201F000450024C1F35B
:1005A000130140F2FF3341F480119A4201DA002036
:1005B00070BD40F233439A42A2F2334203DC52420E
:1005C00000F05AF800E090402C43F1D0404270BD5A
:1005D00000F0004230F000400AD0C10D01F560711A
:1005E000C0F3160042EA0151C208400711437047A8
:1005F00000200146704701F0004330B421F0004173
:1006000050EA010206D00A0DA2F56072C1F313018F
:10061000002A02DC30BC00207047440F44EAC104C9
:10062000C100E01830BC00EBC25000F047B830B554
:100630000B46014600202022012409E021FA02F5A0
:100640009D4205D303FA02F5491B04FA02F528443A
:10065000151EA2F10102F1DC30BD202A04DB203A94
:1006600000FA02F1002070479140C2F1200320FA05
:1006700003F3194390407047202A04DB203A21FA03
:1006800002F00021704721FA02F3D040C2F12002AB
:100690009140084319467047202A06DBCB17203AC1
:1006A00041FA02F043EAE07306E041FA02F3D04077
:1006B000C2F1200291400843194670470029A8BFA3
:1006C0007047401C490008BF20F00100704710B47B
:1006D000B0FA80FC00FA0CF050EA010404BF10BC30
:1006E000704749B1CCF1200421FA04F411FA0CF15D
:1006F00018BF012121430843A3EB0C01CB1D4FEA96
:1007000000614FEA102042BF002010BC704700EB90
:10071000C35010440029A4BF10BC7047401C4900BE
:1007200008BF20F0010010BC704710B5141E73F113
:10073000000408DA401C41F1000192185B411A43A1
:1007400001D120F0010010BD2DE9F04D92469B46ED
:1007500011B1B1FA81F202E0B0FA80F22032904693
:10076000FFF77BFF04460F4640EA0A0041EA0B010F
:1007700053465A46084313D0114653EA010019D094
:10078000C8F140025046FFF777FF05460E46504637
:1007900059464246FFF761FF084305D0012004E0B7
:1007A00020463946BDE8F08D0020054346EAE07654
:1007B0002C4337430A986305E40AA0EB08000022A3
:1007C000FD0A44EA47540A3002D500200146E9E711
:1007D000010510196941DDE9084500196941BDE8C5
:1007E000F04DA2E72DE9F04D00231A461B1A8A416D
:1007F00003DB00200146BDE8F08DC1F30A52C1F3CE
:10080000130141F480154FF0000BD10702D10018FD
:100810006D41521E0027044640F2FF11384601EB9D
:10082000620A3E468046024600204FF48011FFF7E0
:1008300023FFC2197141BB1846EB0100B4EB030C56
:1008400075EB000C04D3E41A65EB000517460E4661
:10085000241908F101006D4180463428E3DDF919BF
:1008600046EB0600091BA84103D24FF0FF321346A6
:1008700001E0002213461BEB070046EB0A51BDE8DE
:10088000F04DFFF752BFC1F30A52C1F3130140F21A
:10089000FF3341F480119A4202DA0020014670478A
:1008A00040F233439A42A2F2334202DC5242FFF753
:1008B000E3BEFFF7D2BE000030B5041E71F10004A4
:1008C00004DB4FF00044404264EB0101141E73F15D
:1008D000000405DB1C464FF00043524263EB040367
:1008E000994208BF904230BD064C074D06E0E068D3
:1008F00040F0010394E8070098471034AC42F6D367
:10090000FFF746FCA8570008C857000870B5054611
:1009100000F046FF4FF47A74E621204602F09AFD7B
:100920006600304600F0AEFF00F028FF204600F0E1
:10093000A9FFE621204602F09FFD012D04D0022DE3
:1009400005D0032D08D105E002F0F0FE04E002F02E
:10095000FDFE01E002F008FF304600F093FFE621C3
:10096000204602F089FD00F0F1FC40F6B83528463B
:1009700000F088FFE621204602F08EFD204600F0C0
:1009800081FF00F00DFF204600F07CFFE6212046AD
:1009900002F072FD204600F075FF01F063F9284671
:1009A00000F070FFE621204602F066FD204600F0D0
:1009B00069FF02490878401C087070BD11000020D2
:1009C00070B5012804D0022805D0032808D105E01D
:1009D00002F0ACFE04E002F0B9FE01E002F0C4FE59
:1009E0004FF47A74E621204602F034FD204600F0F0
:1009F00049FF00F0C3FE204600F044FFE6212046F8
:100A000002F03AFD204600F03DFF00F09FFC40F66A
:100A1000B835284600F036FFE621204602F03CFDBE
:100A2000204600F02FFF00F0BBFE204600F02AFF1A
:100A3000E621204602F020FD204600F023FF01F0D1
:100A400011F92846BDE8704000F01CBF10B50446FF
:100A500000F07CFC012C04D0022C05D0032C08D122
:100A600005E002F063FE04E002F070FE01E002F037
:100A70007BFE4FF47A74204600F004FFE621204606
:100A800002F00AFD204600F0FDFE00F077FE204651
:100A900000F0F8FEE621204602F0EEFCC82000F04F
:100AA000F1FE01F0DFF840F6B83000F0EBFEE62191
:100AB000204602F0BDFC204600F0E4FE00F070FE8F
:100AC000204600F0DFFEE621204602F0D5FC20465D
:100AD000BDE8104000F0D6BE2DE9F047494E307811
:100AE000002876D1484C6427DFF820812178012541
:100AF000DFF81CA1814610296BD2DFE801F008174E
:100B0000236D2C466D2C4D525C6D616D777C41A040
:100B100004F01AF9217843A004F016F9A8F800703F
:100B20009623357064226FF0810110E03DA004F03F
:100B30000BF96078C0B93FA004F006F910E04A88CC
:100B4000BAB946E037A004F0FFF8012021E0002008
:100B500000F078FC3AE033A004F0F6F8607818B9B9
:100B6000052002F0BFFD6570BAF90000514600286B
:100B7000E5D0A8F800703570BAF902109623C822A3
:100B800000F060FC84F8019020E026A004F0DCF87E
:100B90000220FFF75BFF19E022A004F0D5F8032044
:100BA000F7E720A004F0D0F8A8F80070962335707D
:100BB00064222449CBE71BA004F0C6F8012003E01F
:100BC00018A004F0C1F80220FFF7FAFE2078401CBC
:100BD00020700020BDE8F08712A004F0B5F8A8F856
:100BE00000709623642235708221B0E70DA004F0D6
:100BF000ABF80320E8E70BA004F0A6F884F8009017
:100C00000120E7E786000020260000208C0000205D
:100C10001A00002074382E7478743D2273643122D7
:100C2000FFFFFF0074392E7478743D22256422FF83
:100C3000FFFF000074382E7478743D2273643222F2
:100C4000FFFFFF00FCFEFFFF2DE9F05F454E30780F
:100C5000002878D1444C6427DFF8108121780125E1
:100C6000DFF80CA181464FF4827B10296BD2DFE8BC
:100C700001F0081723572C460C2C4D0C5257610CD1
:100C80006D723CA004F060F821783EA004F05CF89E
:100C9000A8F800709623357064226FF0810110E08F
:100CA00038A004F051F86078C0B93AA004F04CF8CC
:100CB00010E04A88BAB946E032A004F045F80120B5
:100CC00021E0002000F0BEFB3AE02EA004F03CF84A
:100CD000607818B9052002F005FD6570BAF90000CA
:100CE00051460028E5D0A8F800703570BAF9021016
:100CF0009623C82200F0A6FB84F8019020E021A0F2
:100D000004F022F80220FFF7A1FE19E01DA004F074
:100D10001BF80320F7E71BA004F016F801200DE0F4
:100D200018A004F011F8A8F800709623357064221A
:100D30005946C6E713A004F007F80220FFF740FE6B
:100D40002078401C20700020BDE8F09F0DA003F02B
:100D5000FBFF0320F2E70BA003F0F6FF84F80090FE
:100D60000120F1E786000020260000208C000020F2
:100D70001A00002074382E7478743D227364312276
:100D8000FFFFFF0074392E7478743D22256422FF22
:100D9000FFFF000074382E7478743D227364322291
:100DA000FFFFFF002DE9F05F4C4D287800287CD133
:100DB000DFF82C8164264B4F98F800100124DFF8EF
:100DC00028A181466FF0810B0F296ED2DFE801F078
:100DD0000825592A3B422A4F5954596270797E009E
:100DE00042A003F0B1FF98F8010030BB43A003F02C
:100DF000ABFF1DE04A88002A57D03E802C70BAF91C
:100E000002109623C82200F01DFB88F8019098F884
:100E10000010491C88F8001047E034A003F094FF4C
:100E2000012014E031A003F08FFF98F8010020B9F1
:100E3000052002F057FC88F80140BAF9000051463D
:100E40000028DAD1D6E729A003F07EFF0220FFF7C1
:100E5000FDFD25E025A003F077FF3E8096232C7052
:100E600064224FF48271002000F0ECFA18E01FA019
:100E700003F06AFF0320EAE71CA003F065FF0120EE
:100E80000CE01AA003F060FF3E8096232C706422D1
:100E90005946E8E715A003F057FF0220FFF790FD41
:100EA00098F80000401C88F800000020BDE8F09F82
:100EB0000EA003F049FF3E80962364222C7082210D
:100EC000D1E70AA003F040FF0320E7E707A003F003
:100ED0003BFF88F800900120E8E700008600002032
:100EE000260000208C0000201A00002074392E7487
:100EF00078743D22256422FFFFFF000074382E74B1
:100F000078743D2273643222FFFFFF002DE9F04721
:100F10004B4D2878002879D1DFF8288164264A4F84
:100F200098F800100124DFF824A181460F296DD222
:100F3000DFE801F00825582A3B422A4E58535861F1
:100F40006F797E0042A003F0FFFE98F8010030BBED
:100F500043A003F0F9FE1DE04A88002A56D03E80E7
:100F60002C70BAF902109623C82200F06BFA88F8A8
:100F7000019098F80010491C88F8001046E034A051
:100F800003F0E2FE012014E031A003F0DDFE98F84A
:100F9000010020B9052002F0A5FB88F80140BAF94C
:100FA000000051460028DAD1D6E729A003F0CCFE94
:100FB0000220FFF74BFD24E025A003F0C5FE3E8094
:100FC00096232B492C706422002000F03BFA18E095
:100FD0001FA003F0B9FE0320EBE71DA003F0B4FE51
:100FE00001200CE01AA003F0AFFE3E80962364229D
:100FF0002C708221E8E716A003F0A6FE0220FFF77E
:10100000DFFC98F80000401C88F800000020BDE8D4
:10101000F0870FA003F098FE3E8096232C70642288
:101020006FF08101D0E70AA003F08EFE0320E6E70F
:1010300007A003F089FE88F800900120E7E7000090
:1010400086000020260000208C0000201A000020CE
:1010500074392E7478743D22256422FFFFFF00004E
:1010600074382E7478743D2273643222FFFFFF00BF
:10107000FCFEFFFF2DE9F05F454E3078002877D168
:10108000444C6427DFF810812178DFF810B1012586
:10109000DFF80CA1814610296AD2DFE801F00816BA
:1010A00022562B450C2B4C0C5156600C6C713DA0FC
:1010B00003F04AFE21783FA003F046FEA8F8007036
:1010C000962364223570822110E03AA003F03CFEA2
:1010D0006078C0B93BA003F037FE10E04A88BAB987
:1010E00046E034A003F030FE012021E0002000F0B3
:1010F000A9F93AE02FA003F027FE607818B905207F
:1011000002F0F0FA6570BAF9000051460028E5D007
:10111000A8F800703570BAF902109623C82200F0C2
:1011200091F984F8019020E022A003F00DFE022046
:10113000FFF78CFC19E01FA003F006FE0320F7E781
:101140001CA003F001FE01200DE01AA003F0FCFD3D
:10115000A8F800709623357064225946C6E715A09A
:1011600003F0F2FD0220FFF72BFC2078401C2070DA
:101170000020BDE8F09F0FA003F0E6FD0320F2E79A
:101180000CA003F0E1FD84F800900120F1E70000DD
:1011900086000020260000208C000020FCFEFFFFBF
:1011A0001A00002074382E7478743D227364312242
:1011B000FFFFFF0074392E7478743D22256422FFEE
:1011C000FFFF000074382E7478743D22736432225D
:1011D000FFFFFF002DE9F05F544E307800283ED12C
:1011E000534C6427DFF84C8121780125DFF848A1B2
:1011F00081466FF0810B11297ED2DFE801F00913DF
:1012000031803A5780135F647D6F8074808A8F00CD
:101210004AA003F099FDA8F8007096236422357067
:10122000822122E045A003F08FFD607818B90520E7
:1012300002F058FA6570BAF90000514660B100BF7B
:10124000A8F800703570BAF902109623C82200F091
:10125000F9F884F801904CE04A88002AF0D14BE07C
:1012600036A003F071FD012025E0002000F0EAF82F
:101270003FE032A003F068FD607818B9052002F065
:1012800031FA6570BAF90000514608B94A886AB166
:10129000A8F800703570BAF902109623C82200F041
:1012A000D1F884F801902078401C2070217823A088
:1012B00003F04AFD0220FFF7C9FB1AE01FA003F06C
:1012C00043FD0320F7E71DA003F03EFDA8F80070E2
:1012D0009623357064224FF48271C6E717A003F09D
:1012E00033FD012003E015A003F02EFD0220FFF7DF
:1012F00067FB2078401C20700020BDE8F09F0FA005
:1013000003F022FDA8F80070962335706422594638
:10131000ABE70AA003F018FD0320E8E707A003F0FD
:1013200013FD84F800900120E7E70000860000200C
:10133000260000208C0000201A00002074392E7432
:1013400078743D22256422FFFFFF000008B507489E
:10135000002300934FF4FA729FED030A0221006804
:1013600000F0FAFB08BD0000000070428000002081
:10137000FEE700002DE9F04180462A4800252A4C6E
:1013800090ED000A0F46B5EEC00AF1EE10FA01D05A
:1013900084ED120A607A10B1012805D03EE00120E8
:1013A000607294ED120A37E0204A616C00204FF41D
:1013B000A026914203DD1E4A1144B14204D83A46A8
:1013C0004146002000F0D6F81A4A616C1144B1F58C
:1013D000A01F04D83A4641465A2000F0CBF8164ADE
:1013E000616C1144B1F5202F04D83A464146B4202F
:1013F00000F0C0F8114A616C1144B14205D83A4678
:1014000041464FF4877000F0B5F8012806D1012558
:1014100000209FED0B0A607284ED110A2846BDE89A
:10142000F081000030000020340000200000204146
:10143000000051BC000056BD0000D1BC00807BBC48
:10144000000000002DE9F05F1C462DED048B924654
:101450000D46FFF780F89FED438B53EC182BFEF7FA
:1014600099FFFFF796F807462846FFF774F853EC04
:10147000182BFEF78FFFFFF78CF8064607FB07F0E7
:1014800006FB0600FFF767F88B4680464BEC100B17
:1014900003F08EFC9FED359B51EC100B53EC192B98
:1014A000FEF778FF41EC180BF01B054602F05AFCE2
:1014B00000FB0AF0FFF760F853EC182BFEF7DCFF97
:1014C000FFF767F881464BEC108B03F071FC53EC8F
:1014D000192B51EC100BFEF75DFF41EC180BF019C6
:1014E00002F040FC00FB0AF0FFF746F853EC182B23
:1014F000FEF7C2FFFFF74DF80246B8195FEA000891
:10150000E3B202D4014612B204E0C8F10001504235
:10151000884602B29246012002F064FBE3B24146E3
:101520005246032002F05EFB002DE3B204D40FFA12
:1015300089F22946164605E0BD1BC9F1000002B23A
:1015400016462946022002F04DFBE3B229463246F8
:10155000042002F047FBBDEC048BBDE8F05F02F015
:101560002DBB00002B48C0325E572F406666666672
:101570006666F63F2DE9F04116460D46044601F039
:10158000BDFF7048002790ED000A6F48B5EEC00A15
:10159000F1EE10FA01D080ED080A817911B101292C
:1015A0000FD0C9E000EE104A01218171B8EEC00AE7
:1015B00080ED070A9FED650A80ED0A0A80ED0C0AAE
:1015C000BAE090ED081A90ED070A614A31EE400A40
:1015D00010EE101A80ED090ADFED5E0A914202DB7F
:1015E00030EE600A06E010EE101A5B4A914203D317
:1015F00030EE200A80ED090AD0ED0A0A044670EEAA
:10160000801AC0ED0A1AD0ED0C0A70EE600AC0ED27
:101610000B0A80ED0C0A90ED0D2A22EE000A90EDE7
:101620000E2A02EE210AD0ED0F1A01EEA00A80ED7B
:10163000100A11EE100AFEF7CBFF41EC100B47A089
:1016400053EC102B03F080FB206CFEF7C1FF41EC44
:10165000100B46A053EC102B03F076FB00EE905AD3
:1016600094ED100AF8EE600AB4EEE00AF1EE10FA1A
:1016700004DD00EE105AB8EE400A0DE0684200EEBC
:10168000900AF8EEE00AB4EEE00AF1EE10FA05D2A4
:1016900000EE100AB8EEC00A84ED100AB1EE400A5E
:1016A000F2B2BDEEC00A10EE100A01B2012002F043
:1016B0002DFB94ED100AF2B2BDEEC00A10EE100A36
:1016C00001B2022002F022FB94ED100AF2B2BDEE4C
:1016D000C00A10EE100A01B2032002F017FB94EDCD
:1016E000100AF2B2B1EE400ABDEEC00A10EE100AC6
:1016F00001B2042002F00AFB02F060FAD4ED070AFE
:10170000B0EE001A94ED080A70EEC11A0020F4EE53
:10171000C01AF1EE10FA12D870EE810AF4EEC00A87
:10172000F1EE10FA0BDBE179491CC9B2E171032932
:1017300002D3E0710127A0713846BDE8F081E07165
:10174000FAE7000030000020340000200000000014
:10175000000034430000B443000034C374322E74DC
:1017600078743D22256622FFFFFF000074332E743B
:1017700078743D22256622FFFFFF000008B5074868
:10178000002300934FF4FA729FED030A03210068CF
:1017900000F0E2F908BD0000000078C280000020DF
:1017A00008B50748002300934FF4FA729FED030A2F
:1017B0000321006800F0D0F908BD0000000000001F
:1017C00080000020014800F0BBBA0000B0020020F9
:1017D000014800F0B5BA000010030020016818238A
:1017E000CAB2103AB2FBF3F2054B6FF30901032AB8
:1017F0009B5CC36500D9091D8165084670470000E0
:101800008857000810B5014600208B698A6A4FF09E
:10181000C07453B1B3F5005F15D072B1012A0CD07A
:10182000022A0AD0032A09D104E01AB1012A06D0FB
:10183000022A03D1C96AC90100D5012010BDC96AB5
:10184000A142FAD010BD002AF7D0012AF2D0022A14
:10185000F3D0032AF3D010BD30B50468256825F411
:1018600080252560046863608368402B036803D08B
:1018700099600068C26030BD9A600068C16030BD88
:10188000704700004FF4077170B5B0FBF1F2B0FB88
:10189000F1F501FB1204094E03E0304600F010F8A8
:1018A0006D1E002DF9D1002C06D04FF47A706043E4
:1018B000BDE8704000F004B870BD0000603D080055
:1018C0000B49097848434FF0E021401E486100224F
:1018D0008A61086940F0010008610869C30701D006
:1018E000C003FAD5086920F0010008618A617047D9
:1018F0008400002072B6FEE7704710B590B0044631
:1019000003AA3221684602F06EFA6946204600F0CA
:101910000AF8684602F034FA401E81B2684602F0C6
:101920004DFA10B010BD70B50D460446018828462A
:1019300002F0C1FAA178284602F0A6FAE17828461A
:1019400002F0A2FAE278211D284602F09FFA28460A
:1019500002F021FA01462846BDE8704002F094BA30
:1019600037B58EB0154604460FAB01220A2100F0B0
:10197000D6F86946204600F04FF8040015D19DF8CE
:1019800004009DF83C10884202D0072011B030BD01
:10199000BDF90500FEF7DFFD9FED051B53EC112B94
:1019A000FEF76AFDFEF727FE28602046EEE70000FE
:1019B000000000000000244037B58EB015460446F4
:1019C0000FAB0122102100F0AAF86946204600F072
:1019D00023F8040019D19DF804009DF83C108842BA
:1019E00002D0072011B030BD9DF80810DDF80500C9
:1019F00061F31F60FEF7AFFD9FED051B53EC112B4C
:101A0000FEF73AFDFEF7F7FD28602046EAE7000002
:101A100000000000000024402DE9F04105460020B0
:101A20000C4681F8370006468046642762E00120B4
:101A300000F0F8FAA86802F0A3F9A8B394F8370008
:101A4000010716D5A86802F01DFA84F8360094F84C
:101A5000370040F0100084F837002046FFF74DFFB4
:101A600094F83610884202D00620BDE8F0810020AC
:101A7000FBE741070ED5A86802F004FAA119761C0D
:101A80000871E078F6B2B04234D194F8370040F0F3
:101A900008000EE081070FD5A86802F0F3F9E070A6
:101AA0002D2802D90520E0E724E094F8370040F023
:101AB000040084F837001DE0C0070CD0A86802F0CD
:101AC000E1F9A070112801D90420CEE794F837007D
:101AD00040F00200EDE7B8F1000F03D0B8F1050FB8
:101AE0000DD005E0A86802F0CDF98046052801D0A8
:101AF0004FF000087F1EBFB299D20220B5E7A86858
:101B000002F0C0F948EA0028A8F5E0510539EFD104
:101B1000A4F8008094F8370040F00100C9E770B5E0
:101B20008EB0044644F61240ADF800008DF8021065
:101B30008DF803200021684603E05D5C4618491CCF
:101B400035719142F9DB6168FFF7EDFE204603F045
:101B5000C0F80EB070BD00002DE9F04116462DED25
:101B6000028B86B00F4680461D46B0EE408A03AA1F
:101B7000072168460E9C02F036F918EE100A1D493E
:101B8000884202DD9FED1C8A06E018EE100A1B4910
:101B9000884201D99FED1A8A3946684602F074F9E5
:101BA000B2EE040A28EE000ABDEEC00A10EE100ADA
:101BB00001B2684602F079F93146684602F07BF9D5
:101BC0002946684602F077F90DF10D030722082136
:101BD0004046FFF7A4FF5CB10022B0EE480A394648
:101BE000404600F00FF806B0BDEC028BBDE8F08176
:101BF0000020F8E70000344300003443000034C301
:101C0000000034C32DE9F04115462DED028B82B062
:101C1000B0EE408A0F46804600244FF07E566A465A
:101C20003946404615B1FFF7C7FE01E0FFF798FEC1
:101C30009DED000A38EE400AF0EEC00A10EE900A60
:101C4000B04205DC002002B0BDEC028BBDE8F081A3
:101C5000641CA4B2642C01D30120F4E7642000F0DA
:101C6000E1F9DCE708B50748002300934FF4FA7266
:101C70009FED030A02210068FFF76EFF08BD000018
:101C80000000B8C2800000202DE9F0410446876DB5
:101C900000F0D2FA064694F835000025022806D056
:101CA0008020606584F834500120BDE8F081206810
:101CB000016821F0160101602068416921F080016E
:101CC0004161206C08B9A06C20B12068016821F046
:101CD000080101602068016821F0010101600CE049
:101CE00000F0AAFA801B052807D920206065032090
:101CF00084F8350084F83450D7E720680068C007BE
:101D0000EED194F85C103F208840B860012084F840
:101D1000350084F834500020C7E790F835100229C8
:101D200003D08021416501207047052180F83510DE
:101D30000068016821F00101016000207047000087
:101D40002DE9F84304464FF00009CDF800906348B0
:101D50004FF41651A56D0068B0FBF1F72E6894F8AA
:101D60005C10082000FA01F131420FD021680A68A6
:101D700052070BD50A6822F004020A6094F85C103E
:101D80008840A860606D40F00100606594F85C10C8
:101D90004FF0010808FA01F0304208D02168496983
:101DA000090604D5A860606D40F00200606594F8F3
:101DB0005C1004208840304208D0216809688907F7
:101DC00004D5A860606D40F00400606594F85C1074
:101DD00010208840304218D021680968090714D5BE
:101DE000A86020680168490304D50068000308D58D
:101DF000A16C07E00168C90503D4016821F008015E
:101E00000160216C09B12046884794F85C102020BD
:101E10008840304231D021680968C9062DD5A860B4
:101E200094F8350005282068016806D0490347D595
:101E3000006800031DD4616C1CE021F016010160F4
:101E40002068416921F080014161206C08B9A06CD3
:101E500020B12068016821F00801016094F85C104D
:101E60003F208840A86084F8358084F83490216D44
:101E70001FE0E16B09B120468847606D00282BD038
:101E8000606DC00714D0052084F835002068016813
:101E900021F0010101600098401C0090B84203D875
:101EA00020680068C007F6D184F8358084F8349043
:101EB000E16C002910D001B02046BDE8F04308478E
:101EC0000168C905D5D4016821F01001016084F8CA
:101ED000358084F83490CCE7BDE8F8830C0000200E
:101EE0002DE9F041044600F0A7F906465CB1022056
:101EF00084F83500002584F834502068016821F00A
:101F0000010101600DE00120BDE8F08100F094F9CD
:101F1000801B052805D920206065032084F8350042
:101F2000F2E720680068C007F0D1226811682048F5
:101F30000140D4E901031843D4E90336334318437D
:101F400063691843A3691843E3691843236A184374
:101F50000843616A042903D1D4E90B1319430843E8
:101F6000106020684069666A20F0070130460E4321
:101F7000012704280CD1A06A0643E06A40B120463C
:101F8000FFF740FC20B14020606584F83570BAE767
:101F9000206846612046FFF721FC94F85C203F2131
:101FA00091408160656584F835700020ACE70000E1
:101FB0003F8010F02DE9F0410446866D90F8340022
:101FC000002501280DD0012084F8340094F83570E4
:101FD0000020012F07D084F8340002252846BDE8F0
:101FE000F0810220FBE7022784F835706065204607
:101FF000FFF732FC94F85C103F208840B060206806
:10200000016841F016010160206C20B12068016870
:1020100041F0080101602068016841F001010160A0
:10202000DCE7000070B5044600F006F90546601CC8
:1020300002D004480078044400F0FEF8401BA0429F
:10204000FAD370BD000000202DE9F84FDFF8BCA1E5
:102050000022012503264FF00F090AF1040BAAF113
:10206000040E00BF0B6805FA02F42340A34270D1AE
:102070000F7907F00307012F01D0022F16D18768CF
:102080004FEA420806FA08FC27EA0C07D1F80CC010
:102090000CFA08FC4CEA070CC0F808C04768A743D4
:1020A0000C79C4F3001494403C4344600C79E4433D
:1020B000A4070AD0C4684FEA420C06FA0CF7BC43E6
:1020C0008F6807FA0CF72743C7600C7904F0030404
:1020D000022C12D1D40800EB840CDCF82040570706
:1020E000FF0E09FA07F824EA0804D1F8108008FA6C
:1020F00007F848EA0408CCF8208004684FEA420C4C
:1021000006FA0CF7BC430F7907F0030707FA0CF740
:10211000274307604C6814F4403F70D03C4C27685C
:1021200047F480472760246822F0030704F48044C2
:102130000094384C07EB040CDCF8084897074FEA8A
:10214000177809FA08F7BC43334FB84202D1002789
:1021500024E054E0314FB84201D101271EE0304F56
:10216000B84201D1022719E02E4FB84201D103270E
:1021700014E02D4FB84201D104270FE02B4FB84295
:1021800001D105270AE02A4FB84201D1062705E010
:10219000284FB84201D1072700E0082707FA08F7BF
:1021A0002743CCF80878DAF800405746D1F804C045
:1021B0009C435FEACC2C00D51C433C60DBF800401C
:1021C0005F46D1F804C09C435FEA8C2C00D51C43C9
:1021D0003C60DEF800407746D1F804C09C435FEADB
:1021E0008C3C00D51C433C60084F083F3C68D1F84C
:1021F00004C09C435FEACC3C00D51C433C60521CAD
:10220000102AFFF42FAFBDE8F88F0000083C014012
:102210004438024000300140000002400004024007
:1022200000080240000C024000100240001402406E
:1022300000180240001C02400148806870470000FE
:1022400000000020024881680278114481607047D4
:10225000000000200B4810B5016841F400710160D6
:10226000016841F480610160016841F4807101609E
:10227000032000F077F80F2000F006F800F024F8B3
:10228000002010BD003C024070B50D4D04464FF4D7
:102290007A712878B1FBF0F00A490968B1FBF0F0D7
:1022A00000F012FB48B9102C07D200222146501E24
:1022B00000F038F800206C6070BD012070BD000097
:1022C000000000200C0000200E4808B5016841F411
:1022D00080410160006800F4804000900948001FC0
:1022E000016841F0805101600068002200F08050D8
:1022F00000901146512000F015F8BDE8084051202B
:1023000000F002B844380240002809DB00F01F0248
:10231000012191404009800000F1E020C0F8001147
:1023200070470000F0B40E4B1B680C46C3F3022349
:10233000C3F10705042D00D90425191D072901D271
:10234000002300E0DB1E012606FA05F1491E2140AC
:1023500099409E40761E16403143F0BC02F018BDF5
:102360000CED00E0064900F0070208684FF6FF0395
:10237000184040EA0220034A1043086070470000FA
:102380000CED00E00000FA052DE9F0470E460500CF
:1023900065D0DFF81481D8F80000F7B200F007002C
:1023A000B04207D288F80070D8F8000000F00700AB
:1023B000B04254D128683D4C810712D5400703D55F
:1023C000206840F4E05020602878000703D520689A
:1023D00040F4604020602068A96820F0F0000843C5
:1023E00020602878C0072DD0304968680839012856
:1023F00012D0022813D0032811D0096889070029B8
:102400002DDA216821F0030101432160FFF714FF59
:10241000814641F2883A0EE009688903EFE70968CE
:102420008901ECE7FFF708FFA0EB0901514502D94C
:102430000320BDE8F0872068696800F00C00B0EB6D
:10244000810FEFD1D8F80010404601F00701B142EA
:1024500007D90770006800F00700B04201D00120E2
:10246000E7E72878400705D52068E96820F4E050C0
:10247000084320602878000706D52068296920F4E1
:10248000604040EAC100206000F038F82168084A46
:10249000C1F30311515CC840064908600648006852
:1024A000FFF7F2FE0020C4E7003C0240083802407B
:1024B000905700080C000020040000200448054943
:1024C00000680968044AC1F38221515CC840704722
:1024D0000C00002008380240A057000804480549B5
:1024E00000680968044AC1F34231515CC840704732
:1024F0000C00002008380240A0570008154810B50D
:10250000006810F00C02144813D04110042A0FD0B8
:10251000082A0ED10F4C241F2268236802F03F02C4
:102520005B0207D52068C0F38810A0FB010106E01C
:10253000084610BD2168C1F38811A1FB00010023EA
:10254000FDF73EFE2168C1F30141491C4900B0FB83
:10255000F1F010BD083802400024F4002DE9F84FD6
:1025600004006ED02078DFF84C93C007A9F1040571
:102570004AD009F104000168C1F38101012908D0A2
:102580000068C0F3810002280AD1D9F80000400297
:1025900006D52868800337D560680028E1D033E08D
:1025A0006068B0F5803F10D0B0F5A02F286810D03B
:1025B00020F480302860286820F48020286060683B
:1025C000A8B1FFF739FE06460DE0286840F48030D8
:1025D000F4E740F480202860F7E700BFFFF72CFE07
:1025E000801B642873D828688003F7D50CE0FFF7B8
:1025F00023FE064605E000BFFFF71EFE801B642891
:10260000F0D828688003F7D42078DFF8AC82800700
:102610004FF0000A3ED5A748001D016811F00C0FCD
:1026200008D00068C0F3810002280BD1D9F800005F
:10263000400207D42868800716D5E068012800D139
:1026400012E033E1E068B8B10120C8F80000FFF7FC
:10265000F3FD064605E000BFFFF7EEFD801B0228F4
:10266000C0D828688007F7D52868216920F0F800CD
:1026700040EAC10028600DE0C8F800A0FFF7DCFDCB
:10268000064604E0FFF7D8FD801B02281FD8286803
:102690008007F7D42078000722D5864F87486169E4
:1026A000703771B101210160FFF7C6FD064604E0F5
:1026B000FFF7C2FD801B022809D838688007F7D5CC
:1026C0000EE0C0F800A0FFF7B7FD064605E082E087
:1026D000FFF7B2FD801B02287DD838688007F7D449
:1026E0002078400768D5DFF8CCB100270BF13C0B10
:1026F000DBF80000C0000BD4DBF8001041F0805183
:10270000CBF80010DBF80000012700F080500090AB
:102710006B4E3068C00510D4306840F48070306073
:10272000FFF78AFD009005E0FFF786FD0099401A4B
:10273000022850D83068C005F6D55E4EA0686C36C9
:1027400001280FD00528306810D020F0010030603B
:10275000306820F004003060A068B8B1FFF76CFD6D
:1027600000900FE0306840F00100F4E740F0040012
:102770003060F7E7FFF760FD0099411A41F28830B9
:10278000814266D830688007F4D50EE0FFF754FD2B
:10279000009007E0FFF750FD0099411A41F28830A0
:1027A000814256D830688007F4D42FB1DBF800108E
:1027B00021F08051CBF80010A069C8B33D49091D34
:1027C0000968C1F3810102294AD00228504607D086
:1027D000C8F8600000E03CE0FFF72EFD04463BE057
:1027E0004746C8F86000FFF727FD064605E000BF32
:1027F000FFF722FD801B02282BD828688001F7D420
:10280000D4E907010843A16A2E4A490802EB0141B5
:10281000626A41EA8211084394F82C1040EA01618F
:10282000C9F8001001203866FFF706FD044606E0EF
:102830003EE000BFFFF700FD001B022809D8286812
:102840008001F7D534E000BFFFF7F6FC001B02283B
:1028500002D90320BDE8F88F28688001F4D427E06E
:102860000128F7D0D9F80000E26900F48001914214
:102870001CD1226A00F03F01914217D147F6C07186
:10288000626A0140B1EB821F10D1A26A4FF0FF33A0
:1028900000F4403103EB5202B1EB024F06D194F841
:1028A0002C1000F07060B0EB016F01D00120D1E777
:1028B0000020CFE70438024000004742800E474224
:1028C000007000400000FFFF10B5401EB0F1807F97
:1028D00001D3012010BD4FF0E02460610F2160178B
:1028E00002F056FA0020A06107202061002010BDF0
:1028F0007047704770B590F83C20012A32D001240F
:1029000080F83C40022280F83D2003685A689D68A8
:1029100022F070060A6832435A60134B02689A42EA
:1029200014D0B2F1804F11D0104B9A420ED0104B00
:102930009A420BD00F4B9A4208D00F4B9A4205D0C7
:102940000E4B9A4202D00E4B9A4204D1496825F0B0
:1029500080031943916080F83D40002180F83C10CD
:10296000084670BD022070BD000001400004004018
:1029700000080040000C00400004014000400140FD
:102980000018004010B5040003D094F83D0010B1C9
:1029900007E0012010BD002084F83C00204600F034
:1029A0001FF8022084F83D00211D206801F06AFE16
:1029B000012084F8460084F83E0084F83F0084F843
:1029C000400084F8410084F8420084F8430084F811
:1029D000440084F8450084F83D00002010BD00004C
:1029E00008B5154A0168154891420ED1016841F0B9
:1029F000100101600068002200F0100000901146F4
:102A00003620FFF78FFC362010E00D4A914211D19D
:102A1000016841F0200101600068002200F0200000
:102A2000009011463720FFF77DFC3720BDE80840B5
:102A3000FFF76ABC08BD00000010004040380240AB
:102A40000014004090F83D10012901D0012070478A
:102A5000022180F83D100168CA6842F00102CA6094
:102A600000681149884214D0B0F1804F11D00F494D
:102A700088420ED00E4988420BD00E49884208D0B9
:102A80000D49884205D00D49884202D00C49884240
:102A900004D1816801F00701062903D0016841F0E3
:102AA0000101016000207047000001400004004067
:102AB00000080040000C00400004014000400140BC
:102AC0000018004070472DE9F04104460068C668D0
:102AD00005694FF00007A90713D5B10711D5F91EF5
:102AE000016101202077206880698007204602D09C
:102AF000FFF7E8FF04E000F07EF8204600F07CF8E5
:102B00002777680716D5700714D521686FF0040081
:102B10000861022020772068806910F4407F2046F9
:102B200002D0FFF7CFFF04E000F065F8204600F088
:102B300063F82777280715D5300713D521686FF07C
:102B400008000861042020772068C06980072046BB
:102B500002D0FFF7B7FF04E000F04DF8204600F088
:102B60004BF82777E80616D5F00614D521686FF0E4
:102B700010000861082020772068C06910F4407FA9
:102B8000204602D0FFF79EFF04E000F034F8204614
:102B900000F032F82777E80708D0F00706D0216860
:102BA0006FF001000861204600F028F8280608D5DB
:102BB000300606D521686FF0800008612046FFF7D7
:102BC00097FE680608D5700606D521686FF04000AC
:102BD0000861204600F060F8A8060AD5B00608D5BE
:102BE00021686FF0200008612046BDE8F041FFF742
:102BF00080BEBDE8F08170477047000070B50646A2
:102C00001E4800251E4C864226D12078012801D07E
:102C100070B10EE0A088401C81B2A18019A002F022
:102C200093F8A088E188884203D3A580257000E04E
:102C3000A5806078012801D050B10AE06089401C6D
:102C400080B260812189884203D36581657000E08C
:102C50006581208A401C20820E4886420AD1A078D5
:102C600048B1E089401C80B2E081A189884201D34B
:102C7000E581A57070BDE58170BD0000B800002041
:102C80008600002074372E7478743D22256422FF5C
:102C9000FFFF0000000100207047704710B5044698
:102CA0000068406994F84110C0F3C010212911D187
:102CB00080B12068143050E8001F21F0800140E806
:102CC0000012002AF5D1A06B08B1FEF7DDFF204607
:102CD00001F016FE2068406994F84210C0F380109D
:102CE000222911D180B12068143050E8001F21F052
:102CF000400140E80012002AF5D1E06B08B1FEF770
:102D0000C3FF204601F0D5FD002010BD7047000034
:102D1000F8B5016804460868CA684B6910F00F0FDF
:102D20004FF0000559D003F0010602F490773743C5
:102D300065D0C10705D0D10503D5616C41F0010113
:102D40006164410705D5D90703D0616C41F00201E8
:102D50006164810705D5D90703D0616C41F0040196
:102D60006164010707D502F02001314303D0616C93
:102D700041F008016164616C00293AD0800604D5F5
:102D8000900602D5204601F0C9FD20684069616CBB
:102D9000C0F38010090700D460B3204601F089FD1C
:102DA00020684069400621D52068143050E8001F93
:102DB00021F0400140E80012002AF5D1E06BA8B1F3
:102DC0006E490165E06BFEF7A8FF002811D0E06BAB
:102DD000016D01B0BDE8F040084783060FD59306AA
:102DE0000DD52046BDE8F84001F098BD2046FFF71C
:102DF0008DFFF8BD2046FFF789FF6564F8BD266B9F
:102E00002023012E7DD1C6067BD5D60679D508684C
:102E10004868009048694FF00206400641D5E16BD2
:102E2000086840680004000CE8D0A28D8242E5D911
:102E3000E085C869B0F5807F2DD020680C3050E85F
:102E4000001F21F4807140E80012002AF5D12068AB
:102E5000143050E8001F21F0010140E80012002A60
:102E6000F5D12068143050E8001F21F0400140E8FF
:102E70000012002AF5D184F84230256320680C3016
:102E800050E8001F21F0100140E80012002AF5D19F
:102E9000E06BFEF7F9FE6663A08DE18D401A81B20A
:102EA0002AE0A08DE18D401A81B2E08D0028A5D0E6
:102EB0000029A3D022680C3252E8000F20F4907051
:102EC00042E80007002FF5D12068143050E8002FA9
:102ED00022F0010240E80027002FF5D184F84230AB
:102EE000256320680C3050E8002F22F0100240E8E3
:102EF0000023002BF5D166632046FFF7CEFEF8BD18
:102F0000FFE705062BD5150629D594F841002128A1
:102F1000F5D1A068B0F5805F01D12069B0B1206A19
:102F2000411C2162216800784860E08C401E00044A
:102F3000000CE084E3D12068C16821F08001C16009
:102F40002068C16841F04001C160D8E7206A00886C
:102F5000C0F308004860206A801C2062E5E7400654
:102F6000CDD55006CBD5CA68204622F04002CA60B3
:102F700084F8413000F058FAC1E7000069470008C2
:102F800070B5040004D094F84100002510B106E0AB
:102F9000012070BD84F84050204600F023F8242022
:102FA00084F841002068C16821F40051C1602046C6
:102FB00001F016FD2068016921F49041016120684B
:102FC000416921F02A0141612068C16841F4005142
:102FD000C1606564202084F8410084F84200656384
:102FE000002070BD2DE9F04186B0064614216846E8
:102FF000FDF71EF98548844BD6F800C08349103888
:1030000003250227824A00244FF008089C451BD163
:103010000B6843F400230B60096801F4002105915B
:10302000016841F0010101600068CDE9005700F03E
:103030000100CDE9048069461046CDE90245FFF75D
:1030400003F806B0BDE8F081724B9C4532D10A68A6
:1030500042F480120A60096801F480110591016848
:1030600041F004010160016801F00401059101686B
:1030700041F008010160006802AA00F00800059014
:103080009814CDE9000782E8300169466248FEF7EE
:10309000DBFF0420CDE9000702AA694682E830017F
:1030A0005E48FEF7D1FF002211463520FFF73AF9BE
:1030B000352027E0DFF868810723C44525D153492F
:1030C000091D0E6846F010060E60096801F0100137
:1030D0000591016841F0010101600068029400F06F
:1030E000010005904FF4C060CDE90007CDE903531E
:1030F00069461046FEF7A8FF002211462520FFF77B
:1031000011F92520FFF700F99BE7DFF81881C44586
:1031100054D1D1F800C04CF4003CC1F800C009689B
:1031200001F400310591016841F00101016000687E
:10313000029400F0010005900C20CDE90007CDE9D4
:10314000035369461046FEF77FFF384D36484FF06F
:1031500000672860C5E901744FF48068C5E9034839
:103160006C614FF44030AC61C5E9074028466C62A1
:10317000FEF7B6FE08B1FEF7BDFBF563AE632B4D5F
:10318000294860351830E5E802074020A5E811011C
:10319000264845F814496030AC61EC612C626C62E1
:1031A000FEF79EFE08B1FEF7A5FBB56300221146AF
:1031B0002620AE63FFF7B6F82620A3E71C4A944505
:1031C000A2D10A6842F480220A60096801F48021D1
:1031D0000591016841F0020101600068029400F06D
:1031E000020005904FF44060CDE90007CDE903539C
:1031F00069461048FEF728FF002211462720FFF7F6
:1032000091F827207EE70000004C00404038024043
:10321000000002400050004000080240000C024044
:10322000001001400044004088600240B0020020CD
:10323000004800400004024090F84230202B01D0AA
:103240000220704721B11AB10023036301F04EBC84
:103250000120704790F84230202B01D002207047A7
:1032600021B11AB10023036301F088BC012070472B
:1032700070B5044600681349884207D1204601F022
:10328000E1FC0100104800D0012101700F492068C5
:10329000884203D10E48007800F0ECFB0D4D206809
:1032A000A84202D1204600F019F82068A84202D1B5
:1032B000204600F08BF9BDE8704001220449064821
:1032C000FFF7C8BF00100140100000200048004078
:1032D0003E000020005000406802002010B5094C5C
:1032E00000682168096888420BD107480178A06806
:1032F00000F0B3FD2068BDE8104001220249FFF74D
:10330000A9BF10BDBC0700209800002070472DE920
:10331000F843044690F84100984616460D4620288A
:1033200002D00220BDE8F88385B17EB10020606440
:10333000212084F84100FEF77FFFA6848146E684C1
:10334000A0682027B0F5805F02D003E00120E9E704
:10335000206910B12E4600250EE000260CE08021E9
:10336000204601F026FCA8B9C6B116F8010B216869
:103370004860E08C401EE084E08C4B464FF0000239
:10338000CDF800800028EAD14FF04001204601F03E
:1033900010FC40B184F841700320C3E735F8020BFC
:1033A000C0F30800E3E784F841700020BAE70000AA
:1033B00070B5044690F84100202801D0022070BD6D
:1033C00049B342B32162A284E284002060642123D5
:1033D00084F84130A56B114BEB63A56B104B2B644C
:1033E000A56B104BEB64A36B1865256813462A1D6B
:1033F000A06BFEF7DFFD21686FF0400008602068D9
:10340000143050E8001F41F0800140E80012002A0B
:10341000F5D1002070BD012070BD00006748000894
:10342000A94800087947000870477047FEE7000088
:10343000074B10B501225A70CBB202B241F294117F
:10344000052000F011FCBDE8104000F0B7BB000003
:1034500034000020074B10B502225A70CBB202B2E2
:1034600041F29411052000F0FFFBBDE8104000F090
:10347000A5BB000034000020064B10B500225A7096
:10348000CBB202B20021052000F0EEFBBDE81040F7
:1034900000F094BB34000020074B10B505225A7091
:1034A000CBB202B24FF4FA61052000F0DDFBBDE8BB
:1034B000104000F083BB0000340000201CB50BA1BD
:1034C000D1E90001CDE900010A480068C16841F076
:1034D0001001C1601E2208490648FFF7ADFEFF2219
:1034E00069460448FFF764FF1CBD0000FFAA760090
:1034F00000000000200200207003002070B5204D65
:10350000287801283BD11F4C607CA17C227D084497
:10351000E17C11440844A830617DC0B2884221D1C9
:1035200019A001F011FCB4F81100DFED1A0A00EE49
:10353000100A1B49B8EE400A20EE200ADFED160AF9
:1035400020EE200ADFED150A85ED010A30EEC00AF3
:1035500010EE100A85ED020A884203DB9FED110A86
:1035600085ED020A002028701E210648FCF760FE47
:10357000BDE870401E2203490B48FFF75DBE70BDD9
:1035800028000020700300204552524F52210D0A9E
:103590000000000000000038000034430000B44385
:1035A0000000B443000000002002002010B50122FA
:1035B00004490548FFF74EFEBDE810406420FEF7C1
:1035C00061B9000019000020900100202DE9F843A6
:1035D000DFF8D880364C454698F8000098F801107E
:1035E00001222154401C88F80000691C3148FFF773
:1035F00031FE2878092815D12078002760B9207A73
:10360000EF2809D160780A280ED00C2832D00D2876
:1036100045D029A001F098FB254807604760077254
:1036200088F80070BDE8F883204E0025B61D6019AB
:1036300026A18278684601F097FB9DF8000070553E
:103640006D1C032DF3DB2B20F070002560191FA1EA
:103650004279684601F088FB71199DF800006D1CE5
:103660000871032DF2DB1149F771891D18A001F0D3
:103670006BFBD1E72079E17840EA0110A1780A29B3
:1036800000D040420949891C0880E079A27940EACB
:10369000021062790A2A00D040424880BCE7A07834
:1036A0000228B9D10E480770B6E7000018000020C4
:1036B000A4000020900100207431302E7478743DF5
:1036C000226572726F7222FFFFFF00002564000006
:1036D0007431302E7478743D22257322FFFFFF0071
:1036E000130000200F4A10B5002142F8091F516055
:1036F00011720C4A093211700B2151700221505481
:10370000491C0729FBDDEF20107206494FF47A733C
:10371000092209310448FFF7FAFDBDE810401420E2
:10372000FEF7B0B8A40000209001002008B50648BC
:1037300000230093C8229FED030A01210068FEF7D1
:103740000BFA08BD0000EC428000002008B50548D7
:1037500000230093C822B0EE080A01210068FEF79A
:10376000FBF908BD8000002008B50648002300933F
:10377000C8229FED030A01210068FEF7EDF908BD9C
:103780000000D4C2800000200D4808B5016841F453
:10379000001101600068002200F400100090114642
:1037A0001020FEF7BFFD1020FEF7AEFD00221146EF
:1037B0001120FEF7B7FDBDE808401120FEF7A4BDBB
:1037C00030380240154808B5016841F080010160B9
:1037D000016801F080010091016841F00101016080
:1037E000016801F001010091016841F002010160EE
:1037F000016801F002010091016841F004010160DB
:10380000016801F004010091016841F008010160C4
:10381000006800F00800009008BD00003038024049
:103820001CB500240F4800940D490194016042F238
:10383000CF01C0E901146321C16080218161FFF7DC
:10384000A1F808B1FEF756F80094694605480194BE
:10385000FFF750F8002801D0FEF74CF81CBD00001F
:1038600000100040B80000201CB500240F48009450
:103870000D490194016042F2CF01C0E901146321B6
:10388000C16080218161FFF77DF808B1FEF732F851
:103890000094694605480194FFF72CF8002801D0F0
:1038A000FEF728F81CBD00000014004000010020B5
:1038B0000C4810B50A4901604FF4E1314160002124
:1038C00081600C22C160C0E904128161C161FFF70F
:1038D00057FB002803D0BDE81040FEF70BB810BD21
:1038E000004C0040480100200C4810B50A49016016
:1038F0004FF4E1314160002181600C22C160C0E9D8
:1039000004128161C161FFF73BFB002803D0BDE8D1
:103910001040FDF7EFBF10BD0050004090010020A7
:103920000C4810B50A4901604FF461214160002143
:1039300081600C22C160C0E904128161C161FFF79E
:103940001FFB002803D0BDE81040FDF7D3BF10BD1A
:1039500000100140D80100200C4810B50A49016050
:103960004FF4E1314160002181600C22C160C0E967
:1039700004128161C161FFF703FB002803D0BDE899
:103980001040FDF7B7BF10BD0044004020020020EA
:103990000C4810B50A4901604FF4E1314160002143
:1039A00081600C22C160C0E904128161C161FFF72E
:1039B000E7FA002803D0BDE81040FDF79BBF10BD1B
:1039C0000048004068020020FEE700000B4910B5E7
:1039D0000870F3204870AB2088700120C870002068
:1039E00008716B2048714FF47A7306220448FFF780
:1039F0008EFCBDE810400A20FDF744BFA203002062
:103A00006802002010B50120FFF7E0FF0220FFF759
:103A1000DDFF0320FFF7DAFF0420FFF7D7FFBDE843
:103A200010400520FFF7D2BF104810B50068C168EC
:103A300041F02001C16001220D490C48FFF70AFC4A
:103A4000052000F08DF8012000F08AF8022000F037
:103A500087F8032000F084F8042000F081F8642047
:103A6000FDF710FFBDE81040FFF7CCBF6802002053
:103A70003E000020F0B5384A012411461779CB7872
:103A8000591CCEB23549C7B10225012F1ED0022FD5
:103A900012D1D07801EB400030F8023C00206B2BB3
:103AA0001DD01071D07015705FF0000221F8120067
:103AB000521CD2B20A2AF9D3F0BD012801D0052840
:103AC000FAD1147121F81300D670F0BD21F813005B
:103AD000D6700A2E01D26B28F7D11571D9E7D070B4
:103AE00010710B88012B02D0052B10D01AE04B88E7
:103AF000FD2B17D18B889F2B14D114705FF000021F
:103B000021F81200521CD2B2042AF9D3F0BD4B881E
:103B1000FD2B02D0272B18D004E08B889F2B01D1DE
:103B2000937843B15FF0000221F81200521CD2B228
:103B30000A2AF9D3F0BD94705FF0000221F8120058
:103B4000521CD2B2042AF9D3F0BDC888097940EAE0
:103B500001209081F0BD0000340000208E03002081
:103B60002DE9F041134C05466B262070FE20607055
:103B70009820A0700020E0704FF47A7726713B46C1
:103B8000052221460C48FFF7C2FB0A20FDF77AFE0A
:103B900025700A2060706D20A070E6703B460422FC
:103BA00021460548FFF7B3FBBDE8F0410A20FDF7C9
:103BB00069BE0000A203002068020020074800211F
:103BC0004FF47A730170FF214170662181706B217F
:103BD000C170014604220248FFF799BBA2030020EE
:103BE0006802002070B50446104600F0BBF885B2AC
:103BF0001A48FD26012C0470467005D0042C03D011
:103C0000002A03DB012202E0002AFBDB0022827093
:103C10002A0AC270057143710A0E82710A0CC271C0
:103C20000A0A02724172002585720121C1726B215C
:103C300001734FF47A730D2208490948FFF767FBB7
:103C4000012C05D1074C0A202570FDF71BFE2570BD
:103C5000BDE870400120FDF733BE0000A203002044
:103C6000680200203400002070B50446104600F0C1
:103C700079F885B22248FD26012C0470467005D0E3
:103C8000042C03D0002A03DB012202E0002AFBDB24
:103C9000002282702A0AC270057143710A0E827175
:103CA0000A0CC2710A0A0272417201218172C17248
:103CB0006B2101734FF47A730D2211491148FFF7FC
:103CC00026FB0A20FDF7DEFD0D4A0F4B0021143ABA
:103CD000012C0BD0052C08D10020997022F810106F
:103CE000401CC0B20428F9D3997070BD002019702F
:103CF00022F81010401CC0B20428F9D370BD000097
:103D0000A2030020680200203400002070B50346A2
:103D1000084600F027F884B21048F6250370457075
:103D20000125012B17D0042B15D005EBE171817013
:103D3000210AC1700471427185716B21C1714FF408
:103D40007A73082205490648FFF7E1FABDE870409A
:103D50000120FDF7B5BDC90FE9E70000A20300206F
:103D600068020020002800DA40427047FEE77047F2
:103D700000B503895B1E00F003F8181A80B200BD7D
:103D80008288C1888A4203D90089511A401A00E00A
:103D9000881A80B27047F0B50746FFF7F1FF00249C
:103DA0000646254606E0A9B2384600F007F820444A
:103DB000C4B26D1CB542F6DB2046F0BD10B50C4612
:103DC0000346FFF7DDFFA04201D8002010BD988810
:103DD000641C19892044B0FBF1F201FB1200196840
:103DE00080B2085C10BD026000228280C280491C43
:103DF0000181114603E003685A54491C89B20389C2
:103E00008B42F8D8704710B50446FFF7B1FF2189FF
:103E1000491E89B2884201D1012010BD002010BD89
:103E200000B5FFF7A5FF08B1002000BD012000BDCF
:103E300010B50446FFF7E7FF08B1002010BDA088C9
:103E40002189401CB0FBF1F201FB120081B2A1807C
:103E500022680023505C535410BD30B50D46044613
:103E6000FFF7DEFF10B12046FFF7E2FFE08821896F
:103E7000401CB0FBF1F201FB120080B2E08021682F
:103E80000D5430BDFFF7D4BFFFF7E7BFF0B51546BF
:103E90000E460746002405E0315D3846FFF7DDFF9A
:103EA000641CA4B2AC42F7D3F0BD03B501A9022251
:103EB000FFF7ECFF0CBD03B501A90222FFF7E6FFF7
:103EC0000CBD7047014900200871704710000020A8
:103ED0002DE9F05FF949F74801240B78F54900799D
:103EE000F54D91F803C08A7849784FF0C8094FF42E
:103EF000C87B4FF050084FF42F7A4FF4AF77082863
:103F00001FD2DFE800F004206AF5EDECEBEA0023B5
:103F10001A4619461846FDF795FAE64CE8A061786E
:103F200000F012FF2179EAA000F00EFF20780128AE
:103F300007D14FF4FA60FDF7A5FC022020710020A4
:103F40002070BDE8F09FDD4F0BB1012AF9D1D94EA9
:103F50000829F6D2DFE801F0041322F1292D353EBD
:103F6000D7A000F0F1FE3179D9A000F0EDFEA5F860
:103F700000909623C82200213C70584205E2D0A050
:103F800000F0E2FEA5F800B096233C705A0040F223
:103F9000AA51D0E07078401C7070D2E7C8A000F041
:103FA000D3FEA5F800803C7072E1BCF1000F73D025
:103FB0000AE0BCF1000F70D006E000BFFCF7A6FCE1
:103FC00002E0BCF1000F69D07178BDE8F05FBCA0E1
:103FD00000F0BABE00207070FFE0B84E0BB1012AAD
:103FE000AFD1B44F0529ACD2DFE801F003141E2B8A
:103FF0007C000146B6A000F0A7FE7978B0A000F0E2
:10400000A3FEA5F800809623C822347000216FF02B
:10401000310013E0AAA000F097FEA5F800909623C7
:1040200034705A00AE4908E0A5A000F08DFEA5F856
:1040300000A0AC49347082235A460020FDF702FAF2
:1040400047E00146A2A000F07FFEA7480178322990
:1040500004D0312914D0332927D0A4E04178312964
:1040600002D0332906D09EE0807833280DD1FCF7AA
:1040700099FE2BE08078312807D1FCF747FF25E037
:104080004178322902D0332909D08CE08078332856
:1040900010D1FCF721FD19E007E13BE13DE180781B
:1040A000322807D1FCF7D0FD10E04178312902D049
:1040B000322906D077E08078322874D1FCF7DAFF15
:1040C00004E0807831286ED1FDF784F800283FF4B1
:1040D00064AF7878401C787033E7F3E1A6E134E10F
:1040E0007DE005E0002AF7D100207870387128E7DC
:1040F000DFF8C8810BB1012AEED16E4E0529EBD253
:10410000DFE801F0031C2AD659006DA000F01CFE68
:1041100031796FA000F018FE73482F8088F80040B6
:10412000807831287ED032287DD033287FF432AF9A
:1041300096236E495A00002027E1AEE060A000F00F
:1041400003FEC822B47011464FF4877047E1B0787F
:1041500000283FF41FAFF4E659A000F0F5FD2F80D2
:1041600088F800406CE0807833286ED01BE033295B
:1041700019D18078312869D015E0807833286ED045
:1041800011E033290FD18078322869D00BE0332930
:1041900067D008E08078322871D004E0322902D15B
:1041A000807831286CD0BDE8F05F51A000F0CCBD24
:1041B0000028BBD1C5E642A000F0C6FDC821B470FE
:1041C0000846FDF7D7F810B10020B07002E0B078D3
:1041D00000288CD10020707004203071B1E6DFF827
:1041E000DC900BB1012AB6D1324E0929B3D2DFE8F7
:1041F00001F0082E3948540706059700E1E6D8E695
:10420000D3E62FA000F0A0FD317931A000F09CFD95
:1042100035482F8089F80040807831280BD032282B
:104220000ED001E012E115E13328C2D196232F49C7
:104230005A000F317FE796232C495A0055397AE707
:1042400096232A495A00B93975E710E112E11CA0FA
:1042500000F07AFDC822B47011460020BFE00CE1E6
:104260000EE110E116A000F06FFD4FF48C70288075
:10427000962389F80040FA226FF4D4715BE707E1D6
:1042800009E10FA000F060FDA5F8008089F800406A
:104290009623C8220021322077E00420FFF722FA7B
:1042A000717807A000F050FD74E6F470012085E6F7
:1042B000D5E00000100000208C00002086000020C7
:1042C00074392E7478743D22256422FFFFFF0000AC
:1042D00074352E7478743D22256422FFFFFF0000A0
:1042E00070FEFFFF48F9FFFF1E0000205DFDFFFF8D
:1042F00074382E7478743D224572726F723A204978
:104300006E76616C696420515220436F646522FFB0
:10431000FFFF0000F470022050E6F47003204DE629
:10432000AFF2640000F010FDC821B4700846FDF73C
:1043300021F810B10020B07003E0B07800287FF4BD
:104340002CAE00207070052047E7994F0BB1012A71
:10435000F5D1984E0829BFF420AEDFE801F004192A
:10436000242D38484F610146AFF29C0000F0ECFC70
:104370007178AFF2B40000F0E7FCA5F800803C7063
:104380009623C82200216FF03100FDF75BF801E6AB
:10439000AFF2D40000F0D8FCA5F8009096233C7052
:1043A0005A008549C7E6AFF2E80000F0CDFC96223E
:1043B000C821B4705A2012E0AFF2FC0000F0C4FC37
:1043C000A5F800A03C7082235A467C49B3E6AFF2C0
:1043D000101000F0B9FCC822B4701146B420FDF7EB
:1043E000C9F800283FF4B3AE0020B070D2E5014612
:1043F000AFF2241000F0A8FC7178CFE50146AFF2CF
:10440000301000BF00F0A0FC6D480178322929D09F
:1044100031297FF4BCAE417832297FF4B2AEACE6EC
:10442000002A8CD1002070700620D6E6DFF880814B
:104430000BB1012A8CD15F4E05298CD2DFE801F047
:104440000504030F2E0087E678E65EE696235A0001
:104450005C4970E696235B495A0064396BE6AFF21B
:10446000A010CFE7417831297FF481AE7BE6FCF7DD
:1044700099FC9DE6FCF74AFD9AE6FCF72DFB97E6D2
:10448000FCF7E2FB94E6417831297FF487AE81E6C0
:10449000FCF7F0FD8CE6FCF79DFE89E6AFF2E0103C
:1044A00000F052FCC821B4700846FCF763FF10B15D
:1044B0000020B07002E0B0780028B2D10020707007
:1044C00007208AE63A4E0BB1012AAAD1DFF8E48030
:1044D0000529B2D2DFE801F0032F49576600AFF299
:1044E000202000F031FC98F80410AFF21C2000F0FE
:1044F0002BFC33482F8034708078312804D0322848
:1045000007D033280AD010E096232E495A000F31E5
:1045100008E096232B495A00553903E09623294990
:104520005A0073310020FCF78DFF98F80110491CE8
:1045300088F8011005E5AFF2782000F005FCC822EC
:1045400088F8024011460020FDF714F818B1002049
:1045500088F8020003E098F802000028EAD198F8F1
:104560000100401C88F80100EBE4AFF2AC2000F041
:10457000EBFB4FF48C70114928809623F531347091
:104580005A4600200BE0AFF2C82000F0DDFB4FF4EC
:104590008C702880347096235A4600214B20FCF7FB
:1045A00051FFDCE7002088F8010088F80400C8E427
:1045B000860000201000002070FEFFFF48F9FFFF7A
:1045C0001E000020F9FCFFFFFDF73CBE30B593B0A4
:1045D00030216846FBF72CFE14210CA8FBF728FEBF
:1045E0001C480025016841F080510160006800F01E
:1045F000805011901848016841F4804101600068C2
:10460000022400F4804011900120009000040190E9
:104610008001CDE9064008AA0420A82182E8130001
:104620000B906846FDF79AFF08B172B6FEE70CA939
:104630000F2081E831004FF4A0500F901090052119
:104640000CA8FDF7A1FE002801D072B6FEE713B05A
:1046500030BD000040380240007000400248016850
:1046600041F470010160704788ED00E00148FEF7F9
:104670002ABA0000B80000200148FEF724BA000062
:1046800000010020F0B50268294C2A4D2A4E2B4F1C
:104690002B4B4FF0804CA04209D0604507D0A84278
:1046A00005D0B04203D0B84201D0984204D122F0E4
:1046B000700E4A6842EA0E02A0421BD0604519D033
:1046C000A84217D0B04215D0B84213D0984211D0AA
:1046D0001C4DA8420ED01C4DA8420BD01B4DA84229
:1046E00008D01B4DA84205D01A4DA84202D01A4D41
:1046F000A84203D122F44075CA682A434D6922F0CA
:1047000080022A4302608A68C2620A688262A0420A
:1047100001D0984201D10969016301214161016918
:10472000C90703D0016921F001010161F0BD00005A
:10473000000001400004004000080040000C004060
:104740000004014000400140004401400048014095
:1047500000180040001C0040002000400148FEF707
:10476000D7BA00009001002010B5806B0021C185F0
:10477000C184FEF7CBFA10BD70B5846B2068406928
:1047800094F84110C0F3C0100025212904D118B1BC
:10479000E584204600F0B4F82068406994F842109F
:1047A000C0F38010222904D118B1E585204600F01D
:1047B00080F8606C40F0100060642046FEF7A6FAB6
:1047C00070BD10B50146806B096809684FF00002A2
:1047D000C9052ED4C28501680C3151E8003F23F48D
:1047E000807341E80034002CF5D10168143151E8A0
:1047F000003F23F0010341E80034002CF5D10168AB
:10480000143151E8003F23F0400341E80034002C0C
:10481000F5D1202180F84210016B012909D10168EE
:104820000C3151E8003F23F0100341E80034002C24
:10483000F5D14263016B012902D0FEF719FD10BDCD
:10484000818DFEF72AFA10BD10B5806B01214163FE
:10485000016B012902D0FEF759FD10BD818D490879
:10486000FEF71BFA10BD10B50146806B0968096898
:10487000C90516D40021C1840168143151E8002F04
:1048800022F0800241E80023002BF5D101680C31B1
:1048900051E8002F42F0400241E80023002BF5D1FF
:1048A00010BDFEF7C1FD10BD10B5806BFEF7BDFD5C
:1048B00010BD01680C3151E8002F22F4907241E8DC
:1048C0000023002BF5D10168143151E8002F22F0AC
:1048D000010241E80023002BF5D1016B012909D128
:1048E00001680C3151E8002F22F0100241E800234A
:1048F000002BF5D1202180F8421000210163704780
:1049000001680C3151E8002F22F0C00241E8002379
:10491000002BF5D1202180F84110704708B590F8A0
:104920004210222901D0022008BD82684FF4805332
:104930009A4201D1016921B1816A9A421BD04AB1E0
:104940000AE00268816A5268C2F308020A80816A3A
:10495000891C08E0026972B10268526802F07F02A5
:104960000A70816A491C8162C18D491E0904090CC3
:10497000C18503D01BE002685268F1E70168CA688C
:1049800022F02002CA600168CA6822F48072CA60FC
:1049900001684A6922F001024A61202180F8421030
:1049A00000214163026B012A03D0FEF761FC002065
:1049B00008BD016301680C3151E8002F22F010029C
:1049C00041E80023002BF5D101680A68D20602D520
:1049D0000A6849680091818DFEF75FF9E7E70000FA
:1049E00070B5044600680169E26821F44051114342
:1049F00001612169A068E2690843616911430843C4
:104A00002168CA6849F20C639A430243CA6020686D
:104A10004169A26921F44071114341613149206823
:104A2000884202D03049884202D1FDF757FD01E0AB
:104A3000FDF744FDE2690023192164253226B2F511
:104A4000004F626828D0A0FB0101930F9200FBF792
:104A5000B7FB0146B0FBF5F06FF01802504301EBD5
:104A6000800006EB0010B0FBF5F000F0F002B1FBA7
:104A7000F5F002EB0012B1FBF5F06FF018035843AC
:104A800001EB800006EB0010B0FBF5F000F00F002A
:104A900021681044886070BDA0FB010192185B4141
:104AA000FBF78EFB0146B0FBF5F00201B1FBF5F020
:104AB0006FF01803584301EB800006EBC000B0FB19
:104AC000F5F000F0F80002EB4002B1FBF5F05843BE
:104AD00001EB800006EBC000B0FBF5F000F0070032
:104AE000D6E70000001001400014014038B5816293
:104AF00004468285002013466064222284F8422006
:104B0000E56B1B4AEA63E56B1A4A2A64E56B1A4AAD
:104B1000EA64E26B10650A462168E06B091DFDF747
:104B200049FA2068016840680090206948B120680F
:104B30000C3050E8001F41F4807140E80012002A58
:104B4000F5D12068143050E8001F41F0010140E821
:104B50000012002AF5D12068143050E8001F41F0FF
:104B6000400140E80012002AF5D1002038BD0000C5
:104B7000C3470008494800087947000881628285D8
:104B8000C28500214164222180F84210016921B1CF
:104B90000168CA6842F48072CA6001684A6942F0DA
:104BA00001024A610068C16841F02001C160002033
:104BB00070472DE9F843984617460D460446089E6F
:104BC00024E0701C22D0FDF737FBA0EB0800B042B8
:104BD0001AD8CEB12068C168490717D5802D15D0E5
:104BE000402D13D00168C94309070FD4016800257F
:104BF000406800902046FFF75CFE0820606484F85F
:104C000040500120BDE8F8830320FBE720680068DE
:104C100035EA000004D00020B842D2D00020F1E7ED
:104C20000120F9E710B5012204490548FEF712FBFF
:104C3000BDE810406420FCF725BE000017000020EE
:104C4000D801002070B50E4C0025607868B9264662
:104C5000A0783070012060700246A11C0948FEF760
:104C6000F9FA6078012803D000E06570002070BD7B
:104C70003078552801D02570F7E76570012070BDA8
:104C800015000020D80100200148FEF741B80000BF
:104C9000D8010020094808B500680168C90608D590
:104CA0000168406800900548FDF7F8FF04490120BD
:104CB0000870BDE808400148FEF72AB8200200202D
:104CC000280000200148FEF723B8000068020020F9
:104CD000FEE738B504460AE06068FFF7A9F88DF8EA
:104CE000000001231A4669462068FEF710FB606841
:104CF000FFF746F80028EFD138BD000070B50E4A26
:104D000004464FF4FA75294602F57B70FFF76BF8FD
:104D10000A4A294602F20320FFF765F8084901F123
:104D20000C0081600C39C0E900412046BDE87040AC
:104D300001220449FEF78EBAB8030020AD05002019
:104D4000B0070020980000200FB4054B10B503A950
:104D5000044A029800F040F910BC5DF814FB000012
:104D6000115700089C0000200FB4084B10B504A98F
:104D700002AA039800F030F9044602A9002000F0CE
:104D8000C2FC204610BC5DF814FB00000757000869
:104D90000907090E002804DB00F1E02080F8001468
:104DA000704700F00F0000F1E02080F8141D7047FC
:104DB00000B52DED048BB0EE409AF0EE609A83B012
:104DC00051EC190BFBF70EFD41EC180B18EE100A15
:104DD00018EE901A8DED008B002818BF01200843B3
:104DE00020F00040C0F17F6000F1E040C00F14D01F
:104DF00019EE101A19EE900A8DED009B002918BFCC
:104E00000121084320F00040C0F17F6000F1E04044
:104E1000C00F04BF012000F017F8B0EE480A03B03D
:104E2000F0EE680ABDEC048B00BD02E008C8121F5A
:104E300008C1002AFAD170477047002001E001C183
:104E4000121F002AFBD1704701490860704700001B
:104E5000A00000202DE9FF5F82B00021DDE90430D1
:104E6000020DDDF840B0034318D044F61050A2F212
:104E7000FF3242431514119801281FD0A5EB0B00F7
:104E8000401C5FEA000A4FF000064E4FDFF83891F1
:104E9000B046504615D5CAF1000413E0119801241C
:104EA0004AA3012801D16FEA0B010298119AC0E9C7
:104EB0000031C0E9024206B0BDE8F09FCBF100002E
:104EC000DFE704460021404A491842EB0450CDE98F
:104ED000001012E0E00707D032463B464046494604
:104EE000FBF758FA8046894632463B46104619463B
:104EF000FBF750FA06460F466410002CEAD1DDE9B4
:104F00000401DDE90023BAF1000F06DAFBF742FAEB
:104F100042464B46FBF73EFA05E0FBF7ADFA424648
:104F20004B46FBF7A9FA04460E460022284BFBF736
:104F3000C3FC03D84FF0FF30014607E00022254BA9
:104F400020463146FBF77FF9FBF79DFC102409E072
:104F5000002C0ADB0A220023FBF732F9039B3032D4
:104F60001A55641E50EA0102F2D1641C039AC4F17E
:104F700011031444119A012A03D0012208430DD1D0
:104F80000AE0084304D000204FF0110B119072E7A3
:104F9000A3EB0B056D1E0DE05B4504DD4FF0000239
:104FA00005F1010504E003DA4FF00002A5F1010567
:104FB000002AECD002981199C0E90231C0E90045FD
:104FC00079E70000000014400000F03F30000000CE
:104FD0000000F0430000E03F2DE9FF4F95B09B46F5
:104FE0008946064600250FE2252877D1002427466A
:104FF000F84A0121059400E0044316F8013F203BE4
:1050000001FA03F01042F7D130782A2811D06FF05E
:105010002F033078A0F13002092A16D8059A44F0FF
:10502000020402EB820203EB42021044761C05905C
:10503000EFE759F8042B0592002A03DA504244F4B2
:105040000054059044F00204761C30782E2816D1C6
:1050500016F8010F44F004042A280DD06FF02F0237
:105060003078A0F13003092B09D807EB870302EB56
:105070004303C718761CF3E759F8047B761C307895
:105080006C280FD006DC4C2817D068280DD06A2871
:1050900014D104E0742810D07A280FD10DE044F424
:1050A00000140AE044F4801401E044F440147278DF
:1050B000824202D104F58014761C761C3078662872
:1050C0000BD013DC582877D009DC002875D0452890
:1050D000F6D04628F4D047281AD19DE118E063287D
:1050E00035D0642879D0652812D195E1702873D025
:1050F00008DC6728F1D069286FD06E280DD06F28A2
:1051000006D1B5E073282CD0752875D0782874D0D6
:105110005A46179990476D1C75E1C4F30250022856
:1051200009D003280DD0D9F8001004280DD00D6047
:1051300009F1040967E1D9F80010EA17C1E9005242
:10514000F6E7D9F800100D80F2E70D70F0E719F8D6
:10515000041B8DF8001000208DF80100EA460120A4
:1051600003E059F804AB4FF0FF3061074FF0000146
:1051700002D40DE008F101018846B9420FDA8045FA
:10518000F8DB1AF808100029F4D108E008F1010151
:1051900088468142FADB1AF808100029F6D10598F2
:1051A0005B46A0EB080721463846179A00F094FAB0
:1051B000284400EB080507E04DE029E10DE01AF86E
:1051C000010B5A4617999047B8F10108F7D25B4690
:1051D00021463846179A13E142E00A220092C4F3AE
:1051E00002524FF0000A022A08D059F804CB032AD1
:1051F0004FEAEC710AD00DE029E02AE009F107013D
:1052000021F00702F2E802C1914609E00FFA8CFC96
:105210004FEAEC71042A03D14FFA8CFC4FEAEC718F
:10522000002907DA0A460021DCF1000C61EB0201DB
:105230002D2202E0220504D52B228DF80420012224
:1052400003E0E20701D02022F7E7904659E00A2167
:1052500002E010220DE010214FF0000A00910BE057
:1052600010224FF0000A44F004040827009203E0E3
:1052700008224FF0000A0092C4F30252022A05D01D
:1052800059F804CB0021032A08D009E009F10701ED
:1052900021F00702F2E802C1914605E01FFA8CFCFA
:1052A000042A01D10CF0FF0C4FF00008220728D58A
:1052B000702806D0009B83F0100353EA0A0305D040
:1052C0000EE040228DF80420012208E05CEA010291
:1052D00006D030228DF804208DF805000222904679
:1052E000009B83F0080353EA0A030AD15CEA010237
:1052F00001D1620705D530228DF804204FF0010856
:105300007F1E582804D034A003900EA802900DE010
:1053100036A0F9E753466046009AFAF751FF8446F3
:105320000398825C0298401E029002705CEA0100C1
:10533000F0D1029806A9081A00F1200A600702D5E8
:1053400024F4803400E00127574502DDA7EB0A0072
:1053500000E0002000EB0A01009005984144401A4B
:105360000590E00306D45B462146179A059800F0A5
:10537000B3F90544002706E001A85A46C05D179915
:1053800090476D1C7F1C4745F6DBE0030CD55B4660
:105390002146179A059800F09FF9054404E0302053
:1053A0005A46179990476D1C0099481E0090002995
:1053B000F5DC08E0029802995A460078491C0291EF
:1053C000179990476D1CBAF10001AAF1010AF1DCAE
:1053D00065E10000092801003031323334353637B9
:1053E0003839616263646566000000003031323331
:1053F00034353637383941424344454600000000D1
:1054000000F058F90544761C307800287FF4ECADA4
:1054100019B02846BDE8F08F620700D4062709F1CD
:10542000070222F0070CFCE80223E14603F00048E3
:105430005FEA080C02D00FF2702C0DE05FEA045C0A
:1054400002D50FF2682C07E05FEAC47C02D00FF2AD
:10545000602C01E0AFF2700C4FF0FF3823F00043F6
:10546000CDF850C065280CD006DC452809D0462868
:105470001DD047283DD13DE0662818D067287ED151
:1054800038E00021112F01DB112000E0781CCDE96C
:10549000000106A90EA8FFF7DDFCDDE90F010E9A59
:1054A00003910021009207F1010A04914DE04FF0B1
:1054B00000400097CDE9011006A90EA8FFF7CAFC2D
:1054C000DDE90F0203920E9B11990022DDF80CA07A
:1054D0000093049211B9791C00EB010AB7EB0A00A2
:1054E00004D4C0F1FF3007F1010A0490AAEB0700D1
:1054F000019044E0012F00DA01270021112F01DD86
:10550000112000E03846CDE9000106A90EA8FFF7FA
:10551000A1FCDDE90F010E9A039100210491009294
:10552000BA4621070CD40399514500DA8A46BAF1EC
:10553000010F05DD009AAAF10101515C302908D064
:10554000B84202DA10F1040F06DA0121CDE90110A8
:1055500015E0AAF10101E9E7002805DC04990144FE
:105560000491AAEB000102E0411C514500DD8A468E
:105570000499401A401C01904FF00040029020070F
:1055800004D40198504501DBCDF8048000208DF84B
:105590004F0002980DF14F07B0F1004F25D02B209E
:1055A0000E9002984FF0020800280CDA4042029058
:1055B0002D200E9007E00A210298FBF738F83031D1
:1055C000029007F8011DB8F10001A8F10108F2DC12
:1055D00002980028EFD1791E0E980870307800F0FC
:1055E000200040F0450007F8020D12A8C01B00F192
:1055F00007081498007800B1012000EB0A01019817
:1056000001EBE07105984144401A401E0590E0030B
:1056100006D45B462146179A059800F05DF80544CC
:105620001498007818B15A46179990476D1CE003FA
:1056300024D55B462146179A059800F04DF805449D
:105640001CE00498002807DBDDE90301884203DD44
:105650000098405C179901E0179930205A4690470E
:10566000049805F10105401C04900198401E01902A
:1056700004D12E205A46179990476D1CBAF10001AB
:10568000AAF1010ADDDC05E017F8010B5A4617996B
:1056900090476D1CB8F10001A8F10108F4DC5B46ED
:1056A0002146179A0598ABE62D0000002B0000005C
:1056B000200000002DE9F041044600251E46174653
:1056C000880404D405E039462020B0476D1C641ED0
:1056D000F9D52846BDE8F0812DE9F04104460025C2
:1056E0001E469046C80301D5302700E020278804D5
:1056F00004D505E041463846B0476D1C641EF9D517
:105700002846BDE8F0810A68531C0B601070704792
:1057100013B54FF6FF73012269460248FDF7F7FD06
:1057200000981CBDD8010020FCF794FDFEF74EFF49
:10573000FEF748F8FEF728F8FEF7F2F8FEF70CF946
:10574000FEF76EF8FEF724F9FEF7CEF8FEF7B0F894
:10575000FEF78AF8FDF7B2FEFEF766F90848FFF794
:10576000CDFAFEF74FF9FDF721FFFFF75BFAFEF7E1
:10577000A9FB0448FDF766F9FEF7AAFBFCE7000069
:1057800048010020B8000020000610160006101680
:1057900000000000000000000102030406070809E1
:1057A0000000000001020304C857000800000020A8
:1057B000A40000002A4E00086C580008A400002035
:1057C000240B00003A4E0008010000001000000009
:1057D000000000000024F4000000000100000000B0
:1057E00000000000000000000000000000000000B9
:1057F00000000000000000000000000001000100A7
:105800000000000000000000000000000000000098
:10581000000000009A9961420000000000000000B2
:105820000000000000000000000000000000000078
:105830009A99193F00000000CDCCCC3D000000003B
:105840000000000000000000BC0700200000000075
:105850000000000000000000000000000000000048
:0C5860000000000000000000000000003C
:040000050800018965
:00000001FF
